:020000040800F2
:10000000E027002091020008990200089B020008E6
:100010009D0200089F020008A102000800000000E5
:10002000000000000000000000000000A302000823
:10003000A502000800000000A70200086D290008C2
:10004000AB020008AB020008AB020008AB020008DC
:10005000AB020008AB020008AB020008AB020008CC
:10006000AB020008AB020008AB020008AB020008BC
:10007000AB020008AB020008AB020008AB020008AC
:10008000AB020008AB020008AB020008AB0200089C
:10009000AB020008AB020008AB020008AB0200088C
:1000A000AB020008AB020008AB020008AB0200087C
:1000B000AB020008AB020008AB020008AB0200086C
:1000C000AB020008AB020008AB020008AB0200085C
:1000D000AB020008692A0008B12A0008AB02000838
:1000E000AB020008AB020008AB02000800F002F807
:1000F00000F0B2F80AA090E8000C82448344AAF110
:100100000107DA4501D100F0A7F8AFF2090EBAE80D
:100110000F0013F0010F18BFFB1A43F0010318473B
:10012000387D0000587D00000A444FF0000C10F8A4
:10013000013B13F0070408BF10F8014B1D1108BF65
:1001400010F8015B641E05D010F8016B641E01F805
:10015000016BF9D113F0080F1EBF10F8014BAD1C55
:100160000C1B09D16D1E58BF01F801CBFAD505E073
:1001700014F8016B01F8016B6D1EF9D59142D6D3CD
:10018000704700000023002400250026103A28BFF5
:1001900078C1FBD8520728BF30C148BF0B607047F9
:1001A0006E2900F0FF83702900F05385662907F05F
:1001B0006185652907F05E85672907F05B85612900
:1001C00007F05A8503681B0A28BF41F0800169299E
:1001D00000F0C280642900F0BF80752900F0BC8067
:1001E0006F2900F0E084782900F01F85E92900F0EC
:1001F0007B84E42900F07884F52900F07584EF29E8
:1002000000F0DD84F82900F01E850368DB0928BFB3
:1002100041F08001632901F05581732901F05A8171
:10022000E32901F06581F32901F06A81002070471C
:100230001FB500F06AFA01F06FFB040000200021F6
:1002400007F002FA401C60600020002107F0E6F988
:10025000E0601FBD10B510BD01F031FB1146FFF786
:10026000E7FF05F0B9F801F00DFC03B4FFF7F2FF6A
:1002700003BC01F011FC0000EFF31080704780F325
:1002800010887047EFF31080704780F31088704734
:100290000948804709480047FEE7FEE7FEE7FEE71A
:1002A000FEE7FEE7FEE7FEE7FEE7FEE70448054956
:1002B000054A064B70470000E5290008ED000008DC
:1002C000E00F0020E0270020E01F0020E01F0020BA
:1002D0000B460146184600F097BB00000FB41CB552
:1002E000084B06AA7B4469460090059800F073FB12
:1002F00004460020694600F081FB20461CBC5DF8E6
:1003000014FB00001507000070B5044685690068FD
:10031000C10601D5302600E02026C00707D070BDF9
:10032000D4E9012130469047206A401C20626D1EAE
:10033000F6D570BD70B5044685690078C00707D151
:1003400070BDD4E9012120209047206A401C206222
:100350006D1EF6D570BD00002DE9F0410646002463
:1003600010687529314616A510D000F087FA0028CC
:1003700002DA404213A507E031688A0701D512A5C9
:1003800002E0490704D511A5012401E000F07FFA3D
:1003900000210A2206F1240709E0B0FBF2FCB0FBC1
:1003A000F2F302FB1C00303078541846491C002838
:1003B000F3D123462A463046BDE8F04100F099BA11
:1003C000000000002D0000002B00000020000000B5
:1003D0002DE9F05F894604464FF0000ADFF874B15A
:1003E000FB44C0F820A02046E1688847002874D06C
:1003F000252806D0D4E901219047206A401C2062BC
:10040000F1E700265F462046E16888472028054638
:1004100007DB312D05D2781910F8200C08B10643FE
:10042000F1E7B00701D526F00406C4F81CA00027A8
:10043000C4F818A02A2D09D0284602F041FC38B390
:1004400004EB8708303DC8F8185019E059F8041B30
:10045000204604EB87029161E1688847012F054639
:1004600018D1E069002820DA26F020061DE0D8F82F
:10047000180000EB800005EB40003038C8F8180089
:100480002046E1688847054602F01AFC0028EED1B4
:10049000012F0AD02E2D08D12046E16888477F1C05
:1004A0000546022F46F02006C4DBA069002803DAC7
:1004B000404246F00106A061F00701D026F0100688
:1004C0006C2D0BD0682D09D04C2D39D06A2D35D02C
:1004D000742D35D07A2D33D016E038E0E1682F4600
:1004E00020468847B842054609D16C2F26D04FF4E4
:1004F0008060E168064320468847054604E06C2F8B
:100500001AD04FF4807006430DB3A5F141001928AD
:1005100002D8203546F400664A4629462046266021
:100520004E46FFF73DFE80B101280BD0F61D26F0A8
:10053000070000F1080956E74020E4E78020D8E7EB
:100540000020D6E706F104094DE7284652E7206A65
:10055000BDE8F09FD77800000FB400B58DB010A9AA
:10056000099000910B904FF0FF300A9000200C9002
:10057000064878440690064878446A4607900F99E2
:1005800009A800F085FB0DB05DF814FB3B070000E7
:10059000530700002DE9FF5F1D464FF0FF3B9146DA
:1005A0004FF000085F46D5E90146A96901987F1C14
:1005B0008847296A824688470028F6D1BAF1FF3F6A
:1005C0000CD0002E24F4C06419DD600614D5BAF1F5
:1005D0002B0F09D0BAF12D0F0ED103E0584604B00D
:1005E000BDE8F09F44F48064A96901987F1C8847A6
:1005F000761E8246002E02DDBAF1300F03D0B9F12B
:10060000000F26D032E0A969761E01987F1C44F4C1
:1006100000748847002E824605DDBAF1780F06D0B7
:10062000BAF1580F03D0B9F1000F10D01EE0B9F1A4
:10063000000F02D0B9F1100F18D1A969761E0198E8
:100640007F1C24F4007488478246102002E00820B2
:1006500000E00A20814609E0A96908FB0908761E26
:1006600001987F1C44F4007488478246002E05DD03
:100670004946504600F0F8FA0028EDDAE969019899
:100680008847A00502D46FF00100A8E7E00725D154
:10069000600613D5600502D5C8F1000000E04046B1
:1006A00029680A1D2A600968220501D5087015E02D
:1006B000220701D5088011E008600FE02868011DBD
:1006C00029600068210502D580F8008006E0210736
:1006D00002D5A0F8008001E0C0F8008038467EE72F
:1006E0000B4910B5A1F17C020A4CC2E9371237213F
:1006F00006E000EB104342F82130074B00FB0340BB
:100700000B1EA1F10101F4DC10BD0120E8E700009F
:10071000180F0020E119D666CD0D010030B5054651
:100720000B462A4613F8014B12F8010B08B1A04200
:10073000F8D01CB1002802D06D1CF1E7284630BD6E
:1007400040EA0103024630B59B0710D14FF0013457
:1007500000E008C208C91D1B9D4315EAC41FF8D05C
:1007600013F0FF0102F8011B0DD01B0AF8E711F886
:10077000013B002B02F8013B05D011F8013B002B97
:1007800002F8013BF3D130BD032A40F2308010F073
:10079000030C00F0158011F8013BBCF1020F62441C
:1007A00098BF11F801CB00F8013B38BF11F8013BAD
:1007B000A2F1040298BF00F801CB38BF00F8013B5A
:1007C00011F0030300F02580083AC0F0088051F8CA
:1007D000043B083A51F804CBA0E80810F5E7121DD5
:1007E0005CBF51F8043B40F8043BAFF30080D207F4
:1007F00024BF11F8013B11F801CB48BF11F8012BC0
:1008000024BF00F8013B00F801CB48BF00F8012BE2
:10081000704710B5203AC0F00B80B1E81850203A6C
:10082000A0E81850B1E81850A0E81850BFF4F5AF90
:100830005FEA027C24BFB1E81850A0E8185044BF1A
:1008400018C918C0BDE810405FEA827C24BF51F887
:10085000043B40F8043B08BF7047D20728BF31F87B
:10086000023B48BF11F8012B28BF20F8023B48BFCC
:1008700000F8012B704770477047704709684A05B8
:1008800001D540B27047C905FCD500B27047096870
:100890004A0501D5C0B27047C905FCD580B2704782
:1008A00070B50C460546012A05D02878800600D58B
:1008B000EA69002302E0012305E05B1C934202D2B7
:1008C000E05C0028F9D1A869E618C01AA861286A76
:1008D000184428622846FFF717FD04E0D5E90121F6
:1008E00014F8010B9047B442F8D32846FFF722FDD5
:1008F00070BD2DE9F0470D4699469246044600F139
:1009000024080168880604D5E06921F010012160FF
:1009100000E00120A84201DD471B00E00027A1699B
:100920007A1902EB0900081AA0612078C00602D4E7
:100930002046FFF7E9FC002608E0D4E901211AF877
:1009400006009047206A401C761C20624E45F4DB6E
:100950002078C0060AD52046FFF7D6FC06E0D4E989
:10096000012130209047206A401C2062381EA7F1E8
:100970000107F4DC07E0D4E9012118F805009047ED
:10098000206A401C2062281EA5F10105F3DC2046E8
:10099000FFF7D0FC2078000602D50220BDE8F087E2
:1009A0000120FBE711680268006A530501D5087051
:1009B0000AE0D30501D5088006E0130603D5C21767
:1009C000C1E9000200E008600120704701694A1C8B
:1009D00002610878704700B58FB0CDE90131002180
:1009E000059105497944CDE9031011466846FFF7A2
:1009F000EFFC0FB000BD0000E5FFFFFF0A6802F842
:100A0000010B0A6070470000074B70B50D467B4430
:100A1000FFF7E1FF0446284603F0C7FA10B14FF094
:100A2000FF3070BD204670BD9F3D00002DE9FF5F87
:100A300015468A460446DFF8AC80F8440027D8E91A
:100A400000103E46CDE9001010E03AF816106A4654
:100A500002A800F013FF411C07D02178890603D5B6
:100A6000E269391891420DD80744761C2078800637
:100A700002D5E069B84205DDAE42E6DB3AF8160081
:100A80000028E2D1A069C01BA0612046FFF73CFC12
:100A9000D8E90010CDE90010002017E03AF818104E
:100AA0006A4602A800F0EAFEB0F1FF3F81460BD093
:100AB00000250DF1080B05E0D4E901211BF8050024
:100AC00090476D1C4D45F7D308F10100B0428046B8
:100AD000E4DB206A384420622046FFF72BFCBDE8A7
:100AE000FF9F00008E7200002DE9F0418046D21D6C
:100AF00022F007020025D2E90002F52915A614D03C
:100B0000011E72F1000106DA0023D0EB030063EB53
:100B1000020211A608E0D8F800108B0701D50FA635
:100B200002E0490701D50EA601251146002408F16F
:100B3000240704E000F0E0F830323A55641C50EA33
:100B40000102F7D12B46324621464046BDE8F0412E
:100B5000FFF7CFBE000000002D0000002B000000BA
:100B60002000000030B4002100F1240408E002F06D
:100B70000705D208303542EA4372DB086554491C48
:100B800052EA0305F3D10468002310A2250707D514
:100B9000A40600D421B1C46901230DA2641EC4615E
:100BA00030BCFFF7A6BE10B5044621461068FFF71B
:100BB0006EFE02462046BDE810400023D2E7D21D5B
:100BC00022F00701D1E90023CCE70000000000007B
:100BD00030000000F0B40D460188090502D5214C13
:100BE0007C4402E01F4C7C440E34002100F12406BA
:100BF00008E002F00F071209E75D42EA03721B09E1
:100C00007754491C52EA0307F3D1027800231207F4
:100C100004D5702D06D009B1022311342246F0BC50
:100C2000FFF767BE01231034F8E770B504460D46A0
:100C300021461068FFF72BFE024629462046BDE8F4
:100C400070400023C6E7D21D22F00703D3E900233A
:100C5000C0E70368126843F0200303600823C36100
:100C60000023B7E7F07000003A2800D2303820F0B7
:100C70002002412A01D3A2F13700884201D34FF06C
:100C8000FF307047026811441378016018467047BE
:100C9000D1600549794451610449794411620021C8
:100CA0001161114600F030BCEDFFFFFFE5000000D0
:100CB000426842B1016811F8013B23B1521EC0E9FC
:100CC0000012184670470121C160881E70474268B3
:100CD0005AB1C368016843B983688B4205D0491E85
:100CE000521CC0E90012002070474FF0FF307047DF
:100CF00000487047800F002030B5B0F10A024FEA7B
:100D0000900E71F100034EEA817EB0EB0E0061EBB4
:100D100091014FEA101E4EEA017E10EB0E0041EBEE
:100D200011114FEA102E4EEA016E10EB0E0041EB4E
:100D300011214FEA104E4EEA014E10EB0E0041EB2E
:100D40001141401841F100014FEAD00040EA4170E2
:100D50004FEAD10110EB80054FEA810444EA907418
:100D600044EB01046D1944EB0404521BA3414FF002
:100D7000000348BF0A3200D530BD401C41F10001DC
:100D800030BD10B5044600F0BFFD0068005D00F006
:100D9000010010BD70472DE9FF4F0C461E464FF075
:100DA000FF378BB0D2E90001DDF860800A908A46F7
:100DB000C1F30A5505B93D46002108464FF0000031
:100DC000BAF1000F00F4400005DA00EB80004FF4A8
:100DD000400101EA50004FEA9059B9F1010F00DDDE
:100DE000B9460A9850EA4A000ED044F61050A5F2CF
:100DF000FF3545432F14B8F1000F1ED07542291E50
:100E00001EDDC9F100021CE0B8F1010F4FF0000037
:100E100001D0302103E0F24305E02154401CB042F0
:100E2000FBDB30460022002121540B99C1F80880D9
:100E3000C1E900200FB0BDE8F08FBD1B6D1CDEE7DF
:100E40004A4600DA694206A800F0AAFD06AB93E81C
:100E5000070003AB83E8070050460A9900F062FEE2
:100E60008DE80700A0F500501F3800900398002D72
:100E70000ADD42F21F014A460844002303A90390F9
:100E8000684601F0CBF809E0A0F500504A461F384B
:100E9000002303A90390684601F0D5F88DE8070008
:100EA0000004000C03D04FF0FF30410800E0104672
:100EB000B8F1000F03D00022009215461EE0751E07
:100EC00005D4FFF719FF303262556D1EF9D5B346D0
:100ED0000122084302D000227F1C04E02078302841
:100EE00001D100227F1E002A099784D01DE0112D18
:100EF00007DAFFF701FF303262556D1C50EA01023C
:100F0000F5D1084302D00098C8B10EE00021681E58
:100F100005E0235C625C63542254401E491C8142FC
:100F2000F7DBAB46A81B401E0990002004F80B001D
:100F30000B98099AC0F80880C0E9002B7AE71126BF
:100F40004FF0000857E72DE9F04F88460446D21DC0
:100F500022F0070191B0D1E90001CDE90A0101F0C9
:100F60009BFE02460B98C00F01D02D2007E02068A1
:100F7000810701D52B2002E0202101EAC000032ACD
:100F8000099001D0072A05DB03464146204600F0C0
:100F9000C7FC0BE12078800601D5E06900E006205F
:100FA000B8F1650F814606D0B8F1660F18D0B8F1D8
:100FB000670F70D131E00020B9F1110F009001DB13
:100FC000112301E009F101030AAA01A90CA8FFF706
:100FD000E2FEDDE90C70002609F10105834647E0D9
:100FE00001204B4600904FF000470AAA01A90CA827
:100FF000FFF7D1FEDDE90DB00C995D46002610B972
:1010000009F101000D18B9EB050003D4C0F1FF365A
:1010100009F10105A5EB09002BE0B9F1010F01DA97
:101020004FF001090020B9F1110F0090484601DD91
:10103000112300E003460AAA01A90CA8FFF7ABFEA2
:10104000DDE90C704D4600268346207800070AD45F
:10105000AB4500DA5D4601A8012D04DD411911F808
:10106000011C302907D04F4502DA17F1040F04DACA
:10107000012082460FE06D1EEEE7002F02DCED1B23
:101080003E4403E0781CA84200DD7D1CB81B00F143
:10109000010A4FF000472078000703D4AA4501DB7E
:1010A0004FF0FF3A0021B7F1004F0DF143088DF8E2
:1010B000431024D002202B23002F01DA7F422D235E
:1010C0000A21021EA0F1010000DC5FB197FBF1FCD8
:1010D00097FBF1F201FB1C7C17460CF1300C08F871
:1010E00001CDEEE7A8F1010003702188090501D5C3
:1010F000452100E06521A0F1010800F8011C0998D4
:101100000FA9A1EB0807FF1D00B10120411901EB58
:10111000EA70A1693844081A401EA0612078C00610
:1011200002D42046FFF7F0F8099828B1D4E901214C
:101130009047206A401C20622078C00622D52046B5
:10114000FFF7E2F81EE0002E04DBB34502DD01A844
:10115000805D00E03020D4E901219047206A401CE6
:101160002062761CAAF101005FEA000A0AD100F0B1
:10117000D3FBC0680168405CD4E901219047206A34
:10118000401C2062281EA5F10105DCDC07E0D4E943
:10119000012118F8010B9047206A401C2062381E7C
:1011A000A7F10107F3DC2046FFF7C4F8032011B0D4
:1011B00041E600002DE9F04F04460D46D21D22F015
:1011C000070089B0D0E900974846394601F064FD30
:1011D0000246F80F01D02D2307E02068810701D5D2
:1011E0002B2302E0202101EAC0038DF820300BB14F
:1011F000012000E00020032A824601D0072A04DBF8
:101200002946204600F08CFB3FE12078800601D47F
:101210000D2500E0E569C7F30A560D2D49DA0021D6
:101220004FEA175B08464FF00000002F00F4400023
:1012300007DA00EB80004FF4400100EBD07001EAC8
:1012400060008115012901DD4FF0FF3100224FEAD6
:10125000850CBCF1180F06D31346ACF118004FF003
:101260008052C24003E04FF4801323FA0CF30CF1D8
:101270000C0CBCF1200F04D3ACF1200C09FA0CF0DB
:1012800001E007FA0CF000294FF0004801DD18B921
:101290000FE00ED140450CD319EB02095F4121B993
:1012A000404502D19F4329EA0209BBEB175F00D0FA
:1012B000761C2088000502D57B48784402E07A48F5
:1012C0007844193808AA302302F80A30037C0AF15E
:1012D0000101002E0AF1020A53546A4602DC4FF063
:1012E000300101E04FF031014FF001088DF800109E
:1012F00002D0A6F2FF3603E059EA470100D06B4E58
:10130000002D02DC2178090704D54FF002082E21B8
:101310008DF80110C44600210BE0C7F303433F01E1
:10132000C35C491C6D1E02F80830052908F101084C
:1013300001DA002DF1DC00210CE000EB1973491CEF
:101340001B786D1E082902F808304FEA091908F1C8
:10135000010801DA002DF0DC21688B0602D516E0C9
:10136000A8F10108E04505DD02EB080313F8013C94
:10137000302BF5D0B8F1000F09DD02EB080313F8AC
:10138000013C2E2B03D1090701D4A8F10108002D3F
:1013900005DD3E2102F808106D1E08F10108407CB1
:1013A000002E02F8080008F1010804DA2D20764228
:1013B00002F8080002E02B2002F808000A214FF48E
:1013C0007A70864208F101080BDB96FBF0F33033AC
:1013D00002F8083096FBF0F308F1010800FB1366F1
:1013E00001E0642E0CDB642096FBF0F3303302F84E
:1013F000083096FBF0F308F1010800FB136601E0EA
:101400000A2E06DB96FBF1F0303002F8080008F1F6
:10141000010896FBF1F001FB1060303002F8080083
:10142000A16908F1010808EB050202EB0A00081A9D
:10143000A0612078C00602D42046FEF765FF216A2D
:1014400008AE01EB0A00206204E0D4E9012116F89D
:10145000010B9047BAF1010AF7D22078C00602D5F5
:101460002046FEF751FF6E4609E016F8010B3E28B4
:101470000FD0D4E901219047206A401C2062B8F1C6
:101480000108F2D22046FEF755FF09B00320BDE85F
:10149000F08F206A2844206203E0D4E90121302043
:1014A00090476D1EEBD3F8E7516A000002FCFFFF86
:1014B00010B5436913B1AFF3008001E0FFF7F0F915
:1014C000012010BD127800F124010A7000224A7038
:1014D0000122EDE711684FF0FF32E9E710B54369EB
:1014E00013B1AFF3008001E0FFF7A0FA012010BDB7
:1014F000128800F1240182840022C2840122EDE7D7
:1015000011684FF0FF32E9E72DE9F34F4FF0000A81
:101510000C4656468DB001200C9001F10C000B904A
:1015200062690B9801219047051E2DD0252D2CD0E6
:10153000216A8847C0B162690B9801219047216AEE
:1015400088470028F7D16269411E0B98904700E058
:10155000761CA1690D988847216A88470028F7D131
:10156000E1690D988847DBE7A1690D988847A84293
:10157000074601D1761CD3E7E1690D9888477F1CA7
:1015800002D1BAF1000F6FD06BE162690B980027AE
:101590003D46394690472A2804D162690B980121BB
:1015A00090470125DFF8D08262690B9801219047AE
:1015B000A0F130010A290AD24745E5DC07EB870193
:1015C00000EB4107303FDFD445F01005ECE7E906BA
:1015D00001D46FF000476C280AD04C2814D068283A
:1015E00015D06A280DD074281CD07A281AD01DE096
:1015F00062690B98012190476C2802D045F00405E0
:1016000014E045F002050DE045F020050AE06269AE
:101610000B9801219047682802D045F0080505E0A5
:1016200045F4006562690B9801219047C4E90157B0
:1016300065283DD019DC58287AD00CDC452837D0F5
:1016400004DC252826D041289ED131E046282FD021
:10165000472899D12CE05B2877D0612828D06328CF
:101660007CD0642823D15AE0F6E06F2848D008DC0B
:1016700066281DD067281BD0692821D06E2816D176
:1016800027E0702845D0732868D0752847D078287F
:101690000DD14DE0A1690D988847252805463FF4F6
:1016A00069AFE1690D9888476D1C3FF46AAFD8E0D7
:1016B0000D9923466A466FF00100AFF30080C5E044
:1016C00045F0400023464FF000026060A80736D482
:1016D0003EE0E8077FF447AF2068011D2160006805
:1016E000290501D506701BE7290701D5068017E7F4
:1016F000A90703D5F117C0E9006111E706600FE7FC
:1017000045F0400023464FF008026060A80716D459
:101710001EE040F60E0125EA0100606016E045F08B
:10172000400023464FF00A026060A80707D40FE08C
:1017300045F040006060A80708D5234610220D99A7
:101740006FF00100AFF3008080E007E01022234635
:101750000D996FF00100FEF71DFF77E04FF00009D3
:1017600063284F46C8464B46CB4602D05B2806D07E
:1017700038E0E80601D40120A060012732E0626968
:10178000D4F80CB00B98012190475E2807D14FF098
:10179000010949466269D4F80CB00B989047216959
:1017A00039B900210A4603AB43F82120491C082916
:1017B000FADBD8B3216949B308F1010862690B98D3
:1017C000012190475D28F4D1B9F1000F09D0002024
:1017D00003A951F82020D24341F82020401C0828BA
:1017E000F7DB03AB2069002820794FEA40701ED058
:1017F0005B462246CDF80080CDE901970D9900287F
:101800006FF0010020DAAFF300801FE0C11703AAD8
:1018100000EBD1614B1121F01F0102EB8302411A51
:1018200013680120884003431360C7E719E00D994E
:10183000224600286FF00100009702DAAFF3008023
:1018400004E0AFF3008001E0AFF3008000280ADA83
:10185000401C06D10C9820B14FF0FF300FB0BDE80E
:10186000F08F5046FAE7E90701D10AF1010A064470
:1018700000200C9054E60000CCCCCC0C70B5164681
:101880000C46054600F040F8036893F80101012872
:1018900006D0FF2C0FD8185D68B101202C7070BDE8
:1018A000D3F807013246214603F2071303442846C2
:1018B000BDE8704018474FF0FF3070BD7047754667
:1018C000FFF716FAAE4605006946534620F00700BA
:1018D000854618B020B5FEF7E9FCBDE820404FF082
:1018E00000064FF000074FF000084FF0000B21F00A
:1018F0000701AC46ACE8C009ACE8C009ACE8C009D7
:10190000ACE8C0098D46704710B500F005F8001D21
:1019100010BD00BF355D000000487047A00F0020DB
:101920002DE9F0411F46044603260168072A01F409
:10193000006004DB08B116A505E016A503E008B1B8
:1019400015A500E015A521F010002060A069C01EBB
:10195000A0610FB1401EA0612046FEF7D5FC4FB13B
:10196000D4E9012138469047206A401C2062C01CFF
:10197000206206E0206AFAE7D4E9012115F8010B9C
:101980009047761EF8D22046FEF7D4FCBDE8F081E1
:101990004E414E006E616E00494E4600696E660013
:1019A0002DE9F047814616468AB0354878440DC87F
:1019B0008DE80D0032487844801C03AC0DC884E8E3
:1019C0000D0041F69B300844372190FBF1F290FB6B
:1019D000F1F5A5F1800501FB12041B3C02D5644220
:1019E000012000E00020DFF898A080460027FA449C
:1019F000AAF1BE0A0EE0E0070AD03246684607EBBD
:101A0000470101230AEB810100F01DFB8DE807006F
:101A100064107F1C002CEED1194F7F44AE3F19E0BB
:101A2000E80715D007EB04100DF1180A90E80E0036
:101A30008AE80E00C068F04201D198190890324639
:101A4000012306A903A800F0FEFA03AB83E8070010
:101A50006D10641C002DE3D14FF00103324669463E
:101A6000B8F1000F03A802D000F0D8FA01E000F0AE
:101A7000EAFAC9E90001C9F808200AB0BDE8F08710
:101A8000F063000010B50446AFF300802046BDE8C7
:101A90001040FEF7EABB000001491820ABBEFEE78C
:101AA000260002004FF0013C50F8042B51F8043B93
:101AB0009A4221D1A2EB0C03934313EACC1317D122
:101AC00050F8042B51F8043B9A4215D1A2EB0C03B9
:101AD000934313EACC130BD150F8042B51F8043B79
:101AE0009A4209D1A2EB0C03934313EACC13DBD047
:101AF0004FF00000704700BFD01A01BAB1FA81F16F
:101B000001F0180122FA01F0CB40C1F12001DBB253
:101B1000C0B2C01A2CFA01F3D11A914311EAC311D1
:101B2000E6D170475FEA400C08BF91F0000F4FEA22
:101B30008C234FEAC12243EA51514FEA1C5018BF8F
:101B400000F5F0404FEA300018BF41F000415FEA75
:101B50006C5C00F02980BCF1FF3F08BF40F0804082
:101B60007047130C06BF12044FF0100C4FF0000C1E
:101B7000130E04BF12020CF1080C130F04BF120164
:101B80000CF1040C930F04BF92000CF1020CD30F64
:101B900004BF52000CF1010C11464FF00002A0F1FD
:101BA0001F00A0EB0C00704711F0004F08BF7047FA
:101BB00031F000413FF4D5AF0B0C06BF09044FF0E4
:101BC000100C4FF0000C0B0E04BF09020CF1080CB6
:101BD0000B0F04BF09010CF1040C8B0F04BF89002B
:101BE0000CF1020CCB0F04BF49000CF1010CCCF13D
:101BF0002003A0EB0C0022FA03F302FA0CF241EAF4
:101C0000030100F10100704720F07F4C80EA0300DF
:101C100023F07F47ACEB070303F57C5300F0004053
:101C200003F1FF032DE980494FEA154B09B44FEA50
:101C3000144325EA0B4E24EA03480FF2042606EB70
:101C4000132749083E785FEA320203FB0667C7F5AF
:101C5000000707FB06F64FEA54374FEAD64606F16F
:101C6000020607FB066CCCF1005C4FEA1C472CEA2D
:101C7000074C07FB06F40CFB06F504EB15464FEA90
:101C8000961634BF00204FF000404FEAD13706FBD4
:101C900007FC4FEA1C4C0CFB0BF7D21B03FB0CF7A9
:101CA00061EB07010CFB0EF7B0EB074072EB17423C
:101CB0000CFB08F734BFA2EB0742B2EB074261EB23
:101CC00017414FEA0C444FEA910706FB07FC4FEA25
:101CD0001C4C0CFB0BF7B0EBC74072EB573203FB0D
:101CE0000CF734BFA2EBC742B2EBC74261EB5731EE
:101CF0000CFB0EF7B0EBC70072EB57720CFB08F74A
:101D000034BFA2EBC702B2EBC70261EB5771039F6E
:101D10004FEA816141EA921104EBCC044FEAD137DA
:101D20004FEA826206FB07FC42EA90124FEA8060AB
:101D30004FEA1C4C0CFB0BF7D21B03FB0CF761EBBF
:101D400007010CFB0EF7B0EB074072EB17420CFBE0
:101D500008F734BFA2EB0742B2EB074261EB174131
:101D60004FEA8C554FEA910704EB9C2406FB07FCD5
:101D70004FEA1C4C0CFB0BF7B0EBC74072EB573231
:101D800003FB0CF734BFA2EBC742B2EBC74261EBD7
:101D900057310CFB0EF7B0EBC70072EB57720CFB20
:101DA00008F734BFA2EBC702B2EBC70261EB577171
:101DB00015EB4C254FEA816141EA92114FEA8262AC
:101DC0004FEAD13742EA901206FB07FC44F10004C7
:101DD0004FEA80604FEA1C4C0CFB0BF7D21B03FB55
:101DE0000CF761EB07010CFB0EF7B0EB074072EB51
:101DF00017420CFB08F734BFA2EB0742B2EB0742D5
:101E000061EB174115EB1C154FEA813141EA924114
:101E10004FEA823242EA90424FEA80304FEA0C7633
:101E200044F1000448EA03434EEA0B484FF0000E29
:101E3000B2EB080C71EB030724BF624639464EEB48
:101E40000E0E4FF0000B0018524149414BEB0B0BAB
:101E5000B2EB080C71EB03077BF1000B24BF624669
:101E600039464EEB0E0E4FF0000B0018524149411F
:101E70004BEB0B0BB2EB080C71EB03077BF1000B88
:101E800024BF624639464EEB0E0E51EA020718BFD8
:101E900046F0010616EB0E7655F1000254F10001F2
:101EA00003D5BDE88901BDE80088BDE88901BDE82A
:101EB0000048B619524141EB0101A3F101037047FB
:101EC00080807F7E7D7C7B7A797877767675747377
:101ED000727171706F6E6E6D6C6C6B6A6A69686836
:101EE000676666656464636362616160605F5F5ECC
:101EF0005E5D5D5C5C5B5B5A5A5959585857575642
:101F000056555555545453535252525151505050A6
:101F10004F4F4F4E4E4D4D4D4C4C4C4B4B4B4A4AF8
:101F20004A4949494848484747474746464645453C
:101F30004544444444434343434242424241414175
:101F4000002B9C4630D477002BD01CB54FEA3707C6
:101F500003B44FF010004FF01001BAF1000F06D09B
:101F6000BCF1000FDCBF40F0080040F008014FF06A
:101F700000000FBCBDE810400BF1010BBBF1010FDD
:101F800008BF5FEA170722BF12F1010211F1010138
:101F90004FF0004143F1000300F0004043EA00002D
:101FA0007047F9D35708D0E746EA064613F1400FC9
:101FB0004FEA16461FDD13F1200FDFBF16430A4616
:101FC000002120335B42BED0C3F1200746EA06461B
:101FD00002FA07F74FEA164646EA0706C3F120075A
:101FE00022FA03F201FA07F721FA03F14FF0000396
:101FF00042EA0702A7E746EA020646EA06464FEA31
:10200000164646EA0106BCBF46EA0646360C4FF0C5
:1020100000034FF000024FF0000194E72DE9804CDF
:102020009A46934670B491E8380007C831EA400CEC
:1020300048BF34EA430C03D5FFF7E6FDFFF780FF06
:10204000F0BCBDE8008C2DE9804C9A46934670B4F4
:1020500091E8380007C810F0804F08BF13F0804F98
:1020600003D100F005F8FFF76BFFF0BCBDE8008C72
:1020700020F07F4780EA030023F07F4C07EB0C033E
:10208000A3F57C5300F00040A3F1FE0392F0000F93
:1020900000F0B38095F0000F00F077802DE9014942
:1020A0004FEA11404FEA144621EA004800FB06FCC3
:1020B00024EA064708FB06F607FB08F800FB07F7CB
:1020C00018EB06484CEB164C4FEA124B18EB07483E
:1020D0004FEA15464CEB174022EA0B4E0BFB06FC71
:1020E00025EA06470EFB06F607FB0EFE0BFB07F77D
:1020F0001EEB064E4CEB164C4FF000061EEB074E47
:102100004CEB174B18EB0B0840F1000018EB0E0BD3
:1021100058EB000840F100008F1A4FF000013CBF5F
:10212000C943661B14BFB5EB040C00213CBFC94377
:10213000F61B4FEA17444EEA8E0E27EA04454FEA93
:102140001C4704FB07622CEA074C05FB07F70CFB56
:1021500005F604FB0CFC16EB074642EB174216EBA8
:102160000C4642EB1C421BEB060658EB02024141B7
:1021700046EA9E0601D5BDE80189B619524141EBF8
:102180000101A3F10103BDE801894FEA14454FEABB
:10219000114724EA054621EA074C05FB07F406FB34
:1021A00007F70CFB06F105FB0CFC11EB074144EBB8
:1021B00017444FEA124711EB0C4144EB1C4422EA4E
:1021C000074C05FB07F206FB07F70CFB06F605FBC1
:1021D0000CFC16EB074642EB174216EB0C4642EBA3
:1021E0001C456A1854F1000148BF7047B6195241A6
:1021F00041EB0101A3F10103704795F0000F37D0C7
:102200004FEA11424FEA144721EA024624EA074CFA
:1022100002FB07F106FB07F70CFB06F402FB0CFCC4
:1022200014EB074441EB17414FEA154714EB0C44FC
:1022300041EB1C4125EA074C02FB07F506FB07F7BB
:102240000CFB06F602FB0CFC16EB074645EB1745AC
:1022500016EB0C4645EB1C42121951F1000148BF28
:102260007047B619524141EB0101A3F101037047D8
:102270004FEA14454FEA114724EA054621EA074C84
:1022800005FB07F106FB07F70CFB06F24FF0000613
:1022900005FB0CFC12EB074241EB174112EB0C4221
:1022A00051EB1C4148BF7047921841EB0101A3F16B
:1022B0000103704721B1826842F00102826003E0AD
:1022C000826822F0010282607047000010B5044667
:1022D0001248844208D10121401500F019FA00216A
:1022E000601500F015FA17E00D48844208D101216D
:1022F000001500F00DFA0021201500F009FA0BE09E
:102300000848844208D10121C80300F001FA0021E5
:102310004FF4004000F0FCF910BD00000024014023
:1023200000280140003C0140014600208A6802F07C
:1023300004020AB1012000E000207047024600209C
:1023400013680B400BB1012000E0002070470146EC
:1023500000208A6802F008020AB1012000E0002093
:102360007047000030B502460020002350680F4C33
:1023700020400D790C6844EA0524204350609068A1
:102380000B4C2040D1E902542C434D7944EA4504DA
:1023900020439060D06A20F470000C7C641EE4B28C
:1023A000234340EA0350D06230BD0000FFFEF0FF3F
:1023B000FDF7F1FFF0B504460D4600200021092D80
:1023C00011DDE068A5F10A0606EB4607072606FAC6
:1023D00007F18843A5F10A0606EB460603FA06F163
:1023E0000843E0600CE0206905EB4507072606FA84
:1023F00007F1884305EB450603FA06F1084320611F
:10240000072A0FDA606B561E06EB86071F2606FAB0
:1024100007F18843561E06EB860605FA06F10843C7
:10242000606322E00D2A0FDA206BD61F06EB8607C9
:102430001F2606FA07F18843D61F06EB860605FA23
:1024400006F10843206310E0E06AA2F10D0606EBF6
:1024500086071F2606FA07F18843A2F10D0606EB50
:10246000860605FA06F10843E062F0BD816841F096
:1024700008018160704721B1826842F4A002826045
:1024800003E0826822F4A00282607047816841F014
:10249000040181607047000030B10749096841F4C8
:1024A0000001054A116005E00349096821F40001B3
:1024B000014A1160704700000824014001460248AB
:1024C00001600068704700000030024001200149AF
:1024D000886070470030024021B1026842F001027A
:1024E000026004E002684FF6FE731A400260704713
:1024F00001684FF6FE7211400160002101604160E9
:102500008160C1604B49884208D14A49083949680D
:1025100041F00F01474A083A51608AE045491431B9
:10252000884208D143490839496841F0F001414ADD
:10253000083A51607DE03F492831884208D13D4941
:102540000839496841F470613A4A083A516070E0CC
:1025500038493C31884208D136490839496841F444
:102560007041344A083A516063E032495031884240
:1025700008D130490839496841F470212D4A083A98
:10258000516056E02B496431884208D12949083905
:10259000496841F47001274A083A516049E02549E9
:1025A0007831884208D123490839496841F070617F
:1025B000204A083A51603CE01F49884206D1011F79
:1025C000096841F00F01021F116032E01A4914310D
:1025D000884208D11849091F096841F0F001164ADC
:1025E000121F116025E014492831884208D1124990
:1025F000091F096841F470610F4A121F116018E049
:102600000D493C31884208D10B49091F096841F442
:102610007041094A121F11600BE00749503188428E
:1026200007D10549091F096841F47021024A121FA8
:1026300011607047080002400804024010B50022F3
:10264000026847F6F0739A430C6A8B6823430C695F
:1026500023434C6923438C692343CC6923434C6A4D
:1026600023438C6A23431A430260CB6843600B68A0
:1026700083604B68C36010BD00F01F0201219140D0
:102680004209920002F1E022C2F8001170470000F6
:1026900029B1064A52690243044B5A6104E0034AD5
:1026A00052698243014B5A6170470000001002409A
:1026B00029B1064AD2690243044BDA6104E0034AB5
:1026C000D2698243014BDA6170470000001002407A
:1026D00029B1064A12690243044B1A6104E0034A15
:1026E00012698243014B1A617047000000100240DA
:1026F00029B1064A92690243044B9A6104E0034AF5
:1027000092698243014B9A617047000000100240B9
:1027100029B1064AD2680243044BDA6004E0034A56
:10272000D2688243014BDA6070470000001002401B
:1027300030B500210022002400232D4D6D6805F0E6
:102740000C0121B1042905D0082923D105E0294D28
:10275000056022E0284D05601FE0254D6D6805F4F9
:102760007012234D6D6805F48034022505EB92420A
:102770001CB9224D554305600BE01D4D6D6805F4F5
:1027800000351DB11B4D5543056002E01A4D554300
:10279000056002E0174D056000BF00BF144D6D6875
:1027A00005F0F0010909164D6B5C0568DD404560D8
:1027B0000F4D6D6805F4E061090A114D6B5C4568C9
:1027C000DD4085600A4D6D6805F46051C90A0C4D05
:1027D0006B5C4568DD40C560054D6D6805F44041A2
:1027E000890B084D6B5CC568B5FBF3F5056130BD21
:1027F0000010024000127A000024F40000093D009D
:102800000000002010000020014908667047000009
:102810000000424202460020044B586820F47C101D
:1028200042EA01031843014B586070470010024010
:1028300021B1028842F04002028004E002884FF693
:10284000BF731A400280704710B50022028802F45C
:1028500041520B884C8823438C882343CC882343E4
:102860000C8923434C8923438C892343CC892343FC
:102870001A430280838B4FF2FF74234083830B8AB9
:10288000038210BD10B500F001F810BD0CB500209A
:10289000019000903348006840F48030314908606E
:1028A00000BF3048006800F4003000900198401CE0
:1028B0000190009818B90198B0F5A06FF1D129489E
:1028C000006800F4003010B10120009001E0002009
:1028D00000900098012843D12348006840F0100080
:1028E000214908600846006820F003000860084697
:1028F000006840F0020008601A48406819494860C2
:102900000846406848600846406840F48060486077
:102910000846406820F47C1048600846406840F44F
:10292000E81048600846006840F08070086000BF0A
:102930000C48006800F000700028F9D00948406891
:1029400020F00300074948600846406840F0020054
:10295000486000BF0348406800F00C000828F9D127
:102960000CBD000000100240002002401A48006820
:10297000401C19490860B0F57A7F06DB002008602A
:1029800016484068401C1549486014480068401CBF
:10299000124908600120886011480068401C1049F5
:1029A000086001200D4948610D4800684FF4FA7134
:1029B00090FBF1F201FB120010B9012007490861F8
:1029C00007480068142190FBF1F201FB120010B9D6
:1029D00001200249C86070475C000020A406002066
:1029E0006000002010B51348006840F00100114954
:1029F000086008464068104908400E49486008468B
:102A000000680E4908400B4908600846006820F439
:102A1000802008600846406820F4FE0048604FF4BB
:102A20001F008860FFF72EFF4FF000600449086028
:102A300010BD0000001002400000FFF8FFFFF6FE8E
:102A400008ED00E010B50446C4EBC40000EB400004
:102A5000034A811815220348FDF796FE10BD0000B9
:102A6000970000209809002070B5104C2068058858
:102A700005F08000B8B12068011D04F1140001F0D8
:102A8000A7FA80B9002030B12168898941F080011E
:102A90002268918105E02168898921F080012268FE
:102AA000918100BF00BF00BF70BD00001400002076
:102AB00070B5104C2068058805F08000B8B120681A
:102AC000011D04F1140001F083FA80B9002030B137
:102AD0002168898941F080012268918105E021689F
:102AE000898921F080012268918100BF00BF00BF69
:102AF00070BD00003800002021B1828942F40052EC
:102B0000828104E082894DF6FF731A40828170470A
:102B10001AB1838A0B43838202E0838A8B438382C8
:102B20007047000010B504462048844209D10121B5
:102B30008803FFF7EDFD00214FF48040FFF7E8FD2B
:102B400032E01B48844209D101214804FFF7C0FD4F
:102B500000214FF40030FFF7BBFD25E0154884420B
:102B600009D101218804FFF7B3FD00214FF4802033
:102B7000FFF7AEFD18E01048844209D10121C804D6
:102B8000FFF7A6FD00214FF40020FFF7A1FD0BE0A9
:102B90000A48844208D101210805FFF799FD002168
:102BA0004FF48010FFF794FD10BD00000038014085
:102BB0000044004000480040004C004000500040ED
:102BC0002DE9F04786B005460E460024A24600BF18
:102BD000A1460027B08900B100BF2F462C8A4CF6D1
:102BE000FF700440F08804432C82AC894EF6F31049
:102BF0000440B08831890843718908430443AC819B
:102C0000AC8A4FF6FF400440B0890443AC8201A86F
:102C1000FFF78EFD1F48874202D1DDF810A001E0CA
:102C2000DDF80CA0A88900F4004040B10AEBCA000E
:102C300000EB0A1031684900B0FBF1F807E00AEB3D
:102C4000CA0000EB0A1031688900B0FBF1F864207B
:102C5000B8FBF0F004012009642101FB1089A88968
:102C600000F4004040B1322000EBC900B0FBF1F0AD
:102C700000F00700044308E0322000EB0910642153
:102C8000B0FBF1F000F00F0004432C8106B0BDE86A
:102C9000F087000000380140490050EAC12018BF09
:102CA00004204A0D18BF40F0010040F2FF72B2EB61
:102CB000515F08BF40F00200012808BF052070479F
:102CC00030380A2801D2012070470020704710B523
:102CD000044600F07BF8E0B203F014FE00F06AF85E
:102CE00010BD10B500F001F810BD00BF00BF00BF5F
:102CF0007047000010B500F031F96020FFF7E7FFE2
:102D0000054800F0C9F820B100F044F808B90120E6
:102D100010BD0020FCE70000007E560370B504469D
:102D20000D4607490D70200C4870200A8870CC7041
:102D300000F014F90421024800F093F870BD00007F
:102D40007800002010B5044620212046FFF7E6FF5A
:102D5000054800F0A1F820B100F01CF808B90120E6
:102D600010BD0020FCE70000400D030010B5044634
:102D7000D8212046FFF7D2FF054800F08DF820B19A
:102D800000F008F808B9012010BD0020FCE70000A1
:102D9000F07E0E0010B500F071F8C0F3401010BDC9
:102DA00010B5002000F044F800F068F800F01000C2
:102DB00010BD000010B500BF4FF4805002490860FC
:102DC00000BFFFF78EFF10BD100C014000BF4FF495
:102DD00080500249086000BF70470000140C014099
:102DE00070B504460E461546B6B1ADB10B200B4981
:102DF0000870200C4870200A8870CC700020087180
:102E0000FFF7E4FF0521054803F0D2FD29463046CF
:102E100003F0B0FDFFF7CEFF70BD0000780000208A
:102E200010B500F02BF800F0010080F0010010BD9B
:102E300070B5044600F022F820F00C0504F00C01F7
:102E400001EA050000F090F870BD70B504460D462B
:102E5000FFF7BCFF2946204603F08CFDFFF7AAFFD1
:102E600070BD70B504460D46FFF7B0FF29462046F9
:102E700003F09EFDFFF79EFF70BD000010B505201A
:102E80000449087002210348FFF7DFFF014840783A
:102E900010BD00007800002070B505460024012018
:102EA0000949086002E0012000F0DDFBFFF7B8FFF0
:102EB0002043041E03D1281EA5F10105F3D10020F3
:102EC00001490860204670BD740000202DE9F041E2
:102ED00006460F46144612E0F0B2C0F58075A542D2
:102EE00000D925462A463946304600F00DF810B97B
:102EF0000020BDE8F0812E442F44641B00BF002C4D
:102F0000EAD10120F5E7000070B504460D461646EB
:102F1000B5B1AEB1022010490870200C4870200AEB
:102F20008870CC7000F01AF8FFF750FF04210A48AF
:102F300003F03EFD3146284603F03AFDFFF73AFF25
:102F400041F28830FFF7A8FF20B1FFF723FF08B94F
:102F5000012070BD0020FCE77800002010B506209D
:102F6000FFF7B5FE10BD000010B50446012006496C
:102F700008704C70FFF7F2FF02210348FFF765FF6E
:102F800000F004F810BD00007800002010B5002407
:102F900002E0FFF7AAFE641C042CFADB10BD00005F
:102FA00010B5134890F8DA00401C114981F8DA0096
:102FB000084690F8DA00132802DD002081F8DA00D4
:102FC0006A220B49091D01F16A00FDF7DDFB084A81
:102FD00092F8DA1092F8D90001F0D6F9044A92F882
:102FE000DA1092F8D900012202F0C2FB10BD0000F5
:102FF0009409002010B53D4803F046FC002873D02A
:103000003B48007860B93B480068C0F3400018B9FD
:1030100001203749087010E00020354908700CE0A5
:1030200034480068C0F3400038B133A000F092FD8E
:1030300000202F490870012010BD2D48407860B94C
:103040002C48006800F0010018B901202849487098
:1030500010E00020264948700CE02648006800F087
:10306000010038B12AA000F075FD00202049487009
:103070000320E1E71E48807860B92A488068C0F3E1
:10308000C03018B901201A49887010E00020184992
:1030900088700CE023488068C0F3C03038B11CA0B1
:1030A00000F058FD0020124988700420C4E7104841
:1030B000C07860B91C480068C0F3800018B90120CE
:1030C0000B49C87010E000200949C8700CE0164890
:1030D0000068C0F3800038B10DA000F03BFD002077
:1030E0000349C8700220A7E70020A5E7780E00205A
:1030F000880000200808014053656E6420736365F2
:103100006E6520737461727420636D64000000004A
:1031100053656E64207363656E652073746F7020F1
:10312000636D640000100140080C014070B5044656
:103130000D4600202071401EE0622946204602F024
:1031400067FA08B1032070BD94F82E1294F82F028C
:1031500041EA00204AF65521884201D00220F2E7D8
:1031600094F86900010694F8680041EA004194F877
:10317000670041EA002094F86610084320F07F4081
:103180000D49884201D10020DDE794F88500010651
:1031900094F8840041EA004194F8830041EA002059
:1031A00094F88210084320F07F400349884201D1FF
:1031B0000020C8E70120C6E746415400024600E06F
:1031C000521C107810B110788842F9D110787047ED
:1031D0000246891E5069801E884201D8002070472F
:1031E0009378906A01FB0300F9E72DE9F041054669
:1031F0000E460027002405E0295D384600F007F858
:103200000746641CB442F7DB3846BDE8F081021281
:1032100042EA002290B24840C0F30312504080EAD4
:10322000003290B20206120D80EA420070472DE98A
:10323000F05F07460D4690463E464FF0FF39B8F125
:10324000000F01D0FFF742F90AE056F804AB5046F0
:1032500002F008FC8346FFF731F981462D1F00BFBD
:10326000042DF2DA484602F0FDFB0446002D43D05F
:103270004846FFF723F98346012D04D0022D13D0D1
:10328000032D36D122E0317881EA040002F0EAFB16
:103290004FEA106A5046FFF711F98146484602F09E
:1032A000E1FB80EA142425E0318889B281EA040038
:1032B00002F0D8FB4FEA104A5046FFF7FFF881466C
:1032C000484602F0CFFB80EA144413E0316821F055
:1032D0007F4181EA040002F0C5FB4FEA102A504604
:1032E000FFF7ECF88146484602F0BCFB80EA146424
:1032F00000E000BF00BF00BFE043BDE8F09F2DE944
:10330000F05F04460D4616462F46FFF7DFF84FF0F4
:10331000FF3AE4434FF0000815E05046FFF7CEF8BF
:1033200017F8019B89EA040002F09CFB4FEA106B3E
:103330005846FFF7C3F88246504602F093FB80EAF6
:10334000142408F10108B045E7D3E043BDE8F09F3D
:1033500010B589234840002207E000F080040CB13A
:1033600080F089004406200E521C082AF5DB10BDAF
:103370002DE9F04704468946B9F1000F06D1E76808
:1033800017B16069B84211D801270FE049462046BD
:1033900001F024FA0646022E02D20120BDE8F08791
:1033A0006069B04201D93046F8E74F463D4600BF5C
:1033B0006D1C6069A84204D80225BD4201D90020D5
:1033C000ECE72946204601F009FA064606B909E06D
:1033D000701C08B1012E01D13046DFE7BD42E7D1B4
:1033E0000020DBE700BF6FF070422946204602F064
:1033F000E1F98046B8F1000F08D1B9F1000F05D00E
:103400002A464946204602F0D5F98046B8F1000F19
:103410000BD1E5602069401C78B12069401E206115
:10342000607940F00100607107E0B8F1010F02D14E
:103430004FF0FF3000E0012005462846AEE70000CF
:103440002DE9F35F0198D0F8009001E009F101093E
:1034500099F800002F28F9D099F800005C28F5D0E1
:10346000009886690B222021304602F065F800257D
:103470002F46AB464FF0080A00BF58460BF1010B30
:1034800019F80040202C03DD2F2C01D05C2C00D13A
:1034900057E02E2C01D057450DD3BAF1080F01D1BA
:1034A0002E2C02D00620BDE8FC9F08274FF00B0A07
:1034B000A806050EE1E7802C01DB45F00305812C11
:1034C00001DB9F2C03DDE02C20DBFC2C1EDC5846AE
:1034D0000BF1010B19F80080B8F1400F02DBB8F1D5
:1034E0007E0F05DDB8F1800F06DBB8F1FC0F03DCC1
:1034F000AAF10100B84201D80620D4E738467F1C63
:10350000345438467F1C06F8008019E0214620A07C
:10351000FFF754FE08B10620C5E7412C04DB5A2C06
:1035200002DC45F0020508E0612C06DB7A2C04DCA5
:1035300045F00105A4F12000C4B238467F1C345484
:103540009BE700BF09EB0B0101980160202C01DC17
:10355000042000E0002004460FB90620A3E73078DD
:10356000E52801D105203070BAF1080F01D1A80675
:10357000050E05F00300012801D144F0100405F008
:103580000C00042801D144F00804F47200208AE7FA
:10359000222A2B2C3A3B3C3D3E3F5B5D7C7F00006A
:1035A0002DE9F843254890F8DC00142813DD244861
:1035B000007880B9214890F8DC0000901F4890F80E
:1035C000DA2090F8D91000234FF6FF7002F010FBBC
:1035D00001201B4908701949C88804F06BFA81461C
:1035E000184904F07BFA074617490968134AD2F8CC
:1035F000E020881A04F05EFA8046394604F078F933
:103600000646124904F06AFA054604F033FA044605
:103610000A4890F8DC10491CA1420DD2014681F8FD
:10362000DC40FF2C06D9FF2081F8DC0001F0BCF95A
:10363000BDE8F8830020FBE70120F9E794090020AA
:103640009600002000002041A406002000007F43D7
:1036500000B503464FF47A7103FB01F000F003F864
:1036600000BF00BF00BDC00004E000BF00BF00BF3E
:1036700000BF00BF011EA0F10100F6D170472DE987
:10368000F04104460E460021204600F031F905467F
:10369000EDB9002700BF2169206801F0B9FF054698
:1036A00005B113E060690078E52802D06069007810
:1036B00020B9781C0746B04201D107E0002701215C
:1036C000204600F038F80546002DE4D000BF042D58
:1036D00000D107252846BDE8F0812DE9F0410446D8
:1036E0000021204600F004F9054615B12846BDE842
:1036F000F08100BF2169206801F08AFF054605B10D
:1037000016E0666937780FB9042511E0F07A00F009
:10371000080030B90B223046A16901F0EDFE00B976
:1037200006E00021204600F006F80546002DE1D015
:1037300000BF2846DBE72DE9F04104468846E088D3
:10374000401C86B20EB1206910B90420BDE8F0819A
:1037500006F00F0000286DD12069401C2061E06850
:1037600028B920680089B04264DC0420EEE72068B4
:103770008078401E00EA161000285BD1E1682068BE
:1037800001F02CF80546012D01D80220DEE7681C67
:1037900008B90120DAE720684069A84244D8B8F1A6
:1037A000000F01D10420D1E7E1682068FFF7E0FDB8
:1037B00005460DB90720C9E7012D01D10220C5E753
:1037C000681C08B90120C1E7206803F067FB08B155
:1037D0000120BBE7216801F130004FF400720021A5
:1037E00001F0AAFE29462068FFF7F2FC2168C862B2
:1037F00000270FE0012021680871206803F04EFBCC
:1038000008B10120A2E72068C06A401C2168C86294
:10381000781CC7B220688078B842EBDC2068C06AA8
:10382000C01B2168C86200BFE56029462068FFF719
:10383000CFFC2061E6802068303006F00F0100EBFD
:1038400041106061002081E72DE9F0470446894678
:10385000042526E02169206801F0DAFE054605B15D
:1038600022E0D4F8148098F800600EB904251BE01B
:1038700098F80B0000F03F07E52E0BD02E2E09D054
:103880000F2F07D0082F01D1012000E0002048456C
:1038900000D109E000212046FFF74DFF054605B1A4
:1038A00002E020690028D5D100BF0DB100202061C1
:1038B0002846BDE8F08770B5044601212046FFF791
:1038C000DEFE054695B92169206801F0A1FE054696
:1038D00065B920220021606901F02EFE0B22D4E997
:1038E000050101F01CFE012021680871284670BD09
:1038F0002DE9F04104460E46E680A568012D03D06F
:1039000020684069A84202D80220BDE8F0812DB9A4
:1039100020680078032801D12068456A65B9E56010
:1039200020680089B04201DC0220EEE72068406A8E
:1039300000EB1610206120E020688078070112E07B
:103940002946206800F04AFF0546681C08B9012096
:10395000DBE7022D03D320684069A84201D802208A
:10396000D3E7F01B86B2BE42EADAE560294620685A
:10397000FFF72EFC00EB161020612068303006F0B7
:103980000F0100EB411060610020BEE710B5044656
:10399000034801F04DF808B9002010BD0120FCE7F4
:1039A0008C0E00202DE9F04180460D4616461F463C
:1039B00000240CE04FF4007000FB0452311906485B
:1039C00002F00CFD10B10120BDE8F081641CBC4286
:1039D000F0DB0020F8E700008C0E002001460348D1
:1039E000006808B1002070470120FCE78C0E002021
:1039F0002DE9F04180460D4616461F4600240CE096
:103A00004FF4007000FB04523119064802F04CFEDE
:103A100010B10120BDE8F081641CBC42F0DB002045
:103A2000F8E700008C0E002010B500243BE025488C
:103A3000006884421FD104EB4400234A02EB80005B
:103A4000017A224801F028FD04EB44011E4A02EBF2
:103A50008101898888B2012101F002FE04EB440152
:103A6000194A52F821100969084304EB440152F83D
:103A70002110086115E004EB4401134A02EB8101B7
:103A8000898888B2002101F0EBFD04EB44010E4A65
:103A900052F821100969084304EB440152F821103F
:103AA0000861601CC4B2042CC1DB06480068401CDD
:103AB0000449086008460068042801DD0020086009
:103AC00010BD000084000020280E0020580E0020A9
:103AD000F0B505ACF0CCDFF824C0CCF80000CCF891
:103AE0000410CCF80820CCF80C30CCF81040CCF8FE
:103AF0001450CCF81860CCF81C70F0BD580E0020A3
:103B0000F0B505ACF0CCDFF824C0CCF80410CCF84C
:103B10000000CCF81030CCF80C20CCF81C50CCF8BD
:103B20001840CCF82870CCF82460F0BD280E002096
:103B300010B50146002008E00A5C00EB4003044C8D
:103B400004EB83031A72421CD0B20428F4D310BDD4
:103B5000280E00200FB408B503A800900448009A6E
:103B60000299FCF7B5FB0020009001B05DF814FB52
:103B70006400002070B50446204603F033FD05467E
:103B80000DB900202060284670BD0000F7B516462C
:103B900001A800F0F0FE0546002D01DA0B20FEBD65
:103BA0000E4850F825400CB100202070009810B14C
:103BB0000020009908700949009841F825000098F4
:103BC00008B1012E01D00020E9E7002201A96846D2
:103BD00000F0E2FB07463846E1E7000090000020D5
:103BE0002DE9F7438AB0054616461DB909200DB0E8
:103BF000BDE8F0830020286006F01F0626F00102D1
:103C00000BA903A800F0C8FB0746002F7ED1CDF812
:103C100024D003A80B9900F083FD0746089C0FB938
:103C200004B9062706F01C00002851D04FB1042F1C
:103C300003D103A8FFF73FFE074646F00806089C9D
:103C400009E0E07A00F0110008B1072703E006F070
:103C5000040000B10827002F39D106F00800002821
:103C600035D000F02DFE804684F80E804FEA1821F2
:103C7000E1734FEA184121744FEA18616174002022
:103C8000E072207700216177A177E17721460398E0
:103C900001F092FB81460021204602F097FE0120B0
:103CA00003990871B9F1000F11D00398D0F82C8056
:103CB0004946039801F0A0FE074647B9A9F1010063
:103CC0000399C8604146039801F0A2FC07460EE044
:103CD0006FB9E07A00F0100008B1042707E006F0A1
:103CE000020020B1E07A00F0010000B1072747B9D7
:103CF00006F0080008B146F020060398C06AE861A3
:103D00002C621FB9AE710020E87100E017E0214677
:103D1000039801F051FB2861E07F0106A07F41EA92
:103D20000041607F41EA0020217F0843E8600020D5
:103D3000A860A861039828602868C088A8803846D1
:103D400055E733B585B0044614B9092007B030BD36
:103D5000002206A904A800F01FFB05461DBB04981D
:103D6000206001A8A0612046069900F0D9FC054614
:103D7000B5B9606958B16069C07A00F0100028B127
:103D80006169049801F018FBA06000E005253DB9C9
:103D90000498C088A08000212046FFF7A9FD0546B1
:103DA000042D00D105250DB1002020602846CDE767
:103DB0002DE9FF4F83B0044615469A46DDF810B052
:103DC0000020CAF80000204603F00CFC0290029884
:103DD00018B1029807B0BDE8F08FE07908B1E0793A
:103DE000F8E7A07900F0010008B90720F2E7D4E96C
:103DF0000210401A00900098854200D9009DA3E06F
:103E00002089C0F3080000286FD120688078401E08
:103E1000A16800EA512000F0FF09B9F1000F17D1A5
:103E2000A06810B92069019004E06169206800F081
:103E3000D5FC01900198022802D20220E071C9E766
:103E40000198401C10B90120E071C3E7019860613E
:103E500061692068FFF7BCF9064616B90220E071D7
:103E6000B8E74E444FEA5528B8F1000F2AD009EBC5
:103E7000080021688978884203D920688078A0EBFF
:103E8000090808F0FF032168487832465946FFF7D1
:103E900089FD10B10120E0719CE7A07900F040009D
:103EA00068B1A069801B404509D2A169891B0BEB51
:103EB00041204FF4007204F1240101F030FB4FEA7D
:103EC000482737E0A069B04220D0A07900F0400038
:103ED00080B121684878012304F12401A269FFF729
:103EE00087FD18B10120E07174E710E0A07920F09F
:103EF0004000A071216848780123324604F1240172
:103F0000FFF750FD10B10120E07163E7A661208941
:103F1000C0F30800C0F50077AF4200D92F462089D2
:103F2000C0F3080204F1240011183A46584601F083
:103F3000F6FA00BFBB44A0683844A060DAF800007D
:103F40003844CAF80000ED1B002D7FF459AF002063
:103F500040E7FEB505460E46284603F043FB0446FF
:103F60000CBB2EB900212846FFF7C2FC04461AE01C
:103F7000C5F818D000212846FFF766FC0446042C3B
:103F800002D10020286100246CB93146284600F097
:103F9000BAFC00212846FFF7CEFB0446042C02D1D0
:103FA0000020286100242046FEBD01464FF0FF306E
:103FB000704770B5044600BFFCF75EF9054672B65F
:103FC0000020A060E0602846FCF759F900BF70BDF2
:103FD0002DE9F04104460E4600BFFCF74DF90746B7
:103FE00072B6A068E168451A4DB1E0686168491E83
:103FF00008402168085C3070E068401CE06038468A
:10400000FCF73DF900BF15B10120BDE8F0810020AB
:10401000FBE770B504460D4600BFFCF72DF90646D8
:1040200072B6A0686168491E084021680D54A068F6
:10403000401CA0603046FCF722F900BF70BD0000B4
:1040400070B52748A0F58071C1F8000225A0FFF7E0
:1040500081FD00243AE0E5042B4800EB44111C22CA
:104060002846FEF7BDFE0020274901EB44110877E2
:10407000254901EB44114877214624A0FFF76AFD4A
:10408000214800EB44100068401C60B900201E4924
:1040900001EB441108601C4901EB441148601EA06B
:1040A000FFF758FD10E00120174901EB4411087794
:1040B000154800EB44100268134800EB441000F16F
:1040C0000C0117A0FFF746FD601CC4B2082CC2DB30
:1040D000FF200D4981F808020020C1F8040270BDDC
:1040E000BC0700203D3D3D3D3D3D3D3D3D204669F9
:1040F0006C652073746F72616765203D3D3D3D3D89
:104100003D3D3D3D0D0A0000BC060020536C6F7420
:1041100020256409000000004E6F6E650D0A000046
:1041200025732025642062797465730D0A000000F0
:1041300070B50446FF2C02D1FEF7DCFD1EE0082C12
:104140000BDA002507E0E00400EB05463046FEF7F9
:104150000DFE681CC5B2082DF5DB0020084901EBF7
:1041600044110877064901EB44114877044901EBF3
:1041700044110873024901EB4411086070BD00004E
:10418000BC0600202DE9F047C0B004468A46204610
:1041900000F054F8284800EB4410007F10B140B004
:1041A000BDE8F0874FF4805101EBC445224800EB95
:1041B0004410006846194FF001091FE0701BFF28EA
:1041C00002D8701B87B201E04FF480773A46694607
:1041D0002846FEF705FEB9F1000F08D00122394646
:1041E0006846FFF724F880464FF0000905E03A469C
:1041F00069464046FFF783F880463D44B542DDD32B
:104200000D4800EB4410C0F8088001200A4901EB7A
:10421000441108770020084901EB4411487706490A
:1042200001EB441101F10C005146FCF789FA2046DC
:1042300000F09AF800BFB2E7BC06002070B5044653
:104240001748B0F8001200F58070081A85B205B959
:1042500070BD13492A46D1F8040201F58071FEF7BA
:1042600035FE0F4800EB4410006828440C4901EB70
:10427000441108600B480068094901EB441148608B
:1042800009480749C1F800020846D0F8040228444A
:10429000C1F80402002001EB4411087700BFD7E702
:1042A000BC06002070000020BC0700202DE9F04172
:1042B0000446884615462B4890F80802A0421FD0B5
:1042C000284991F80802FFF7B9FF264880F808420C
:1042D0004FF4805101EBC440224901EB44110968BD
:1042E00008442049C1F80402084690F80802FF2853
:1042F00006D0002091F808121A4A02EB41114877C3
:104300000120184901EB4411487726E01548B0F820
:10431000001200F50070401A87B2BD4201DD3E4632
:1043200000E02E460F493246D1F800024146FCF724
:104330002BFA0C48D0F8000230440A49C1F80002B8
:10434000B0440846D0F8001200F50070401A02D1BF
:104350002046FFF773FFA81B85B2002DD6D1BDE81C
:10436000F0810000BC06002010B50446E004FEF712
:10437000E9FC044A02EB4411E0041C22FEF7A6FD0E
:1043800010BD0000BC06002070B505460C46204656
:10439000FEF758FB70BD00002DE9F74F88B00021F3
:1043A00008980160099800F0E6FA0790079800283D
:1043B00003DA0B200BB0BDE8F08FD549079851F810
:1043C00020400CB90C20F5E708980460207878B1FB
:1043D0006078FFF703FB804608F0010040B90A98B7
:1043E00020B108F0040008B10A20E3E70020E1E76B
:1043F00000202070079860706078FFF7C7FA804649
:1044000008F0010008B10320D4E70A9820B108F0B1
:10441000040008B10A20CDE7002739462046FEF700
:1044200085FE0546012D01D06DBB2CE0002614E071
:1044300004F5F77101EB0610017951B1C17A0A0652
:10444000817A42EA0142417A42EA0121027A114329
:1044500000E000214DF82610761C042EE8D300263B
:1044600006B1761E00BF5DF8267027B1394620469A
:10447000FEF75CFE00E0022005461DB1701C0646FA
:104480000428F0D300BF032D01D1012092E70DB124
:104490000D208FE73B20015D94F83C0041EA0020AD
:1044A000B0F5007F01D00D2084E74620015D94F82F
:1044B000470041EA0029B9F1000F0ED194F85700E6
:1044C000010694F8560041EA004194F8550041EA8B
:1044D000002094F8541040EA0109C4F818904020D4
:1044E000005DE070E078012804D0E078022801D077
:1044F0000D205FE7E07809FB00F93D20005DA0702A
:10450000A07818B1A078411E084008B10D2051E7ED
:104510004120015D94F8420041EA00202081207A88
:1045200000F00F0008B10D2044E74320015D94F82E
:10453000440041EA002BBBF1000F0ED194F8530068
:10454000010694F8520041EA004194F8510041EA12
:10455000002094F8501040EA010B3E20015D94F8D1
:104560003F0041EA00200490049808B90D2021E79B
:1045700004984844218900EB111006900698834561
:1045800001D20D2016E70698ABEB0000A178B0FB36
:10459000F1FABAF1000F01D10D200BE7012540F629
:1045A000F670824500D302254FF6F670824500D39F
:1045B00003250AF102006061E76104983844206233
:1045C00006983844A062032D16D1208908B10D2029
:1045D000F0E694F85F00010694F85E0041EA0041BD
:1045E00094F85D0041EA002094F85C100843606292
:1045F00060698000059014E0208908B90D20D9E693
:10460000206A48446062022D02D16069400007E0E0
:10461000207D00F00100616901EB410100EB5100D8
:104620000590A169059800F2FF10B1EB502F01D25F
:104630000D20BFE64FF0FF302061E0608020607108
:10464000032D5AD194F8601094F8610041EA0020DB
:10465000012852D1791C204600F0DAFFE8BB002087
:10466000607194F82E1294F82F0241EA00204AF665
:104670005521884241D13320005D01063220005D82
:1046800041EA00413120005D41EA002094F83010F9
:1046900008432049884230D194F81702010694F863
:1046A000160241EA004194F8150241EA002094F80C
:1046B00014120843184988421FD194F81B020106BE
:1046C00094F81A0241EA004194F8190241EA0020E4
:1046D00094F818120843206100E00EE094F81F02DD
:1046E000010694F81E0241EA004194F81D0241EAD5
:1046F000002094F81C120843E060257007480088E9
:10470000401C80B205490880E080002052E600008D
:104710009000002052526141727241619400002069
:104720002DE9F3410446019800782F2803D0019821
:1047300000785C2802D10198401C01900020A06004
:1047400001980078202807D200212046FFF7D0F8F2
:1047500005460020606128E000BF01A92046FEF761
:104760006FFE054605B11FE02046FEF7B6FF054681
:10477000A069C67A3DB1042D04D100BF06F0040043
:1047800000B9052510E006F0040000B10CE06769EF
:10479000F87A00F0100008B9052505E039462068D0
:1047A00000F00AFEA060D8E700BF2846BDE8FC8103
:1047B00070B504460D46E0B20A2806D129460D2000
:1047C000FFF7F6FF08B9002070BDE1B2024802F021
:1047D00063FC2046F8E70000140000202DE9F041BA
:1047E00005460C46022C02D36869A04202D801207B
:1047F000BDE8F0812878012804D002282CD00328B5
:104800005AD13DE0274607EB5707286A00EB5721AE
:10481000284600F0FDFE00B14EE0C7F3080105F1A7
:10482000300010F801807F1C286A00EB57212846D1
:1048300000F0EEFE00B13FE0C7F3080105F13000E3
:10484000405C48EA002804F0010010B14FEA18105B
:10485000CEE7C8F30B00CBE7286A00EB142128460B
:1048600000F0D6FE00B127E040F2FF1000EA44015C
:1048700005F130000E183078717840EA0120B7E772
:10488000286A00EBD411284600F0C2FE00B113E004
:1048900040F2FF1000EA840105F130000E18F078B4
:1048A0000006B17840EA0140717840EA0120317891
:1048B000084320F070409BE700BF4FF0FF3097E7C0
:1048C00008B5009820F01F000090009820F4FC60CC
:1048D0000090009820F4784000F5C04000900098C7
:1048E00020F4F81000F580200090009820F0F0707F
:1048F00000F190700090009820F07E4000F184401C
:104900000090009808BDF0B5044601F10902206945
:1049100000282DD06069002310E01E465B1C855DD9
:10492000202D00D10AE0052D00D1E525092B02D16B
:104930002E2602F8016B02F8015B00BF0B2BECD3B3
:10494000C67A0E72C67F3706867F47EA0647467FDD
:1049500047EA0626077F3E430E60077E467E47EA0B
:1049600006268E80877DC67D47EA0626CE8000BF5C
:1049700000201070F0BD01464FF0FF300A6892B180
:104980000A681278A2F1300009280BD20A6852781E
:104990003A2A07D10A68921C0A60012803DB4FF00B
:1049A000FF3000E0002070472DE9F0471B490889DF
:1049B00003F080F881461A4903F090F80746194938
:1049C0000968164AD2F8E020881A03F073F8804686
:1049D000394602F08DFF0646134903F07FF805467D
:1049E00003F048F804460D4890F8DD00401CA04252
:1049F00011D20A4981F8DD40FF2C09D9FEF7D0FA1F
:104A00000020064981F8DC0081F8DD0007490870C4
:104A10000020BDE8F0870120FBE70000940900209A
:104A200000002041A406002000007F4396000020E3
:104A300070B504460A25206808B1002070BD01F059
:104A400051FF04E0204601F0E3FA00B903E0281E1C
:104A5000A5F10105F6D100BF681C10B94FF0FF3079
:104A6000ECE7204601F0AEFD204601F0DFFC2046D9
:104A700001F01EFD10B14FF0FF30DFE70120206094
:104A80000020DBE71FB500F02FFC00F0ADF800F0D0
:104A90006BFC00F04BF8FEF783F94FF4E13113485B
:104AA00002F064FA0E2012490422124BCDE90032C2
:104AB000CDE9021003230F4A0D210D48FFF708F836
:104AC0000F200D4908220B4BCDE90032CDE9021031
:104AD0000923084A0B210848FFF712F807A3002210
:104AE000012107A0FFF736F81FBD000014000020C9
:104AF00000100140000C014000080140620000006D
:104B00000D0A0D0A0D0A53796E6368726F206C6985
:104B1000676874207625642E25642573207374617C
:104B20007274696E672E2E2E0D0A000000B589B0D2
:104B300026480190102002902548009000208DF812
:104B40000D0009208DF8170000208DF81B000220B1
:104B50008DF818001F48049000208DF819000720D8
:104B60008DF8150001208DF80C0000208DF8140040
:104B70000F208DF816000A20ADF81C0009208DF8D2
:104B80001A001548089000BF01201449086000BFB2
:104B90006420FEF75DFD00BF01201049091F086079
:104BA00000BF4FF47A70FEF753FD69460C4801F0E0
:104BB000B2FF4FF4FA70FEF74BFD0A21094801F0ED
:104BC00083FE074802F0DBF809B000BD0008014091
:104BD0000030014040E3CB330048E801140C0140B1
:104BE000C808002070090020FE48406840F00070AE
:104BF000FC49486000BF00BF00BF00BFFA488069A1
:104C000040F00400F849886100BFF848006820F0CF
:104C1000F00040F0B000F549086000BF00BF481543
:104C2000F2491031086000BF00BF00BF00BF00BFE5
:104C300000BF00BFEC48806940F00400EA49886189
:104C400000BFEA48006820F4706040F48060E749E3
:104C5000086000BF00BF0815E4491031086000BFBC
:104C600000BF00BF00BF00BF00BF00BFDE488069BB
:104C700040F00400DC49886100BFDC48001F006888
:104C800020F4706040F43060D849091F086000BF0C
:104C900000BF0420D5491031086000BF00BF00BF2D
:104CA00000BF00BF00BF00BFCF48806940F00400D4
:104CB000CD49886100BFCD48001F006820F47040D6
:104CC00040F48040C949091F086000BF00BF0820A8
:104CD000C6491031086000BF00BF00BF00BF00BF61
:104CE00000BF00BFC048806940F00800BE4988612D
:104CF00000BFBF48006820F4706040F43060BC49D9
:104D0000086000BF00BF0815B9491031086000BF36
:104D100000BF00BF00BF00BF00BF00BFB248806936
:104D200040F00800B049886100BFB148006820F435
:104D3000704040F48040AE49086000BF00BFC81416
:104D4000AB491031086000BF00BF00BF00BF00BF0B
:104D500000BF00BFA448806940F00800A2498861F4
:104D600000BFA348001F006820F00F00C01CA0492E
:104D7000091F086000BF00BF01209D490C31086079
:104D800000BF00BF00BF00BF00BF00BF00BF96480C
:104D9000806940F004009449886100BF9348001F77
:104DA000006820F4700040F430009049091F08604A
:104DB00000BF00BF20208D490C31086000BF00BF3C
:104DC00000BF00BF00BF00BF00BF8748806940F040
:104DD00004008549886100BF8448001F006820F0F6
:104DE000704040F030408149091F086000BF00BF9B
:104DF00080207E490C31086000BF00BF00BF00BFAB
:104E000000BF00BF00BF00BF7748806940F00400CA
:104E10007549886100BF7548001F006820F0706008
:104E200040F000607149091F086000BF00BF4020CA
:104E30006E491031086000BF00BF00BF091F086045
:104E400000BF00BF00BF00BF00BF00BF00BF66487B
:104E5000806940F004006449886100BF6348001F16
:104E6000006820F4702040F440306049091F086059
:104E700000BF00BF10205D490C31086000BF00BFBB
:104E800000BF00BF00BF00BF00BF5748806940F0AF
:104E900008005549886100BF5548006820F470003B
:104EA00040F440105249086000BF00BF4814504908
:104EB0000C31086000BF00BF00BF00BF00BF00BFD3
:104EC00000BF4948806940F008004749886100BF39
:104ED0004748006820F0706040F040704449086026
:104EE00000BF00BF4FF4804041490C31086000BF53
:104EF00000BF00BF00BF00BF00BF00BF00BF3A48F7
:104F0000806940F008003849886100BF384800686F
:104F100020F0704040F000403549086000BF00BFFD
:104F20004FF4004032491031086000BF00BF00BF9D
:104F3000091F086000BF00BF00BF00BF00BF00BF67
:104F400000BF2948806940F004002749886100BFFC
:104F50002648006820F4702040F44030234908605F
:104F600000BF00BF881421490C31086000BF00BF9A
:104F700000BF00BF00BF00BF00BF1B48806940F0FA
:104F800008001949886100BF1948006820F47020A2
:104F900040F440301649086000BF00BF881414492F
:104FA0000C31086000BF00BF00BF00BF00BF00BFE2
:104FB00000BF00BF0C48806940F004000A498861C6
:104FC00000BF0A48006820F00F0040F008000749C1
:104FD000086000BF00BF881504491031086000BF99
:104FE00000BF07E00000014000100240040801403B
:104FF000040C014000BF091F086000BF00BF00BFD4
:1050000000BF00BF00BF00BF00BFB348806940F0D1
:105010000400B149886100BFB048006820F0F0008A
:1050200040F08000AD49086000BF00BF0220AB49DE
:105030001431086000BF00BF00BF091F086000BF37
:1050400000BF00BF00BF00BF00BF00BF00BFA2483D
:10505000806940F00800A049886100BFA04800684E
:1050600020F4706040F400609D49086000BF00BFFC
:1050700004209B491431086000BF00BF00BF091F16
:10508000086000BF00BF00BF00BF00BF00BF00BF7F
:1050900000BF9148806940F004008F49886100BFDB
:1050A0008E48006820F00F0040F008008B4908602F
:1050B00000BF00BF012089491431086000BF00BF54
:1050C00000BF091F086000BF00BF00BF00BF00BFD6
:1050D00000BF00BF00BF8048806940F010007E49DB
:1050E000886100BF7F48406820F0704040F0004079
:1050F0007C49486000BF00BF4FF40040486100BFDA
:1051000000BF00BF086100BF00BF00BF00BF00BFFD
:1051100000BF00BF7048806940F008006E49886198
:1051200000BF6F48006820F4704040F440506C4964
:10513000086000BF00BF082069491031086000BF47
:1051400000BF00BF00BF00BF00BF00BF6248806952
:1051500040F008006049886100BF6148006820F4A1
:10516000702040F440305E49086000BF00BF10204E
:105170005B491031086000BF00BF00BF00BF00BF27
:1051800000BF00BF5448806940F010005249886158
:1051900000BF5448406820F0706040F040705149B2
:1051A000486000BF00BF4FF48040086100BF00BFEF
:1051B00000BF00BF00BF00BF00BF4748806940F08C
:1051C00010004549886100BF4648406820F47000DF
:1051D00040F440104349486000BF00BF48140861D4
:1051E00000BF00BF00BF00BF00BF00BF00BF3A4804
:1051F000806940F004003849886100BF3748001DCD
:10520000006820F4704040F440503449091D0860A3
:1052100000BF00BFC81431491031086000BF00BF93
:1052200000BF00BF00BF00BF00BF2B48806940F037
:1052300008002949886100BF2948001D006820F046
:10524000F00040F030002649091D086000BF00BF93
:10525000481523491031086000BF00BF00BF00BFE0
:1052600000BF00BF00BF1C48806940F008001A4919
:10527000886100BF1A48001D006820F00F00C01CA4
:105280001749091D086000BF00BF88151449103177
:10529000086000BF00BF00BF00BF00BF00BF00BF6D
:1052A0000D48806940F004000B49886100BF0B483D
:1052B000001D006820F0704040F040500749091D73
:1052C000086000BF00BF4FF400400449103108607F
:1052D00000BF00BF00BF704700100240000801403F
:1052E000000C01400010014010B51E48406820F03D
:1052F00003001C49486000BF1A48406800F00C00D9
:105300000028F9D1FDF780FA4FF4E0114FF4403056
:10531000FDF780FA0120FDF777FA00BF1148006819
:1053200000F000700028F9D00E48406840F00200FC
:105330000C49486000BF0B48406800F00800002896
:10534000F9D001210846FDF7D3F901210846FDF700
:10535000AFF901210220FDF7ABF901210846FDF765
:1053600097F910BD0010024000B585B00121080377
:10537000FDF7BEF90820ADF80C000020ADF80800DC
:10538000ADF80600ADF80400ADF80000ADF80E0071
:105390004FF48270ADF802004FF40070ADF80A00CF
:1053A00069460448FDF750FA01210248FDF740FA2A
:1053B00005B000BD0030014010B502468C7ECB7EAA
:1053C00044EA03201378032B05D10C7D4B7D44EA7E
:1053D000032340EA034010BDFFF754FB00F086FAB8
:1053E00001F082FDFEF72CFE00F08EFB00F0C2F80B
:1053F00041F288310B4801F067FA0B48006800F46D
:10540000807008B900F038FD00221146104600F007
:10541000A0F905E000F016F900F056FC00F096F84F
:10542000F8E70000780A0020080801403EB5FDF7C3
:10543000E1FD0446144890F8DA2014A101A8FAF717
:105440004DFF01A8FEF774FB012C12D1002211467A
:10545000104600F07EF90C4890F8DC0000900A48F5
:1054600090F8DA2090F8D91000234FF6FF7000F082
:10547000BFFB022C01D100F091F9042C02D10120D4
:10548000044908703EBD0000940900202020253208
:10549000640000008C00002010B503460C4604F0A8
:1054A00001019A8890B200F0DBF819680969084395
:1054B00019680861998988B2C4F3400100F0D0F8F6
:1054C00099680969084399680861998A88B2C4F3A0
:1054D000800100F0C5F81969096908431969086174
:1054E000998B88B2C4F3C00100F0BAF899690969D0
:1054F00008439969086110BDF0B503461C460D4686
:10550000002000BF161EA2F1010207D014F8017B93
:1055100015F801CBA7EB0C06301EF3D0F0BD70B52B
:1055200003460C4603E014F8015B03F8015B151E0B
:10553000A2F10102F7D170BD30B5034601E003F8D6
:10554000011B141EA2F10102F9D130BD10B5FEF706
:105550006BFA0748007810B1012806D102E0FFF786
:1055600065FF02E000F006FB00BF00BF10BD0000B9
:105570008C0000200020034908700348008803497C
:10558000088070478C000020800000208E000020E2
:1055900010B50AA0FEF7DEFA002212A11248FEF7AB
:1055A000F5FA044624B111A0FEF7D4FA012010BD8B
:1055B00012A0FEF7CFFA0020F9E700000D0A3D3DEA
:1055C0003D3D3D3D3D3D3D205344204361726420BF
:1055D000696E736572746564203D3D3D3D3D3D3DA2
:1055E0003D3D0D0A00000000F80A00204D6F756E69
:1055F00074206661696C7572650D0A004D6F756E79
:105600007420636F6D706C6574650D0A0000000096
:1056100070B504460D46E06AA84210D0204601F05D
:105620003DFC08B1012070BD607801232A4604F1D9
:105630003001FEF7B7F908B10120F4E7E562002078
:10564000F1E7000010B5054890F8D80000B910BD8A
:10565000FDF7A6FF00B1FAE700BFF8E794090020C4
:105660000246002935DD102A31D2DFE802F0080AAF
:105670000C0E10121416181B1E2124272A2D01208F
:1056800070470220FCE70420FAE70820F8E7102022
:10569000F6E72020F4E74020F2E78020F0E74FF41F
:1056A0008070EDE74FF40070EAE74FF48060E7E7C1
:1056B0004FF40060E4E74FF48050E1E74FF400500E
:1056C000DEE74FF48040DBE74FF40040D8E700BF4F
:1056D0003DE0102A39D2DFE802F0080B0E11141752
:1056E0001A1D202326292C2F32354FF48030C7E78E
:1056F0004FF40030C4E74FF48020C1E74FF400209E
:10570000BEE74FF48010BBE74FF40010B8E74FF44A
:105710008000B5E74FF40000B2E74FF08070AFE7CC
:105720004FF00070ACE74FF08060A9E74FF00060E9
:10573000A6E74FF08050A3E74FF00050A0E74FF0EE
:1057400080409DE74FF000409AE700BF00BF002077
:1057500096E770B505460E46144631462846FEF7D4
:1057600013FE62B23146284600F002F870BD000018
:1057700010B5084C84F8D900234683F8DA100123C9
:1057800084F8D830044B1B68C4F8E030002384F858
:10579000DC3010BD94090020A406002010B50020C4
:1057A000034981F8D8004FF6FF7000F04DFA10BDA4
:1057B000940900202DE9F04705460E461746022EB3
:1057C00002D36869B04202D84FF002088AE0287814
:1057D000012804D0022841D003287DD154E0B146ED
:1057E00009EB5909286A00EB59212846FFF710FFF9
:1057F0008046B8F1000F00D071E0C9F3080105F14F
:1058000030000C1806F0010020B1F9B2207861F3E5
:105810001F1000E03846207009F1010901202871AD
:10582000286A00EB59212846FFF7F2FE8046B8F1BE
:10583000000F00D053E0C9F3080105F130000C1847
:1058400006F0010010B1C7F3071005E0207800F062
:10585000F000C7F303210843207040E0286A00EB02
:1058600016212846FFF7D4FE8046B8F1000F00D07D
:1058700035E040F2FF1000EA460105F130000C1857
:105880002770380A60702AE0286A00EBD611284693
:10589000FFF7BEFE8046B8F1000F00D01FE040F2D7
:1058A000FF1000EA860105F130000C18E0780006D0
:1058B000A17840EA0140617840EA0120217808435C
:1058C00000F0704007432770380A6070380CA070F1
:1058D000380EE07003E0FFE74FF0020800BF00BFA2
:1058E000012028714046BDE8F087000030B585B042
:1058F000002401212C4800F059F8002000908DF878
:1059000004008DF805004FF4602002900020039001
:1059100001208DF8100069462348FCF723FD012182
:105920002148FCF7C7FC2048FCF7A0FD00BF1E483B
:10593000FCF70DFD0028FAD11B48FCF7A7FD00BFBE
:105940001948FCF7F1FC0028FAD10120FCF7A4FD6E
:105950000523012210211448FCF72CFD01211248D7
:10596000FCF789FD002515E000BF02210E48FCF779
:10597000E5FC0028F9D00C484C300068604084B247
:105980004FF6FF7000EA440401210748FCF773FD5D
:10599000681CC5B2322DE7DB0348FCF797FC2046B4
:1059A000FAF79EFE05B030BD0024014070B50446F4
:1059B0000D461048204430B1B0F5806F0AD0B0F5E4
:1059C000C05F15D10DE029464FF40070FCF790FE42
:1059D000012070BD29464FF48060FCF789FE01204C
:1059E000F7E729464FF40040FCF782FE0120F0E77C
:1059F0000020EEE700DCFEBF2DE9F04104460E4634
:105A0000022E02D36069B04201D8022727E00027A6
:105A100021E031462046FEF7E1FE054605B91DE0CE
:105A2000012D01D1022719E0681C08B9012715E0F2
:105A3000002231462046FFF7BDFE074607B10DE0C4
:105A40002069401C30B12069401C2061607940F021
:105A5000010060712E466069B042DAD800BF384656
:105A6000BDE8F081014691FAA1F070472DE9F041BF
:105A70000646204C204620490A8802808978817099
:105A80004FF6FF70A4F803000120A071052060719B
:105A9000E671002526E0681F184A5043184A02EBB9
:105AA0004011184801F004F91420FDF7D1FD00273A
:105AB00014E0A079C01DC2B20E49124801F040F9AD
:105AC00003E0FDF7B1FF01F03BFA0E48807C0028AF
:105AD000F7D13220FDF7BCFD781CC7B2052FE8DBFB
