:020000040800F2
:100000008024002091020008990200089B02000849
:100010009D0200089F020008A102000800000000E5
:10002000000000000000000000000000A302000823
:10003000A502000800000000A7020008992300089C
:10004000AB020008AB020008AB020008AB020008DC
:10005000AB020008AB020008AB020008AB020008CC
:10006000AB020008AB020008AB020008AB020008BC
:10007000AB020008AB020008AB020008AB020008AC
:10008000AB020008AB020008AB020008AB0200089C
:10009000AB020008AB020008AB020008AB0200088C
:1000A000AB020008AB020008AB020008AB0200087C
:1000B000AB020008AB020008AB020008AB0200086C
:1000C000AB020008AB020008AB020008AB0200085C
:1000D000AB02000895240008DD240008AB020008EC
:1000E000AB020008AB020008AB02000800F002F807
:1000F00000F0B2F80AA090E8000C82448344AAF110
:100100000107DA4501D100F0A7F8AFF2090EBAE80D
:100110000F0013F0010F18BFFB1A43F0010318473B
:1001200040540000605400000A444FF0000C10F8E6
:10013000013B13F0070408BF10F8014B1D1108BF65
:1001400010F8015B641E05D010F8016B641E01F805
:10015000016BF9D113F0080F1EBF10F8014BAD1C55
:100160000C1B09D16D1E58BF01F801CBFAD505E073
:1001700014F8016B01F8016B6D1EF9D59142D6D3CD
:10018000704700000023002400250026103A28BFF5
:1001900078C1FBD8520728BF30C148BF0B607047F9
:1001A0006E2900F03183702900F08584662905F0FE
:1001B0003481652905F03181672905F02E81612997
:1001C00005F02D8103681B0A28BF41F080016929D1
:1001D00000F0C280642900F0BF80752900F0BC8067
:1001E0006F2900F01384782900F05184E92900F088
:1001F000AD83E42900F0AA83F52900F0A783EF2955
:1002000000F01084F82900F050840368DB0928BF4F
:1002100041F08001632901F03780732901F03C80AF
:10022000E32901F04780F32901F04C80002070475A
:100230001FB500F0A6F901F097F804000020002196
:1002400004F0FEFC401C60600020002104F0E2FC91
:10025000E0601FBD10B510BD01F059F81146FFF761
:10026000E7FF03F0C5FA01F031F903B4FFF7F2FF3D
:1002700003BC01F035F90000EFF31080704780F304
:1002800010887047EFF31080704780F31088704734
:100290000948804709480047FEE7FEE7FEE7FEE71A
:1002A000FEE7FEE7FEE7FEE7FEE7FEE70448054956
:1002B000054A064B7047000011240008ED000008B5
:1002C000800C002080240020801C0020801C002046
:1002D0000B460146184600F0C9BA00000FB41CB521
:1002E000084B06AA7B4469460090059800F0A5FAE1
:1002F00004460020694600F0B3FA20461CBC5DF8B5
:1003000014FB00007905000070B50446856900689B
:10031000C10601D5302600E02026C00707D070BDF9
:10032000D4E9012130469047206A401C20626D1EAE
:10033000F6D570BD70B5044685690078C00707D151
:1003400070BDD4E9012120209047206A401C206222
:100350006D1EF6D570BD00002DE9F0410646002463
:1003600010687529314616A510D000F0B9F900289B
:1003700002DA404213A507E031688A0701D512A5C9
:1003800002E0490704D511A5012401E000F0B1F90C
:1003900000210A2206F1240709E0B0FBF2FCB0FBC1
:1003A000F2F302FB1C00303078541846491C002838
:1003B000F3D123462A463046BDE8F04100F0CBB9E0
:1003C000000000002D0000002B00000020000000B5
:1003D0002DE9F05F894604464FF0000ADFF874B15A
:1003E000FB44C0F820A02046E1688847002874D06C
:1003F000252806D0D4E901219047206A401C2062BC
:10040000F1E700265F462046E16888472028054638
:1004100007DB312D05D2781910F8200C08B10643FE
:10042000F1E7B00701D526F00406C4F81CA00027A8
:10043000C4F818A02A2D09D0284602F057F938B37D
:1004400004EB8708303DC8F8185019E059F8041B30
:10045000204604EB87029161E1688847012F054639
:1004600018D1E069002820DA26F020061DE0D8F82F
:10047000180000EB800005EB40003038C8F8180089
:100480002046E1688847054602F030F90028EED1A1
:10049000012F0AD02E2D08D12046E16888477F1C05
:1004A0000546022F46F02006C4DBA069002803DAC7
:1004B000404246F00106A061F00701D026F0100688
:1004C0006C2D0BD0682D09D04C2D39D06A2D35D02C
:1004D000742D35D07A2D33D016E038E0E1682F4600
:1004E00020468847B842054609D16C2F26D04FF4E4
:1004F0008060E168064320468847054604E06C2F8B
:100500001AD04FF4807006430DB3A5F141001928AD
:1005100002D8203546F400664A4629462046266021
:100520004E46FFF73DFE80B101280BD0F61D26F0A8
:10053000070000F1080956E74020E4E78020D8E7EB
:100540000020D6E706F104094DE7284652E7206A65
:10055000BDE8F09F7F5000000B4910B5A1F17C026F
:100560000A4CC2E93712372106E000EB104342F88B
:100570002130074B00FB03400B1EA1F10101F4DC0D
:1005800010BD0120E8E70000B80B0020E119D66695
:10059000CD0D010040EA010310B59B070FD1042ADD
:1005A0000DD310C808C9121F9C42F8D020BA19BA3E
:1005B000884201D9012010BD4FF0FF3010BD1AB1A3
:1005C000D30703D0521C07E0002010BD10F8013BF8
:1005D00011F8014B1B1B07D110F8013B11F8014B1F
:1005E0001B1B01D1921EF1D1184610BD032A40F207
:1005F000308010F0030C00F0158011F8013BBCF1C5
:10060000020F624498BF11F801CB00F8013B38BFDC
:1006100011F8013BA2F1040298BF00F801CB38BFEA
:1006200000F8013B11F0030300F02580083AC0F008
:10063000088051F8043B083A51F804CBA0E80810B0
:10064000F5E7121D5CBF51F8043B40F8043BAFF3E3
:100650000080D20724BF11F8013B11F801CB48BF3D
:1006600011F8012B24BF00F8013B00F801CB48BF73
:1006700000F8012B704710B5203AC0F00B80B1E8AC
:100680001850203AA0E81850B1E81850A0E81850C7
:10069000BFF4F5AF5FEA027C24BFB1E81850A0E8D0
:1006A000185044BF18C918C0BDE810405FEA827CEA
:1006B00024BF51F8043B40F8043B08BF7047D20701
:1006C00028BF31F8023B48BF11F8012B28BF20F8A2
:1006D000023B48BF00F8012B7047704770477047D6
:1006E00009684A0501D540B27047C905FCD500B27A
:1006F000704709684A0501D5C0B27047C905FCD5E5
:1007000080B2704770B50C460546012A05D028789E
:10071000800600D5EA69002302E0012305E05B1CA6
:10072000934202D2E05C0028F9D1A869E618C01A09
:10073000A861286A184428622846FFF7E5FD04E00E
:10074000D5E9012114F8010B9047B442F8D32846AB
:10075000FFF7F0FD70BD2DE9F0470D469946924632
:10076000044600F124080168880604D5E06921F0F8
:100770001001216000E00120A84201DD471B00E0DC
:100780000027A1697A1902EB0900081AA0612078F4
:10079000C00602D42046FFF7B7FD002608E0D4E9E2
:1007A00001211AF806009047206A401C761C20623E
:1007B0004E45F4DB2078C0060AD52046FFF7A4FD9D
:1007C00006E0D4E9012130209047206A401C2062D5
:1007D000381EA7F10107F4DC07E0D4E9012118F87D
:1007E00005009047206A401C2062281EA5F10105E3
:1007F000F3DC2046FFF79EFD2078000602D502209C
:10080000BDE8F0870120FBE711680268006A530524
:1008100001D508700AE0D30501D5088006E013066B
:1008200003D5C217C1E9000200E00860012070474B
:1008300001694A1C02610878704700B58FB0CDE9A4
:1008400001310021059105497944CDE90310114694
:100850006846FFF7BDFD0FB000BD0000E5FFFFFFDC
:100860000A6802F8010B0A6070470000074B70B578
:100870000D467B44FFF7E1FF0446284602F0F4F9F9
:1008800010B14FF0FF3070BD204670BD87250000CD
:100890002DE9FF5F15468A460446DFF8AC80F84430
:1008A0000027D8E900103E46CDE9001010E03AF8E4
:1008B00016106A4602A800F009FD411C07D02178F5
:1008C000890603D5E269391891420DD80744761C90
:1008D0002078800602D5E069B84205DDAE42E6DB4D
:1008E0003AF816000028E2D1A069C01BA06120469A
:1008F000FFF70AFDD8E90010CDE90010002017E04D
:100900003AF818106A4602A800F0E0FCB0F1FF3F88
:1009100081460BD000250DF1080B05E0D4E901213B
:100920001BF8050090476D1C4D45F7D308F10100F9
:10093000B0428046E4DB206A384420622046FFF75C
:10094000F9FCBDE8FF9F0000D24B00002DE9F0410B
:100950008046D21D22F007020025D2E90002F529C7
:1009600015A614D0011E72F1000106DA0023D0EBA7
:10097000030063EB020211A608E0D8F800108B0711
:1009800001D50FA602E0490701D50EA601251146A3
:10099000002408F1240704E000F09CF830323A55B6
:1009A000641C50EA0102F7D12B46324621464046EC
:1009B000BDE8F041FFF7CFBE000000002D000000B1
:1009C0002B0000002000000030B4002100F12404BE
:1009D00008E002F00705D208303542EA4372DB082E
:1009E0006554491C52EA0305F3D10468002310A2A0
:1009F000250708D504F020040C4304D0C469012362
:100A00000CA2641EC46130BCFFF7A5BE10B504463D
:100A100021461068FFF76DFE02462046BDE81040F3
:100A20000023D1E7D21D22F00701D1E90023CBE753
:100A30000000000030000000F0B40D4601880905F8
:100A400002D5214C7C4402E01F4C7C440E34002132
:100A500000F1240608E002F00F071209E75D42EA00
:100A600003721B097754491C52EA0307F3D1027839
:100A70000023120704D5702D06D009B102231134CA
:100A80002246F0BCFFF767BE01231034F8E770B5CB
:100A900004460D4621461068FFF72BFE0246294604
:100AA0002046BDE870400023C6E7D21D22F00703B0
:100AB000D3E90023C0E70368126843F02003036012
:100AC0000823C3610023B7E7344A00000048704799
:100AD000200C002030B5B0F10A024FEA900E71F1FF
:100AE00000034EEA817EB0EB0E0061EB91014FEA0C
:100AF000101E4EEA017E10EB0E0041EB11114FEA81
:100B0000102E4EEA016E10EB0E0041EB11214FEA60
:100B1000104E4EEA014E10EB0E0041EB1141401811
:100B200041F100014FEAD00040EA41704FEAD101A3
:100B300010EB80054FEA810444EA907444EB010411
:100B40006D1944EB0404521BA3414FF0000348BF4E
:100B50000A3200D530BD401C41F1000130BD704764
:100B60002DE9FF4F0C461E464FF0FF378BB0D2E900
:100B70000001DDF860800A908A46C1F30A5505B984
:100B80003D46002108464FF00000BAF1000F00F486
:100B9000400005DA00EB80004FF4400101EA50000C
:100BA0004FEA9059B9F1010F00DDB9460A9850EAB1
:100BB0004A000ED044F61050A5F2FF3545432F14DD
:100BC000B8F1000F1ED07542291E1EDDC9F10002CA
:100BD0001CE0B8F1010F4FF0000001D0302103E01C
:100BE000F24305E02154401CB042FBDB30460022BA
:100BF000002121540B99C1F80880C1E900200FB0F1
:100C0000BDE8F08FBD1B6D1CDEE74A4600DA694285
:100C100006A800F0EDFB06AB93E8070003AB83E802
:100C2000070050460A9900F0A1FC8DE80700A0F5E6
:100C300000501F3800900398002D09DD42F21F017B
:100C40004A46084403A90390684600F000FF08E004
:100C5000A0F500504A461F3803A90390684600F0EB
:100C60000AFF8DE807000004000C03D04FF0FF30AE
:100C7000410800E01046B8F1000F03D000220092B6
:100C800015461EE0751E05D4FFF724FF303262556D
:100C90006D1EF9D5B3460122084302D000227F1C05
:100CA00004E02078302801D100227F1E002A099715
:100CB00086D01DE0112D07DAFFF70CFF30326255A8
:100CC0006D1C50EA0102F5D1084302D00098C8B16A
:100CD0000EE00021681E05E0235C625C6354225430
:100CE000401E491C8142F7DBAB46A81B401E099001
:100CF000002004F80B000B98099AC0F80880C0E99E
:100D0000002B7CE711264FF0000859E72DE9F04F42
:100D100088460446D21D22F0070191B0D1E90001B6
:100D2000CDE90A0101F0CEFC02460B98C00F01D0BC
:100D30002D2007E02068810701D52B2002E020212B
:100D400001EAC000032A099001D0072A05DB034607
:100D50004146204600F00CFB0BE12078800601D5CF
:100D6000E06900E00620B8F1650F814606D0B8F1D1
:100D7000660F18D0B8F1670F70D131E00020B9F1DB
:100D8000110F009001DB112301E009F101030AAA10
:100D900001A90CA8FFF7E4FEDDE90C70002609F1BB
:100DA0000105834647E001204B4600904FF0004785
:100DB0000AAA01A90CA8FFF7D3FEDDE90DB00C9932
:100DC0005D46002610B909F101000D18B9EB0500C8
:100DD00003D4C0F1FF3609F10105A5EB09002BE0B2
:100DE000B9F1010F01DA4FF001090020B9F1110F3B
:100DF0000090484601DD112300E003460AAA01A93C
:100E00000CA8FFF7ADFEDDE90C704D4600268346C9
:100E1000207800070AD4AB4500DA5D4601A8012D11
:100E200004DD411911F8011C302907D04F4502DAC1
:100E300017F1040F04DA012082460FE06D1EEEE781
:100E4000002F02DCED1B3E4403E0781CA84200DDCD
:100E50007D1CB81B00F1010A4FF000472078000705
:100E600003D4AA4501DB4FF0FF3A0021B7F1004F50
:100E70000DF143088DF8431024D002202B23002FBE
:100E800001DA7F422D230A21021EA0F1010000DCBD
:100E90005FB197FBF1FC97FBF1F201FB1C7C17465D
:100EA0000CF1300C08F801CDEEE7A8F10100037059
:100EB0002188090501D5452100E06521A0F101083F
:100EC00000F8011C09980FA9A1EB0807FF1D00B14C
:100ED0000120411901EBEA70A1693844081A401E4B
:100EE000A0612078C00602D42046FFF70DFA0998C9
:100EF00028B1D4E901219047206A401C2062207863
:100F0000C00622D52046FFF7FFF91EE0002E04DBC5
:100F1000B34502DD01A8805D00E03020D4E9012165
:100F20009047206A401C2062761CAAF101005FEA0B
:100F3000000A0AD100F018FAC0680168405CD4E9E0
:100F400001219047206A401C2062281EA5F101055E
:100F5000DCDC07E0D4E9012118F8010B9047206A96
:100F6000401C2062381EA7F10107F3DC2046FFF782
:100F7000E1F9032011B043E62DE9F04F04460D4698
:100F8000D21D22F0070089B0D0E9009748463946C3
:100F900001F098FB0246F80F01D02D2307E02068EE
:100FA000810701D52B2302E0202101EAC0038DF83F
:100FB00020300BB1012000E00020032A824601D03E
:100FC000072A04DB2946204600F0D2F93FE12078C9
:100FD000800601D40D2500E0E569C7F30A560D2D02
:100FE00049DA00214FEA175B08464FF00000002F56
:100FF00000F4400007DA00EB80004FF4400100EB02
:10100000D07001EA60008115012901DD4FF0FF3148
:1010100000224FEA850CBCF1180F06D31346ACF141
:1010200018004FF08052C24003E04FF4801323FABF
:101030000CF30CF10C0CBCF1200F04D3ACF1200C20
:1010400009FA0CF001E007FA0CF000294FF0004813
:1010500001DD18B90FE00ED140450CD319EB0209A0
:101060005F4121B9404502D19F4329EA0209BBEB08
:10107000175F00D0761C2088000502D57B48784495
:1010800002E07A487844193808AA302302F80A3076
:10109000037C0AF10101002E0AF1020A53546A4648
:1010A00002DC4FF0300101E04FF031014FF0010858
:1010B0008DF8001002D0A6F2FF3603E059EA47018E
:1010C00000D06B4E002D02DC2178090704D54FF0CB
:1010D00002082E218DF80110C44600210BE0C7F351
:1010E00003433F01C35C491C6D1E02F8083005290B
:1010F00008F1010801DA002DF1DC00210CE000EB21
:101100001973491C1B786D1E082902F808304FEA34
:10111000091908F1010801DA002DF0DC21688B06BD
:1011200002D516E0A8F10108E04505DD02EB080351
:1011300013F8013C302BF5D0B8F1000F09DD02EBBC
:10114000080313F8013C2E2B03D1090701D4A8F1A1
:101150000108002D05DD3E2102F808106D1E08F182
:101160000108407C002E02F8080008F1010804DAAA
:101170002D20764202F8080002E02B2002F8080039
:101180000A214FF47A70864208F101080BDB96FBC6
:10119000F0F3303302F8083096FBF0F308F1010861
:1011A00000FB136601E0642E0CDB642096FBF0F379
:1011B000303302F8083096FBF0F308F1010800FB29
:1011C000136601E00A2E06DB96FBF1F0303002F8E0
:1011D000080008F1010896FBF1F001FB10603030C7
:1011E00002F80800A16908F1010808EB050202EB0A
:1011F0000A00081AA0612078C00602D42046FFF732
:1012000083F8216A08AE01EB0A00206204E0D4E909
:10121000012116F8010B9047BAF1010AF7D22078A4
:10122000C00602D52046FFF76FF86E4609E016F8B3
:10123000010B3E280FD0D4E901219047206A401CC1
:101240002062B8F10108F2D22046FFF773F809B026
:101250000320BDE8F08F206A2844206203E0D4E92F
:101260000121302090476D1EEBD3F8E73544000094
:1012700002FCFFFF10B5436913B1AFF3008001E03A
:10128000FFF740FA012010BD127800F124010A7026
:1012900000224A700122EDE711684FF0FF32E9E7C2
:1012A00010B5436913B1AFF3008001E0FFF7F0FA26
:1012B000012010BD128800F1240182840022C28422
:1012C0000122EDE711684FF0FF32E9E770B51646ED
:1012D0000C46054600F040F8036893F80101012828
:1012E00006D0FF2C0FD8185D68B101202C7070BD9E
:1012F000D3F807013246214603F207130344284678
:10130000BDE8704018474FF0FF3070BD704775461C
:10131000FFF7DCFBAE4605006946534620F00700A8
:10132000854618B020B5FEF7C1FFBDE820404FF05C
:1013300000064FF000074FF000084FF0000B21F0BF
:101340000701AC46ACE8C009ACE8C009ACE8C0098C
:10135000ACE8C0098D46704710B500F005F8001DD7
:1013600010BD00BFDD38000000487047400C002071
:101370002DE9F0411F46044603260168072A01F4BF
:10138000006004DB08B116A505E016A503E008B16E
:1013900015A500E015A521F010002060A069C01E71
:1013A000A0610FB1401EA0612046FEF7ADFF4FB116
:1013B000D4E9012138469047206A401C2062C01CB5
:1013C000206206E0206AFAE7D4E9012115F8010B52
:1013D0009047761EF8D22046FEF7ACFFBDE8F081BC
:1013E0004E414E006E616E00494E4600696E6600C9
:1013F0002DE9F047814616468AB0334878440DC837
:101400008DE80D0030487844801C03AC0DC884E89A
:101410000D0041F69B300844372190FBF1F290FB20
:10142000F1F5A5F1800501FB12041B3C02D56442D5
:10143000012000E00020DFF890A080460027FA4459
:10144000AAF1BE0A0DE0E00709D03246684607EB74
:1014500047010AEB810100F00EFB8DE807006410E4
:101460007F1C002CEFD1184F7F44AC3F18E0E807F9
:1014700014D007EB04100DF1180A90E80E008AE86A
:101480000E00C068F04201D198190890324606A9B2
:1014900003A800F0F0FA03AB83E807006D10641CAA
:1014A000002DE4D132466946B8F1000F03A802D0FE
:1014B00000F0CDFA01E000F0DEFAC9E90001C9F858
:1014C00008200AB0BDE8F0874841000010B5044686
:1014D000AFF300802046BDE81040FEF7C6BE000016
:1014E00001491820ABBEFEE7260002004FF0013C88
:1014F00050F8042B51F8043B9A4221D1A2EB0C0383
:10150000934313EACC1317D150F8042B51F8043B42
:101510009A4215D1A2EB0C03934313EACC130BD1DF
:1015200050F8042B51F8043B9A4209D1A2EB0C036A
:10153000934313EACC13DBD04FF00000704700BF99
:10154000D01A01BAB1FA81F101F0180122FA01F0C2
:10155000CB40C1F12001DBB2C0B2C01A2CFA01F3BA
:10156000D11A914311EAC311E6D170475FEA400CEA
:1015700008BF91F0000F4FEA8C234FEAC12243EAE3
:1015800051514FEA1C5018BF00F5F0404FEA3000AF
:1015900018BF41F000415FEA6C5C00F02980BCF1AB
:1015A000FF3F08BF40F080407047130C06BF120495
:1015B0004FF0100C4FF0000C130E04BF12020CF190
:1015C000080C130F04BF12010CF1040C930F04BF9D
:1015D00092000CF1020CD30F04BF52000CF1010C6D
:1015E00011464FF00002A0F11F00A0EB0C00704765
:1015F00011F0004F08BF704731F000413FF4D5AF04
:101600000B0C06BF09044FF0100C4FF0000C0B0E32
:1016100004BF09020CF1080C0B0F04BF09010CF107
:10162000040C8B0F04BF89000CF1020CCB0F04BF1C
:1016300049000CF1010CCCF12003A0EB0C0022FAC4
:1016400003F302FA0CF241EA030100F101007047D2
:1016500020F07F4C80EA030023F07F47ACEB0703C8
:1016600003F57C5300F0004003F1FF032DE98049AE
:101670004FEA154B09B44FEA144325EA0B4E24EA0E
:1016800003480FF2042606EB132749083E785FEA69
:10169000320203FB0667C7F5000707FB06F64FEAB1
:1016A00054374FEAD64606F1020607FB066CCCF12A
:1016B000005C4FEA1C472CEA074C07FB06F40CFBC6
:1016C00006F504EB15464FEA961634BF00204FF09E
:1016D00000404FEAD13706FB07FC4FEA1C4C0CFBDD
:1016E0000BF7D21B03FB0CF761EB07010CFB0EF7AA
:1016F000B0EB074072EB17420CFB08F734BFA2EBCC
:101700000742B2EB074261EB17414FEA0C444FEA44
:10171000910706FB07FC4FEA1C4C0CFB0BF7B0EBE8
:10172000C74072EB573203FB0CF734BFA2EBC74242
:10173000B2EBC74261EB57310CFB0EF7B0EBC700C1
:1017400072EB57720CFB08F734BFA2EBC702B2EB87
:10175000C70261EB5771039F4FEA816141EA921121
:1017600004EBCC044FEAD1374FEA826206FB07FC58
:1017700042EA90124FEA80604FEA1C4C0CFB0BF7D8
:10178000D21B03FB0CF761EB07010CFB0EF7B0EB70
:10179000074072EB17420CFB08F734BFA2EB07427D
:1017A000B2EB074261EB17414FEA8C554FEA9107C4
:1017B00004EB9C2406FB07FC4FEA1C4C0CFB0BF7CC
:1017C000B0EBC74072EB573203FB0CF734BFA2EB10
:1017D000C742B2EBC74261EB57310CFB0EF7B0EBDF
:1017E000C70072EB57720CFB08F734BFA2EBC702BD
:1017F000B2EBC70261EB577115EB4C254FEA8161E3
:1018000041EA92114FEA82624FEAD13742EA9012DE
:1018100006FB07FC44F100044FEA80604FEA1C4CD1
:101820000CFB0BF7D21B03FB0CF761EB07010CFB66
:101830000EF7B0EB074072EB17420CFB08F734BF12
:10184000A2EB0742B2EB074261EB174115EB1C1507
:101850004FEA813141EA92414FEA823242EA9042B4
:101860004FEA80304FEA0C7644F1000448EA034323
:101870004EEA0B484FF0000EB2EB080C71EB030779
:1018800024BF624639464EEB0E0E4FF0000B001897
:10189000524149414BEB0B0BB2EB080C71EB0307C8
:1018A0007BF1000B24BF624639464EEB0E0E4FF023
:1018B000000B0018524149414BEB0B0BB2EB080CEB
:1018C00071EB03077BF1000B24BF624639464EEBF8
:1018D0000E0E51EA020718BF46F0010616EB0E760F
:1018E00055F1000254F1000103D5BDE88901BDE8BE
:1018F0000088BDE88901BDE80048B619524141EBB6
:101900000101A3F10103704780807F7E7D7C7B7A9B
:101910007978777676757473727171706F6E6E6D9B
:101920006C6C6B6A6A696868676666656464636341
:1019300062616160605F5F5E5E5D5D5C5C5B5B5AC7
:101940005A59595858575756565555555454535334
:1019500052525251515050504F4F4F4E4E4D4D4D8F
:101960004C4C4C4B4B4B4A4A4A49494948484847DA
:101970004747474646464545454444444443434318
:101980004342424242414141002B26D4770021D0BC
:101990001CB54FEA370703B44FF010004FF01001A9
:1019A0004FF000000FBCBDE810400BF1010BBBF184
:1019B000010F08BF5FEA170722BF12F1010211F100
:1019C00001014FF0004143F1000300F0004043EA01
:1019D00000007047F9D35708DAE746EA064613F1E4
:1019E000400F4FEA16461FDD13F1200FDFBF1643ED
:1019F0000A46002120335B42C8D0C3F1200746EAE3
:101A0000064602FA07F74FEA164646EA0706C3F10A
:101A1000200722FA03F201FA07F721FA03F14FF047
:101A2000000342EA0702B1E746EA020646EA064632
:101A30004FEA164646EA0106BCBF46EA0646360CA1
:101A40004FF000034FF000024FF000019EE72DE938
:101A5000C048934630B491E8380007C831EA400CDA
:101A600048BF34EA430C03D5FFF7F2FDFFF78CFFC4
:101A7000F0BCBDE800882DE9C048934630B491E839
:101A8000380007C810F0804F08BF13F0804F03D113
:101A900000F005F8FFF778FFF0BCBDE8008820F003
:101AA0007F4780EA030023F07F4C07EB0C03A3F58C
:101AB0007C5300F00040A3F1FE0392F0000F00F011
:101AC000B38095F0000F00F077802DE901494FEACF
:101AD00011404FEA144621EA004800FB06FC24EAC4
:101AE000064708FB06F607FB08F800FB07F718EBAC
:101AF00006484CEB164C4FEA124B18EB07484FEADE
:101B000015464CEB174022EA0B4E0BFB06FC25EA70
:101B100006470EFB06F607FB0EFE0BFB07F71EEB58
:101B2000064E4CEB164C4FF000061EEB074E4CEBEE
:101B3000174B18EB0B0840F1000018EB0E0B58EB9D
:101B4000000840F100008F1A4FF000013CBFC9436C
:101B5000661B14BFB5EB040C00213CBFC943F61B48
:101B60004FEA17444EEA8E0E27EA04454FEA1C4717
:101B700004FB07622CEA074C05FB07F70CFB05F694
:101B800004FB0CFC16EB074642EB174216EB0C4627
:101B900042EB1C421BEB060658EB0202414146EAAF
:101BA0009E0601D5BDE80189B619524141EB0101FC
:101BB000A3F10103BDE801894FEA14454FEA11473B
:101BC00024EA054621EA074C05FB07F406FB07F764
:101BD0000CFB06F105FB0CFC11EB074144EB174431
:101BE0004FEA124711EB0C4144EB1C4422EA074C2C
:101BF00005FB07F206FB07F70CFB06F605FB0CFCE2
:101C000016EB074642EB174216EB0C4642EB1C451F
:101C10006A1854F1000148BF7047B619524141EBB0
:101C20000101A3F10103704795F0000F37D04FEA8F
:101C300011424FEA144721EA024624EA074C02FB0C
:101C400007F106FB07F70CFB06F402FB0CFC14EB98
:101C5000074441EB17414FEA154714EB0C4441EBA5
:101C60001C4125EA074C02FB07F506FB07F70CFBB6
:101C700006F602FB0CFC16EB074645EB174516EB88
:101C80000C4645EB1C42121951F1000148BF704748
:101C9000B619524141EB0101A3F1010370474FEA2C
:101CA00014454FEA114724EA054621EA074C05FB93
:101CB00007F106FB07F70CFB06F24FF0000605FBE9
:101CC0000CFC12EB074241EB174112EB0C4251EBBB
:101CD0001C4148BF7047921841EB0101A3F1010379
:101CE000704721B1826842F00102826003E082689D
:101CF00022F001028260704710B504461248844207
:101D000008D10121401500F019FA0021601500F0FA
:101D100015FA17E00D48844208D10121001500F0A2
:101D20000DFA0021201500F009FA0BE00848844262
:101D300008D10121C80300F001FA00214FF400404E
:101D400000F0FCF910BD0000002401400028014013
:101D5000003C0140014600208A6802F004020AB1FA
:101D6000012000E0002070470246002013680B406D
:101D70000BB1012000E000207047014600208A6876
:101D800002F008020AB1012000E0002070470000C4
:101D900030B502460020002350680F4C20400D79DA
:101DA0000C6844EA05242043506090680B4C2040A6
:101DB000D1E902542C434D7944EA45042043906014
:101DC000D06A20F470000C7C641EE4B2234340EA25
:101DD0000350D06230BD0000FFFEF0FFFDF7F1FFC1
:101DE000F0B504460D4600200021092D11DDE06804
:101DF000A5F10A0606EB4607072606FA07F188430F
:101E0000A5F10A0606EB460603FA06F10843E06070
:101E10000CE0206905EB4507072606FA07F1884321
:101E200005EB450603FA06F108432061072A0FDA9D
:101E3000606B561E06EB86071F2606FA07F18843DD
:101E4000561E06EB860605FA06F10843606322E09B
:101E50000D2A0FDA206BD61F06EB86071F2606FA1F
:101E600007F18843D61F06EB860605FA06F10843FC
:101E7000206310E0E06AA2F10D0606EB86071F263C
:101E800006FA07F18843A2F10D0606EB860605FA6D
:101E900006F10843E062F0BD816841F0080181600D
:101EA000704721B1826842F4A002826003E0826838
:101EB00022F4A00282607047816841F004018160D1
:101EC0007047000030B10749096841F40001054A34
:101ED000116005E00349096821F40001014A11601D
:101EE0007047000008240140014602480160006874
:101EF00070470000003002400120014988607047AF
:101F00000030024021B1026842F00102026004E0A8
:101F100002684FF6FE731A400260704701684FF680
:101F2000FE72114001600021016041608160C1606A
:101F30004B49884208D14A490839496841F00F01A4
:101F4000474A083A51608AE045491431884208D12D
:101F500043490839496841F0F001414A083A516063
:101F60007DE03F492831884208D13D490839496818
:101F700041F470613A4A083A516070E038493C31A6
:101F8000884208D136490839496841F47041344AD9
:101F9000083A516063E032495031884208D13049F3
:101FA0000839496841F470212D4A083A516056E0D9
:101FB0002B496431884208D129490839496841F4DC
:101FC0007001274A083A516049E025497831884232
:101FD00008D123490839496841F07061204A083A1C
:101FE00051603CE01F49884206D1011F096841F059
:101FF0000F01021F116032E01A491431884208D1E2
:102000001849091F096841F0F001164A121F1160B2
:1020100025E014492831884208D11249091F09686E
:1020200041F470610F4A121F116018E00D493C31F4
:10203000884208D10B49091F096841F47041094AD7
:10204000121F11600BE007495031884207D1054942
:10205000091F096841F47021024A121F116070477C
:10206000080002400804024010B50022026847F64A
:10207000F0739A430C6A8B6823430C6923434C69C1
:1020800023438C692343CC6923434C6A23438C6AE2
:1020900023431A430260CB6843600B6883604B683C
:1020A000C36010BD00F01F0201219140420992005F
:1020B00002F1E022C2F800117047000029B1064A7F
:1020C00052690243044B5A6104E0034A5269824355
:1020D000014B5A61704700000010024029B1064AC6
:1020E000D2690243044BDA6104E0034AD2698243B5
:1020F000014BDA61704700000010024029B1064A26
:1021000012690243044B1A6104E0034A12698243D4
:10211000014B1A61704700000010024029B1064AC5
:1021200092690243044B9A6104E0034A9269824334
:10213000014B9A61704700000010024029B1064A25
:10214000D2680243044BDA6004E0034AD268824357
:10215000014BDA60704700000010024030B50021EA
:102160000022002400232D4D6D6805F00C0121B1E3
:10217000042905D0082923D105E0294D056022E076
:10218000284D05601FE0254D6D6805F47012234D44
:102190006D6805F48034022505EB92421CB9224D8E
:1021A000554305600BE01D4D6D6805F400351DB10C
:1021B0001B4D5543056002E01A4D5543056002E092
:1021C000174D056000BF00BF144D6D6805F0F001AC
:1021D0000909164D6B5C0568DD4045600F4D6D6863
:1021E00005F4E061090A114D6B5C4568DD408560CE
:1021F0000A4D6D6805F46051C90A0C4D6B5C456869
:10220000DD40C560054D6D6805F44041890B084D02
:102210006B5CC568B5FBF3F5056130BD001002408D
:1022200000127A000024F40000093D0000000020A4
:10223000100000200149086670470000000042427B
:1022400002460020044B586820F47C1042EA010347
:102250001843014B586070470010024021B10288BA
:1022600042F04002028004E002884FF6BF731A4039
:102270000280704710B50022028802F441520B8898
:102280004C8823438C882343CC8823430C892343E5
:102290004C8923438C892343CC8923431A430280EE
:1022A000838B4FF2FF74234083830B8A038210BD1C
:1022B00010B500F001F810BD0CB5002001900090A1
:1022C0003348006840F480303149086000BF30482E
:1022D000006800F4003000900198401C01900098C4
:1022E00018B90198B0F5A06FF1D12948006800F441
:1022F000003010B10120009001E000200090009813
:10230000012843D12348006840F0100021490860AB
:102310000846006820F0030008600846006840F0A6
:10232000020008601A484068194948600846406839
:1023300048600846406840F480604860084640684D
:1023400020F47C1048600846406840F4E81048607B
:102350000846006840F08070086000BF0C480068C4
:1023600000F000700028F9D00948406820F0030010
:10237000074948600846406840F00200486000BFD6
:102380000348406800F00C000828F9D10CBD00009B
:1023900000100240002002401A480068401C194901
:1023A0000860B0F57A7F06DB0020086016484068B8
:1023B000401C1549486014480068401C12490860D8
:1023C0000120886011480068401C10490860012005
:1023D0000D4948610D4800684FF4FA7190FBF1F225
:1023E00001FB120010B90120074908610748006885
:1023F000142190FBF1F201FB120010B901200249F7
:10240000C86070475C000020980600206000002033
:1024100010B51348006840F00100114908600846F3
:102420004068104908400E494860084600680E4957
:1024300008400B4908600846006820F480200860C6
:102440000846406820F4FE0048604FF41F00886092
:10245000FFF72EFF4FF000600449086010BD000038
:10246000001002400000FFF8FFFFF6FE08ED00E05C
:1024700010B50446C4EBC40000EB4000034A8118C9
:1024800015220348FEF7B2F810BD000089000020B5
:102490008C09002070B5104C2068058805F080007C
:1024A000B8B12068011D04F1140000F0F0FB80B900
:1024B000002030B12168898941F080012268918132
:1024C00005E02168898921F080012268918100BF9F
:1024D00000BF00BF70BD00001400002070B5104C9C
:1024E0002068058805F08000B8B12068011D04F15E
:1024F000140000F0CCFB80B9002030B1216889893C
:1025000041F080012268918105E02168898921F0EC
:1025100080012268918100BF00BF00BF70BD000034
:102520003800002021B1828942F40052828104E007
:1025300082894DF6FF731A40828170471AB1838AEF
:102540000B43838202E0838A8B43838270470000BF
:1025500010B504462048844209D101218803FFF7C1
:10256000EDFD00214FF48040FFF7E8FD32E01B480D
:10257000844209D101214804FFF7C0FD00214FF436
:102580000030FFF7BBFD25E01548844209D1012149
:102590008804FFF7B3FD00214FF48020FFF7AEFD64
:1025A00018E01048844209D10121C804FFF7A6FDB4
:1025B00000214FF40020FFF7A1FD0BE00A48844200
:1025C00008D101210805FFF799FD00214FF4801083
:1025D000FFF794FD10BD00000038014000440040AA
:1025E00000480040004C0040005000402DE9F047FA
:1025F00086B005460E460024A24600BFA14600272D
:10260000B08900B100BF2F462C8A4CF6FF70044001
:10261000F08804432C82AC894EF6F3100440B08855
:1026200031890843718908430443AC81AC8A4FF671
:10263000FF400440B0890443AC8201A8FFF78EFD3F
:102640001F48874202D1DDF810A001E0DDF80CA0A0
:10265000A88900F4004040B10AEBCA0000EB0A1060
:1026600031684900B0FBF1F807E00AEBCA0000EB63
:102670000A1031688900B0FBF1F86420B8FBF0F073
:1026800004012009642101FB1089A88900F400409D
:1026900040B1322000EBC900B0FBF1F000F00700C0
:1026A000044308E0322000EB09106421B0FBF1F094
:1026B00000F00F0004432C8106B0BDE8F087000055
:1026C00000380140490050EAC12018BF04204A0DDB
:1026D00018BF40F0010040F2FF72B2EB515F08BF3B
:1026E00040F00200012808BF0520704730380A2852
:1026F00001D2012070470020704710B500F001F8AA
:1027000010BD00BF00BF00BF7047000010B500BF84
:102710004FF480500249086000BFFFF7EEFF10BD84
:10272000100C014000BF4FF480500249086000BF08
:1027300070470000140C014070B504460E46154663
:10274000B6B1ADB10B200B490870200C4870200ABF
:102750008870CC7000200871FFF7E4FF0521054860
:1027600001F06CFC2946304601F052FCFFF7CEFF29
:1027700070BD00007000002010B5134890F8DA001A
:10278000401C114981F8DA00084690F8DA00112857
:1027900002DD002081F8DA006A220B49091D01F1EF
:1027A0006A00FDF723FF084A92F8DA1092F8D90080
:1027B00000F01CFB044A92F8DA1092F8D9000122CA
:1027C00001F03AF910BD00008809002010B53D481D
:1027D00001F0B8FB002873D03B48007860B93B4853
:1027E0000068C0F3400018B901203749087010E0B4
:1027F0000020354908700CE034480068C0F3400000
:1028000038B133A000F020FA00202F4908700120D1
:1028100010BD2D48407860B92C48006800F00100D8
:1028200018B901202849487010E000202649487056
:102830000CE02648006800F0010038B12AA000F042
:1028400003FA0020204948700320E1E71E48807801
:1028500060B92A488068C0F3C03018B901201A490D
:10286000887010E00020184988700CE023488068C8
:10287000C0F3C03038B11CA000F0E6F900201249C6
:1028800088700420C4E71048C07860B91C4800680C
:10289000C0F3800018B901200B49C87010E0002077
:1028A0000949C8700CE016480068C0F3800038B1D0
:1028B0000DA000F0C9F900200349C8700220A7E765
:1028C0000020A5E7280B0020800000200808014018
:1028D00053656E64207363656E65207374617274F2
:1028E00020636D640000000053656E6420736365AF
:1028F0006E652073746F7020636D6400001001407A
:10290000080C01402DE9F05F07460D4690463E4613
:102910004FF0FF39B8F1000F01D0FFF7EDFA0AE0F0
:1029200056F804AB504601F05DF98346FFF7DCFA38
:1029300081462D1F00BF042DF2DA484601F052F9FE
:102940000446002D43D04846FFF7CEFA8346012DBA
:1029500004D0022D13D0032D36D122E0317881EA44
:10296000040001F03FF94FEA106A5046FFF7BCFA45
:102970008146484601F036F980EA142425E0318882
:1029800089B281EA040001F02DF94FEA104A50465D
:10299000FFF7AAFA8146484601F024F980EA144478
:1029A00013E0316821F07F4181EA040001F01AF957
:1029B0004FEA102A5046FFF797FA8146484601F041
:1029C00011F980EA146400E000BF00BF00BFE043DB
:1029D000BDE8F09F2DE9F843254890F8DC007F28FA
:1029E00013DD2448007880B9214890F8DC0000907D
:1029F0001F4890F8DA2090F8D91000234FF6FF70A6
:102A000001F018FA01201B4908701949C88802F022
:102A1000AFFB8146184902F0BFFB0746174909681A
:102A2000134AD2F8E020881A02F0A2FB8046394609
:102A300002F0BCFA0646124902F0AEFB054602F06F
:102A400077FB04460A4890F8DC10491CA1420DD2DD
:102A5000014681F8DC40FF2C06D9FF2081F8DC001C
:102A600000F0E2F9BDE8F8830020FBE70120F9E778
:102A700088090020880000200000204198060020DE
:102A800000007F432DE9F0470446204602F070FB2A
:102A90008246124902F08AFA07461149C88802F0B4
:102AA00067FB82460F4902F077FB8046394602F009
:102AB00073FB06460C49086802F05AFB8146314612
:102AC00002F036FC054602F033FB0549C1F8E00090
:102AD000084680F8DC40BDE8F087000000007F4336
:102AE00088090020000020419806002000B5034618
:102AF0004FF47A7103FB01F000F003F800BF00BF50
:102B000000BDC00004E000BF00BF00BF00BF00BFA9
:102B1000011EA0F10100F6D17047000010B500249D
:102B20003BE02548006884421FD104EB4400234A5F
:102B300002EB8000017A224800F096FE04EB44018B
:102B40001E4A02EB8101898888B2012100F0ECFE67
:102B500004EB4401194A52F821100969084304EBB7
:102B6000440152F82110086115E004EB4401134AB6
:102B700002EB8101898888B2002100F0D5FE04EBC8
:102B800044010E4A52F821100969084304EB44013C
:102B900052F821100861601CC4B2042CC1DB064845
:102BA0000068401C0449086008460068042801DDEC
:102BB0000020086010BD00007C000020D80A002022
:102BC000080B0020F0B505ACF0CCDFF824C0CCF841
:102BD0000000CCF80410CCF80820CCF80C30CCF86D
:102BE0001040CCF81450CCF81860CCF81C70F0BD34
:102BF000080B0020F0B505ACF0CCDFF824C0CCF811
:102C00000410CCF80000CCF81030CCF80C20CCF834
:102C10001C50CCF81840CCF82870CCF82460F0BDDB
:102C2000D80A002010B50146002008E00A5C00EB3D
:102C30004003044C04EB83031A72421CD0B20428F4
:102C4000F4D310BDD80A00200FB408B503A8009033
:102C50000448009A0299FDF73BFB0020009001B068
:102C60005DF814FB6400002001464FF0FF30704710
:102C700070B5044600BFFDF7FFFA054672B60020A6
:102C8000A060E0602846FDF7FAFA00BF70BD2DE9AC
:102C9000F04104460E4600BFFDF7EEFA074672B655
:102CA000A068E168451A4DB1E0686168491E0840B6
:102CB0002168085C3070E068401CE0603846FDF731
:102CC000DEFA00BF15B10120BDE8F0810020FBE76E
:102CD00070B504460D4600BFFDF7CEFA064672B643
:102CE000A0686168491E084021680D54A068401C16
:102CF000A0603046FDF7C3FA00BF70BD70B527482D
:102D0000A0F58071C1F8000225A0FFF79DFF002407
:102D10003AE0E5042B4800EB44111C222846FFF75B
:102D20000BFD0020274901EB44110877254901EBF1
:102D300044114877611C24A0FFF786FF214800EB6F
:102D400044100068401C60B900201E4901EB44118A
:102D500008601C4901EB441148601EA0FFF774FF96
:102D600010E00120174901EB44110877154800EBEA
:102D700044100268134800EB441000F10C0117A046
:102D8000FFF762FF601CC4B2082CC2DBFF200D49B4
:102D900081F808020020C1F8040270BDB0070020CD
:102DA0003D3D3D3D3D3D3D3D3D2046696C652073CB
:102DB000746F72616765203D3D3D3D3D3D3D3D3D4C
:102DC0000D0A0000B0060020536C6F7420256409C2
:102DD000000000004E6F6E650D0A0000257320256F
:102DE000642062797465730D0A00000070B50546B1
:102DF0000C462046FFF73CFB70BD000070B5044652
:102E00000D46E0B20A2806D129460D20FFF7F6FF4D
:102E100008B9002070BDE1B2024801F055FC20461F
:102E2000F8E70000140000202DE9F0472048008951
:102E300038B9FFF7A1FC00201D4981F8DC0081F8BA
:102E4000DD001B49088902F093F98146194902F017
:102E5000A3F9074618490968154AD2F8E020881AEC
:102E600002F086F98046394602F0A0F8064613497A
:102E700002F092F9054602F05BF904460C4890F81E
:102E8000DD00401CA04211D2094981F8DD40FF2C31
:102E900009D9FFF771FC0020054981F8DC0081F8B1
:102EA000DD00074908700020BDE8F0870120FBE73E
:102EB00088090020000020419806002000007F4380
:102EC000880000201FB500F02BFC00F0A9F800F0EE
:102ED00067FC00F047F84FF4E131134801F05EFB66
:102EE0000E2012490422124BCDE90032CDE9021026
:102EF00003230F4A0D210D48FFF764FE0F200D49F3
:102F000008220B4BCDE90032CDE902100923084A13
:102F10000B210848FFF76EFE07A30522002107A03A
:102F2000FFF792FE1FBD00001400002000100140BA
:102F3000000C0140000801406100000053796E63FD
:102F400068726F206C69676874207625642E25642A
:102F50002573207374617274696E672E2E2E0D0AAC
:102F60000000000000B589B02648019010200290B2
:102F70002548009000208DF80D0009208DF81700DD
:102F800000208DF81B0002208DF818001F480490C7
:102F900000208DF8190007208DF8150001208DF80C
:102FA0000C0000208DF814000F208DF816000A2068
:102FB000ADF81C0009208DF81A001548089000BFD4
:102FC00001201449086000BF6420FFF78FFD00BF97
:102FD00001201049091F086000BF4FF47A70FFF705
:102FE00085FD69460C4801F0D4F84FF4FA70FFF7FC
:102FF0007DFD0A21094800F0C5FF074801F0FDF9F1
:1030000009B000BD000801400030014040E3CB336F
:103010000048E801140C0140BC08002064090020AD
:10302000FE48406840F00070FC49486000BF00BFA7
:1030300000BF00BFFA48806940F00400F849886189
:1030400000BFF848006820F0F00040F0B000F549FB
:10305000086000BF00BF4815F2491031086000BF8A
:1030600000BF00BF00BF00BF00BF00BFEC488069C9
:1030700040F00400EA49886100BFEA48006820F493
:10308000706040F48060E749086000BF00BF081529
:10309000E4491031086000BF00BF00BF00BF00BF9F
:1030A00000BF00BFDE48806940F00400DC49886151
:1030B00000BFDC48001F006820F4706040F43060FE
:1030C000D849091F086000BF00BF0420D54910314E
:1030D000086000BF00BF00BF00BF00BF00BF00BF4F
:1030E000CF48806940F00400CD49886100BFCD48D9
:1030F000001F006820F4704040F48040C949091F57
:10310000086000BF00BF0820C6491031086000BF3A
:1031100000BF00BF00BF00BF00BF00BFC048806944
:1031200040F00800BE49886100BFBF48006820F435
:10313000706040F43060BC49086000BF00BF0815F3
:10314000B9491031086000BF00BF00BF00BF00BF19
:1031500000BF00BFB248806940F00800B0498861F4
:1031600000BFB148006820F4704040F48040AE4990
:10317000086000BF00BFC814AB491031086000BF31
:1031800000BF00BF00BF00BF00BF00BFA4488069F0
:1031900040F00800A249886100BFA348001F0068F2
:1031A00020F00F00C01CA049091F086000BF00BF2D
:1031B00001209D490C31086000BF00BF00BF00BF67
:1031C00000BF00BF00BF9648806940F004009449EA
:1031D000886100BF9348001F006820F4700040F42D
:1031E00030009049091F086000BF00BF20208D49B2
:1031F0000C31086000BF00BF00BF00BF00BF00BFB0
:1032000000BF8748806940F004008549886100BF9D
:103210008448001F006820F0704040F03040814931
:10322000091F086000BF00BF80207E490C31086084
:1032300000BF00BF00BF00BF00BF00BF00BF00BF96
:103240007748806940F004007549886100BF75487F
:10325000001F006820F0706040F000607149091F95
:10326000086000BF00BF40206E491031086000BFF9
:1032700000BF00BF091F086000BF00BF00BF00BF44
:1032800000BF00BF00BF6648806940F00400644989
:10329000886100BF6348001F006820F4702040F47C
:1032A00040306049091F086000BF00BF10205D4921
:1032B0000C31086000BF00BF00BF00BF00BF00BFEF
:1032C00000BF5748806940F008005549886100BF39
:1032D0005548006820F4700040F4401052490860DE
:1032E00000BF00BF481450490C31086000BF00BF48
:1032F00000BF00BF00BF00BF00BF4948806940F069
:1033000008004749886100BF4748006820F07060A6
:1033100040F040704449086000BF00BF4FF4804057
:1033200041490C31086000BF00BF00BF00BF00BFB3
:1033300000BF00BF00BF3A48806940F0080038492C
:10334000886100BF3848006820F0704040F00040BD
:103350003549086000BF00BF4FF4004032491031CA
:10336000086000BF00BF00BF091F086000BF00BFAA
:1033700000BF00BF00BF00BF00BF2948806940F008
:1033800004002749886100BF2648006820F47020A7
:1033900040F440302349086000BF00BF8814214931
:1033A0000C31086000BF00BF00BF00BF00BF00BFFE
:1033B00000BF1B48806940F008001949886100BFC0
:1033C0001948006820F4702040F440301649086025
:1033D00000BF00BF881414490C31086000BF00BF53
:1033E00000BF00BF00BF00BF00BF00BF0C48806926
:1033F00040F004000A49886100BF0A48006820F0D4
:103400000F0040F008000749086000BF00BF8815A2
:1034100004491031086000BF00BF07E00000014010
:103420000010024004080140040C014000BF091FC5
:10343000086000BF00BF00BF00BF00BF00BF00BFEB
:1034400000BFB348806940F00400B149886100BF03
:10345000B048006820F0F00040F08000AD490860FE
:1034600000BF00BF0220AB491431086000BF00BF9D
:1034700000BF091F086000BF00BF00BF00BF00BF42
:1034800000BF00BF00BFA248806940F00800A0490B
:10349000886100BFA048006820F4706040F40060BC
:1034A0009D49086000BF00BF04209B49143108609B
:1034B00000BF00BF00BF091F086000BF00BF00BF02
:1034C00000BF00BF00BF00BF00BF9148806940F04F
:1034D00004008F49886100BF8E48006820F00F000B
:1034E00040F008008B49086000BF00BF01208949F7
:1034F0001431086000BF00BF00BF091F086000BF93
:1035000000BF00BF00BF00BF00BF00BF00BF8048BA
:10351000806940F010007E49886100BF7F484068A4
:1035200020F0704040F000407C49486000BF00BF80
:103530004FF40040486100BF00BF00BF086100BFFA
:1035400000BF00BF00BF00BF00BF00BF7048806960
:1035500040F008006E49886100BF6F48006820F4A1
:10356000704040F440506C49086000BF00BF082024
:1035700069491031086000BF00BF00BF00BF00BF35
:1035800000BF00BF6248806940F008006049886160
:1035900000BF6148006820F4702040F440305E496C
:1035A000086000BF00BF10205B491031086000BFF9
:1035B00000BF00BF00BF00BF00BF00BF544880690C
:1035C00040F010005249886100BF5448406820F024
:1035D000706040F040705149486000BF00BF4FF438
:1035E0008040086100BF00BF00BF00BF00BF00BF38
:1035F00000BF4748806940F010004549886100BF1E
:103600004648406820F4700040F440104349486048
:1036100000BF00BF4814086100BF00BF00BF00BF6B
:1036200000BF00BF00BF3A48806940F0040038493D
:10363000886100BF3748001D006820F4704040F4E6
:1036400040503449091D086000BF00BFC81431490B
:103650001031086000BF00BF00BF00BF00BF00BF47
:1036600000BF2B48806940F008002949886100BFED
:103670002948001D006820F0F00040F03000264985
:10368000091D086000BF00BF4815234910310860BC
:1036900000BF00BF00BF00BF00BF00BF00BF1C488D
:1036A000806940F008001A49886100BF1A48001D6F
:1036B000006820F00F00C01C1749091D086000BFFA
:1036C00000BF881514491031086000BF00BF00BF5B
:1036D00000BF00BF00BF00BF0D48806940F004007C
:1036E0000B49886100BF0B48001D006820F0704046
:1036F00040F040500749091D086000BF00BF4FF46B
:10370000004004491031086000BF00BF00BF70478F
:103710000010024000080140000C01400010014070
:1037200010B51E48406820F003001C49486000BFE7
:103730001A48406800F00C000028F9D1FEF77AFD25
:103740004FF4E0114FF44030FEF77AFD0120FEF710
:1037500071FD00BF1148006800F000700028F9D02A
:103760000E48406840F002000C49486000BF0B481A
:10377000406800F008000028F9D001210846FEF753
:10378000CDFC01210846FEF7A9FC01210220FEF72D
:10379000A5FC01210846FEF791FC10BD0010024077
:1037A00000B585B001210803FEF7B8FC0820ADF88C
:1037B0000C000020ADF80800ADF80600ADF80400DC
:1037C000ADF80000ADF80E004FF48270ADF80200C5
:1037D0004FF40070ADF80A0069460448FEF74AFD50
:1037E00001210248FEF73AFD05B000BD003001405E
:1037F000FFF768FB00F070F900F08EFEFFF77EFA2D
:1038000000F046FA00F074F805E000F07FF800F0F0
:103810007DFB00F059F8F8E71CB5FEF7D7FF04462A
:103820000D4890F8DA200DA16846FCF757FD684670
:10383000FFF7F8F9012C04D100221146104600F0E0
:10384000ECF8032C01D100F00DF9042C02D1012079
:10385000044908701CBD0000880900202020253282
:10386000640000008400002010B503460C4604F0FC
:1038700001019A8890B200F057F819680969084365
:1038800019680861998988B2C4F3400100F04CF8C6
:1038900099680969084399680861998A88B2C4F3EC
:1038A000800100F041F81969096908431969086144
:1038B000998B88B2C4F3C00100F036F899690969A0
:1038C00008439969086110BD10B5FFF727F907484B
:1038D000007810B1012806D102E0FFF79DFF02E059
:1038E00000F00CFA00BF00BF10BD000084000020F3
:1038F0000020034908700348008803490880704786
:1039000084000020780000208600002010B50548C3
:1039100090F8D80000B910BDFFF75CF800B1FAE7E5
:1039200000BFF8E7880900200246002935DD102A8B
:1039300031D2DFE802F0080A0C0E10121416181B20
:103940001E2124272A2D012070470220FCE7042095
:10395000FAE70820F8E71020F6E72020F4E74020F7
:10396000F2E78020F0E74FF48070EDE74FF400704D
:10397000EAE74FF48060E7E74FF40060E4E74FF4D4
:103980008050E1E74FF40050DEE74FF48040DBE782
:103990004FF40040D8E700BF3DE0102A39D2DFE8FD
:1039A00002F0080B0E1114171A1D202326292C2FA4
:1039B00032354FF48030C7E74FF40030C4E74FF49E
:1039C0008020C1E74FF40020BEE74FF48010BBE732
:1039D0004FF40010B8E74FF48000B5E74FF4000053
:1039E000B2E74FF08070AFE74FF00070ACE74FF0F8
:1039F0008060A9E74FF00060A6E74FF08050A3E792
:103A00004FF00050A0E74FF080409DE74FF000409E
:103A10009AE700BF00BF002096E770B505460E4646
:103A2000144631462846FFF7E1F962B2314628468E
:103A300000F002F870BD000010B5084C84F8D90001
:103A4000234683F8DA10012384F8D830044B1B682E
:103A5000C4F8E030002384F8DC3010BD8809002071
:103A60009806002010B50020034981F8D8004FF6D1
:103A7000FF7000F00BFA10BD880900202DE9F0411D
:103A800005460E4617461C46124890F8D900A84233
:103A900009D1104890F8DA00B04204D10D4890F8EE
:103AA000D800012804D0224631462846FFF7B5FF4A
:103AB000084890F8DC000A30A04205DB054890F881
:103AC000DC000A38A04202DD2046FEF7DBFFBDE83D
:103AD000F08100008809002030B585B00024012164
:103AE0002C4800F059F8002000908DF804008DF863
:103AF00005004FF4602002900020039001208DF813
:103B0000100069462348FEF743F901212148FEF7DA
:103B1000E8F82048FEF7C0F900BF1E48FEF72DF96F
:103B20000028FAD11B48FEF7C7F900BF1948FEF775
:103B300011F90028FAD10120FEF7C4F9052301226A
:103B400010211448FEF74CF901211248FEF7A9F99B
:103B5000002515E000BF02210E48FEF705F90028F8
:103B6000F9D00C484C300068604084B24FF6FF70CA
:103B700000EA440401210748FEF793F9681CC5B226
:103B8000322DE7DB0348FEF7B7F82046FCF7E4FCEC
:103B900005B030BD0024014070B504460D46104804
:103BA000204430B1B0F5806F0AD0B0F5C05F15D1B8
:103BB0000DE029464FF40070FEF7B0FA012070BD09
:103BC00029464FF48060FEF7A9FA0120F7E729465D
:103BD0004FF40040FEF7A2FA0120F0E70020EEE7E4
:103BE00000DCFEBF014691FAA1F070472DE9F041DB
:103BF0000746214C204621490A8802808978817035
:103C00004FF6FF70A4F803000120A0710520607139
:103C10001B480078E071002526E0681F194A5043D0
:103C2000194A02EB4011194800F080FB1420FEF7FE
:103C30005DFF002614E0A079C01DC2B20E491348F2
:103C400000F0BCFB03E0FEF769FF00F091FC0F48B9
:103C5000807C0028F7D13220FEF748FF701CC6B2E6
:103C6000052EE8DB681CC5B20A2DD6DB384600F00D
:103C70002BF9BDE8F08100006C0A002060540008B8
:103C8000780000202D31010040E3CB33BC08002038
:103C900010B5154815494860022088607F200880CB
:103CA00000208870084600F091FE104800F09BFE4E
:103CB0000D4800880A2805DD05200B4908800B48BF
:103CC00000F0FEFD08480088401F094A5043094A99
:103CD00002EB4011084800F029FB6420FEF706FFC4
:103CE000054800F08AFB10BD78000020AC0A0020D7
:103CF0002D31010040E3CB33BC0800201CB5FEF79A
:103D000065FD04461548028815A16846FCF7E6FAE9
:103D10006846FEF787FF012C03D110490878FFF7AA
:103D200065FF022C07D10D48008820B10B480088A0
:103D3000401E0A490880032C0AD108480088401C0C
:103D40000649088008460088092801DD0920088006
:103D5000042C02D10020044908701CBD86000020FC
:103D60003031253264000000840000202DE9F0414C
:103D700006460F463446E51D03221D493046FCF732
:103D800009FC20B11BA0FEF75FFFBDE8F081B4F88D
:103D900003000B2809D0B4F803004FF6FF718842E6
:103DA00003D01CA0FEF750FFEFE76079012806D092
:103DB000032805D004280BD0052815D10BE014E00A
:103DC0006B7995F90420A9782888FFF757FE0CE055
:103DD000FFF748FE09E0E07915490988884202D0DA
:103DE000E07900F071F800E000BF00BF00BFCCE751
:103DF000605400085265636569766520756E737559
:103E000070706F72746564206D6573736167650DA2
:103E10000A00000052656365697665206D697373F9
:103E200074616B65206D6573736167650D0A0000D1
:103E3000780000202DE9F04706460F469046994647
:103E4000DDF820A00E4CE51D20460E490A880280B0
:103E500089788170A4F80360032060710620A07146
:103E60002F80A5F8028085F8049085F805A0A07938
:103E7000C01DC2B22146044800F0A0FABDE8F08798
:103E80006C0A002060540008BC08002070B505468C
:103E90000A4C20460A490A88028089788170A4F871
:103EA0000350042060710020A071A079C01DC2B22F
:103EB0002146044800F082FA70BD00006C0A002020
:103EC00060540008BC08002010B50446601F0A4A70
:103ED00050430A4A02EB4011094800F027FA6420D7
:103EE000FEF704FE064800F088FA064804800648FB
:103EF00000F0E6FC10BD00002D31010040E3CB33A3
:103F0000BC08002078000020AC0A002010B50B4847
:103F100000F018F810B10A4800F078FA084890F854
:103F2000A50048B1064890F8A6108530FFF71EFF9F
:103F30000021034880F8A51010BD0000640900208E
:103F4000BC08002001460E4800680860087C18B1D3
:103F50000120886000207047886828B1CA68086816
:103F60001044486000208860D1E90002904205D3E7
:103F7000CA680868104448600120ECE70020EAE7BE
:103F800098060020C1600022027401228260002293
:103F900002604260704700BF00BF00BF00BF7047B3
:103FA00070B5044600252DE000BF00BF4FF400505F
:103FB0001649086000BF00BF00BF04F0800028B1B0
:103FC00000BF4FF48040091F086005E000BF4FF4B8
:103FD00080400E49086000BF00BFFFF7DCFF00BF54
:103FE00000BF4FF400500949091F086000BF00BF1F
:103FF000FFF7D1FF05480C380068C0F3C03040EA35
:1040000044046D1C082DCFDBE0B270BD140C0140E0
:104010002DE9F04104460E462746254607E095F86F
:1040200000804046FFF7BCFF05F8010B00BF301EC3
:10403000A6F10106F3D13846BDE8F08170B504461B
:104040000D46264603E016F8010BFFF7A9FF281ED0
:10405000A5F10105F7D170BD70B504460D46606845
:10406000C068A16888436168C8600220FEF749FD06
:104070002946206800F039F85521206800F035F80D
:1040800006466068C068A16808436168C86002208D
:10409000FEF737FD304670BD2DE9F04104468846F5
:1040A00016461F466068C068A16888436168C8609A
:1040B0000220FEF726FD4146206800F016F8002594
:1040C00006E05521206800F010F87055681CC5B254
:1040D000BD42F6DB6068C068A16808436168C860DB
:1040E0000220FEF70EFDBDE8F0810246918100BF7F
:1040F000108900F001000028FAD09089C0B2704702
:1041000070B504460D4616466068C068A1688843CD
:104110006168C8600220FEF7F4FC45F08001206869
:10412000FFF7E3FF31462068FFF7DFFF6068C068F4
:10413000A16808436168C8600220FEF7E2FC70BD18
:104140002DE9F04104460E46174698466068C0685F
:10415000A16888436168C8600220FEF7D2FC46F07F
:1041600080012068FFF7C1FF002505E0795D206828
:10417000FFF7BBFF681CC5B24545F7DB6068C06848
:10418000A16808436168C8600220FEF7BAFCBDE878
:10419000F0812DE9F04704460D46286908B9BDE8CD
:1041A000F087A868A06068686060286820600022C6
:1041B00001212046FFF7A4FF802201212046FFF7BE
:1041C0009FFF702304F1150201212046FFF764FFD1
:1041D000286AE060E06800F0CBFF8046286900F0C4
:1041E000C7FF8146414600F0E1FE07464FF092418D
:1041F000384600F0D1FF0746384600F099FF0646E2
:10420000310CA176310AE17626773220005D20F06C
:10421000F00132200155005DA97E40EA0110C1B2D3
:10422000322001553120005D20F00E013120015572
:10423000005D297E40EA4100C1B231200155005D98
:1042400020F0F00131200155005DE97D40EA0110C8
:10425000C1B231200155687E012806D13120005DB0
:1042600040F001013120015505E03120005D20F0D2
:10427000010131200155202184F8371084F83610CF
:10428000A88B010A84F83410297F84F8351094F83B
:104290003A0040F0040184F83A103220005D20F02A
:1042A000030132200155005D40F003013220015529
:1042B000FF2133200155607F20F07F016177607F0F
:1042C000697D40EA01106077607FA97D08436077CF
:1042D000287D012804D1607F40F08001617703E0F0
:1042E000607F20F080016177702304F115020121C5
:1042F0002046FFF725FF607D40F001016175627D7A
:1043000001212046FFF7FCFE0A20FEF7EFFBFF220B
:1043100012212046FFF7F4FE002184F8A61084F84D
:10432000A51000202074607400BF38E72DE9F04725
:1043300004460E46677D27F007073A4601212046CE
:10434000FFF7DEFE0A20FEF7D1FBE06800F010FF69
:104350008146304600F00CFF8246494600F026FEBA
:1043600080464FF09241404600F016FF804640469E
:1043700000F0DEFE0546290CA176290AE1762577B4
:10438000032304F11A0206212046FFF7D9FEBDE8F7
:10439000F08770B504460D4601212046FFF75CFE0C
:1043A0006075607D20F007016175607D2843607550
:1043B000627D01212046FFF7A3FE70BD70B5044663
:1043C0000D461646207C60740220207480220D2148
:1043D0002046FFF795FE33462A4600212046FFF788
:1043E000AFFE324622212046FFF78AFE0120A0744C
:1043F00003212046FFF7CDFF70BD10B50446012014
:10440000207405212046FFF7C4FF10BD2DE9FE4FA3
:10441000044612212046FFF71FFE814609F00800DE
:10442000B0B1607C30B105212046FFF7B2FF01201A
:10443000207401E0002020740020A07400220D21CF
:104440002046FFF75DFE082212212046FFF758FEA6
:1044500009F04000002850D0402212212046FFF7EA
:104460004FFE04F1850A13212046FFF7F5FD0646AD
:1044700084F8A66010212046FFF7EEFD02900D2182
:104480002046029AFFF73CFE07E000212046FFF796
:10449000E3FD0AF8010B701EC6B2002EF5D11A21F9
:1044A0002046FFF7D9FD834619212046FFF7D4FDAA
:1044B00045B2584600F007FC0746154A154B00F078
:1044C00015FCCDE9000100F0D1FB00F0FF0B002D41
:1044D00005DBCBF19C0041B284F8A7100AE0284626
:1044E000E91705EB9171CBF19C02A2EBA1014AB255
:1044F00084F8A720012184F8A51009F0800028B1D4
:1045000005212046FFF745FF01202074BDE8FE8FFE
:10451000F6285C8FC2F5F03F30B51249B1F1807FCB
:1045200000D31DE021F07F40401E4FF0E02250619B
:1045300050170F22002807DA13071D0E0A4B00F050
:104540000F04241F1D5503E013071C0E074B1C54BA
:1045500000BF00204FF0E02290610720106100BFF3
:1045600030BD00004019010018ED00E000E400E05B
:1045700010B50448FFF7E6FC10B10348FFF746FF0B
:1045800010BD000064090020BC08002010B50446DE
:1045900004F11400FEF76CFB10BD00007FB504466B
:1045A0000D462068FDF7D4FF204600F067F820464E
:1045B000FFF7ECFF094B0FCB8DE80F000095694624
:1045C0002068FEF713F8204600F00AF80121206861
:1045D000FDF7A8FF204600F033F87FBD50540008D7
:1045E00010B58CB00446012240212068FDF7A6FFDB
:1045F0002C22084901A8FCF73EF82068001D019014
:10460000A0680290E068049001A9606800F004F8D6
:104610000CB010BD2454000870B504460D460121AD
:104620000846FDF74BFD2046FDF778FC294620465D
:10463000FDF71AFD01212046FDF764FC70BD000066
:1046400010B504460C492068084448B1B0F5806FA5
:104650000AD0B0F5744F0BD12520FDF723FD08E0FB
:104660002620FDF71FFD04E02720FDF71BFD00E0DD
:1046700010BD00BF00BFFBE700BCFFBF10B5044684
:1046800010492068084450B1B0F5806F0CD0B0F5E7
:10469000744F0ED101218803FDF740FD0AE001218E
:1046A0004804FDF71BFD05E001218804FDF716FD18
:1046B00000E010BD00BF01210846FDF72FFD00BF3F
:1046C000F7E7000000BCFFBF70B504460D46294661
:1046D00004F11400FEF7FCFA012030B12168898949
:1046E00041F080012268918105E02168898921F0EB
:1046F00080012268918100BF70BD10B50446002181
:10470000272001552420015525200155208800F03F
:10471000A9F910B9012127200155208800F0F0F9EE
:10472000E060208800F0DEF92061D4E90310411A2E
:10473000A0680830814202D2012124200155207A4C
:1047400000F0010010B10121252001552720005D56
:1047500028B92420005D10B92520005D20B100217A
:1047600029200155002010BD0121292001550120DB
:10477000F9E701462920405C08B900207047CA6863
:1047800008E01068401C20B100232620435400207C
:10479000F4E7121D0869401C9042F2D8012226203D
:1047A00042540120EAE701462920405C08B9002074
:1047B00070478A684869104408300A69904204D9F1
:1047C0000122282042540120F2E74A690AE01088B9
:1047D0004FF6FF73984204D0012328204354012050
:1047E000E6E7921C8B684869184408309042EED87E
:1047F0000022282042540020DAE72DE9F041044647
:104800002920005D10B90020BDE8F0812046FFF7A7
:10481000B0FF0021202001552620005D002831D165
:10482000E56816E001222846A168FEF76BF8064607
:10483000A06828444768BE4207D1A561A0682858EF
:10484000E06101212020015500E008E0A068083067
:104850000544A1682069401A0838A842E2D800BF80
:104860002020005D28B1A168A0690844083060617B
:104870000AE0A07818B1204600F0C5F804E0E1682D
:10488000616101E0E16861612046FFF78CFF012072
:10489000BAE710B504462920005D10B12020005D64
:1048A00020B9002121200155002010BDD4E90102CA
:1048B000A169FBF79BFE0121212001550120F4E7AE
:1048C0002DE9F84304462920005D10B90020BDE819
:1048D000F883002122200155232001552046FFF7AF
:1048E00062FF2820005D50B1A07818B1204600F08A
:1048F0008AF804E00121232001550020E7E7002683
:10490000B0460027D4F814900122D4E90101FDF744
:10491000F9FF009000250EE0D4E90112606900F073
:104920002DF9012805D1A168606901446161012662
:1049300003E0681CC5B2032DEEDB00BFD6B1E06911
:10494000401CE06100250EE0042204F11C016069B6
:1049500000F014F9012804D16069001D606101278D
:1049600003E0681CC5B2032DEEDB00BF17B9E06998
:10497000401EE061A6B19FB100250EE00422694609
:10498000606900F0FBF8012805D16069001D6061D5
:104990004FF0010803E0681CC5B2032DEEDB00BF39
:1049A0002046FFF700FF66B15FB1B8F1000F08D0F5
:1049B000012120200155C4F8189022200155012022
:1049C00085E7012123200155002080E710B504462A
:1049D000204600F02FF82046FFF78FFE08B9002090
:1049E00010BD0120FCE710B504462046FFF7EEFF9E
:1049F00008B9002010BD2046FFF7FFFE2046FFF754
:104A000048FF0120F6E710B504462920005D08B9EB
:104A1000002010BDE06800F02DF8E168616101211F
:104A2000262001550021202001552046FFF7BBFE1E
:104A30000120EEE70021C161002220210A5421213A
:104A40000A5422210A5423210A5424210A542521DC
:104A50000A5426210A5427210A5428210A542921BC
:104A60000A5470470146802901D201207047002076
:104A7000FCE7000070B5044600BFFBF703FC0646E8
:104A800072B61548154948601548486000BF13487C
:104A9000C06800F001000028F9D134200F49C86037
:104AA0000220086108464461422008610846C06847
:104AB00000BF0A48C06800F001000028F9D107488B
:104AC000C068C0F340158020044908613046FBF7F8
:104AD000DCFB00BFE8B270BD230167450020024047
:104AE000AB89EFCD00B503461846FFF7BBFF08B909
:104AF000002000BD184600F003F800F2FF30F8E790
:104B000000B502461046FFF7ADFF08B9002000BD12
:104B1000900200F10060FAE70E480F4948600F4824
:104B2000486000BF0C48C06800F001000028F9D1BF
:104B300020200949C8600846006940F0010008616A
:104B40000846006900F0800008B10020704701208D
:104B5000FCE700002301674500200240AB89EFCD50
:104B60000548006920F00100034908610846006912
:104B700040F0800008617047002002402DE9F047B6
:104B800004460D46904604EB08093AE004F00100A3
:104B900018B14FF6FF76641E04E015F8011B88B2C9
:104BA00040F47F464C4505D215F8011B304661F3B1
:104BB0001F20064600BFFBF765FB824672B6FFF773
:104BC000ABFF0746012F0FD1268000BF1048C068F9
:104BD00000F0200028B90E48C06800F0010000284D
:104BE000F4D120200A49C860FFF7BAFF5046FBF70E
:104BF0004CFB00BF2088B04200D10FB9002702E073
:104C0000A41C4C45C2D300BF3846BDE8F087000065
:104C10000020024010B500290AD00878002807D0EB
:104C200005487844FCF762FC002801D0002010BD44
:104C30000248784410BD00005E09000056090000DB
:104C400010B500290AD00878002807D00548784414
:104C5000FCF74CFC002801D0002010BD024878442D
:104C600010BD00004E090000460900004FEA115334
:104C7000A3F58063D3F11E03A8BFD3F1200C08DB9A
:104C80004FF0004242EAC12252EA505232FA03F097
:104C9000704709420BD4102BC4BF0020704703F5A6
:104CA000787CBCF1FF3F05D04FF0FF3070474FF0EC
:104CB0000000704770B500F0C3F800BF499224802F
:104CC00000207047F0E7B0FA80F310FA03F10AD041
:104CD000C3F11D0303F580634FEA41504FEA0352CD
:104CE00002EBD12170474FF000007047DFF848C158
:104CF00070B51CEA111E1EBF1CEA13159EEA0C0FAC
:104D000095EA0C0F00F06F8081EA030423EA4C134C
:104D10004EEAD47E21EA4C1141F4801143F4801311
:104D2000AE44A1FB024CA0FB0365AEF17F7E3619B9
:104D300055EB0C05A1FB034C4CF10003A0FB021C3E
:104D400016EB0C06654153F10003094218BF46F00B
:104D5000010613F4007F0BD14FEA03314FEA05300F
:104D6000340341EA155140EA16506FF003020AE09D
:104D70004FEAC3214FEAC520F40241EA555140EA07
:104D800056506FF0020202EB2E4201EB025585EA0B
:104D9000CE710AD05FEA440C18BF24F0004450F1F1
:104DA000000041F1000120EAD47040F2FE7C62452F
:104DB00000D270BDA84214BF4FF080444FF0404471
:104DC000002E08BF0024BEF1806FA8BFA1F1C04132
:104DD000BDE8704080F282804FF0000001F1C041D8
:104DE00001F0004170479EEA0C0F0CEA131518BF42
:104DF00095EA0C0F06D04FF0000081EA030E0EF08A
:104E0000004170BD00F01CF88900013E00F007B8B9
:104E100000F009B84FEA430C5FEA5C5C08D081EA15
:104E2000030100F05BB84FEA410C5FEA5C5CF6D12D
:104E30004FF00000014970470000FF070000F87FB5
:104E40000EF1020E2EF0030E5EF8046B364205D40E
:104E5000012A43EB030515F5001F12D8012841EB89
:104E6000010C1CF5001F0CD80ED14FEAD17C15F5B2
:104E7000001F0CEB4C0C0CF1020C08BF4CEBD37C6C
:104E800004E04FF0080C01E04FEAD37C0CEB4C053A
:104E900026FA05F606F00706B6F1040C06D20EEB6C
:104EA000860CBDE870404CF0010C6047DFE80CF068
:104EB000090B02024FF000414FF00000A1F5002164
:104EC00070BD19461046012851EB010418BFD4F5F6
:104ED000001484BF002001F0004170BD0808A0F557
:104EE00000114FEA3101704790EA010F48BF81F08D
:104EF000004100F12482421A3CBF801A89184FEA0F
:104F0000D0524FF07F4C1CEA410FA2EBD15318BF97
:104F10009CEA026F00F03B804FF0004C4CEA00200E
:104F20004CEA012121FA03FC10EB0C0C1ED202F119
:104F3000FF325FEA1C2040EBC25038BF70471CF0C4
:104F40007F0F4FEA400C18BFBCF17F4F38BF70474E
:104F5000C3F12003994008BF20F00100BCF17F4F4E
:104F600038BF7047A0F1C04000F0DDB94FEA3C0007
:104F7000000A40EBC25028BF1CF0FF0F4FEA400C64
:104F8000E6D018BFBCF17F4F38BF7047EAE79CEA14
:104F9000026F05D010EA5C0F08BF00F000407047B8
:104FA00010B500F07AF900BF64FBBE3E4FF47F0CF1
:104FB0001CEAD0121EBF1CEAD11392EA0C0F93EA2E
:104FC0000C0F00F0858090EA010F48BF42F4807218
:104FD00040F4000C41F400002CF07F4120F07F40B1
:104FE00000B58142A2EB03020FF2081CACEB504E5D
:104FF000C0F100009EF800E04FEA4E0E00FB0EFCF0
:1050000038BF49004FEA2C1C02F5FA020CFB0EF3E4
:105010004FEACE1E4FEA112C4FEAC1210EEB635E20
:1050200042EB22420EFB0CFC4FEA1C5300FB031127
:105030004FEA112C4FEA01310EFB0CFC4FEADC4C1D
:1050400000FB0C11C14228BF09184CEB03335DF87B
:1050500004EB10EB410143EBC250B2F57C0F38BFBB
:10506000704729D512F0F00F1CBF00F1C04000F0CE
:1050700000407047008182838485868788898B8C75
:105080008D8E8F919293959697999A9C9D9FA0A2B1
:10509000A3A5A7A8AAACAEB0B2B3B5B7B9BCBEC001
:1050A000C2C5C7C9CCCED1D4D7D9DCDFE2E6E9ECA2
:1050B000F0F3F7FAFE0000004FEA400C0CF1807CA0
:1050C000BCF17E4F28BF7047B0F1C04000F02BB953
:1050D00090EA010F0CEAD11348BF42F48072624596
:1050E00038BF634507D213F47F0F16D080EA010062
:1050F00000F00040704710B500F0CFF8097EFC3E8C
:1051000000F005B880EA010000F00040704780EA36
:10511000010000F0004000F006B912F47F0F04BF58
:105120000248704780EA010000F0FDB80000C07F2F
:10513000C10DD1F19E0206DB4FEA002343F000438C
:1051400023FA02F07047004207D54FEA4001B1F15F
:10515000FE4F02D24FF00000704710B500F09DF8EE
:1051600049922480002070476FEA200070470000B9
:10517000B0FA80F310FA03F2C3F19D030AD0D90507
:1051800001EB1220530638BF704700F1010008BF41
:1051900020F00100704700004FF47F0C1CEAD01291
:1051A0001EBF1CEAD11392EA0C0F93EA0C0F00F019
:1051B000478090EA010F48BF42F480724FF0004CE4
:1051C0004CEA00204CEA012102EB0302A0FB011390
:1051D000A2F50002002918BF43F001035B0028BFBD
:1051E0004FEA330342EB22425FEA132C4CEBC250EE
:1051F0002EBFBCEB436FB2F57C0F70474FEA036CD8
:10520000BCF1004F08BF20F00100B2F57C0F38BFA1
:1052100070470BD582F0FF0212F5803FC8BF704780
:1052200000F1C040D8BF00F00040704700F5000C0E
:105230005FEA4C0C48BF7047B0F1C04000F073B853
:1052400090EA010F0CEAD11348BF42F48072624524
:1052500038BF634504D280EA010000F00040704787
:1052600010B500F01AF800BF8900013E00F007B841
:1052700000F009B85FEA410C5FEA1C6C08D080EAD4
:10528000010000F050B85FEA400C5FEA1C6CF6D1F8
:105290004FF00040A0F5800070470EF1020E2EF096
:1052A000030E5EF8044B244204D44FEA4102B2F1EB
:1052B0007F4F11D84FEA4003B3F17F4F0CD80ED186
:1052C0004FEAD07CB2F17F4F0CEB4C0C0CF1020C8E
:1052D00008BF4CEBD17C04E04FF0080C01E04FEA32
:1052E000D17C0CEB4C0324FA03F404F00704B4F172
:1052F000040C06D20EEB840CBDE810404CF0010CFF
:105300006047DFE80CF0070802024FF00040A0F50C
:10531000800010BD0846420018BFD2F1807288BFDD
:1053200000F0004010BDFF2141EAD050C005704799
:1053300090EA010F48BF81F000413FF5DCAD421A11
:1053400004D882F00042A0EB020011444FEAD05290
:105350004FF07F4C1CEA410FA2EBD15318BF9CEADF
:10536000026F4AD04FF0004C4CEA00204CEA012179
:1053700021FA03FCB0EB0C0C0FD412F0FE0F36D068
:105380005FEA4C001DD5001240EBC25038BF704799
:105390001CF03F0F18BF70470BE0A2F101025FEA5B
:1053A0001C2040EBC25038BF70471CF07F0F18BF65
:1053B0007047C3F12003994014BF401E20F0010044
:1053C000704780084FEA122308BF7047B0FA80FC8C
:1053D000A2EB0C02CCF1280C60FA0CF093EA122F2D
:1053E00004BF00EBC25070474FEAC3707047130A06
:1053F0005FEADC1008BF7047F6E79CEA026F04D052
:1054000010EA5C0F08BF0020704710B5FFF745FF9A
:1054100040DFF63E81F000407047FBF777BCFBF7BA
:10542000ABBD000000000000000000000000000014
:1054300000000000000000008000000000000000EC
:10544000000000002000000000200000000000001C
:10545000000000000000000000000C000000000040
:10546000CD16BB0400000800000000000000020090
:105470000100001000000000000000003031323355
:105480003435363738394142434445464030580078
:1054900030313233343536373839616263646566AA
:1054A0004030780030313233343536373839616244
:1054B000636465667870003031323334353637389E
:1054C0003941424344454658500000000240000024
:1054D000000000A00000000005400000000000C81F
:1054E000000000000C4000000000409C0000000094
:1054F000194000000020BCBE000000003440000045
:10550000BFC91B8E00000004B5400000504BCFD037
:105510006607E2CF010000006C4100003E8251AA04
:10552000DFEEA73401000000D9420000DCB5A0E2A4
:105530003A301F97FFFFFFFFB4450000FD25A0C8CC
:10554000E9A3C14FFFFFFFFFFF3F00000000008005
:1055500000000000FF3F000000000080000000008D
:10556000AC56000800000020980200002801000846
:105570003857000898020020E82100008401000844
:105580001C00000043000000F8FFFFFF0C000000BB
:105590000E0000000F0000002E00000010010000AF
:1055A00043000000F8FFFFFF004040404040404003
:1055B00040404141414141404040404040404040E6
:1055C000404040404040404040050202020202028A
:1055D00002020202020202020220202020202020D9
:1055E00020202002020202020202909090909090ED
:1055F00010101010101010101010101010101010AB
:10560000101010100202020202028888888888881E
:10561000080808080808080808080808080808080A
:105620000808080802020202400000000000000012
:10563000000000000000000000000000000000006A
:10564000000000000000000000000000000000005A
:10565000000000000000000000000000000000004A
:10566000000000000000000000000000000000003A
:10567000000000000000000000000000000000002A
:10568000000000000000000000000000000000001A
:10569000000000000000000000000000000000000A
:1056A000000000000000000000000000412D010289
:1056B0000304041009060708090204060815380146
:1056C00040581502409802122062018B98030C5139
:1056D00012442B406C249A0424DA0524012C120174
:1056E0003A2D3B130A017CFFFFFF153AC817291515
:1056F000110A10641521C92A1501011E021303FFA6
:105700001A32191906D9153958AAFF1549272DFF3C
:10571000FFAD013311F92A991539123954891569E8
:105720003FC92A09B03F0B112D011552C81B0A01B0
:0857300012193E017000000097
:04000005080002915C
:00000001FF
