:020000040800F2
:10000000002D0020850200088D0200088F020008E4
:100010009102000893020008950200080000000009
:10002000000000000000000000000000970200082F
:1000300099020008000000009B02000891260008B9
:100040009F0200089F0200089F0200089F0200080C
:100050009F0200089F0200089F0200089F020008FC
:100060009F0200089F0200089F020008611F00080D
:100070009F020008A11F00089F0200089F020008BD
:100080009F020008E11F00089F0200089F0200086D
:100090009F0200089F0200089F0200089F020008BC
:1000A0009F0200089F0200089F0200089F020008AC
:1000B0009F0200089F0200089F0200089F0200089C
:1000C0009F0200089F0200089F0200089F0200088C
:1000D0009F020008B9290008012A00089F020008B1
:1000E0009F0200089F0200089F02000800F002F82B
:1000F00000F0B2F80AA090E8000C82448344AAF110
:100100000107DA4501D100F0A7F8AFF2090EBAE80D
:100110000F0013F0010F18BFFB1A43F0010318473B
:10012000F4570000145800000A444FF0000C10F877
:10013000013B13F0070408BF10F8014B1D1108BF65
:1001400010F8015B641E05D010F8016B641E01F805
:10015000016BF9D113F0080F1EBF10F8014BAD1C55
:100160000C1B09D16D1E58BF01F801CBFAD505E073
:1001700014F8016B01F8016B6D1EF9D59142D6D3CD
:10018000704700000023002400250026103A28BFF5
:1001900078C1FBD8520728BF30C148BF0B607047F9
:1001A0006E2900F01982702900F04F83662905F04E
:1001B0001083652905F00D83672905F00A836129FD
:1001C00005F0098303681B0A28BF41F080016929F3
:1001D00000F0C681642900F0C381752900F0C08158
:1001E0006F2900F0DC82782900F01B83E92900F0F8
:1001F0007782E42900F07482F52900F07182EF29FA
:1002000000F0D982F82900F01A830368DB0928BFBF
:1002100041F08001632901F05B80732901F0608067
:10022000E32901F06B80F32901F070800020704712
:100230001FB500F062F801F0BBF8040000200021B7
:1002400004F05EFE401C60600020002104F042FECD
:10025000E0601FBD10B510BD01F07CF81146FFF73E
:10026000E7FF04F035F801F059F903B4FFF7F2FFA6
:1002700003BC01F0A3F90000EFF31080704780F396
:10028000108870470948804709480047FEE7FEE7A5
:10029000FEE7FEE7FEE7FEE7FEE7FEE7FEE7FEE736
:1002A00004480549054A064B704700000927000825
:1002B000ED00000800150020002D00200025002082
:1002C000002500200B460146184600F099B90000B1
:1002D0000B4910B5A1F17C020A4CC2E93712372153
:1002E00006E000EB104342F82130074B00FB0340CF
:1002F0000B1EA1F10101F4DC10BD0120E8E70000B4
:1003000034140020E119D666CD0D010040EA010346
:1003100010B59B070FD1042A0DD310C808C9121FAE
:100320009C42F8D020BA19BA884201D9012010BDE8
:100330004FF0FF3010BD1AB1D30703D0521C07E0B5
:10034000002010BD10F8013B11F8014B1B1B07D119
:1003500010F8013B11F8014B1B1B01D1921EF1D18A
:10036000184610BD032A40F2308010F0030C00F054
:10037000158011F8013BBCF1020F624498BF11F8DF
:1003800001CB00F8013B38BF11F8013BA2F1040298
:1003900098BF00F801CB38BF00F8013B11F0030310
:1003A00000F02580083AC0F0088051F8043B083A74
:1003B00051F804CBA0E80810F5E7121D5CBF51F816
:1003C000043B40F8043BAFF30080D20724BF11F890
:1003D000013B11F801CB48BF11F8012B24BF00F8F5
:1003E000013B00F801CB48BF00F8012B704710B566
:1003F000203AC0F00B80B1E81850203AA0E818501D
:10040000B1E81850A0E81850BFF4F5AF5FEA027CDD
:1004100024BFB1E81850A0E8185044BF18C918C04C
:10042000BDE810405FEA827C24BF51F8043B40F8ED
:10043000043B08BF7047D20728BF31F8023B48BFD2
:1004400011F8012B28BF20F8023B48BF00F8012B10
:1004500070474FF000020429C0F0128010F0030C26
:1004600000F0C482CCF1040CBCF1020F18BF00F8FC
:10047000012BA8BF20F8022BA1EB0C0100F0B6BAAB
:100480005FEAC17C24BF00F8012B00F8012B48BFB4
:1004900000F8012B704770477047704770B50446ED
:1004A00085690068C10601D5302600E02026C00716
:1004B00007D070BDD4E9012130469047206A401C26
:1004C00020626D1EF6D570BD70B504468569007852
:1004D000C00707D170BDD4E9012120209047206AD0
:1004E000401C20626D1EF6D570BD09684A0501D515
:1004F00040B27047C905FCD500B2704709684A058B
:1005000001D5C0B27047C905FCD580B2704770B53F
:100510000C460546012A05D02878800600D5EA69F0
:10052000002302E0012305E05B1C934202D2E05C61
:100530000028F9D1A869E618C01AA861286A1844E9
:1005400028622846FFF7AAFF04E0D5E9012114F844
:10055000010B9047B442F8D32846FFF7B5FF70BDB2
:100560002DE9F0410646002410687529314616A58C
:1005700010D0FFF7BAFF002802DA404213A507E0C7
:1005800031688A0701D512A502E0490704D511A5F3
:10059000012401E0FFF7B2FF00210A2206F124073F
:1005A00009E0B0FBF2FCB0FBF2F302FB1C003030C0
:1005B00078541846491C0028F3D123462A46304671
:1005C000BDE8F04100F07CBA000000002D00000002
:1005D0002B0000002000000011680268006A53052B
:1005E00001D508700AE0D30501D5088006E013069E
:1005F00003D5C217C1E9000200E00860012070477E
:10060000074B70B50D467B4400F045FE0446284676
:1006100002F0C8FC10B14FF0FF3070BD204670BD35
:100620002F2B00002DE9FF5F15468A460446DFF8B0
:10063000AC80F8440027D8E900103E46CDE9001010
:1006400010E03AF816106A4602A800F063FE411C5A
:1006500007D02178890603D5E269391891420DD86F
:100660000744761C2078800602D5E069B84205DD93
:10067000AE42E6DB3AF816000028E2D1A069C01BC2
:10068000A0612046FFF70AFFD8E90010CDE900106D
:10069000002017E03AF818106A4602A800F03AFE67
:1006A000B0F1FF3F81460BD000250DF1080B05E0AE
:1006B000D4E901211BF8050090476D1C4D45F7D387
:1006C00008F10100B0428046E4DB206A3844206231
:1006D0002046FFF7F9FEBDE8FF9F0000E251000051
:1006E0002DE9F0418046D21D22F007020025D2E913
:1006F0000002F52915A614D0011E72F1000106DAD8
:100700000023D0EB030063EB020211A608E0D8F847
:1007100000108B0701D50FA602E0490701D50EA6F0
:1007200001251146002408F1240704E000F083F9B4
:1007300030323A55641C50EA0102F7D12B4632465A
:1007400021464046BDE8F04100F0BAB90000000083
:100750002D0000002B0000002000000030B400211C
:1007600000F1240408E002F00705D208303542EA1F
:100770004372DB086554491C52EA0305F3D104684F
:10078000002310A2250707D5A40600D421B1C4690F
:1007900001230DA2641EC46130BC00F091B910B5F4
:1007A000044621461068FFF7A9FE02462046BDE830
:1007B00010400023D2E7D21D22F00701D1E9002327
:1007C000CCE700000000000030000000F0B40D464F
:1007D0000188090502D5214C7C4402E01F4C7C4471
:1007E0000E34002100F1240608E002F00F07120980
:1007F000E75D42EA03721B097754491C52EA03077A
:10080000F3D102780023120704D5702D06D009B168
:10081000022311342246F0BC00F052B901231034F7
:10082000F8E770B504460D4621461068FFF766FEEE
:10083000024629462046BDE870400023C6E7D21D87
:1008400022F00703D3E90023C0E70368126843F0EE
:10085000200303600823C3610023B7E7445000006E
:100860002DE9F05F894604464FF0000ADFF874B1C5
:10087000FB44C0F820A02046E1688847002874D0D7
:10088000252806D0D4E901219047206A401C206227
:10089000F1E700265F462046E168884720280546A4
:1008A00007DB312D05D2781910F8200C08B106436A
:1008B000F1E7B00701D526F00406C4F81CA0002714
:1008C000C4F818A02A2D09D0284602F0A1F938B39F
:1008D00004EB8708303DC8F8185019E059F8041B9C
:1008E000204604EB87029161E1688847012F0546A5
:1008F00018D1E069002820DA26F020061DE0D8F89B
:10090000180000EB800005EB40003038C8F81800F4
:100910002046E1688847054602F07AF90028EED1C2
:10092000012F0AD02E2D08D12046E16888477F1C70
:100930000546022F46F02006C4DBA069002803DA32
:10094000404246F00106A061F00701D026F01006F3
:100950006C2D0BD0682D09D04C2D39D06A2D35D097
:10096000742D35D07A2D33D016E038E0E1682F466B
:1009700020468847B842054609D16C2F26D04FF44F
:100980008060E168064320468847054604E06C2FF6
:100990001AD04FF4807006430DB3A5F14100192819
:1009A00002D8203546F400664A462946204626608D
:1009B0004E46FFF7F5FB80B101280BD0F61D26F05F
:1009C000070000F1080956E74020E4E78020D8E757
:1009D0000020D6E706F104094DE7284652E7206AD1
:1009E000BDE8F09FD44F00004FF0000200B5134661
:1009F00094469646203922BFA0E80C50A0E80C503F
:100A0000B1F12001BFF4F7AF090728BFA0E80C50EF
:100A100048BF0CC05DF804EB890028BF40F8042BE8
:100A200008BF704748BF20F8022B11F0804F18BF55
:100A300000F8012B704730B5B0F10A024FEA900E72
:100A400071F100034EEA817EB0EB0E0061EB910183
:100A50004FEA101E4EEA017E10EB0E0041EB111121
:100A60004FEA102E4EEA016E10EB0E0041EB112101
:100A70004FEA104E4EEA014E10EB0E0041EB1141D1
:100A8000401841F100014FEAD00040EA41704FEABE
:100A9000D10110EB80054FEA810444EA907444EBE5
:100AA00001046D1944EB0404521BA3414FF00003F1
:100AB00048BF0A3200D530BD401C41F1000130BDB5
:100AC0002DE9F0470D4699469246044600F1240868
:100AD0000168880604D5E06921F01001216000E07A
:100AE0000120A84201DD471B00E00027A1697A1917
:100AF00002EB0900081AA0612078C00602D4204643
:100B0000FFF7CCFC002608E0D4E901211AF8060022
:100B10009047206A401C761C20624E45F4DB20780A
:100B2000C0060AD52046FFF7B9FC06E0D4E901214A
:100B300030209047206A401C2062381EA7F1010730
:100B4000F4DC07E0D4E9012118F805009047206A99
:100B5000401C2062281EA5F10105F3DC2046FFF7AA
:100B6000B3FC2078000602D50220BDE8F087012002
:100B7000FBE770472DE9FF4F0C461E464FF0FF374D
:100B80008BB0D2E90001DDF860800A908A46C1F39B
:100B90000A5505B93D46002108464FF00000BAF15C
:100BA000000F00F4400005DA00EB80004FF4400134
:100BB00001EA50004FEA9059B9F1010F00DDB94642
:100BC0000A9850EA4A000ED044F61050A5F2FF35BC
:100BD00045432F14B8F1000F1ED07542291E1EDDAB
:100BE000C9F100021CE0B8F1010F4FF0000001D084
:100BF000302103E0F24305E02154401CB042FBDB0E
:100C000030460022002121540B99C1F80880C1E927
:100C100000200FB0BDE8F08FBD1B6D1CDEE74A461B
:100C200000DA694206A800F007FC06AB93E807006B
:100C300003AB83E8070050460A9900F0C5FC8DE835
:100C40000700A0F500501F3800900398002D0ADD22
:100C500042F21F014A460844002303A90390684654
:100C600000F02EFF09E0A0F500504A461F3800238F
:100C700003A90390684600F038FF8DE807000004E0
:100C8000000C03D04FF0FF30410800E01046B8F1EF
:100C9000000F03D00022009215461EE0751E05D4F9
:100CA000FFF7C9FE303262556D1EF9D5B3460122F9
:100CB000084302D000227F1C04E02078302801D1B4
:100CC00000227F1E002A099784D01DE0112D07DA2B
:100CD000FFF7B1FE303262556D1C50EA0102F5D1CA
:100CE000084302D00098C8B10EE00021681E05E05C
:100CF000235C625C63542254401E491C8142F7DB32
:100D0000AB46A81B401E0990002004F80B000B986E
:100D1000099AC0F80880C0E9002B7AE711264FF045
:100D2000000857E72DE9F04F88460446D21D22F00F
:100D3000070191B0D1E90001CDE90A0101F054FFAA
:100D400002460B98C00F01D02D2007E020688107D4
:100D500001D52B2002E0202101EAC000032A0990DE
:100D600001D0072A05DB03464146204600F024FB5C
:100D70000BE12078800601D5E06900E00620B8F19B
:100D8000650F814606D0B8F1660F18D0B8F1670F2D
:100D900070D131E00020B9F1110F009001DB112377
:100DA00001E009F101030AAA01A90CA8FFF7E2FE7C
:100DB000DDE90C70002609F10105834647E00120BA
:100DC0004B4600904FF000470AAA01A90CA8FFF774
:100DD000D1FEDDE90DB00C995D46002610B909F190
:100DE00001000D18B9EB050003D4C0F1FF3609F17D
:100DF0000105A5EB09002BE0B9F1010F01DA4FF075
:100E000001090020B9F1110F0090484601DD1123BE
:100E100000E003460AAA01A90CA8FFF7ABFEDDE932
:100E20000C704D4600268346207800070AD4AB4557
:100E300000DA5D4601A8012D04DD411911F8011CFD
:100E4000302907D04F4502DA17F1040F04DA0120E8
:100E500082460FE06D1EEEE7002F02DCED1B3E44E4
:100E600003E0781CA84200DD7D1CB81B00F1010ADC
:100E70004FF000472078000703D4AA4501DB4FF06C
:100E8000FF3A0021B7F1004F0DF143088DF84310F0
:100E900024D002202B23002F01DA7F422D230A21A8
:100EA000021EA0F1010000DC5FB197FBF1FC97FB93
:100EB000F1F201FB1C7C17460CF1300C08F801CD57
:100EC000EEE7A8F1010003702188090501D545214D
:100ED00000E06521A0F1010800F8011C09980FA9A4
:100EE000A1EB0807FF1D00B10120411901EBEA70D9
:100EF000A1693844081A401EA0612078C00602D4B7
:100F00002046FFF7CBFA099828B1D4E90121904790
:100F1000206A401C20622078C00622D52046FFF7B8
:100F2000BDFA1EE0002E04DBB34502DD01A8805DA2
:100F300000E03020D4E901219047206A401C206263
:100F4000761CAAF101005FEA000A0AD100F030FA2B
:100F5000C0680168405CD4E901219047206A401CC8
:100F60002062281EA5F10105DCDC07E0D4E901219F
:100F700018F8010B9047206A401C2062381EA7F128
:100F80000107F3DC2046FFF79FFA032011B041E68A
:100F90002DE9F04F04460D46D21D22F0070089B01E
:100FA000D0E900974846394601F01EFE0246F80F88
:100FB00001D02D2307E02068810701D52B2302E013
:100FC000202101EAC0038DF820300BB1012000E0A0
:100FD0000020032A824601D0072A04DB2946204646
:100FE00000F0EAF93FE12078800601D40D2500E009
:100FF000E569C7F30A560D2D49DA00214FEA175B60
:1010000008464FF00000002F00F4400007DA00EB24
:1010100080004FF4400100EBD07001EA60008115C0
:10102000012901DD4FF0FF3100224FEA850CBCF1B0
:10103000180F06D31346ACF118004FF08052C2408F
:1010400003E04FF4801323FA0CF30CF10C0CBCF109
:10105000200F04D3ACF1200C09FA0CF001E007FAE0
:101060000CF000294FF0004801DD18B90FE00ED157
:1010700040450CD319EB02095F4121B9404502D12B
:101080009F4329EA0209BBEB175F00D0761C20883A
:10109000000502D57B48784402E07A487844193844
:1010A00008AA302302F80A30037C0AF10101002E5D
:1010B0000AF1020A53546A4602DC4FF0300101E0A3
:1010C0004FF031014FF001088DF8001002D0A6F268
:1010D000FF3603E059EA470100D06B4E002D02DCD9
:1010E0002178090704D54FF002082E218DF8011050
:1010F000C44600210BE0C7F303433F01C35C491C16
:101100006D1E02F80830052908F1010801DA002DEA
:10111000F1DC00210CE000EB1973491C1B786D1EFB
:10112000082902F808304FEA091908F1010801DA24
:10113000002DF0DC21688B0602D516E0A8F101082D
:10114000E04505DD02EB080313F8013C302BF5D038
:10115000B8F1000F09DD02EB080313F8013C2E2B58
:1011600003D1090701D4A8F10108002D05DD3E21B6
:1011700002F808106D1E08F10108407C002E02F8EC
:10118000080008F1010804DA2D20764202F8080070
:1011900002E02B2002F808000A214FF47A70864200
:1011A00008F101080BDB96FBF0F3303302F808304E
:1011B00096FBF0F308F1010800FB136601E0642ED2
:1011C0000CDB642096FBF0F3303302F8083096FB1A
:1011D000F0F308F1010800FB136601E00A2E06DBBC
:1011E00096FBF1F0303002F8080008F1010896FB98
:1011F000F1F001FB1060303002F80800A16908F13D
:10120000010808EB050202EB0A00081AA061207829
:10121000C00602D42046FFF741F9216A08AE01EB6F
:101220000A00206204E0D4E9012116F8010B90477E
:10123000BAF1010AF7D22078C00602D52046FFF79E
:101240002DF96E4609E016F8010B3E280FD0D4E9BF
:1012500001219047206A401C2062B8F10108F2D2B7
:101260002046FFF731F909B00320BDE8F08F206A6E
:101270002844206203E0D4E90121302090476D1E0C
:10128000EBD3F8E7D247000002FCFFFF01694A1CDC
:1012900002610878704700B58FB0CDE901310021B7
:1012A000059105497944CDE9031011466846FFF7D9
:1012B000D7FA0FB000BD0000E5FFFFFF10B543698E
:1012C00013B1AFF3008001E0FFF721F9012010BD59
:1012D000127800F124010A7000224A700122EDE721
:1012E00011684FF0FF32E9E710B5436913B1AFF36E
:1012F000008001E0FFF796F9012010BD128800F18F
:10130000240182840022C2840122EDE711684FF09B
:10131000FF32E9E770B516460C46054600F040F886
:10132000036893F80101012806D0FF2C0FD8185D3F
:1013300068B101202C7070BDD3F8070132462146F8
:1013400003F2071303442846BDE8704018474FF0E6
:10135000FF3070BD754600F0EBF8AE4605006946FB
:10136000534620F00700854618B020B5FEF798FFD9
:10137000BDE820404FF000064FF000074FF0000896
:101380004FF0000B21F00701AC46ACE8C009ACE817
:10139000C009ACE8C009ACE8C0098D467047000040
:1013A00010B500F005F8001D10BD00BF553B000052
:1013B00000487047BC1400202DE9F0411F46044648
:1013C00003260168072A01F4006004DB08B116A5B2
:1013D00005E016A503E008B115A500E015A521F06C
:1013E00010002060A069C01EA0610FB1401EA06166
:1013F0002046FFF753F84FB1D4E901213846904712
:10140000206A401C2062C01C206206E0206AFAE7C5
:10141000D4E9012115F8010B9047761EF8D2204639
:10142000FFF752F8BDE8F0814E414E006E616E004C
:10143000494E4600696E66002DE9F0478146164622
:101440008AB0354878440DC88DE80D00324878449C
:10145000801C03AC0DC884E80D0041F69B300844A5
:10146000372190FBF1F290FBF1F5A5F1800501FB2E
:1014700012041B3C02D56442012000E00020DFF88A
:1014800098A080460027FA44AAF1BE0A0EE0E007C1
:101490000AD03246684607EB470101230AEB810177
:1014A00000F023FB8DE8070064107F1C002CEED1B8
:1014B000194F7F44AE3F19E0E80715D007EB041041
:1014C0000DF1180A90E80E008AE80E00C068F0429C
:1014D00001D1981908903246012306A903A800F00B
:1014E00004FB03AB83E807006D10641C002DE3D1FF
:1014F0004FF0010332466946B8F1000F03A802D04D
:1015000000F0DEFA01E000F0F0FAC9E90001C9F8E4
:1015100008200AB0BDE8F087B444000010B50446C6
:10152000AFF300802046BDE81040FEF79EBE0000ED
:10153000004870479C1400204FF0013C50F8042BE9
:1015400051F8043B9A4221D1A2EB0C03934313EAD6
:10155000CC1317D150F8042B51F8043B9A4215D103
:10156000A2EB0C03934313EACC130BD150F8042BDA
:1015700051F8043B9A4209D1A2EB0C03934313EABE
:10158000CC13DBD04FF00000704700BFD01A01BA77
:10159000B1FA81F101F0180122FA01F0CB40C1F15A
:1015A0002001DBB2C0B2C01A2CFA01F3D11A914368
:1015B00011EAC311E6D170477047000001491820B5
:1015C000ABBEFEE7260002005FEA400C08BF91F0C8
:1015D000000F4FEA8C234FEAC12243EA51514FEAF0
:1015E0001C5018BF00F5F0404FEA300018BF41F022
:1015F00000415FEA6C5C00F02980BCF1FF3F08BF4E
:1016000040F080407047130C06BF12044FF0100CDE
:101610004FF0000C130E04BF12020CF1080C130F54
:1016200004BF12010CF1040C930F04BF92000CF1E3
:10163000020CD30F04BF52000CF1010C11464FF005
:101640000002A0F11F00A0EB0C00704711F0004F4A
:1016500008BF704731F000413FF4D5AF0B0C06BF17
:1016600009044FF0100C4FF0000C0B0E04BF0902E0
:101670000CF1080C0B0F04BF09010CF1040C8B0FCB
:1016800004BF89000CF1020CCB0F04BF49000CF120
:10169000010CCCF12003A0EB0C0022FA03F302FAB8
:1016A0000CF241EA030100F10100704720F07F4C89
:1016B00080EA030023F07F47ACEB070303F57C537C
:1016C00000F0004003F1FF032DE980494FEA154B7C
:1016D00009B44FEA144325EA0B4E24EA03480FF2FB
:1016E000042606EB132749083E785FEA320203FB23
:1016F0000667C7F5000707FB06F64FEA54374FEABF
:10170000D64606F1020607FB066CCCF1005C4FEAF8
:101710001C472CEA074C07FB06F40CFB06F504EB10
:1017200015464FEA961634BF00204FF000404FEAAE
:10173000D13706FB07FC4FEA1C4C0CFB0BF7D21B06
:1017400003FB0CF761EB07010CFB0EF7B0EB074056
:1017500072EB17420CFB08F734BFA2EB0742B2EB67
:10176000074261EB17414FEA0C444FEA910706FB31
:1017700007FC4FEA1C4C0CFB0BF7B0EBC74072EBBD
:10178000573203FB0CF734BFA2EBC742B2EBC742A0
:1017900061EB57310CFB0EF7B0EBC70072EB5772E1
:1017A0000CFB08F734BFA2EBC702B2EBC70261EB38
:1017B0005771039F4FEA816141EA921104EBCC0417
:1017C0004FEAD1374FEA826206FB07FC42EA9012E9
:1017D0004FEA80604FEA1C4C0CFB0BF7D21B03FB5B
:1017E0000CF761EB07010CFB0EF7B0EB074072EB57
:1017F00017420CFB08F734BFA2EB0742B2EB0742DB
:1018000061EB17414FEA8C554FEA910704EB9C249A
:1018100006FB07FC4FEA1C4C0CFB0BF7B0EBC74078
:1018200072EB573203FB0CF734BFA2EBC742B2EBAB
:10183000C74261EB57310CFB0EF7B0EBC70072EB00
:1018400057720CFB08F734BFA2EBC702B2EBC7021A
:1018500061EB577115EB4C254FEA816141EA92111A
:101860004FEA82624FEAD13742EA901206FB07FC48
:1018700044F100044FEA80604FEA1C4C0CFB0BF76C
:10188000D21B03FB0CF761EB07010CFB0EF7B0EB6F
:10189000074072EB17420CFB08F734BFA2EB07427C
:1018A000B2EB074261EB174115EB1C154FEA813192
:1018B00041EA92414FEA823242EA90424FEA803056
:1018C0004FEA0C7644F1000448EA03434EEA0B4821
:1018D0004FF0000EB2EB080C71EB030724BF624619
:1018E00039464EEB0E0E4FF0000B001852414941A5
:1018F0004BEB0B0BB2EB080C71EB03077BF1000B0E
:1019000024BF624639464EEB0E0E4FF0000B001816
:10191000524149414BEB0B0BB2EB080C71EB030747
:101920007BF1000B24BF624639464EEB0E0E51EAA6
:10193000020718BF46F0010616EB0E7655F10002BD
:1019400054F1000103D5BDE88901BDE80088BDE878
:101950008901BDE80048B619524141EB0101A3F1EC
:101960000103704780807F7E7D7C7B7A79787776F3
:1019700076757473727171706F6E6E6D6C6C6B6A6C
:101980006A6968686766666564646363626161600A
:10199000605F5F5E5E5D5D5C5C5B5B5A5A59595887
:1019A00058575756565555555454535352525251F1
:1019B000515050504F4F4F4E4E4D4D4D4C4C4C4B47
:1019C0004B4B4A4A4A49494948484847474747468E
:1019D00046464545454444444443434343424242CA
:1019E00042414141002B9C4630D477002BD01CB59E
:1019F0004FEA370703B44FF010004FF01001BAF16F
:101A0000000F06D0BCF1000FDCBF40F0080040F032
:101A100008014FF000000FBCBDE810400BF1010BB6
:101A2000BBF1010F08BF5FEA170722BF12F10102E5
:101A300011F101014FF0004143F1000300F00040BB
:101A400043EA00007047F9D35708D0E746EA064654
:101A500013F1400F4FEA16461FDD13F1200FDFBFD1
:101A600016430A46002120335B42BED0C3F1200753
:101A700046EA064602FA07F74FEA164646EA07061E
:101A8000C3F1200722FA03F201FA07F721FA03F162
:101A90004FF0000342EA0702A7E746EA020646EAD9
:101AA00006464FEA164646EA0106BCBF46EA064627
:101AB000360C4FF000034FF000024FF0000194E7A6
:101AC0002DE9804C9A46934670B491E8380007C8D7
:101AD00031EA400C48BF34EA430C03D5FFF7E6FD7A
:101AE000FFF780FFF0BCBDE8008C2DE9804C9A46E2
:101AF000934670B491E8380007C810F0804F08BFD3
:101B000013F0804F03D100F005F8FFF76BFFF0BC36
:101B1000BDE8008C20F07F4780EA030023F07F4C73
:101B200007EB0C03A3F57C5300F00040A3F1FE0388
:101B300092F0000F00F0B38095F0000F00F0778076
:101B40002DE901494FEA11404FEA144621EA0048C5
:101B500000FB06FC24EA064708FB06F607FB08F82C
:101B600000FB07F718EB06484CEB164C4FEA124BFC
:101B700018EB07484FEA15464CEB174022EA0B4E8C
:101B80000BFB06FC25EA06470EFB06F607FB0EFEDE
:101B90000BFB07F71EEB064E4CEB164C4FF0000606
:101BA0001EEB074E4CEB174B18EB0B0840F10000F7
:101BB00018EB0E0B58EB000840F100008F1A4FF0A5
:101BC00000013CBFC943661B14BFB5EB040C0021E8
:101BD0003CBFC943F61B4FEA17444EEA8E0E27EA74
:101BE00004454FEA1C4704FB07622CEA074C05FB3F
:101BF00007F70CFB05F604FB0CFC16EB074642EB63
:101C0000174216EB0C4642EB1C421BEB060658EB48
:101C10000202414146EA9E0601D5BDE80189B61996
:101C2000524141EB0101A3F10103BDE801894FEAF3
:101C300014454FEA114724EA054621EA074C05FB03
:101C400007F406FB07F70CFB06F105FB0CFC11EB98
:101C5000074144EB17444FEA124711EB0C4144EBA8
:101C60001C4422EA074C05FB07F206FB07F70CFBB6
:101C700006F605FB0CFC16EB074642EB174216EB8B
:101C80000C4642EB1C456A1854F1000148BF7047EE
:101C9000B619524141EB0101A3F10103704795F0E0
:101CA000000F37D04FEA11424FEA144721EA0246AB
:101CB00024EA074C02FB07F106FB07F70CFB06F4CE
:101CC00002FB0CFC14EB074441EB17414FEA1547AC
:101CD00014EB0C4441EB1C4125EA074C02FB07F5D1
:101CE00006FB07F70CFB06F602FB0CFC16EB07469F
:101CF00045EB174516EB0C4645EB1C42121951F10A
:101D0000000148BF7047B619524141EB0101A3F1F0
:101D1000010370474FEA14454FEA114724EA05468C
:101D200021EA074C05FB07F106FB07F70CFB06F25F
:101D30004FF0000605FB0CFC12EB074241EB17418C
:101D400012EB0C4251EB1C4148BF7047921841EB1B
:101D50000101A3F10103704721B1826842F0010241
:101D6000826003E0826822F0010282607047000016
:101D700010B504461248844208D10121401500F0F4
:101D800053FB0021601500F04FFB17E00D48844223
:101D900008D10121001500F047FB0021201500F0BB
:101DA00043FB0BE00848844208D10121C80300F03E
:101DB0003BFB00214FF4004000F036FB10BD00005B
:101DC0000024014000280140003C01400146002061
:101DD0008A6802F004020AB1012000E00020704786
:101DE0000246002013680B400BB1012000E00020E8
:101DF0007047014600208A6802F008020AB10120FB
:101E000000E000207047000030B5024600200023AB
:101E100050680F4C20400D790C6844EA052420439B
:101E2000506090680B4C2040D1E902542C434D790E
:101E300044EA450420439060D06A20F470000C7C92
:101E4000641EE4B2234340EA0350D06230BD000078
:101E5000FFFEF0FFFDF7F1FFF0B504460D46002050
:101E60000021092D11DDE068A5F10A0606EB460701
:101E7000072606FA07F18843A5F10A0606EB46068F
:101E800003FA06F10843E0600CE0206905EB450722
:101E9000072606FA07F1884305EB450603FA06F123
:101EA00008432061072A0FDA606B561E06EB86078F
:101EB0001F2606FA07F18843561E06EB860605FA2A
:101EC00006F10843606322E00D2A0FDA206BD61F6B
:101ED00006EB86071F2606FA07F18843D61F06EB96
:101EE000860605FA06F10843206310E0E06AA2F1D5
:101EF0000D0606EB86071F2606FA07F18843A2F1B6
:101F00000D0606EB860605FA06F10843E062F0BD11
:101F1000816841F008018160704721B1826842F414
:101F2000A002826003E0826822F4A002826070470F
:101F3000816841F0040181607047000030B10749B9
:101F4000096841F40001054A116005E00349096888
:101F500021F40001014A116070470000082401408B
:101F600010B502200C494860084680684FF6FE71A3
:101F70000840094988600948806848610748B0F806
:101F8000A401C8600846806840F0010088600348EA
:101F900001F0E4FE10BD00000000024054090020E2
:101FA00010B54FF400700C4948600846006B4FF6BE
:101FB000FE7108400849086308488068C8630748FC
:101FC000B0F8A40148630846006B40F001000863C4
:101FD000024801F0C3FE10BD00000240140D0020B5
:101FE00010B54FF000700F4948600E48803000680F
:101FF0004FF6FE7108400B49C1F880000A4880681E
:10200000C1F88C000848B0F8A401C1F88400084663
:10201000D0F8800040F00100C1F88000024801F0D3
:102020009DFE10BD00000240340B002000F08051E6
:1020300011B10349086001E002494860704700009F
:10204000040402400000024021B1026842F0010293
:10205000026004E002684FF6FE731A4002607047A7
:1020600001684FF6FE72114001600021016041607D
:102070008160C1604B49884208D14A4908394968A2
:1020800041F00F01474A083A51608AE0454914314E
:10209000884208D143490839496841F0F001414A72
:1020A000083A51607DE03F492831884208D13D49D6
:1020B0000839496841F470613A4A083A516070E061
:1020C00038493C31884208D136490839496841F4D9
:1020D0007041344A083A516063E0324950318842D5
:1020E00008D130490839496841F470212D4A083A2D
:1020F000516056E02B496431884208D1294908399A
:10210000496841F47001274A083A516049E025497D
:102110007831884208D123490839496841F0706113
:10212000204A083A51603CE01F49884206D1011F0D
:10213000096841F00F01021F116032E01A491431A1
:10214000884208D11849091F096841F0F001164A70
:10215000121F116025E014492831884208D1124924
:10216000091F096841F470610F4A121F116018E0DD
:102170000D493C31884208D10B49091F096841F4D7
:102180007041094A121F11600BE007495031884223
:1021900007D10549091F096841F47021024A121F3D
:1021A0001160704708000240080402401AB1036839
:1021B0000B43036002E003688B430360704710B574
:1021C0000022026847F6F0739A430C6A8B68234337
:1021D0000C6923434C6923438C692343CC69234313
:1021E0004C6A23438C6A23431A430260CB684360E2
:1021F0000B6883604B68C36010BD2DE9F041024657
:1022000000250026002000230024002791F803C0A9
:102210000CF00F0591F803C00CF0100CBCF1000F8E
:1022200003D091F802C04CEA050591F800C0BCF15A
:10223000000F31D0146800202BE04FF0010C0CFA95
:1022400000F3B1F800C00CEA03069E4220D18300DF
:102250004FF00F0C0CFA03F7BC4305FA03FC4CEAF1
:10226000040491F803C0BCF1280F06D14FF0010C13
:102270000CFA00FCC2F814C00AE091F803C0BCF1EB
:10228000480F05D14FF0010C0CFA00FCC2F810C049
:10229000401C0828D1D31460B1F800C0BCF1FF0F76
:1022A00034DD546800202EE000F1080C4FF00108E6
:1022B00008FA0CF3B1F800C00CEA03069E4221D1E3
:1022C00083004FF00F0C0CFA03F7BC4305FA03FC34
:1022D0004CEA040491F803C0BCF1280F05D100F1C9
:1022E000080C08FA0CF8C2F8148091F803C0BCF18D
:1022F000480F07D100F1080C4FF0010808FA0CF85C
:10230000C2F81080401C0828CED35460BDE8F0818C
:102310004FF6FF710180022181700421C170704766
:1023200000F01F02012191404209920002F1E022D7
:10233000C2F800117047000070B5002100230F2281
:10234000C47804B3154C246804F4E064C4F5E06474
:10235000210AC1F10403CA40447804FA03F18478E5
:102360001440214309010E4C0678A155047804F06D
:102370001F050124AC4005786D11AD0005F1E02585
:10238000C5F8004109E0047804F01F050124AC40C1
:10239000044D0678761145F8264070BD0CED00E03E
:1023A00000E400E080E100E029B1064A52690243FE
:1023B000044B5A6104E0034A52698243014B5A615B
:1023C000704700000010024029B1064AD26902435A
:1023D000044BDA6104E0034AD2698243014BDA61BB
:1023E000704700000010024029B1064A12690243FA
:1023F000044B1A6104E0034A12698243014B1A61DB
:10240000704700000010024029B1064A9269024359
:10241000044B9A6104E0034A92698243014B9A613A
:10242000704700000010024029B1064AD2680243FA
:10243000044BDA6004E0034AD2688243014BDA605D
:10244000704700000010024030B500210022002437
:1024500000232D4D6D6805F00C0121B1042905D034
:10246000082923D105E0294D056022E0284D0560AB
:102470001FE0254D6D6805F47012234D6D6805F45D
:102480008034022505EB92421CB9224D554305606C
:102490000BE01D4D6D6805F400351DB11B4D554316
:1024A000056002E01A4D5543056002E0174D0560D6
:1024B00000BF00BF144D6D6805F0F0010909164D0D
:1024C0006B5C0568DD4045600F4D6D6805F4E061AB
:1024D000090A114D6B5C4568DD4085600A4D6D68E9
:1024E00005F46051C90A0C4D6B5C4568DD40C56060
:1024F000054D6D6805F44041890B084D6B5CC5685E
:10250000B5FBF3F5056130BD0010024000127A0002
:102510000024F40000093D0000000020100000200D
:102520000149C87170470000001002400149086667
:10253000704700000000424202460020044B5868E9
:1025400020F47C1042EA01031843014B58607047A5
:102550000010024021B1028842F04002028004E0F3
:1025600002884FF6BF731A400280704710B50022F0
:10257000028802F441520B884C8823438C88234301
:10258000CC8823430C8923434C8923438C892343E0
:10259000CC8923431A430280838B4FF2FF7423407C
:1025A00083830B8A038210BD10B500F001F810BDC3
:1025B0000CB50020019000903348006840F4803052
:1025C0003149086000BF3048006800F400300090D6
:1025D0000198401C0190009818B90198B0F5A06FBF
:1025E000F1D12948006800F4003010B101200090BA
:1025F00001E0002000900098012843D123480068A2
:1026000040F01000214908600846006820F00300EF
:1026100008600846006840F0020008601A484068F8
:10262000194948600846406848600846406840F4D8
:10263000806048600846406820F47C104860084686
:10264000406840F4E81048600846006840F0807038
:10265000086000BF0C48006800F000700028F9D046
:102660000948406820F00300074948600846406870
:1026700040F00200486000BF0348406800F00C00D2
:102680000828F9D10CBD00000010024000200240D3
:102690001A480068401C19490860B0F57A7F06DBCB
:1026A0000020086016484068401C154948601448DE
:1026B0000068401C124908600120886011480068C9
:1026C000401C1049086001200D4948610D48006810
:1026D0004FF4FA7190FBF1F201FB120010B90120E6
:1026E0000749086107480068142190FBF1F201FBDB
:1026F000120010B901200249C86070475C00002038
:10270000740600206000002010B51348006840F0F7
:1027100001001149086008464068104908400E4908
:102720004860084600680E4908400B4908600846A2
:10273000006820F4802008600846406820F4FE000D
:1027400048604FF41F008860FFF72EFF4FF00060D5
:102750000449086010BD0000001002400000FFF8AE
:10276000FFFFF6FE08ED00E010B5044604EB840020
:10277000034A02EB800114220248FDF738FE10BD27
:102780007C0000206011002021B1028842F001028B
:10279000028004E002884FF6FE731A400280704700
:1027A0001AB183890B43838102E083898B43838140
:1027B0007047000070B5002400220023058C4FF6FE
:1027C000FF6635400584028C8388848B4FF68F75B5
:1027D0002C404FF6FC752C400D882C434FF6FF55CE
:1027E0002A400D894FF6FF7606EA05252A434D88D3
:1027F00006EA05252A43154DA84202D0144DA842E9
:102800001DD14FF2FF752A404D894FF6FF7606EA3B
:1028100005252A434FF6FF352A408D8806EA05250F
:102820002A434EF6FF752B404DF6FF752B408D89E0
:1028300006EA05152B43CD8906EA05152B4383804F
:102840008483CD888587028470BD0000002C014000
:10285000003401400A460021818B4FF6F77319407E
:10286000114381837047000070B5002200230024CB
:10287000058C4EF6FF7635400584038C8488828B68
:1028800048F6FF752A404FF6FF452A400D884FF65F
:10289000FF7606EA05252A434DF6FF752B400D8984
:1028A00006EA05352B434D8806EA05352B430B4DCB
:1028B000A84202D00A4DA84208D14BF6FF752C4021
:1028C0008D894FF6FF7606EA85152C438480828336
:1028D000CD88A0F84050038470BD0000002C01405A
:1028E000003401400A460021818B4FF2FF731940EA
:1028F0004FF6FF7303EA02231943818370470021D7
:10290000018041808180C180018141818181C181BB
:1029100070470000002202881D4B98420ED01D4BCC
:1029200098420BD0B0F1804F08D01B4B984205D095
:102930001A4B984202D01A4B984204D14FF68F732B
:102940001A404B881A43174B984207D0164B9842AF
:1029500004D04FF6FF431A40CB881A4302808B887D
:1029600083850B8803850A4B98420BD0094B98420C
:1029700008D00E4B984205D00D4B984202D00D4B1B
:10298000984201D10B7A03860123838270470000AD
:10299000002C0140003401400004004000080040C9
:1029A000000C0040001000400014004000400140B6
:1029B000004401400048014070B5104C2068058873
:1029C00005F08000B8B12068011D04F1140000F08A
:1029D000FCFA80B9002030B12168898941F080017A
:1029E0002268918105E02168898921F080012268AF
:1029F000918100BF00BF00BF70BD00001400002027
:102A000070B5104C2068058805F08000B8B12068CA
:102A1000011D04F1140000F0D8FA80B9002030B193
:102A20002168898941F080012268918105E021684F
:102A3000898921F080012268918100BF00BF00BF19
:102A400070BD00003800002021B1828942F400529C
:102A5000828104E082894DF6FF731A4082817047BB
:102A60001AB1838A0B43838202E0838A8B43838279
:102A70007047000010B504462048844209D1012166
:102A80008803FFF7D1FC00214FF48040FFF7CCFC16
:102A900032E01B48844209D101214804FFF7A4FC1D
:102AA00000214FF40030FFF79FFC25E015488442D9
:102AB00009D101218804FFF797FC00214FF4802001
:102AC000FFF792FC18E01048844209D10121C804A4
:102AD000FFF78AFC00214FF40020FFF785FC0BE094
:102AE0000A48844208D101210805FFF77DFC002136
:102AF0004FF48010FFF778FC10BD00000038014053
:102B00000044004000480040004C0040005000409D
:102B10002DE9F04786B005460E460024A24600BFC8
:102B2000A1460027B08900B100BF2F462C8A4CF681
:102B3000FF700440F08804432C82AC894EF6F310F9
:102B40000440B08831890843718908430443AC814B
:102B5000AC8A4FF6FF400440B0890443AC8201A820
:102B6000FFF772FC1F48874202D1DDF810A001E098
:102B7000DDF80CA0A88900F4004040B10AEBCA00BF
:102B800000EB0A1031684900B0FBF1F807E00AEBEE
:102B9000CA0000EB0A1031688900B0FBF1F864202C
:102BA000B8FBF0F004012009642101FB1089A88919
:102BB00000F4004040B1322000EBC900B0FBF1F05E
:102BC00000F00700044308E0322000EB0910642104
:102BD000B0FBF1F000F00F0004432C8106B0BDE81B
:102BE000F087000000380140490050EAC12018BFBA
:102BF00004204A0D18BF40F0010040F2FF72B2EB12
:102C0000515F08BF40F00200012808BF052070474F
:102C100030380A2801D2012070470020704710B5D3
:102C200000F001F810BD00BF00BF00BF70470000FA
:102C300010B500BF4FF480500249086000BFFFF795
:102C4000EEFF10BD100C014000BF4FF48050024950
:102C5000086000BF70470000140C014070B50446C6
:102C60000E461546B6B1ADB10B200B490870200CCD
:102C70004870200A8870CC7000200871FFF7E4FFCC
:102C80000521054801F002FD2946304601F0E8FC27
:102C9000FFF7CEFF70BD00007000002010B50F4898
:102CA00090F86F00401C0D4981F86F00084690F8BD
:102CB0006F00142802DD002081F86F00074A92F8A7
:102CC0006F1092F86E0000F02FFA044A92F86F101D
:102CD00092F86E00012201F049FB10BD5C1100204A
:102CE000024600200DE0C0F1070342FA03F303F0AF
:102CF000010313B136230B5401E01A230B54431C78
:102D0000D8B20828EFDB70472DE9F04305460E46A0
:102D100090461F464FF0000900242FE0A31903EB53
:102D20004303D5F8A021D05C04EB440207EBC201B9
:102D3000FFF7D6FFA31903EB4303D5F8A0211A44EC
:102D4000507804EB440307F1080202EBC301FFF7DC
:102D5000C7FFA31903EB4303D5F8A0211A449078C9
:102D600004EB440307F1100202EBC301FFF7B8FFC5
:102D700009F118001FFA80F9601CC4B24445CDDB8C
:102D80004846BDE8F08300002DE9F0471B4890F865
:102D90007100FF2803D100F05FFABDE8F087174902
:102DA00091F8710002F050FB07461449B1F8050094
:102DB00002F04AFB8146124902F08EFB0646114999
:102DC00009680E4A526F881A02F03EFB804631466F
:102DD00002F058FA05460C4902F07EFB04463946DB
:102DE00002F046FC08D2054890F87100401C0349E7
:102DF00081F871000020D0E70120CEE75C110020AF
:102E0000000020417406002000007F4300B5034607
:102E10004FF47A7103FB01F000F003F800BF00BF2C
:102E200000BDC00004E000BF00BF00BF00BF00BF86
:102E3000011EA0F10100F6D1704700002DE9F04F0E
:102E400087B00C461546E9B2E0B200F08BF9069067
:102E50002946204600F0E8F90590484991F87100AC
:102E600002F0F2FA4549029091F8710002F0ECFA92
:102E70004349019002F02DFC80469DF8180002F0B5
:102E8000E3FA01909DF8140002F0DEFA0090019937
:102E900002F02AFC8146414602F0F4F90746029905
:102EA00002F01AFB06469DF8180002F0CDFA3146F2
:102EB000039002F019FC8246304991F8710002F04B
:102EC000C3FA2E49029091F8710002F0BDFA2C4924
:102ED000019002F0FEFB80469DF8190002F0B4FA62
:102EE00001909DF8150002F0AFFA0090019902F0F0
:102EF000FBFB8146414602F0C5F90746029902F004
:102F0000EBFA06469DF8190002F09EFA314603904E
:102F100002F0EAFB8346194991F8710002F094FA35
:102F20001649029091F8710002F08EFA144901904E
:102F300002F0CFFB80469DF81A0002F085FA01905E
:102F40009DF8160002F080FA0090019902F0CCFB87
:102F50008146414602F096F90746029902F0BCFA12
:102F600006469DF81A0002F06FFA3146039002F00F
:102F7000BBFB049007B0BDE8F08F00005C1100209F
:102F800000007F430FB408B503A800900448009ADE
:102F90000299FDF797F90020009001B05DF814FB4D
:102FA0006400002001464FF0FF30704770B50446C2
:102FB00000BFFDF761F9054672B60020A060E06031
:102FC0002846FDF75CF900BF70BD2DE9F0410446CD
:102FD0000E4600BFFDF750F9074672B6A068E168DB
:102FE000451A4DB1E0686168491E08402168085CD7
:102FF0003070E068401CE0603846FDF740F900BFE3
:1030000015B10120BDE8F0810020FBE770B5044652
:103010000D4600BFFDF730F9064672B6A06861683C
:10302000491E084021680D54A068401CA06030462D
:10303000FDF725F900BF70BD70B52748A0F5807178
:10304000C1F8000225A0FFF79DFF00243AE0E50447
:103050002B4800EB44111C222846FFF7FFFD0020FF
:10306000274901EB44110877254901EB44114877C2
:10307000611C24A0FFF786FF214800EB4410006884
:10308000401C60B900201E4901EB441108601C4936
:1030900001EB441148601EA0FFF774FF10E001200F
:1030A000174901EB44110877154800EB44100268FA
:1030B000134800EB441000F10C0117A0FFF762FF6A
:1030C000601CC4B2082CC2DBFF200D4981F8080245
:1030D0000020C1F8040270BD8C0700203D3D3D3D3D
:1030E0003D3D3D3D3D2046696C652073746F7261C6
:1030F0006765203D3D3D3D3D3D3D3D3D0D0A0000A8
:103100008C060020536C6F742025640900000000B9
:103110004E6F6E650D0A00002573202564206279CC
:103120007465730D0A00000070B505460C46204614
:10313000FFF71AFB70BD000070B504460D46E0B203
:103140000A2806D129460D20FFF7F6FF08B900200E
:1031500070BDE1B2024801F00DFE2046F8E7000024
:103160001400002018B50246C2EB02100B4C04EB11
:103170008000435C2046D0F8B40003EB43042044B5
:103180000488ADF8004080788DF80200A4B2204693
:103190009DF8024040EA044018BD0000D411002010
:1031A0002DE9F84F80460C4617461D46284602F08A
:1031B0004BF983461A4902F08CFA8246404602F0E7
:1031C00043F95146009002F05DF8814649461548A2
:1031D00002F082F9824602F017F986B277B1FF2039
:1031E00090FBF5F0321B504381B2FF2900DDFF2137
:1031F000B44200DD0021C8B2BDE8F88FFF2090FB8B
:10320000F5F0C4F13C02B21A504381B2FF2900DD4F
:10321000FF21C4F13C00B04200DD0021C8B2EBE761
:1032200000007F430000704208B502460948407A1A
:103230008DF800000748807A8DF801000548C07AB3
:103240008DF80200BDF8003018469DF8023040EAC3
:10325000034008BD5C1100202DE9F0471E4991F89C
:10326000720002F0F1F807461B49B1F8070002F0BE
:10327000EBF88146194902F02FF90646184909680A
:10328000154A526F881A02F0DFF88046314601F085
:10329000F9FF0546134902F01FF90446394602F0CA
:1032A000E7F916D20C4890F87200401C0A4981F8E0
:1032B0007200084690F87200FF2807D1FFF7EEFC75
:1032C0000020054981F8710081F872000020BDE8F6
:1032D000F0870120FBE700005C1100200000204186
:1032E0007406002000007F4310B500F023FC00F0BE
:1032F000A7F800F061FC00F045F84FF4E131114807
:1033000001F0A2FC00F0BAFC642200210E4801F09A
:103310004BFD00F0EBFC642200210C4801F044FD61
:1033200000F072FC64220021094801F03DFD0948CB
:1033300000F044FD08A30222002108A0FFF722FEAE
:1033400010BD00001400002054090020340B0020A0
:10335000140D0020F40E00206100000053796E630C
:1033600068726F206C69676874207625642E256406
:103370002573207374617274696E672E2E2E0D0A88
:103380000000000000B589B026480190102002908E
:103390002548009000208DF80D0009208DF81700B9
:1033A00000208DF81B0002208DF818001F480490A3
:1033B00000208DF8190007208DF8150001208DF8E8
:1033C0000C0000208DF814000F208DF816000A2044
:1033D000ADF81C0009208DF81A001548089000BFB0
:1033E00001201449086000BF6420FFF70FFD00BFF3
:1033F00001201049091F086000BF4FF47A70FFF7E1
:1034000005FD69460C4801F019FA4FF4FA70FFF710
:10341000FDFC0A21094801F0DDF8074801F0F0FA47
:1034200009B000BD000801400030014040E3CB334B
:103430000048E801140C01409808002040090020D1
:10344000FE48406840F00070FC49486000BF00BF83
:1034500000BF00BFFA48806940F00400F849886165
:1034600000BFF848006820F0F00040F0B000F549D7
:10347000086000BF00BF4815F2491031086000BF66
:1034800000BF00BF00BF00BF00BF00BFEC488069A5
:1034900040F00400EA49886100BFEA48006820F46F
:1034A000706040F48060E749086000BF00BF081505
:1034B000E4491031086000BF00BF00BF00BF00BF7B
:1034C00000BF00BFDE48806940F00400DC4988612D
:1034D00000BFDC48001F006820F4706040F43060DA
:1034E000D849091F086000BF00BF0420D54910312A
:1034F000086000BF00BF00BF00BF00BF00BF00BF2B
:10350000CF48806940F00400CD49886100BFCD48B4
:10351000001F006820F4704040F48040C949091F32
:10352000086000BF00BF0820C6491031086000BF16
:1035300000BF00BF00BF00BF00BF00BFC048806920
:1035400040F00800BE49886100BFBF48006820F411
:10355000706040F43060BC49086000BF00BF0815CF
:10356000B9491031086000BF00BF00BF00BF00BFF5
:1035700000BF00BFB248806940F00800B0498861D0
:1035800000BFB148006820F4704040F48040AE496C
:10359000086000BF00BFC814AB491031086000BF0D
:1035A00000BF00BF00BF00BF00BF00BFA4488069CC
:1035B00040F00800A249886100BFA348001F0068CE
:1035C00020F00F00C01CA049091F086000BF00BF09
:1035D00001209D490C31086000BF00BF00BF00BF43
:1035E00000BF00BF00BF9648806940F004009449C6
:1035F000886100BF9348001F006820F4700040F409
:1036000030009049091F086000BF00BF20208D498D
:103610000C31086000BF00BF00BF00BF00BF00BF8B
:1036200000BF8748806940F004008549886100BF79
:103630008448001F006820F0704040F0304081490D
:10364000091F086000BF00BF80207E490C31086060
:1036500000BF00BF00BF00BF00BF00BF00BF00BF72
:103660007748806940F004007549886100BF75485B
:10367000001F006820F0706040F000607149091F71
:10368000086000BF00BF40206E491031086000BFD5
:1036900000BF00BF091F086000BF00BF00BF00BF20
:1036A00000BF00BF00BF6648806940F00400644965
:1036B000886100BF6348001F006820F4702040F458
:1036C00040306049091F086000BF00BF10205D49FD
:1036D0000C31086000BF00BF00BF00BF00BF00BFCB
:1036E00000BF5748806940F008005549886100BF15
:1036F0005548006820F4700040F4401052490860BA
:1037000000BF00BF481450490C31086000BF00BF23
:1037100000BF00BF00BF00BF00BF4948806940F044
:1037200008004749886100BF4748006820F0706082
:1037300040F040704449086000BF00BF4FF4804033
:1037400041490C31086000BF00BF00BF00BF00BF8F
:1037500000BF00BF00BF3A48806940F00800384908
:10376000886100BF3848006820F0704040F0004099
:103770003549086000BF00BF4FF4004032491031A6
:10378000086000BF00BF00BF091F086000BF00BF86
:1037900000BF00BF00BF00BF00BF2948806940F0E4
:1037A00004002749886100BF2648006820F4702083
:1037B00040F440302349086000BF00BF881421490D
:1037C0000C31086000BF00BF00BF00BF00BF00BFDA
:1037D00000BF1B48806940F008001949886100BF9C
:1037E0001948006820F4702040F440301649086001
:1037F00000BF00BF881414490C31086000BF00BF2F
:1038000000BF00BF00BF00BF00BF0D48806940F08F
:1038100004000B49886100BF0A48006820F00F00CF
:1038200040F00B000749086000BF00BF881505493C
:103830000C31086000BF00BF00BF07E0000001407E
:103840000010024004080140040C014000BF00BF0A
:1038500000BF00BF00BFB348806940F00400B14919
:10386000886100BFB048006820F0F00040F08000A0
:10387000AD49086000BF00BF0220AB4914310860A9
:1038800000BF00BF00BF091F086000BF00BF00BF2E
:1038900000BF00BF00BF00BF00BFA248806940F06A
:1038A0000800A049886100BFA048006820F470604B
:1038B00040F400609D49086000BF00BF04209B49A0
:1038C0001431086000BF00BF00BF091F086000BFBF
:1038D00000BF00BF00BF00BF00BF00BF00BF9148D6
:1038E000806940F004008F49886100BF8E480068FD
:1038F00020F00F0040F008008B49086000BF00BFB7
:10390000012089491431086000BF00BF00BF091FB2
:10391000086000BF00BF00BF00BF00BF00BF00BF06
:1039200000BF8048806940F010007E49886100BF78
:103930007F48406820F0704040F000407C4948607B
:1039400000BF00BF4FF40040486100BF00BF00BF90
:10395000086100BF00BF00BF00BF00BF00BF00BFC5
:103960007048806940F008006E49886100BF6F4868
:10397000006820F4704040F440506C49086000BF7B
:1039800000BF082069491031086000BF00BF00BFB8
:1039900000BF00BF00BF00BF6248806940F0080060
:1039A0006049886100BF6148006820F4702040F4DD
:1039B00040305E49086000BF00BF10205B491031F5
:1039C000086000BF00BF00BF00BF00BF00BF00BF56
:1039D0005448806940F010005249886100BF544843
:1039E000406820F0706040F040705149486000BF6E
:1039F00000BF4FF48040086100BF00BF00BF00BFA0
:103A000000BF00BF00BF4748806940F01000454933
:103A1000886100BF4648406820F4700040F44010C0
:103A20004349486000BF00BF4814086100BF00BFA1
:103A300000BF00BF00BF00BF00BF3A48806940F030
:103A400004003849886100BF3748001D006820F431
:103A5000704040F440503449091D086000BF00BF69
:103A6000C81431491031086000BF00BF00BF00BF5B
:103A700000BF00BF00BF2B48806940F00800294903
:103A8000886100BF2948001D006820F0F00040F068
:103A900030002649091D086000BF00BF48152349B2
:103AA0001031086000BF00BF00BF00BF00BF00BFF3
:103AB00000BF1C48806940F008001A49886100BFB7
:103AC0001A48001D006820F00F00C01C1749091D8E
:103AD000086000BF00BF881514491031086000BF9E
:103AE00000BF00BF00BF00BF00BF00BF0D4880691E
:103AF00040F004000B49886100BF0B48001D0068BE
:103B000020F0704040F040500749091D086000BF98
:103B100000BF4FF4004004491031086000BF00BFEF
:103B200000BF70470010024000080140000C014037
:103B30000010014010B51F48406820F003001D49E7
:103B4000486000BF1B48406800F00C000028F9D115
:103B5000FEF7ECFC4FF4C011C810FEF7EDFC01209D
:103B6000FEF7E4FC00BF1348006800F00070002876
:103B7000F9D01048406840F002000E49486000BF8C
:103B80000C48406800F008000028F9D00720FEF734
:103B9000C7FC01210846FEF737FC01210846FEF765
:103BA00013FC01210220FEF70FFC01210846FEF75D
:103BB000FBFB10BD0010024000B585B001210803D9
:103BC000FEF722FC0820ADF80C000020ADF808003C
:103BD000ADF80600ADF80400ADF80000ADF80E0039
:103BE0004FF48270ADF802004FF40070ADF80A0097
:103BF00069460448FEF7BAFC01210248FEF7AAFC18
:103C000005B000BD0030014015481649C1F8C40197
:103C100013483030C1F8B8014015C1F8D00112483E
:103C2000C1F8CC010D2081F8C8011048C1F8AC01E1
:103C30000220A1F8B0010E48C1F8B4018014A1F827
:103C4000BC010C48C1F8D8010B48C1F8DC01084898
:103C50004030C1F8C001002081F8D4017047000055
:103C600000000240140D0020A11F0008000C0140BC
:103C70000004004069280008E52800081448154998
:103C8000C1F8C40112480830C1F8B8010220C1F8D7
:103C9000D0011148C1F8CC010B2081F8C8010F48B0
:103CA000C1F8AC010420A1F8B0010007C1F8B401CB
:103CB000C014A1F8BC010A48C1F8D8010948C1F8EC
:103CC000DC010948C1F8C001002081F8D401704727
:103CD0000000024054090020611F00080008014054
:103CE000B5270008552800083C0000401448154935
:103CF000C1F8C40112488030C1F8B8018004C1F88D
:103D0000D0011148C1F8CC01112081F8C8010F4839
:103D1000C1F8AC010820A1F8B001C006C1F8B40197
:103D20008014A1F8BC010A48C1F8D8010948C1F8BB
:103D3000DC010948C1F8C001002081F8D4017047B6
:103D400000000240340B0020E11F00080008014081
:103D500069280008E52800084000004010B5044626
:103D6000207820B101280BD0022822D113E0204670
:103D700000F0CAFB204600F097FBA4F8A4011BE06A
:103D800002202070D4F89C0160606068A06064200C
:103D9000A4F8A40110E0204600F02AFF00202070C3
:103DA000204600F0B1FB204600F07EFBA4F8A40101
:103DB00002E00220207000BF00BF10BD0149C1F821
:103DC000B4007047D411002010B500240EE0C4EBFD
:103DD0000412084B03EB8201C4EB0412064B03EB05
:103DE00082003C22FCF7BEFA601C84B2032CEEDB9E
:103DF00010BD000004130020D411002037B5034685
:103E00000C46C3EB03100F4A02EB8000015D9DF8E6
:103E10000800D2F8B42001EB410550559DF8090087
:103E2000084AD2F8B42001EB41052A4490709DF86D
:103E30000A200448D0F8B40001EB41052844427040
:103E400000203EBDD41100200020FE490870012052
:103E50004870022088700320C87004200871052073
:103E60004871062088710720C8710820087209204F
:103E700048720A2088720B20C8720C2008730D202B
:103E800048730E2088730F20C87310200874112007
:103E90004874122088741320C874142008751520E3
:103EA0004875162088751720C875182008761920BF
:103EB00048761A2088761B20C8761C2008771D209B
:103EC00048771E2088771F20C877202081F820009F
:103ED000212081F82100222081F82200232081F86E
:103EE0002300242081F82400252081F825002620A5
:103EF00081F82600272081F82700282081F8280053
:103F0000292081F829002A2081F82A002B2081F815
:103F10002B002C2081F82C002D2081F82D002E2044
:103F200081F82E002F2081F82F00302081F83000FA
:103F3000312081F83100322081F83200332081F8BD
:103F40003300342081F83400352081F835003620E4
:103F500081F83600372081F83700382081F83800A2
:103F6000392081F839003A2081F83A003B2081F865
:103F70003B003C2081F83C003D21B24880F83D10D8
:103F80003E2180F83E103F2180F83F10402180F80C
:103F90004010412180F84110422180F84210432115
:103FA00080F84310442180F84410452180F84510E2
:103FB000462180F84610472180F84710482180F8B4
:103FC0004810492180F849104A2180F84A104B21B5
:103FD00080F84B104C2180F84C104D2180F84D108A
:103FE0004E2180F84E104F2180F84F10502180F85C
:103FF0005010512180F85110522180F85210532155
:1040000080F85310542180F85410552180F8551031
:10401000562180F85610572180F85710582180F803
:104020005810592180F859105A2180F85A105B21F4
:1040300080F85B105C2180F85C105D2180F85D10D9
:104040005E2180F85E105F2180F85F10602180F8AB
:104050006010612180F86110622180F86210632194
:1040600080F86310642180F86410652180F8651081
:10407000662180F86610672180F86710682180F853
:104080006810692180F869106A2180F86A106B2134
:1040900080F86B106C2180F86C106D2180F86D1029
:1040A0006E2180F86E106F2180F86F10702180F8FB
:1040B0007010712180F87110722180F872107321D4
:1040C00080F87310742180F87410752180F87510D1
:1040D000762180F87610772180F87710782059497A
:1040E00081F878007921574880F879107A2180F892
:1040F0007A107B2180F87B107C2180F87C107D2158
:1041000080F87D107E2180F87E107F2180F87F105E
:10411000802180F88010812180F88110822180F830
:104120008210832180F88310842180F884108521F7
:1041300080F88510862180F88610872180F8871006
:10414000882180F88810892180F889108A2180F8D8
:104150008A108B2180F88B108C2180F88C108D2197
:1041600080F88D108E2180F88E108F2180F88F10AE
:10417000902180F89010912180F89110922180F880
:104180009210932180F89310942180F89410952137
:1041900080F89510962180F89610972180F8971056
:1041A000982180F89810992180F899109A2180F828
:1041B0009A109B2180F89B109C2180F89C109D21D7
:1041C00080F89D109E2180F89E109F2180F89F10FE
:1041D000A02180F8A010A12180F8A110A22180F8D0
:1041E000A210A32180F8A310A42180F8A410A52177
:1041F00080F8A510A62180F8A610A72180F8A710A6
:10420000A82180F8A810A92180F8A910AA2180F877
:10421000AA10AB2180F8AB10AC2180F8AC10AD2116
:1042200080F8AD10AE2180F8AE10AF2180F8AF104D
:10423000B02180F8B010B12180F8B110B22180F81F
:10424000B21001E004130020B32180F8B3107047CE
:104250000FB42DE9F047DDE92395DDE9254632234A
:10426000012229463046FEF79BFF824601F0ECF81A
:104270008046164901F006F807469DF8250001F032
:10428000E3F88246394601F027F9804601F0BCF890
:10429000207008A9887901F0D7F88246394601F0E4
:1042A0001BF9804601F0B0F8607008A9C87901F0E8
:1042B000CBF88246394601F00FF9804601F0A4F8A8
:1042C000A070BDE8F0075DF814FB000000007F431C
:1042D000FFF70AF800F062F800F022FCFEF7ACFEEF
:1042E000FFF7B2FDFFF770FD01220021084600F044
:1042F0002FF86421054800F06DF906E004480078C5
:1043000008B100F007F800F035FCF7E78C12002048
:104310007800002010B50B4890F86D0000B910BD72
:10432000FEF732FD00B1FAE706480079012803D113
:1043300005480649086000E000BF00BF00F0F8F83B
:1043400000BFECE75C110020514200087002002021
:1043500070B504460D46164629462046FEF7E4FE93
:1043600032462946204600F001F870BD10B5094BD1
:1043700083F870201C4684F86E0083F86F100123C8
:1043800084F86D30044B1B686367002384F8713038
:1043900010BD00005C1100207406002030B585B00F
:1043A000002401212C4800F059F8002000908DF8DD
:1043B00004008DF805004FF4602002900020039067
:1043C00001208DF8100069462348FDF71DFD0121ED
:1043D0002148FDF7C1FC2048FDF79AFD00BF1E48AB
:1043E000FDF707FD0028FAD11B48FDF7A1FD00BF2E
:1043F0001948FDF7EBFC0028FAD10120FDF79EFDDE
:104400000523012210211448FDF726FD0121124841
:10441000FDF783FD002515E000BF02210E48FDF7E2
:10442000DFFC0028F9D00C484C300068604084B2B2
:104430004FF6FF7000EA440401210748FDF76DFDC7
:10444000681CC5B2322DE7DB0348FDF791FC20461E
:10445000FBF73EFF05B030BD0024014070B50446B7
:104460000D461048204430B1B0F5806F0AD0B0F549
:10447000C05F15D10DE029464FF40070FDF7C4FF71
:10448000012070BD29464FF48060FDF7BDFF01207B
:10449000F7E729464FF40040FDF7B6FF0120F0E7AB
:1044A0000020EEE700DCFEBFF0B504460025002743
:1044B00094F8AB0194F8AA11401A86B2B4F8A80196
:1044C000301A082803DAB4F8A801301A00E00820EE
:1044D00085B2B4F8A8112A4620466368FEF714FC9A
:1044E0000746B4F8A8012844B04206DB94F8AA01B4
:1044F000A4F8A8010120207004E0B4F8A801284421
:10450000A4F8A8013846F0BD90F8A61131B10021F9
:1045100080F8A61100F10C01416005E0012180F84E
:10452000A61100F1D401416041688160704700002C
:1045300070B59CB0002425E000251FE0134890F8DA
:1045400071001BA95922CDE91745CDE919100F4972
:1045500014316846FBF74BFF0C48001D0FC80C4E8A
:104560003668B0472A4621461BA8FEF767FCE9B229
:10457000E0B21B9AFFF742FC681C85B23C2DDDDBE4
:10458000601C84B2032CD7DB1CB070BD5C11002012
:104590007002002001460E4800680860087C18B1CF
:1045A0000120886000207047886828B1CA680868C0
:1045B0001044486000208860D1E90002904205D391
:1045C000CA680868104448600120ECE70020EAE768
:1045D00074060020C1600022027401228260002261
:1045E00002604260704700BF00BF00BF00BF70475D
:1045F00070B5044600252DE000BF00BF4FF4005009
:104600001649086000BF00BF00BF04F0800028B159
:1046100000BF4FF48040091F086005E000BF4FF461
:1046200080400E49086000BF00BFFFF7DCFF00BFFD
:1046300000BF4FF400500949091F086000BF00BFC8
:10464000FFF7D1FF05480C380068C0F3C03040EADE
:1046500044046D1C082DCFDBE0B270BD140C01408A
:104660002DE9F04104460E462746254607E095F819
:1046700000804046FFF7BCFF05F8010B00BF301E6D
:10468000A6F10106F3D13846BDE8F08170B50446C5
:104690000D46264603E016F8010BFFF7A9FF281E7A
:1046A000A5F10105F7D170BD10B504460121D4F87C
:1046B000B401FEF769F80121D4F8B801FDF7C4FC94
:1046C00010BD00B50246C820A2F8A401012082F85E
:1046D000A6010020A2F8A8011070012082F8A6010E
:1046E0001046FFF711FF00BD10B504460021D4F8B5
:1046F000B401FEF749F80021D4F8B801FDF7A4FC95
:1047000010BD70B504460D466068C068A168884356
:104710006168C8600220FEF784FB2946206800F02B
:1047200039F85521206800F035F806466068C06801
:10473000A16808436168C8600220FEF772FB30463A
:1047400070BD2DE9F0410446884616461F46606854
:10475000C068A16888436168C8600220FEF761FBF9
:104760004146206800F016F8002506E05521206833
:1047700000F010F87055681CC5B2BD42F6DB6068E9
:10478000C068A16808436168C8600220FEF749FB61
:10479000BDE8F0810246918100BF108900F0010060
:1047A0000028FAD09089C0B2704770B504460D4613
:1047B00016466068C068A16888436168C8600220C6
:1047C000FEF72FFB45F080012068FFF7E3FF31463D
:1047D0002068FFF7DFFF6068C068A1680843616870
:1047E000C8600220FEF71DFB70BD2DE9F0410446B4
:1047F0000E46174698466068C068A168884361689D
:10480000C8600220FEF70DFB46F080012068FFF72C
:10481000C1FF002505E0795D2068FFF7BBFF681C3C
:10482000C5B24545F7DB6068C068A16808436168A8
:10483000C8600220FEF7F5FABDE8F0812DE9F047E7
:1048400004460D46286908B9BDE8F087A868A0604D
:104850006868606028682060002201212046FFF718
:10486000A4FF802201212046FFF79FFF702304F15F
:10487000150201212046FFF764FF286AE060E06826
:1048800000F0E2FD8046286900F0DEFD81464146E9
:1048900000F0F8FC07464FF09241384600F01CFE4D
:1048A0000746384600F0B0FD0646310CA176310AC5
:1048B000E17626773220005D20F0F00132200155AC
:1048C000005DA97E40EA0110C1B2322001553120BD
:1048D000005D20F00E0131200155005D297E40EA87
:1048E0004100C1B231200155005D20F0F0013120BE
:1048F0000155005DE97D40EA0110C1B2312001554A
:10490000687E012806D13120005D40F00101312090
:10491000015505E03120005D20F0010131200155F5
:10492000202184F8371084F83610A88B010A84F807
:104930003410297F84F8351094F83A0040F00401CF
:1049400084F83A103220005D20F003013220015536
:10495000005D40F0030132200155FF213320015555
:10496000607F20F07F016177607F697D40EA011000
:104970006077607FA97D08436077287D012804D196
:10498000607F40F08001617703E0607F20F080016C
:104990006177702304F1150201212046FFF725FFFE
:1049A000607D40F001016175627D01212046FFF7C5
:1049B000FCFE0A20FEF72AFAFF2212212046FFF70A
:1049C000F4FE002184F8A61084F8A51000202074BD
:1049D000607400BF38E770B504460D4601212046DB
:1049E000FFF78FFE6075607D20F007016175607DC7
:1049F00028436075627D01212046FFF7D6FE70BD19
:104A000010B504460120207405212046FFF7E3FF7E
:104A100010BD00002DE9FE4F044612212046FFF78D
:104A200070FE814609F00800B0B1607C30B105210C
:104A30002046FFF7D0FF0120207401E00020207401
:104A40000020A07400220D212046FFF7AEFE0822B0
:104A500012212046FFF7A9FE09F04000002850D09F
:104A6000402212212046FFF7A0FE04F1850A1321FF
:104A70002046FFF746FE064684F8A6601021204631
:104A8000FFF73FFE02900D212046029AFFF78DFEB0
:104A900007E000212046FFF734FE0AF8010B701EE4
:104AA000C6B2002EF5D11A212046FFF72AFE834612
:104AB00019212046FFF725FE45B2584600F063FA5B
:104AC0000746154A154B00F071FACDE9000100F0D8
:104AD0002DFA00F0FF0B002D05DBCBF19C0041B25D
:104AE00084F8A7100AE02846E91705EB9171CBF18D
:104AF0009C02A2EBA1014AB284F8A720012184F80C
:104B0000A51009F0800028B105212046FFF763FFBA
:104B100001202074BDE8FE8FF6285C8FC2F5F03FBF
:104B200030B54FF47A41B1F1807F00D31DE021F020
:104B30007F40401E4FF0E022506150170F220028A6
:104B400007DA13071D0E094B00F00F04241F1D5533
:104B500003E013071C0E064B1C5400BF00204FF04F
:104B6000E02290610720106100BF30BD18ED00E029
:104B700000E400E010B51648FFF70CFD10B1154831
:104B8000FFF748FF1348807C28B900BF4FF400406E
:104B90001149086000BF0F4890F8A500B0B100218E
:104BA0000C4880F8A51005220CA18530FBF7AEFB60
:104BB00010B901200B49087004220BA1054885306B
:104BC000FBF7A4FB10B900200649087010BD0000D7
:104BD0004009002098080020140801405354415215
:104BE000540000007800002053544F500000000093
:104BF00010B504460D48844205D12046FFF774FDE8
:104C00000B48FFF751FD0A48844205D12046FFF7C3
:104C10006BFD0848FFF748FD0648844205D1204651
:104C2000FFF762FD0148FFF73FFD10BD540900206A
:104C3000340B0020140D002010B5044604F11400BC
:104C4000FEF7B4F910BD00007FB504460D4620689C
:104C5000FDF710FF204600F067F82046FFF7ECFF55
:104C6000094B0FCB8DE80F00009569462068FDF7D2
:104C70004FFF204600F00AF801212068FDF7E4FE0E
:104C8000204600F033F87FBD0858000810B58CB0FE
:104C90000446012240212068FDF7E2FE2C2208494B
:104CA00001A8FBF7A4FB2068001D0190A0680290FA
:104CB000E068049001A9606800F004F80CB010BD31
:104CC000DC57000870B504460D4601210846FDF783
:104CD0006BFB2046FDF7C4F929462046FDF76FFA25
:104CE00001212046FDF7B0F970BD000010B5044663
:104CF0000C492068084448B1B0F5806F0AD0B0F57F
:104D0000744F0BD12520FDF70BFB08E02620FDF7A3
:104D100007FB04E02720FDF703FB00E010BD00BF08
:104D200000BFFBE700BCFFBF10B504461049206878
:104D3000084450B1B0F5806F0CD0B0F5744F0ED16F
:104D400001218803FDF760FB0AE001214804FDF71B
:104D50003BFB05E001218804FDF736FB00E010BDB8
:104D600000BF01210846FDF74FFB00BFF7E7000039
:104D700000BCFFBF70B504460D46294604F114007F
:104D8000FEF744F9012030B12168898941F08001A2
:104D90002268918105E02168898921F080012268DB
:104DA000918100BF70BD000070B594B004460D46FF
:104DB000164604F5CE74A573E67344486060444813
:104DC000206064212068FBF744FB13A8FDF7A0FADC
:104DD000A08AADF84C0003208DF84E0018208DF805
:104DE0004F0013A92069FDF708FA0020ADF8400034
:104DF000ADF842004F20ADF844000020ADF8460069
:104E000010A9A069FDF786FD0CA8FDF778FD6020CC
:104E1000ADF830000120ADF832000020ADF83600CA
:104E2000ADF838000CA9E26BA06990470821226C0C
:104E3000A0699047606AA4F5CE74019004F10C005B
:104E4000029010200390C82004900020059080203C
:104E50000690400007900020089009904FF44050C1
:104E60000A9000200B9004F5DC7401A92068FDF77E
:104E7000A6F9A18854F8040C0122FDF791FC207CCE
:104E80008DF80000207F8DF8010000208DF80200D1
:104E900001208DF803006846FDF74EFA4FF00070D0
:104EA000FDF7C4F84FF08060FDF7C0F82068A4F566
:104EB000DC7401220221FDF779F92046FFF701FC9D
:104EC0002046FFF7F1FB14B070BD0000F40E002087
:104ED000A012002010B500290AD00878002807D0B9
:104EE00005487844FCF728FB002801D0002010BDBD
:104EF0000248784410BD0000520A00004A0A00002F
:104F000010B500290AD00878002807D00548784451
:104F1000FCF712FB002801D0002010BD02487844A5
:104F200010BD0000420A00003A0A00004FEA115387
:104F3000A3F58063D3F11E03A8BFD3F1200C08DBD7
:104F40004FF0004242EAC12252EA505232FA03F0D4
:104F5000704709420BD4102BC4BF0020704703F5E3
:104F6000787CBCF1FF3F05D04FF0FF3070474FF029
:104F70000000704770B500F0C3F800BF499224806C
:104F800000207047F0E7B0FA80F310FA03F10AD07E
:104F9000C3F11D0303F580634FEA41504FEA03520A
:104FA00002EBD12170474FF000007047DFF848C195
:104FB00070B51CEA111E1EBF1CEA13159EEA0C0FE9
:104FC00095EA0C0F00F06F8081EA030423EA4C138A
:104FD0004EEAD47E21EA4C1141F4801143F480134F
:104FE000AE44A1FB024CA0FB0365AEF17F7E3619F7
:104FF00055EB0C05A1FB034C4CF10003A0FB021C7C
:1050000016EB0C06654153F10003094218BF46F048
:10501000010613F4007F0BD14FEA03314FEA05304C
:10502000340341EA155140EA16506FF003020AE0DA
:105030004FEAC3214FEAC520F40241EA555140EA44
:1050400056506FF0020202EB2E4201EB025585EA48
:10505000CE710AD05FEA440C18BF24F0004450F12E
:10506000000041F1000120EAD47040F2FE7C62456C
:1050700000D270BDA84214BF4FF080444FF04044AE
:10508000002E08BF0024BEF1806FA8BFA1F1C0416F
:10509000BDE8704080F282804FF0000001F1C04115
:1050A00001F0004170479EEA0C0F0CEA131518BF7F
:1050B00095EA0C0F06D04FF0000081EA030E0EF0C7
:1050C000004170BD00F01CF88900013E00F007B8F7
:1050D00000F009B84FEA430C5FEA5C5C08D081EA53
:1050E000030100F05BB84FEA410C5FEA5C5CF6D16B
:1050F0004FF00000014970470000FF070000F87FF3
:105100000EF1020E2EF0030E5EF8046B364205D44B
:10511000012A43EB030515F5001F12D8012841EBC6
:10512000010C1CF5001F0CD80ED14FEAD17C15F5EF
:10513000001F0CEB4C0C0CF1020C08BF4CEBD37CA9
:1051400004E04FF0080C01E04FEAD37C0CEB4C0577
:1051500026FA05F606F00706B6F1040C06D20EEBA9
:10516000860CBDE870404CF0010C6047DFE80CF0A5
:10517000090B02024FF000414FF00000A1F50021A1
:1051800070BD19461046012851EB010418BFD4F533
:10519000001484BF002001F0004170BD0808A0F594
:1051A00000114FEA3101704790EA010F48BF81F0CA
:1051B000004100F1A082421A3CBF801A89184FEAD0
:1051C000D0524FF07F4C1CEA410FA2EBD15318BFD5
:1051D0009CEA026F00F03B804FF0004C4CEA00204C
:1051E0004CEA012121FA03FC10EB0C0C1ED202F157
:1051F000FF325FEA1C2040EBC25038BF70471CF002
:105200007F0F4FEA400C18BFBCF17F4F38BF70478B
:10521000C3F12003994008BF20F00100BCF17F4F8B
:1052200038BF7047A0F1C04000F01DBA4FEA3C0003
:10523000000A40EBC25028BF1CF0FF0F4FEA400CA1
:10524000E6D018BFBCF17F4F38BF7047EAE79CEA51
:10525000026F05D010EA5C0F08BF00F000407047F5
:1052600010B500F0BAF900BF64FBBE3E401058BF55
:10527000C0F14040491058BFC1F140418142EFF3B5
:10528000008070474FF47F0C1CEAD0121EBF1CEA4E
:10529000D11392EA0C0F93EA0C0F00F0858090EA8C
:1052A000010F48BF42F4807240F4000C41F400004A
:1052B0002CF07F4120F07F4000B58142A2EB030239
:1052C0000FF2081CACEB504EC0F100009EF800E05D
:1052D0004FEA4E0E00FB0EFC38BF49004FEA2C1C73
:1052E00002F5FA020CFB0EF34FEACE1E4FEA112C28
:1052F0004FEAC1210EEB635E42EB22420EFB0CFC37
:105300004FEA1C5300FB03114FEA112C4FEA013105
:105310000EFB0CFC4FEADC4C00FB0C11C14228BF19
:1053200009184CEB03335DF804EB10EB410143EB40
:10533000C250B2F57C0F38BF704729D512F0F00F7C
:105340001CBF00F1C04000F0004070470081828324
:105350008485868788898B8C8D8E8F919293959684
:1053600097999A9C9D9FA0A2A3A5A7A8AAACAEB00E
:10537000B2B3B5B7B9BCBEC0C2C5C7C9CCCED1D413
:10538000D7D9DCDFE2E6E9ECF0F3F7FAFE00000043
:105390004FEA400C0CF1807CBCF17E4F28BF704777
:1053A000B0F1C04000F05FB990EA010F0CEAD113F0
:1053B00048BF42F48072624538BF634507D213F498
:1053C0007F0F16D080EA010000F00040704710B552
:1053D00000F003F9097EFC3E00F005B880EA010008
:1053E00000F00040704780EA010000F0004000F04B
:1053F0003AB912F47F0F04BF0248704780EA0100F7
:1054000000F031B90000C07FC10DD1F19E0206DB72
:105410004FEA002343F0004323FA02F070470042B2
:1054200007D54FEA4001B1F1FE4F02D24FF0000024
:10543000704710B500F0D1F84992248000207047E1
:105440006FEA200070470000B0FA80F310FA03F210
:10545000C3F19D030AD0D90501EB1220530638BFD2
:10546000704700F1010008BF20F001007047000004
:1054700050EA010C00F113801CF5000F58BFBCF579
:10548000000F01D48842704707D710F5000F58BFAE
:1054900011F5000F15D488427047894270471CF5FA
:1054A000000F04D5BCF5000FF7D5814270474FF0CF
:1054B000807C1CEB400F38BF1CEB410F01D28142B6
:1054C000704710B500F089F8922449004FF0005061
:1054D0004FF08051FFF7CABE4FF47F0C1CEAD01288
:1054E0001EBF1CEAD11392EA0C0F93EA0C0F00F0D6
:1054F000478090EA010F48BF42F480724FF0004CA1
:105500004CEA00204CEA012102EB0302A0FB01134C
:10551000A2F50002002918BF43F001035B0028BF79
:105520004FEA330342EB22425FEA132C4CEBC250AA
:105530002EBFBCEB436FB2F57C0F70474FEA036C94
:10554000BCF1004F08BF20F00100B2F57C0F38BF5E
:1055500070470BD582F0FF0212F5803FC8BF70473D
:1055600000F1C040D8BF00F00040704700F5000CCB
:105570005FEA4C0C48BF7047B0F1C04000F073B810
:1055800090EA010F0CEAD11348BF42F480726245E1
:1055900038BF634504D280EA010000F00040704744
:1055A00010B500F01AF800BF8900013E00F007B8FE
:1055B00000F009B85FEA410C5FEA1C6C08D080EA91
:1055C000010000F050B85FEA400C5FEA1C6CF6D1B5
:1055D0004FF00040A0F5800070470EF1020E2EF053
:1055E000030E5EF8044B244204D44FEA4102B2F1A8
:1055F0007F4F11D84FEA4003B3F17F4F0CD80ED143
:105600004FEAD07CB2F17F4F0CEB4C0C0CF1020C4A
:1056100008BF4CEBD17C04E04FF0080C01E04FEAEE
:10562000D17C0CEB4C0324FA03F404F00704B4F12E
:10563000040C06D20EEB840CBDE810404CF0010CBB
:105640006047DFE80CF0070802024FF00040A0F5C9
:10565000800010BD0846420018BFD2F1807288BF9A
:1056600000F0004010BDFF2141EAD050C005704756
:1056700051EA000C00F113801CF5000F58BFBCF577
:10568000000F01D48142704707D711F5000F58BFB2
:1056900010F5000F15D481427047894270471CF500
:1056A000000F04D5BCF5000FF7D5884270474FF0C6
:1056B000807C1CEB410F38BF1CEB400F01D28842AD
:1056C000704780EA010081EA000180EA0100FFF7EB
:1056D000F8BE80F0004090EA010F7FF56CAD81F0DC
:1056E000004100F008B8000090EA010F48BF81F0C7
:1056F00000413FF560AD421A04D882F00042A0EBB1
:10570000020011444FEAD0524FF07F4C1CEA410F87
:10571000A2EBD15318BF9CEA026F4AD04FF0004C65
:105720004CEA00204CEA012121FA03FCB0EB0C0CFE
:105730000FD412F0FE0F36D05FEA4C001DD50012D8
:1057400040EBC25038BF70471CF03F0F18BF704786
:105750000BE0A2F101025FEA1C2040EBC25038BF0F
:1057600070471CF07F0F18BF7047C3F120039940AA
:1057700014BF401E20F00100704780084FEA12233A
:1057800008BF7047B0FA80FCA2EB0C02CCF1280CE9
:1057900060FA0CF093EA122F04BF00EBC25070477E
:1057A0004FEAC3707047130A5FEADC1008BF704706
:1057B000F6E79CEA026F04D010EA5C0F08BF0020F5
:1057C000704710B5FFF709FF40DFF63E81F000405B
:1057D0007047FBF7A7BAFBF7DBBB00000000000037
:1057E00000000000000000000000000000000000B9
:1057F0008000000000000000000000002000000009
:105800000020000000000000000000000000000078
:1058100000000C000000000000000000000000007C
:1058200030313233343536373839414243444546D6
:1058300040305800303132333435363738396162D0
:1058400063646566403078000400000800000000D2
:1058500000000002000100001030313233343536D0
:10586000373839616263646566787000303132338D
:1058700034353637383941424344454658500000A4
:1058800002400000000000A00000000005400000F1
:10589000000000C8000000000C4000000000409C18
:1058A00000000000194000000020BCBE0000000005
:1058B00034400000BFC91B8E00000004B54000004A
:1058C000504BCFD06607E2CF010000006C410000D2
:1058D0003E8251AADFEEA73401000000D942000049
:1058E000DCB5A0E23A301F97FFFFFFFFB445000090
:1058F000FD25A0C8E9A3C14FFFFFFFFFFF3F000048
:105900000000008000000000FF3F00000000008059
:1059100000000000605A000800000020740200002F
:1059200028010008A85A0008740200208C2A0000F0
:10593000840100081C00000043000000F8FFFFFF86
:105940000C0000000E0000000F0000002E00000000
:105950001001000043000000F8FFFFFF004040403E
:105960004040404040404141414141404040404032
:1059700040404040404040404040404040050202DE
:10598000020202020202020202020202022020209D
:1059900020202020202020020202020202029090F9
:1059A00090909090101010101010101010101010F7
:1059B000101010101010101002020202020288884B
:1059C0008888888808080808080808080808080857
:1059D000080808080808080802020202400000003F
:1059E00000000000000000000000000000000000B7
:1059F00000000000000000000000000000000000A7
:105A00000000000000000000000000000000000096
:105A10000000000000000000000000000000000086
:105A20000000000000000000000000000000000076
:105A30000000000000000000000000000000000066
:105A40000000000000000000000000000000000056
:105A50000000000000000000000000000000000046
:105A6000412D010203040410090607080902040677
:105A70000815380140581502407402122062018B4B
:105A800074030C5112442B406C249A0424DA05242C
:105A9000011F1301FF2902091014D9154914C91552
:085AA00009FD3C09533C0168BB
:040000050800028568
:00000001FF
