:020000040800F2
:1000000050310020E5010008ED010008EF01000873
:10001000F1010008F3010008F501000800000000EC
:10002000000000000000000000000000F7010008D0
:10003000F901000800000000FB010008A10B000806
:10004000FF010008FF010008FF010008FF01000890
:10005000FF010008FF010008FF010008FF01000880
:10006000FF010008FF010008FF010008D906000891
:10007000FF010008FF010008FF0100081907000840
:10008000FF01000859070008FF010008FF010008F0
:10009000FF010008FF010008FF010008FF01000840
:1000A000FF010008FF010008FF010008FF01000830
:1000B000FF010008FF010008FF010008FF01000820
:1000C000FF010008FF010008FF010008FF01000810
:1000D000FF010008790F0008C10F0008FF010008A8
:1000E000FF010008FF010008FF01000800F002F80E
:1000F00000F05CF80AA090E8000C82448344AAF166
:100100000107DA4501D100F051F8AFF2090EBAE863
:100110000F0013F0010F18BFFB1A43F0010318473B
:10012000143E0000343E00000A444FF0000C10F86A
:10013000013B13F0070408BF10F8014B1D1108BF65
:1001400010F8015B641E05D010F8016B641E01F805
:10015000016BF9D113F0080F1EBF10F8014BAD1C55
:100160000C1B09D16D1E58BF01F801CBFAD505E073
:1001700014F8016B01F8016B6D1EF9D59142D6D3CD
:10018000704700000023002400250026103A28BFF5
:1001900078C1FBD8520728BF30C148BF0B607047F9
:1001A0001FB500F054F81FBD10B510BD00F04DF99B
:1001B0001146FFF7F5FF02F06FF900F06BF903B499
:1001C000FFF7F2FF03BC00F06FF90000EFF31080BF
:1001D000704780F310887047EFF31080704780F30A
:1001E000108870470948804709480047FEE7FEE746
:1001F000FEE7FEE7FEE7FEE7FEE7FEE7FEE7FEE7D7
:1002000004480549054A064B70470000190C0008D0
:10021000ED00000850190020503100205029002026
:10022000502900200B4910B5A1F17C020A4CC2E90B
:100230003712372106E000EB104342F82130074B1C
:1002400000FB03400B1EA1F10101F4DC10BD0120F5
:10025000E8E7000084180020E119D666CD0D010002
:1002600040EA010310B59B070FD1042A0DD310C833
:1002700008C9121F9C42F8D020BA19BA884201D985
:10028000012010BD4FF0FF3010BD1AB1D30703D0CD
:10029000521C07E0002010BD10F8013B11F8014B83
:1002A0001B1B07D110F8013B11F8014B1B1B01D19F
:1002B000921EF1D1184610BD032A40F2308010F092
:1002C000030C00F0158011F8013BBCF1020F6244F1
:1002D00098BF11F801CB00F8013B38BF11F8013B82
:1002E000A2F1040298BF00F801CB38BF00F8013B2F
:1002F00011F0030300F02580083AC0F0088051F89F
:10030000043B083A51F804CBA0E80810F5E7121DA9
:100310005CBF51F8043B40F8043BAFF30080D207C8
:1003200024BF11F8013B11F801CB48BF11F8012B94
:1003300024BF00F8013B00F801CB48BF00F8012BB7
:10034000704710B5203AC0F00B80B1E81850203A41
:10035000A0E81850B1E81850A0E81850BFF4F5AF65
:100360005FEA027C24BFB1E81850A0E8185044BFEF
:1003700018C918C0BDE810405FEA827C24BF51F85C
:10038000043B40F8043B08BF7047D20728BF31F850
:10039000023B48BF11F8012B28BF20F8023B48BFA1
:1003A00000F8012B70474FF000020429C0F01280C2
:1003B00010F0030C00F01E80CCF1040CBCF1020F15
:1003C00018BF00F8012BA8BF20F8022BA1EB0C01ED
:1003D00000F010B85FEAC17C24BF00F8012B00F8E0
:1003E000012B48BF00F8012B7047704770477047DA
:1003F0004FF0000200B5134694469646203922BFBE
:10040000A0E80C50A0E80C50B1F12001BFF4F7AF08
:10041000090728BFA0E80C5048BF0CC05DF804EBEA
:10042000890028BF40F8042B08BF704748BF20F858
:10043000022B11F0804F18BF00F8012B704700000D
:1004400000487047EC18002070477546FFF7F8FF2A
:10045000AE4605006946534620F00700854618B0B1
:1004600020B5FFF7CDFEBDE820404FF000064FF06D
:1004700000074FF000084FF0000B21F00701AC46D9
:10048000ACE8C009ACE8C009ACE8C009ACE8C009F8
:100490008D46704710B50446AFF300802046BDE896
:1004A0001040FFF78CBE000001491820ABBEFEE7EC
:1004B0002600020021B1826842F00102826003E05E
:1004C000826822F0010282607047000010B5044685
:1004D0001248844208D10121401500F09FFA002102
:1004E000601500F09BFA17E00D48844208D1012105
:1004F000001500F093FA0021201500F08FFA0BE0B0
:100500000848844208D10121C80300F087FA00217D
:100510004FF4004000F082FA10BD000000240140BA
:1005200000280140003C0140014600208A6802F09A
:1005300004020AB1012000E00020704702460020BA
:1005400013680B400BB1012000E00020704701460A
:1005500000208A6802F008020AB1012000E00020B1
:100560007047000030B502460020002350680F4C51
:1005700020400D790C6844EA0524204350609068BF
:100580000B4C2040D1E902542C434D7944EA4504F8
:1005900020439060D06A20F470000C7C641EE4B2AA
:1005A000234340EA0350D06230BD0000FFFEF0FF5D
:1005B000FDF7F1FFF0B504460D4600200021092D9E
:1005C00011DDE068A5F10A0606EB4607072606FAE4
:1005D00007F18843A5F10A0606EB460603FA06F181
:1005E0000843E0600CE0206905EB4507072606FAA2
:1005F00007F1884305EB450603FA06F1084320613D
:10060000072A0FDA606B561E06EB86071F2606FACE
:1006100007F18843561E06EB860605FA06F10843E5
:10062000606322E00D2A0FDA206BD61F06EB8607E7
:100630001F2606FA07F18843D61F06EB860605FA41
:1006400006F10843206310E0E06AA2F10D0606EB14
:1006500086071F2606FA07F18843A2F10D0606EB6E
:10066000860605FA06F10843E062F0BD816841F0B4
:1006700008018160704721B1826842F4A002826063
:1006800003E0826822F4A00282607047816841F032
:10069000040181607047000030B10749096841F4E6
:1006A0000001054A116005E00349096821F40001D1
:1006B000014A1160704700000824014001460248C9
:1006C00001600068704700000030024001200149CD
:1006D000886070470030024010B502200C49486025
:1006E000084680684FF6FE7108400949886009484D
:1006F000806848610748B0F83403C86008468068DD
:1007000040F001008860034801F086FC10BD000045
:10071000000002404C09002010B54FF400300C4995
:1007200048600846806D4FF6FE71084008498865AC
:100730000848806848660748B0F83403C86508462A
:10074000806D40F001008865024801F065FC10BD35
:10075000000002402C10002010B54FF000700F492F
:1007600048600E48803000684FF6FE7108400B4923
:10077000C1F880000A488068C1F88C000848B0F8C9
:100780003403C1F884000846D0F8800040F001002E
:10079000C1F88000024801F03FFC10BD000002409B
:1007A000BC0C002021B1026842F00102026004E0AA
:1007B00002684FF6FE731A40026070471AB1036870
:1007C0000B43036002E003688B430360704710B57E
:1007D0000022026847F6F0739A430C6A8B68234341
:1007E0000C6923434C6923438C692343CC6923431D
:1007F0004C6A23438C6A23431A430260CB684360EC
:100800000B6883604B68C36010BD002101604160CC
:100810008160C160016141618161C16101624162C8
:10082000816270472DE9F041024600250026002034
:1008300000230024002791F803C00CF00F0591F865
:1008400003C00CF0100CBCF1000F03D091F802C0F3
:100850004CEA050591F800C0BCF1000F31D01468D6
:1008600000202BE04FF0010C0CFA00F3B1F800C0AF
:100870000CEA03069E4220D183004FF00F0C0CFAC5
:1008800003F7BC4305FA03FC4CEA040491F803C0E7
:10089000BCF1280F06D14FF0010C0CFA00FCC2F895
:1008A00014C00AE091F803C0BCF1480F05D14FF025
:1008B000010C0CFA00FCC2F810C0401C0828D1D36F
:1008C0001460B1F800C0BCF1FF0F34DD54680020A3
:1008D0002EE000F1080C4FF0010808FA0CF3B1F813
:1008E00000C00CEA03069E4221D183004FF00F0C9A
:1008F0000CFA03F7BC4305FA03FC4CEA040491F834
:1009000003C0BCF1280F05D100F1080C08FA0CF85F
:10091000C2F8148091F803C0BCF1480F07D100F170
:10092000080C4FF0010808FA0CF8C2F81080401CBF
:100930000828CED35460BDE8F0814FF6FF710180E6
:10094000022181700421C1707047000070B5002140
:1009500000230F22C47804B3154C246804F4E06427
:10096000C4F5E064210AC1F10403CA40447804FAE2
:1009700003F184781440214309010E4C0678A155F7
:10098000047804F01F050124AC4005786D11AD001A
:1009900005F1E025C5F8004109E0047804F01F05E1
:1009A0000124AC40044D0678761145F8264070BD10
:1009B0000CED00E000E400E080E100E029B1064A2F
:1009C00052690243044B5A6104E0034A526982436C
:1009D000014B5A61704700000010024029B1064ADD
:1009E000D2690243044BDA6104E0034AD2698243CC
:1009F000014BDA61704700000010024029B1064A3D
:100A000092690243044B9A6104E0034A926982436B
:100A1000014B9A61704700000010024029B1064A5C
:100A2000D2680243044BDA6004E0034AD26882438E
:100A3000014BDA607047000000100240014908666F
:100A4000704700000000424202460020044B5868F4
:100A500020F47C1042EA01031843014B58607047B0
:100A60000010024021B1028842F04002028004E0FE
:100A700002884FF6BF731A400280704710B50022FB
:100A8000028802F441520B884C8823438C8823430C
:100A9000CC8823430C8923434C8923438C892343EB
:100AA000CC8923431A430280838B4FF2FF74234087
:100AB00083830B8A038210BD10B500F001F810BDCE
:100AC0000CB50020019000903348006840F480305D
:100AD0003149086000BF3048006800F400300090E1
:100AE0000198401C0190009818B90198B0F5A06FCA
:100AF000F1D12948006800F4003010B101200090C5
:100B000001E0002000900098012843D123480068AC
:100B100040F01000214908600846006820F00300FA
:100B200008600846006840F0020008601A48406803
:100B3000194948600846406848600846406840F4E3
:100B4000806048600846406820F47C104860084691
:100B5000406840F4E81048600846006840F0807043
:100B6000086000BF0C48006800F000700028F9D051
:100B70000948406820F0030007494860084640687B
:100B800040F00200486000BF0348406800F00C00DD
:100B90000828F9D10CBD00000010024000200240DE
:100BA0001A480068401C19490860B0F57A7F06DBD6
:100BB0000020086016484068401C154948601448E9
:100BC0000068401C124908600120886011480068D4
:100BD000401C1049086001200D4948610D4800681B
:100BE0004FF4FA7190FBF1F201FB120010B90120F1
:100BF0000749086107480068142190FBF1F201FBE6
:100C0000120010B901200249C86070474800002056
:100C10006C0600204C00002010B51348006840F01E
:100C200001001149086008464068104908400E4913
:100C30004860084600680E4908400B4908600846AD
:100C4000006820F4802008600846406820F4FE0018
:100C500048604FF41F008860FFF72EFF4FF00060E0
:100C60000449086010BD0000001002400000FFF8B9
:100C7000FFFFF6FE08ED00E010B50446C4EBC4002B
:100C800000EB4000034A811815220348FFF714FBCC
:100C900010BD00005F0000201815002021B102885F
:100CA00042F00102028004E002884FF6FE731A400F
:100CB000028070471AB183890B43838102E08389E4
:100CC0008B4383817047000070B50024002200230D
:100CD000058C4FF6FE7635400584028C8388048BA4
:100CE0004FF68F752C40B51E2C400D882C43751E79
:100CF0002A400D892A434D882A43144DA8420BD01F
:100D0000134DA84208D0134DA84205D0124DA84259
:100D100002D0124DA84213D14FF6F7752A404D89E3
:100D20002A434FF6FB752A408D882A434FF6FF650C
:100D30002B404FF6FF552B408D892B43CD892B43FC
:100D400083800483CD888586028470BD002C014099
:100D5000003401400040014000440140004801408F
:100D60000A460021018B4FF6F773194011430183A6
:100D70007047000070B5002400220023058C4FF658
:100D8000FF6635400584028C8388848B4FF68F750F
:100D90002C404FF6FC752C400D882C434FF6FF5528
:100DA0002A400D894FF6FF7606EA05252A434D882D
:100DB00006EA05252A43154DA84202D0144DA84243
:100DC0001DD14FF2FF752A404D894FF6FF7606EA96
:100DD00005252A434FF6FF352A408D8806EA05256A
:100DE0002A434EF6FF752B404DF6FF752B408D893B
:100DF00006EA05152B43CD8906EA05152B438380AA
:100E00008483CD888587028470BD0000002C01405A
:100E1000003401400A460021818B4FF6F7731940D8
:100E2000114381837047000070B500220023002425
:100E3000058C4EF6FF7635400584038C8488828BC2
:100E400048F6FF752A404FF6FF452A400D884FF6B9
:100E5000FF7606EA05252A434DF6FF752B400D89DE
:100E600006EA05352B434D8806EA05352B430B4D25
:100E7000A84202D00A4DA84208D14BF6FF752C407B
:100E80008D894FF6FF7606EA85152C438480828390
:100E9000CD88A0F84050038470BD0000002C0140B4
:100EA000003401400A460021818B4FF2FF73194044
:100EB0004FF6FF7303EA0223194381837047002131
:100EC000018041808180C180018141818181C18116
:100ED00070470000002202881D4B98420ED01D4B27
:100EE00098420BD0B0F1804F08D01B4B984205D0F0
:100EF0001A4B984202D01A4B984204D14FF68F7386
:100F00001A404B881A43174B984207D0164B984209
:100F100004D04FF6FF431A40CB881A4302808B88D7
:100F200083850B8803850A4B98420BD0094B984266
:100F300008D00E4B984205D00D4B984202D00D4B75
:100F4000984201D10B7A0386012383827047000007
:100F5000002C014000340140000400400008004023
:100F6000000C004000100040001400400040014010
:100F7000004401400048014070B5104C20680588CD
:100F800005F08000B8B12068011D04F1140000F0E4
:100F9000EFF980B9002030B12168898941F08001E2
:100FA0002268918105E02168898921F08001226809
:100FB000918100BF00BF00BF70BD00000000002095
:100FC00070B5104C2068058805F08000B8B1206825
:100FD000011D04F1140000F0CBF980B9002030B1FC
:100FE0002168898941F080012268918105E02168AA
:100FF000898921F080012268918100BF00BF00BF74
:1010000070BD00002400002010B500F001F810BDF4
:1010100000BF00BF00BF704710B500BF4FF4805045
:101020000249086000BFFFF7EFFF10BD100C014040
:1010300000BF4FF480500249086000BF70470000B5
:10104000140C014070B504460E461546B6B1ADB15C
:101050000B200B490870200C4870200A8870CC7057
:1010600000200871FFF7E4FF0521054801F05AFD53
:101070002946304601F040FDFFF7CEFF70BD00006D
:101080005400002010B5134890F8DA00401C1149B4
:1010900081F8DA00084690F8DA00132802DD002013
:1010A00081F8DA006A220B49091D01F16A00FFF795
:1010B00003F9084A92F8DA1092F8D90000F0B8F96A
:1010C000044A92F8DA1092F8D900012201F020FACD
:1010D00010BD000014150020024600200DE0C0F1F4
:1010E000070342FA03F303F0010313B136230B5451
:1010F00001E01A230B54431CD8B20828EFDB7047D9
:101100002DE9F04305460E4690461F464FF0000974
:1011100000242FE0A31903EB4303D5F83023D05C60
:1011200004EB440207EBC201FFF7D6FFA31903EB60
:101130004303D5F830231A44507804EB440307F1F5
:10114000080202EBC301FFF7C7FFA31903EB430338
:10115000D5F830231A44907804EB440307F11002C9
:1011600002EBC301FFF7B8FF09F118001FFA80F97D
:10117000601CC4B24445CDDB4846BDE8F0832DE990
:10118000F05F07460D4690463E464FF0FF39B8F1F6
:10119000000F01D0FFF79AFA0AE056F804AB504668
:1011A00001F0FAFA8346FFF789FA81462D1F00BF46
:1011B000042DF2DA484601F0EFFA0446002D43D040
:1011C0004846FFF77BFA8346012D04D0022D13D049
:1011D000032D36D122E0317881EA040001F0DCFAF7
:1011E0004FEA106A5046FFF769FA8146484601F017
:1011F000D3FA80EA142425E0318889B281EA040018
:1012000001F0CAFA4FEA104A5046FFF757FA8146F2
:10121000484601F0C1FA80EA144413E0316821F035
:101220007F4181EA040001F0B7FA4FEA102A5046E4
:10123000FFF744FA8146484601F0AEFA80EA1464AA
:1012400000E000BF00BF00BFE043BDE8F09F00002A
:101250002DE9F0471949C88802F014FD8146184964
:1012600002F024FD074617490968144AD2F8E02025
:10127000881A02F007FD8046394602F009FC06464E
:10128000114902F013FD054602F0C4FC04460B4868
:1012900090F8DC00401CA0420DD2084981F8DC40E7
:1012A000FF2C06D9FF2081F8DC0000F081F9BDE8B1
:1012B000F0870020FBE70120F9E70000141500206B
:1012C000000020416C06002000007F432DE9F0471C
:1012D0000446204602F0D6FC8246124902F0D8FBB2
:1012E00007461149C88802F0CDFC82460F4902F03A
:1012F000DDFC8046394602F0D9FC06460C490868F8
:1013000002F0C0FC8146314602F09CFD054602F029
:1013100081FC0549C1F8E000084680F8DC40BDE8E2
:10132000F087000000007F431415002000002041DA
:101330006C06002000B503464FF47A7103FB01F000
:1013400000F00AF800BF4AF6AA200249086000BF70
:1013500000BD000000300040C00004E000BF00BF3E
:1013600000BF00BF00BF011EA0F10100F6D1704711
:101370002DE9F04104460E4600BFFEF727FF074661
:1013800072B6A068E168451A4DB1E0686168491E0F
:1013900008402168085C3070E068401CE060384616
:1013A000FEF717FF00BF15B10120BDE8F081002056
:1013B000FBE7000070B51C48A0F58071C1F8000281
:1013C000002427E0E504194800EB44111C222846BC
:1013D000FFF738FE0020154901EB44110877134947
:1013E00001EB44114877114800EB44100068401CA1
:1013F00048B900200D4901EB441108600B4901EB8D
:101400004411486004E00120084901EB44110877C9
:10141000601CC4B2082CD5DBFF20044981F8080207
:101420000020C1F8040270BD84070020840600205B
:1014300070B505460C462046FFF71EFC70BD78B51A
:10144000034615461A461088012802D0022821D1E9
:101450000EE01C466088ADF8000020798DF802008F
:10146000BDF8006030469DF8026040EA064078BD55
:101470001C4601EB4106E01C30440688ADF80060D4
:1014800080788DF80200B6B230469DF8026040EADE
:101490000640ECE700200090BDF8004020469DF893
:1014A000024040EA0440E2E72DE9FF4F83B00D46D9
:1014B00014461F46DDF8408005EB080002F0CAFB29
:1014C0008346039802F0DEFB2949029002F0E0FA1D
:1014D0008246594602F0EAFB814602F09BFB86B247
:1014E00017B3301B02F0B6FB0290404602F0CAFB75
:1014F000014601901E4802F0CBFA8346029902F0A1
:10150000D5FB824602F086FB1FFA80F9B9F1FF0F86
:1015100001DD4FF0FF09B44201DD4FF0000909F091
:10152000FF0007B0BDE8F08F291B701A02F092FB94
:101530000290404602F0A6FB014601900C4802F0E2
:10154000A7FA8346029902F0B1FB824602F062FBE1
:101550001FFA80F9B9F1FF0F01DD4FF0FF09281BD9
:10156000B04201DD4FF0000909F0FF00D9E70000AB
:1015700000007F430FB4F0B59BB03BACF0CCBDF89E
:10158000800001280DD15A2224A96846CDE91967A7
:10159000CDE91745FEF7D5FE20A80FC800F0E0FE04
:1015A00000E000BF00BF1BB0F0BC5DF814FB000002
:1015B0002DE9F0471B49088902F064FB81461A496E
:1015C00002F074FB074619490968164AD2F8E02070
:1015D000881A02F057FB8046394602F059FA06464F
:1015E000134902F063FB054602F014FB04460D4864
:1015F00090F8DD00401CA04211D20A4981F8DD407C
:10160000FF2C09D9FFF73EFD0020064981F8DC00D8
:1016100081F8DD00074908700020BDE8F08701204F
:10162000FBE7000014150020000020416C0600209C
:1016300000007F435E00002010B500F0DFFB00F0EB
:1016400063F800F017FC00F001F810BD00B589B098
:1016500026480190102002902548009000208DF827
:101660000D0009208DF8170000208DF81B000220C6
:101670008DF818001F48049000208DF819000720ED
:101680008DF8150001208DF80C0000208DF8140055
:101690000F208DF816000A20ADF81C0009208DF8E7
:1016A0001A001548089000BF01201449086000BFC7
:1016B0006420FFF73FFE00BF01201049091F0860AA
:1016C00000BF4FF47A70FFF735FE69460C4801F011
:1016D0000DFB4FF4FA70FFF72DFE0A21094801F0C7
:1016E000C5F9074801F017FC09B000BD000801402A
:1016F0000030014040E3CB330048E801140C0140C6
:101700009008002038090020FE48406840F0007032
:10171000FC49486000BF00BF00BF00BFFA488069B5
:1017200040F00400F849886100BFF848006820F0E4
:10173000F00040F0B000F549086000BF00BF481558
:10174000F2491031086000BF00BF00BF00BF00BFFA
:1017500000BF00BFEC48806940F00400EA4988619E
:1017600000BFEA48006820F4706040F48060E749F8
:10177000086000BF00BF0815E4491031086000BFD1
:1017800000BF00BF00BF00BF00BF00BFDE488069D0
:1017900040F00400DC49886100BFDC48001F00689D
:1017A00020F4706040F43060D849091F086000BF21
:1017B00000BF0420D5491031086000BF00BF00BF42
:1017C00000BF00BF00BF00BFCF48806940F00400E9
:1017D000CD49886100BFCD48001F006820F47040EB
:1017E00040F48040C949091F086000BF00BF0820BD
:1017F000C6491031086000BF00BF00BF00BF00BF76
:1018000000BF00BFC048806940F00800BE49886141
:1018100000BFBF48006820F4706040F43060BC49ED
:10182000086000BF00BF0815B9491031086000BF4B
:1018300000BF00BF00BF00BF00BF00BFB24880694B
:1018400040F00800B049886100BFB148006820F44A
:10185000704040F48040AE49086000BF00BFC8142B
:10186000AB491031086000BF00BF00BF00BF00BF20
:1018700000BF00BFA448806940F00800A249886109
:1018800000BFA348001F006820F00F00C01CA04943
:10189000091F086000BF00BF01209D490C3108608E
:1018A00000BF00BF00BF00BF00BF00BF00BF964821
:1018B000806940F004009449886100BF9348001F8C
:1018C000006820F4700040F430009049091F08605F
:1018D00000BF00BF20208D490C31086000BF00BF51
:1018E00000BF00BF00BF00BF00BF8748806940F055
:1018F00004008549886100BF8448001F006820F00B
:10190000704040F030408149091F086000BF00BFAF
:1019100080207E490C31086000BF00BF00BF00BFBF
:1019200000BF00BF00BF00BF7748806940F00400DF
:101930007549886100BF7548001F006820F070601D
:1019400040F000607149091F086000BF00BF4020DF
:101950006E491031086000BF00BF00BF091F08605A
:1019600000BF00BF00BF00BF00BF00BF00BF664890
:10197000806940F004006449886100BF6348001F2B
:10198000006820F4702040F440306049091F08606E
:1019900000BF00BF10205D490C31086000BF00BFD0
:1019A00000BF00BF00BF00BF00BF5748806940F0C4
:1019B00008005549886100BF5548006820F4700050
:1019C00040F440105249086000BF00BF481450491D
:1019D0000C31086000BF00BF00BF00BF00BF00BFE8
:1019E00000BF4948806940F008004749886100BF4E
:1019F0004748006820F0706040F04070444908603B
:101A000000BF00BF4FF4804041490C31086000BF67
:101A100000BF00BF00BF00BF00BF00BF00BF3A480B
:101A2000806940F008003849886100BF3848006884
:101A300020F0704040F000403549086000BF00BF12
:101A40004FF4004032491031086000BF00BF00BFB2
:101A5000091F086000BF00BF00BF00BF00BF00BF7C
:101A600000BF2948806940F004002749886100BF11
:101A70002648006820F4702040F440302349086074
:101A800000BF00BF881421490C31086000BF00BFAF
:101A900000BF00BF00BF00BF00BF1B48806940F00F
:101AA00008001949886100BF1948006820F47020B7
:101AB00040F440301649086000BF00BF8814144944
:101AC0000C31086000BF00BF00BF00BF00BF00BFF7
:101AD00000BF0D48806940F004000B49886100BFD9
:101AE0000A48006820F00F0040F00B00074908602A
:101AF00000BF00BF881505490C31086000BF00BF5A
:101B000000BF07E00000014000100240040801404F
:101B1000040C014000BF00BF00BF00BF00BFB348BE
:101B2000806940F00400B149886100BFB048006896
:101B300020F0F00040F08000AD49086000BF00BF19
:101B40000220AB491431086000BF00BF00BF091F6D
:101B5000086000BF00BF00BF00BF00BF00BF00BFE4
:101B600000BFA248806940F00800A049886100BF1A
:101B7000A048006820F4706040F400609D4908604F
:101B800000BF00BF04209B491431086000BF00BFA4
:101B900000BF091F086000BF00BF00BF00BF00BF3B
:101BA00000BF00BF00BF9148806940F004008F492A
:101BB000886100BF8E48006820F00F0040F00800E8
:101BC0008B49086000BF00BF0120894914310860BB
:101BD00000BF00BF00BF091F086000BF00BF00BFFB
:101BE00000BF00BF00BF00BF00BF8048806940F059
:101BF00010007E49886100BF7F48406820F0704037
:101C000040F000407C49486000BF00BF4FF40040F6
:101C1000486100BF00BF00BF086100BF00BF00BF38
:101C200000BF00BF00BF00BF7048806940F00800DF
:101C30006E49886100BF6F48006820F4704040F42E
:101C400040506C49086000BF00BF0820694910314E
:101C5000086000BF00BF00BF00BF00BF00BF00BFE3
:101C60006248806940F008006049886100BF6148AF
:101C7000006820F4702040F440305E49086000BFE6
:101C800000BF10205B491031086000BF00BF00BFDB
:101C900000BF00BF00BF00BF5448806940F0100083
:101CA0005249886100BF5448406820F0706040F09D
:101CB00040705149486000BF00BF4FF48040086148
:101CC00000BF00BF00BF00BF00BF00BF00BF47484C
:101CD000806940F010004549886100BF464840686F
:101CE00020F4700040F440104349486000BF00BF3A
:101CF0004814086100BF00BF00BF00BF00BF00BFA5
:101D000000BF3A48806940F004003849886100BF4C
:101D10003748001D006820F4704040F440503449BA
:101D2000091D086000BF00BFC814314910310860A8
:101D300000BF00BF00BF00BF00BF00BF00BF2B48F7
:101D4000806940F008002949886100BF2948001DCA
:101D5000006820F0F00040F030002649091D0860BE
:101D600000BF00BF481523491031086000BF00BF05
:101D700000BF00BF00BF00BF00BF1C48806940F02B
:101D800008001A49886100BF1A48001D006820F049
:101D90000F00C01C1749091D086000BF00BF88154F
:101DA00014491031086000BF00BF00BF00BF00BF72
:101DB00000BF00BF0D48806940F004000B498861F6
:101DC00000BF0B48001D006820F0704040F04050FC
:101DD0000749091D086000BF00BF4FF400400449D7
:101DE0001031086000BF00BF00BF70470010024004
:101DF00000080140000C01400010014010B51C48D3
:101E0000406820F003001A49486000BF1848406845
:101E100000F00C000028F9D1FEF710FE4FF4E0119D
:101E20004FF44030FEF710FE0120FEF707FE00BF22
:101E30000F48006800F000700028F9D00C48406896
:101E400040F002000A49486000BF0948406800F0BD
:101E500008000028F9D001210846FEF7CFFD012136
:101E60000846FEF7BBFD01210846FEF7A7FD10BDA1
:101E70000010024000B585B001210803FEF7BEFD49
:101E80000820ADF80C000020ADF80800ADF8060001
:101E9000ADF80400ADF80000ADF80E004FF482700C
:101EA000ADF802004FF40070ADF80A00694604482E
:101EB000FEF7E4FD01210248FEF7D4FD05B000BDA8
:101EC0000030014015481649C1F8540313485830F2
:101ED000C1F848034FF40030C1F860031148C1F85D
:101EE0005C030F2081F858030F48C1F83C03012020
:101EF000A1F840038007C1F844034015A1F84C0342
:101F00000A48C1F868030A48C1F86C030948C1F8D7
:101F10005003022081F86403704700000000024073
:101F20002C1000201907000800080140C90C000807
:101F3000610D00083400004014481549C1F85403ED
:101F400012480830C1F848030220C1F86003114864
:101F5000C1F85C030B2081F858030F48C1F83C031B
:101F60000420A1F840030007C1F84403C014A1F8FD
:101F70004C030A48C1F868030948C1F86C030948D2
:101F8000C1F85003022081F864037047000002404A
:101F90004C090020D906000800080140750D000812
:101FA000150E00083C00004014481549C1F85403C0
:101FB00012488030C1F848038004C1F8600311481A
:101FC000C1F85C03112081F858030F48C1F83C03A5
:101FD0000820A1F84003C006C1F844038014A1F80A
:101FE0004C030A48C1F868030948C1F86C03094862
:101FF000C1F85003022081F86403704700000240DA
:10200000BC0C00205907000800080140290E0008F8
:10201000A50E00084000004010B50446207820B10D
:1020200001280BD0022822D113E0204600F0A5FCA5
:10203000204600F069FCA4F834031BE00220207065
:10204000D4F82C0360606068A060C820A4F8340352
:1020500010E0204601F01AF800202070204600F021
:102060008CFC204600F050FCA4F8340302E002206F
:10207000207000BF00BF43F29310044988650846F2
:10208000806D40F01000886510BD00000000024027
:1020900037B503460C4603EBC3000E4A02EB800043
:1020A000015D9DF80800D26E01EB410550559DF889
:1020B0000900084AD26E01EB41052A4490709DF850
:1020C0000A200448C06E01EB4105284442700020FC
:1020D0003EBD0000F81500200149C86670470000A9
:1020E000F815002010B500F019F800240FE0C4EB3B
:1020F000C40202EB8202074BD11804EBC402064B68
:1021000003EB82002322FEF7D7F8601C84B2032C75
:10211000EDDB10BDD4160020F815002000208F49FB
:10212000087001204870022088700320C8700420C5
:10213000087105204871062088710720C8710820A1
:102140000872092048720A2088720B20C8720C207D
:1021500008730D2048730E2088730F20C873102059
:10216000087411204874122088741320C874142035
:10217000087515204875162088751720C875182011
:102180000876192048761A2088761B20C8761C20ED
:1021900008771D2048771E2088771F20C8772020C9
:1021A00081F82000212081F82100222081F82200DE
:1021B000232081F823002421684880F82410252159
:1021C00080F82510262180F82610272180F8271076
:1021D000282180F82810292180F829102A2180F848
:1021E0002A102B2180F82B102C2180F82C102D2167
:1021F00080F82D102E2180F82E102F2180F82F101E
:10220000302180F83010312180F83110322180F8EF
:102210003210332180F83310342180F83410352106
:1022200080F83510362180F83610372180F83710C5
:10223000382180F83810392180F839103A2180F897
:102240003A103B2180F83B103C2180F83C103D21A6
:1022500080F83D103E2180F83E103F2180F83F106D
:10226000402180F84010412180F84110422180F83F
:102270004210432180F84310442180F84410452146
:1022800080F845104620354981F8460047213348FB
:1022900080F84710482180F84810492180F84910FB
:1022A0004A2180F84A104B2180F84B104C2180F8CD
:1022B0004C104D2180F84D104E2180F84E104F21CA
:1022C00080F84F10502180F85010512180F85110A3
:1022D000522180F85210532180F85310542180F875
:1022E0005410552180F85510562180F8561057216A
:1022F00080F85710582180F85810592180F859104B
:102300005A2180F85A105B2180F85B105C2180F81C
:102310005C105D2180F85D105E2180F85E105F2109
:1023200080F85F10602180F86010612180F86110F2
:10233000622180F86210632180F86310642180F8C4
:102340006410652180F86510662180F866106721A9
:1023500080F86710682180F868107047D416002054
:102360002DE9F04F87B0DDE92778299E484C04F12C
:102370006A00069042463946E01CFFF760F8059077
:10238000424639460698C01CFFF759F80490208849
:10239000FF2810DDA078009023783A4603212A9880
:1023A000FFF782F8824601F06DFC8146394901F061
:1023B0006FFB05460FE0A07800902378424623216A
:1023C0002A98FFF771F8824601F05CFC814631499A
:1023D00001F05EFB05469DF8100001F053FC0290F1
:1023E0009DF8140001F04EFC0190029901F02AFDC5
:1023F0008346294601F05AFC82469DF8100001F000
:1024000041FC5146039001F0E1FA814601F002FCE3
:1024100030709DF8110001F035FC02909DF8150018
:1024200001F030FC0190029901F00CFD8346294631
:1024300001F03CFC82469DF8110001F023FC51465E
:10244000039001F0C3FA814601F0E4FB70709DF83F
:10245000120001F017FC02909DF8160001F012FC2A
:102460000190029901F0EEFC8346294601F01EFC22
:1024700082469DF8120001F005FC5146039001F0E0
:10248000A5FA814601F0C6FBB07007B0BDE8F08F39
:102490001E15002000007F43FFF7CEF800F0F6F88D
:1024A00000F0C8FDFEF786FF00F07AF901F09EF813
:1024B0000748FFF711FEFFF715FE002211461046F0
:1024C00000F018F803E000F003FA00F003F8FAE770
:1024D0009C13002010B5064890F8D80000B910BD34
:1024E000FEF7B6FE00B1FAE700F05AFA00BFF6E7D1
:1024F0001415002070B505460E4614463146284690
:10250000FEF796FF62B23146284600F001F870BD32
:1025100010B5084C84F8D900234683F8DA1001235B
:1025200084F8D830044B1B68C4F8E030002384F8EA
:10253000DC3010BD141500206C06002000200E4970
:1025400081F8D80000BF14E000210C4AD26E00EBE5
:102550004003D154094AD26E00EB40031A44517033
:1025600000220649C96E00EB400319448A70411CE1
:10257000C8B27828E8DB704714150020F815002051
:102580002DE9F04105460E4617461C463C4890F89A
:10259000D900A84209D13A4890F8DA00B04204D1F3
:1025A000374890F8D800012804D022463146284602
:1025B000FFF7A0FF324890F8DC000A30A04205DBAC
:1025C0002F4890F8DC000A38A04202DD2046FEF7D2
:1025D0007DFE00BF2B48006800F4006030B100BFF2
:1025E0004FF4006027490C31086006E000BF4FF44B
:1025F000006024490831086000BF00BF00BF2248C6
:10260000006800F4007030B100BF4FF400701E4944
:102610000C31086006E000BF4FF400701A49083121
:10262000086000BF00BF00BF1748006800F480705A
:1026300030B100BF4FF4807013490C31086006E0E0
:1026400000BF4FF4807010490831086000BF00BF20
:1026500000BF0C48006800F4004030B100BF4FF4E8
:10266000004008490C31086006E000BF4FF400400C
:1026700004490831086000BF00BFBDE8F0810000D8
:102680001415002008080140080C014030B585B041
:10269000002401212C4800F059F8002000908DF80A
:1026A00004008DF805004FF4602002900020039094
:1026B00001208DF8100069462348FDF753FF0121E2
:1026C0002148FDF7F7FE2048FDF7D0FF00BF1E4868
:1026D000FDF73DFF0028FAD11B48FDF7D7FF00BFEB
:1026E0001948FDF721FF0028FAD10120FDF7D4FF9A
:1026F0000523012210211448FDF75CFF0121124837
:10270000FDF7B9FF002515E000BF02210E48FDF7D7
:1027100015FF0028F9D00C484C300068604084B2A6
:102720004FF6FF7000EA440401210748FDF7A3FFBC
:10273000681CC5B2322DE7DB0348FDF7C7FE204613
:10274000FDF770FD05B030BD0024014070B50446B2
:102750000D461048204430B1B0F5806F0AD0B0F576
:10276000C05F15D10DE029464FF40070FEF746F921
:10277000012070BD29464FF48060FEF73FF901202B
:10278000F7E729464FF40040FEF738F90120F0E75B
:102790000020EEE700DCFEBF014691FAA1F0704791
:1027A00010B5154815494860022088607F200880D0
:1027B00000208870084600F0F6FD104800F000FE8A
:1027C0000D4800880A2805DD05200B4908800B48C4
:1027D00000F063FD08480088401F094A5043094A39
:1027E00002EB4011084800F04EFB6420FEF7A2FD0A
:1027F000054800F090FB10BD5C000020A8160020EA
:102800002D31010040E3CB33900800202DE9F04149
:1028100006460F463446E51D03221A493046FDF7A9
:102820001FFD08B1BDE8F081B4F803000B2806D005
:10283000B4F803004FF6FF71884200D0F2E76079E8
:10284000012806D0032805D004280BD0052815D16F
:102850000BE014E06B7995F90420A9782888FFF73C
:102860008FFE0CE0FFF76AFE09E0E079064909886F
:10287000884202D0E07900F009F800E000BF00BF14
:1028800000BFCFE72E3F00085C00002010B50446D3
:10289000601F0A4A50430A4A02EB4011094800F0FF
:1028A000F2FA6420FEF746FD064800F034FB0648C5
:1028B0000480064800F0F1FC10BD00002D3101003D
:1028C00040E3CB33900800205C000020A8160020D5
:1028D00010B50B4800F0AAF810B10A4800F024FB2C
:1028E000084890F8A50048B1064890F8A610853031
:1028F000FFF78CFF0021034880F8A51010BD0000F1
:102900003809002090080020F0B504460025002773
:1029100094F83B0394F83A13401A86B2B4F838039B
:1029200094F83A13401A301A102806DAB4F838032B
:1029300094F83A13401A301A00E0102085B2B4F827
:1029400038132A4620466368FEF7DAFB0746B4F8D8
:10295000380394F83A13401A2844B04206DB94F83E
:102960003A03A4F838030120207004E0B4F83803D7
:102970002844A4F838033846F0BD90F8361331B136
:10298000002180F8361300F10C01416005E00121BF
:1029900080F8361300F5CE71416041688160704760
:1029A00030B59DB0002436E0002530E01C4800F032
:1029B0003DF810B11B4800F0B7FA1A4890F8A5008E
:1029C00058B1184890F8A6108530FFF71FFF002176
:1029D000144880F8A5101DB030BD134890F8DC00F5
:1029E0001CA95A22CDE91745CDE919100E49143119
:1029F0006846FDF7A6FC0C48001D0FC8FEF7BAFD9F
:102A0000E9B2E0B21C9AFFF743FB681C85B2232DA4
:102A1000CCDB601C84B2032CC6DB00BFDBE700000C
:102A200038090020900800201415002001460E48A7
:102A300000680860087C18B1012088600020704799
:102A4000886828B1CA680868104448600020886017
:102A5000D1E90002904205D3CA6808681044486072
:102A60000120ECE70020EAE76C060020C1600022AC
:102A7000027401228260002202604260704700BF3F
:102A800000BF00BF00BF704770B5044600252DE0B1
:102A900000BF00BF4FF400501649086000BF00BFE0
:102AA00000BF04F0800028B100BF4FF48040091F30
:102AB000086005E000BF4FF480400E49086000BF89
:102AC00000BFFFF7DCFF00BF00BF4FF40050094913
:102AD000091F086000BF00BFFFF7D1FF05480C3891
:102AE0000068C0F3C03040EA44046D1C082DCFDB01
:102AF000E0B270BD140C01402DE9F04104460E46D1
:102B00002746254607E095F800804046FFF7BCFFC2
:102B100005F8010B00BF301EA6F10106F3D13846BF
:102B2000BDE8F08170B504460D46264603E016F870
:102B3000010BFFF7A9FF281EA5F10105F7D170BD14
:102B400010B504460121D4F84403FEF7A7F801218B
:102B5000D4F84803FDF726FEB4F84C130122D4F84C
:102B60004403FEF7A7F810BD00B502464FF4C87045
:102B7000A2F83403012082F836030020A2F83803BB
:102B800010701046FFF7F9FE00BD10B50446002195
:102B9000D4F84403FEF782F80021D4F84803FDF787
:102BA00001FEB4F84C130022D4F84403FEF782F877
:102BB00010BD70B504460D466068C068A1688843C2
:102BC0006168C8600220FEF7C7FB2946206800F054
:102BD00039F85521206800F035F806466068C0686D
:102BE000A16808436168C8600220FEF7B5FB304663
:102BF00070BD2DE9F0410446884616461F466068C0
:102C0000C068A16888436168C8600220FEF7A4FB21
:102C10004146206800F016F8002506E0552120689E
:102C200000F010F87055681CC5B2BD42F6DB606854
:102C3000C068A16808436168C8600220FEF78CFB89
:102C4000BDE8F0810246918100BF108900F00100CB
:102C50000028FAD09089C0B2704770B504460D467E
:102C600016466068C068A16888436168C860022031
:102C7000FEF772FB45F080012068FFF7E3FF314665
:102C80002068FFF7DFFF6068C068A16808436168DB
:102C9000C8600220FEF760FB70BD2DE9F0410446DC
:102CA0000E46174698466068C068A1688843616808
:102CB000C8600220FEF750FB46F080012068FFF755
:102CC000C1FF002505E0795D2068FFF7BBFF681CA8
:102CD000C5B24545F7DB6068C068A1680843616814
:102CE000C8600220FEF738FBBDE8F0812DE9F0470F
:102CF00004460D46286908B9BDE8F087A868A060B9
:102D00006868606028682060002201212046FFF783
:102D1000A4FF802201212046FFF79FFF702304F1CA
:102D2000150201212046FFF764FF286AE060E06891
:102D300000F0A8FF8046286900F0A4FF81464146C4
:102D400000F0A6FE07464FF09241384600F0AEFF75
:102D50000746384600F05EFF0646310CA176310A80
:102D6000E17626773220005D20F0F0013220015517
:102D7000005DA97E40EA0110C1B232200155312028
:102D8000005D20F00E0131200155005D297E40EAF2
:102D90004100C1B231200155005D20F0F001312029
:102DA0000155005DE97D40EA0110C1B231200155B5
:102DB000687E012806D13120005D40F001013120FC
:102DC000015505E03120005D20F001013120015561
:102DD000202184F8371084F83610A88B010A84F873
:102DE0003410297F84F8351094F83A0040F004013B
:102DF00084F83A103220005D20F0030132200155A2
:102E0000005D40F0030132200155FF2133200155C0
:102E1000607F20F07F016177607F697D40EA01106B
:102E20006077607FA97D08436077287D012804D101
:102E3000607F40F08001617703E0607F20F08001D7
:102E40006177702304F1150201212046FFF725FF69
:102E5000607D40F001016175627D01212046FFF730
:102E6000FCFE0A20FEF766FAFF2212212046FFF739
:102E7000F4FE002184F8A61084F8A5100020207428
:102E8000607400BF38E72DE9F04704460E46677DC1
:102E900027F007073A4601212046FFF7DEFE0A2009
:102EA000FEF748FAE06800F0EDFE8146304600F09B
:102EB000E9FE8246494600F0EBFD80464FF0924124
:102EC000404600F0F3FE8046404600F0A3FE054673
:102ED000290CA176290AE1762577032304F11A0249
:102EE00006212046FFF7D9FEBDE8F08770B50446FD
:102EF0000D4601212046FFF75CFE6075607D20F0E5
:102F000007016175607D28436075627D012120465F
:102F1000FFF7A3FE70BD10B5044601202074052103
:102F20002046FFF7E3FF10BD2DE9FE4F04461221B6
:102F30002046FFF73EFE814609F00800B0B1607CF4
:102F400030B105212046FFF7D1FF0120207401E0B8
:102F5000002020740020A07400220D212046FFF7DD
:102F60007CFE082212212046FFF777FE09F0400080
:102F7000002850D0402212212046FFF76EFE04F1B7
:102F8000850A13212046FFF714FE064684F8A66042
:102F900010212046FFF70DFE02900D212046029AD7
:102FA000FFF75BFE07E000212046FFF702FE0AF86C
:102FB000010B701EC6B2002EF5D11A212046FFF774
:102FC000F8FD834619212046FFF7F3FD45B2584628
:102FD00000F0EBFB0746154A154B00F0F9FBCDE975
:102FE000000100F0B5FB00F0FF0B002D05DBCBF17D
:102FF0009C0041B284F8A7100AE02846E91705EBC7
:103000009171CBF19C02A2EBA1014AB284F8A720F6
:10301000012184F8A51009F0800028B1052120467F
:10302000FFF764FF01202074BDE8FE8FF6285C8F57
:10303000C2F5F03F30B51249B1F1807F00D31DE0F9
:1030400021F07F40401E4FF0E022506150170F22C8
:10305000002807DA13071D0E0A4B00F00F04241F87
:103060001D5503E013071C0E074B1C5400BF002026
:103070004FF0E02290610720106100BF30BD0000DA
:103080004019010018ED00E000E400E010B504462E
:103090000D48844205D12046FFF777FD0B48FFF726
:1030A0004FFD0A48844205D12046FFF76EFD0848CF
:1030B000FFF746FD0648844205D12046FFF765FD2F
:1030C0000148FFF73DFD10BD4C090020BC0C00205D
:1030D0002C10002010B50446002127200155242083
:1030E000015525200155208800F0A9F910B90121CA
:1030F00027200155208800F0EFF9E060208800F0DB
:10310000DDF92061D4E90310411AA068083081423A
:1031100002D2012124200155207A00F0010010B1D3
:103120000121252001552720005D28B92420005DBC
:1031300010B92520005D20B1002129200155002073
:1031400010BD0121292001550120F9E70146292060
:10315000405C08B900207047CA6808E01068401C4D
:1031600020B10023262043540020F4E7121D0869F3
:10317000401C9042F2D80122262042540120EAE766
:1031800001462920405C08B9002070478A684869D8
:10319000104408300A69904204D901222820425480
:1031A0000120F2E74A690AE010884FF6FF7398425F
:1031B00004D00123282043540120E6E7921C8B68A9
:1031C0004869184408309042EED800222820425422
:1031D0000020DAE72DE9F04104462920005D10B90E
:1031E0000020BDE8F0812046FFF7B0FF002120203D
:1031F00001552620005D002831D1E56816E0012246
:103200002846A168FDF7BBFF0646A068284447682A
:10321000BE4207D1A561A0682858E06101212020A5
:10322000015500E008E0A06808300544A168206965
:10323000401A0838A842E2D800BF2020005D28B11B
:10324000A168A0690844083060610AE0A07818B15C
:10325000204600F0C5F804E0E168616101E0E16842
:1032600061612046FFF78CFF0120BAE710B50446E4
:103270002920005D10B12020005D20B9002121200F
:103280000155002010BDD4E90102A169FDF714F831
:103290000121212001550120F4E72DE9F8430446DE
:1032A0002920005D10B90020BDE8F883002122200C
:1032B0000155232001552046FFF762FF2820005DBD
:1032C00050B1A07818B1204600F08AF804E001213E
:1032D000232001550020E7E70026B0460027D4F858
:1032E00014900122D4E90101FDF749FF0090002567
:1032F0000EE0D4E90112606900F02CF9012805D133
:10330000A168606901446161012603E0681CC5B2DF
:10331000032DEEDB00BFD6B1E069401CE061002563
:103320000EE0042204F11C01606900F013F9012889
:1033300004D16069001D6061012703E0681CC5B20B
:10334000032DEEDB00BF17B9E069401EE061A6B1B6
:103350009FB100250EE004226946606900F0FAF88A
:10336000012805D16069001D60614FF0010803E08C
:10337000681CC5B2032DEEDB00BF2046FFF700FF3F
:1033800066B15FB1B8F1000F08D0012120200155CE
:10339000C4F8189022200155012085E7012123203F
:1033A0000155002080E710B50446204600F02FF8B4
:1033B0002046FFF78FFE08B9002010BD0120FCE772
:1033C00010B504462046FFF7EEFF08B9002010BDF7
:1033D0002046FFF7FFFE2046FFF748FF0120F6E7F3
:1033E00010B504462920005D08B9002010BDE06832
:1033F00000F02CF8E16861610121262001550021CF
:10340000202001552046FFF7BBFE0120EEE70021FA
:10341000C161002220210A5421210A5422210A5488
:1034200023210A5424210A5425210A5426210A540E
:1034300027210A5428210A5429210A547047014699
:10344000802901D2012070470020FCE770B50446B6
:1034500000BFFCF7C1FE064672B615481549486024
:103460001548486000BF1348C06800F001000028FC
:10347000F9D134200F49C860022008610846446130
:10348000422008610846C06800BF0A48C06800F0D2
:1034900001000028F9D10748C068C0F3401580201A
:1034A000044908613046FCF79AFE00BFE8B270BDDF
:1034B0002301674500200240AB89EFCD00B50346EC
:1034C0001846FFF7BCFF08B9002000BD184600F001
:1034D00003F800F2FF30F8E700B502461046FFF7A8
:1034E000AEFF08B9002000BD900200F10060FAE7CD
:1034F0000E480F4948600F48486000BF0C48C0683C
:1035000000F001000028F9D120200949C8600846D0
:10351000006940F0010008610846006900F0800081
:1035200008B1002070470120FCE700002301674537
:1035300000200240AB89EFCD0548006920F0010072
:10354000034908610846006940F08000086170473F
:10355000002002402DE9F04704460D46904604EB5A
:1035600008093AE004F0010018B14FF6FF76641E36
:1035700004E015F8011B88B240F47F464C4505D2A3
:1035800015F8011B304661F31F20064600BFFCF70B
:1035900023FE824672B6FFF7ABFF0746012F0FD11D
:1035A000268000BF1048C06800F0200028B90E48EF
:1035B000C06800F001000028F4D120200A49C8604A
:1035C000FFF7BAFF5046FCF70AFE00BF2088B04262
:1035D00000D10FB9002702E0A41C4C45C2D300BFA4
:1035E0003846BDE8F08700000020024010B5FEF725
:1035F00069FC69224621094800F016F8FEF79CFC98
:1036000023220021064800F00FF8FEF7CDFC4622E9
:103610002321044800F008F810BD00002C10002001
:103620004C090020BC0C002070B594B004460D4637
:103630001646C8214448FCF7B6FE13A8FDF77DF9ED
:1036400004F54F74A088ADF84C0003208DF84E00AF
:1036500018208DF84F0013A92068FDF7E3F800202B
:10366000ADF84000ADF842004F20ADF84400002016
:10367000ADF8460010A9A068FDF72CFC0CA8FDF7DA
:103680001EFC6020ADF830000120ADF832000020B3
:10369000ADF83600ADF838000CA9E26AA068904792
:1036A0000821226BA068904701A8FDF7AEF8606979
:1036B000A4F54F74019004F10C00029010200390C7
:1036C0004FF4C870049000200590802006904000C0
:1036D00007900020089009904FF440500A90002075
:1036E0000B9004F54B7401A9E069FDF770F8218C8B
:1036F0000122A069FDF7DEFA94F82C008DF8000095
:1037000094F838008DF8010000208DF802000120A7
:103710008DF803006846FDF719F901220221E069DE
:10372000FDF74CF8A573E673084860600648206012
:10373000A07BA081A4F54B742046FFF715FA204624
:10374000FFF7FEF914B070BD3D1700209C13002058
:103750004FEA1153A3F58063D3F11E03A8BFD3F141
:10376000200C08DB4FF0004242EAC12252EA5052DC
:1037700032FA03F0704709420BD4102BC4BF00206B
:10378000704703F5787CBCF1FF3F05D04FF0FF3068
:1037900070474FF00000704770B500F0C3F800BFED
:1037A0004992248000207047F0E7B0FA80F310FAC5
:1037B00003F10AD0C3F11D0303F580634FEA4150C2
:1037C0004FEA035202EBD12170474FF000007047DF
:1037D000DFF848C170B51CEA111E1EBF1CEA1315A4
:1037E0009EEA0C0F95EA0C0F00F06F8081EA03044B
:1037F00023EA4C134EEAD47E21EA4C1141F48011A5
:1038000043F48013AE44A1FB024CA0FB0365AEF170
:103810007F7E361955EB0C05A1FB034C4CF10003E0
:10382000A0FB021C16EB0C06654153F10003094294
:1038300018BF46F0010613F4007F0BD14FEA0331A5
:103840004FEA0530340341EA155140EA16506FF053
:1038500003020AE04FEAC3214FEAC520F40241EA1D
:10386000555140EA56506FF0020202EB2E4201EB36
:10387000025585EACE710AD05FEA440C18BF24F0E5
:10388000004450F1000041F1000120EAD47040F200
:10389000FE7C624500D270BDA84214BF4FF0804448
:1038A0004FF04044002E08BF0024BEF1806FA8BF37
:1038B000A1F1C041BDE8704080F282804FF000006D
:1038C00001F1C04101F0004170479EEA0C0F0CEA83
:1038D000131518BF95EA0C0F06D04FF0000081EACF
:1038E000030E0EF0004170BD00F01CF88900013E8F
:1038F00000F007B800F009B84FEA430C5FEA5C5CDF
:1039000008D081EA030100F05BB84FEA410C5FEA9E
:103910005C5CF6D14FF00000014970470000FF07E2
:103920000000F87F0EF1020E2EF0030E5EF8046B1D
:10393000364205D4012A43EB030515F5001F12D8C2
:10394000012841EB010C1CF5001F0CD80ED14FEAE9
:10395000D17C15F5001F0CEB4C0C0CF1020C08BFD0
:103960004CEBD37C04E04FF0080C01E04FEAD37C31
:103970000CEB4C0526FA05F606F00706B6F1040C2A
:1039800006D20EEB860CBDE870404CF0010C60478F
:10399000DFE80CF0090B02024FF000414FF000008D
:1039A000A1F5002170BD19461046012851EB010414
:1039B00018BFD4F5001484BF002001F0004170BD91
:1039C0000808A0F500114FEA3101704790EA010F95
:1039D00048BF81F0004100F13C82421A3CBF801A8E
:1039E00089184FEAD0524FF07F4C1CEA410FA2EBEE
:1039F000D15318BF9CEA026F00F03B804FF0004C9F
:103A00004CEA00204CEA012121FA03FC10EB0C0CDB
:103A10001ED202F1FF325FEA1C2040EBC25038BFD9
:103A200070471CF07F0F4FEA400C18BFBCF17F4F6E
:103A300038BF7047C3F12003994008BF20F0010050
:103A4000BCF17F4F38BF7047A0F1C04000F0F5B91E
:103A50004FEA3C00000A40EBC25028BF1CF0FF0FA9
:103A60004FEA400CE6D018BFBCF17F4F38BF70471B
:103A7000EAE79CEA026F05D010EA5C0F08BF00F08D
:103A80000040704710B500F092F900BF64FBBE3EE5
:103A90004FF47F0C1CEAD0121EBF1CEAD11392EA2D
:103AA0000C0F93EA0C0F00F0858090EA010F48BFDD
:103AB00042F4807240F4000C41F400002CF07F418D
:103AC00020F07F4000B58142A2EB03020FF2081CF8
:103AD000ACEB504EC0F100009EF800E04FEA4E0EF5
:103AE00000FB0EFC38BF49004FEA2C1C02F5FA021D
:103AF0000CFB0EF34FEACE1E4FEA112C4FEAC12108
:103B00000EEB635E42EB22420EFB0CFC4FEA1C53B1
:103B100000FB03114FEA112C4FEA01310EFB0CFCA4
:103B20004FEADC4C00FB0C11C14228BF09184CEBDA
:103B300003335DF804EB10EB410143EBC250B2F5E7
:103B40007C0F38BF704729D512F0F00F1CBF00F171
:103B5000C04000F0004070470081828384858687E2
:103B600088898B8C8D8E8F919293959697999A9C3C
:103B70009D9FA0A2A3A5A7A8AAACAEB0B2B3B5B7AB
:103B8000B9BCBEC0C2C5C7C9CCCED1D4D7D9DCDF81
:103B9000E2E6E9ECF0F3F7FAFE0000004FEA400C31
:103BA0000CF1807CBCF17E4F28BF7047B0F1C04063
:103BB00000F043B990EA010F0CEAD11348BF42F478
:103BC0008072624538BF634507D213F47F0F16D069
:103BD00080EA010000F00040704710B500F0E7F8FF
:103BE000097EFC3E00F005B880EA010000F00040CC
:103BF000704780EA010000F0004000F01EB912F4A6
:103C00007F0F04BF0248704780EA010000F015B939
:103C10000000C07FC10DD1F19E0206DB4FEA0023F8
:103C200043F0004323FA02F07047004207D54FEA01
:103C30004001B1F1FE4F02D24FF00000704710B5C5
:103C400000F0B5F849922480002070476FEA200008
:103C50007047000010F0004148BF4042B0FA80F3C6
:103C600010FA03F2C3F19D030BD051EAC35101EBEB
:103C70001220530638BF704700F1010008BF20F042
:103C800001007047B0FA80F310FA03F2C3F19D030C
:103C90000AD0D90501EB1220530638BF704700F156
:103CA000010008BF20F00100704700004FF47F0CB6
:103CB0001CEAD0121EBF1CEAD11392EA0C0F93EA41
:103CC0000C0F00F0478090EA010F48BF42F4807269
:103CD0004FF0004C4CEA00204CEA012102EB0302B9
:103CE000A0FB0113A2F50002002918BF43F0010355
:103CF0005B0028BF4FEA330342EB22425FEA132CFA
:103D00004CEBC2502EBFBCEB436FB2F57C0F70473B
:103D10004FEA036CBCF1004F08BF20F00100B2F580
:103D20007C0F38BF70470BD582F0FF0212F5803F41
:103D3000C8BF704700F1C040D8BF00F000407047D6
:103D400000F5000C5FEA4C0C48BF7047B0F1C04072
:103D500000F073B890EA010F0CEAD11348BF42F4A7
:103D60008072624538BF634504D280EA010000F0EA
:103D70000040704710B500F01AF800BF8900013EFE
:103D800000F007B800F009B85FEA410C5FEA1C6C6C
:103D900008D080EA010000F050B85FEA400C5FEA0A
:103DA0001C6CF6D14FF00040A0F5800070470EF17A
:103DB000020E2EF0030E5EF8044B244204D44FEAA8
:103DC0004102B2F17F4F11D84FEA4003B3F17F4F68
:103DD0000CD80ED14FEAD07CB2F17F4F0CEB4C0CDB
:103DE0000CF1020C08BF4CEBD17C04E04FF0080C46
:103DF00001E04FEAD17C0CEB4C0324FA03F404F00D
:103E00000704B4F1040C06D20EEB840CBDE810409C
:103E10004CF0010C6047DFE80CF0070802024FF09D
:103E20000040A0F5800010BD0846420018BFD2F146
:103E3000807288BF00F0004010BDFF2141EAD050E1
:103E4000C005704790EA010F48BF81F000413FF57F
:103E5000C4AD421A04D882F00042A0EB0200114423
:103E60004FEAD0524FF07F4C1CEA410FA2EBD153E6
:103E700018BF9CEA026F4AD04FF0004C4CEA002079
:103E80004CEA012121FA03FCB0EB0C0C0FD412F028
:103E9000FE0F36D05FEA4C001DD5001240EBC25039
:103EA00038BF70471CF03F0F18BF70470BE0A2F1FE
:103EB00001025FEA1C2040EBC25038BF70471CF083
:103EC0007F0F18BF7047C3F12003994014BF401EF5
:103ED00020F00100704780084FEA122308BF7047A6
:103EE000B0FA80FCA2EB0C02CCF1280C60FA0CF0CA
:103EF00093EA122F04BF00EBC25070474FEAC37021
:103F00007047130A5FEADC1008BF7047F6E79CEAC7
:103F1000026F04D010EA5C0F08BF0020704710B594
:103F2000FFF745FF40DFF63E81F000407047CD16B9
:103F3000BB000000543F0008000000206C0200009D
:103F400028010008D03F00086C020020E42E000089
:103F5000840100081115380140581502406C021206
:103F60002062018B6C030C5112442B406C249A0488
:103F700024DA0524011612013A2D25130A017CFFCB
:103F8000FFFF153AC8172915110A10641521C92A0F
:103F90001501011E021303FF1A32191906D915392A
:103FA00058AAFF1549272DFFFFAD013311F92A99B2
:103FB00015391239548915693FC92A09B03F0B11C7
:103FC0002D011552C81B0A0112193E016E00000096
:04000005080001E509
:00000001FF
