:020000040800F2
:1000000000500020910D0008D90D0008D90D0008FE
:10001000D90D0008D90D0008D90D00080000000016
:10002000000000000000000000000000D90D0008E2
:10003000D90D000800000000D90D0008493F000854
:10004000D90D0008D90D0008D90D0008D90D0008F8
:10005000D90D0008D90D0008D90D0008D90D0008E8
:10006000D90D0008D90D0008D90D0008D90D0008D8
:10007000D90D0008D90D0008D90D0008D90D0008C8
:10008000D90D0008D90D0008D90D0008D90D0008B8
:10009000D90D0008D90D0008D90D0008D90D0008A8
:1000A000D90D0008D90D0008D90D0008D90D000898
:1000B000D90D0008D90D0008D90D0008D90D000888
:1000C000D90D0008D90D0008D90D0008D90D000878
:1000D000D90D000809400008C93F0008D90D0008E3
:1000E000D90D0008D90D0008D90D00080000000046
:1000F0000000000000000000000000000000000000
:0C01000000000000000000005FF808F1A3
:1001100010B5054C237833B9044B13B10448AFF341
:1001200000800123237010BDAC06002000000000F9
:10013000C453000808B5034B1BB103490348AFF390
:10014000008008BD00000000B0060020C453000875
:10015000034613F8012B002AFBD1181A0138704707
:1001600070B54FF0FF0C4CF4E06C1CEA11541DBF4D
:100170001CEA135594EA0C0F95EA0C0F00F0DEF818
:100180002C4481EA030621EA4C5123EA4C5350EAFD
:10019000013518BF52EA033541F4801143F480134E
:1001A00038D0A0FB02CE4FF00005E1FB02E506F0DF
:1001B0000042E0FB03E54FF00006E1FB03569CF034
:1001C000000F18BF4EF0010EA4F1FF04B6F5007F3A
:1001D00064F5407404D25FEA4E0E6D4146EB0606AC
:1001E00042EAC62141EA55514FEAC52040EA5E5035
:1001F0004FEACE2EB4F1FD0C88BFBCF5E06F1ED8DF
:10020000BEF1004F08BF5FEA500E50F1000041EB15
:10021000045170BD06F0004646EA010140EA0200C2
:1002200081EA0301B4EB5C04C2BFD4EB0C0541EAE4
:10023000045170BD41F480114FF0000E013C00F3F9
:10024000AB8014F1360FDEBF002001F0004170BD1D
:10025000C4F10004203C35DA0C341BDC04F1140436
:10026000C4F1200500FA05F320FA04F001FA05F2C2
:1002700040EA020001F0004221F0004110EBD3708F
:1002800021FA04F642EB06015EEA430E08BF20EABB
:10029000D37070BDC4F10C04C4F1200500FA04F35E
:1002A00020FA05F001FA04F240EA020001F00041F0
:1002B00010EBD37041F100015EEA430E08BF20EA63
:1002C000D37070BDC4F1200500FA05F24EEA020EAB
:1002D00020FA04F301FA05F243EA020321FA04F0DA
:1002E00001F0004121FA04F220EA020000EBD37091
:1002F0005EEA430E08BF20EAD37070BD94F0000F91
:100300000FD101F00046400041EB010111F4801FC4
:1003100008BF013CF7D041EA060195F0000F18BF75
:10032000704703F00046520043EB030313F4801FB1
:1003300008BF013DF7D043EA0603704794EA0C0F6B
:100340000CEA135518BF95EA0C0F0CD050EA410681
:1003500018BF52EA4306D1D181EA030101F00041FE
:100360004FF0000070BD50EA410606BF1046194626
:1003700052EA430619D094EA0C0F02D150EA013632
:1003800013D195EA0C0F05D152EA03361CBF104673
:1003900019460AD181EA030101F0004141F0FE4112
:1003A00041F470014FF0000070BD41F0FE4141F496
:1003B000780170BD81F0004102E000BF83F000438E
:1003C00030B54FEA41044FEA430594EA050F08BFF0
:1003D00090EA020F1FBF54EA000C55EA020C7FEAB4
:1003E000645C7FEA655C00F0E2804FEA5454D4EB31
:1003F0005555B8BF6D420CDD2C4480EA020281EAFB
:10040000030382EA000083EA010180EA020281EA32
:100410000303362D88BF30BD11F0004F4FEA013184
:100420004FF4801C4CEA113102D0404261EB410193
:1004300013F0004F4FEA03334CEA133302D0524219
:1004400063EB430394EA050F00F0A780A4F10104D5
:10045000D5F1200E0DDB02FA0EFC22FA05F280180F
:1004600041F1000103FA0EF2801843FA05F35941F5
:100470000EE0A5F120050EF1200E012A03FA0EFC74
:1004800028BF4CF0020C43FA05F3C01851EBE3719E
:1004900001F0004507D54FF0000EDCF1000C7EEBBB
:1004A00000006EEB0101B1F5801F1BD3B1F5001FF9
:1004B0000CD349085FEA30004FEA3C0C04F1010418
:1004C0004FEA445212F5800F80F09A80BCF1004F41
:1004D00008BF5FEA500C50F1000041EB045141EAC3
:1004E000050130BD5FEA4C0C404141EB0101013C8C
:1004F00028BFB1F5801FE9D291F0000F04BF01467B
:100500000020B1FA81F308BF2033A3F10B03B3F14C
:1005100020020CDA0C3208DD02F1140CC2F10C02DC
:1005200001FA0CF021FA02F10CE002F11402D8BF3A
:10053000C2F1200C01FA02F120FA0CFCDCBF41EA06
:100540000C019040E41AA2BF01EB0451294330BDD5
:100550006FEA04041F3C1CDA0C340EDC04F11404B2
:10056000C4F1200220FA04F001FA02F340EA030089
:1005700021FA04F345EA030130BDC4F10C04C4F1CF
:10058000200220FA02F001FA04F340EA03002946AF
:1005900030BD21FA04F0294630BD94F0000F83F4F9
:1005A000801306BF81F480110134013D4EE77FEADC
:1005B000645C18BF7FEA655C29D094EA050F08BF28
:1005C00090EA020F05D054EA000C04BF1946104609
:1005D00030BD91EA030F1EBF0021002030BD5FEA4D
:1005E000545C05D14000494128BF41F0004130BD75
:1005F00014F580043CBF01F5801130BD01F00045C9
:1006000045F0FE4141F470014FF0000030BD7FEA3B
:10061000645C1ABF194610467FEA655C1CBF0B4636
:10062000024650EA013406BF52EA033591EA030F4D
:1006300041F4002130BD00BF90F0000F04BF002145
:10064000704730B54FF4806404F132044FF0000578
:100650004FF0000150E700BF90F0000F04BF0021F1
:10066000704730B54FF4806404F1320410F0004557
:1006700048BF40424FF000013EE700BF42004FEA52
:10068000E2014FEA31014FEA02701FBF12F07F43CF
:1006900093F07F4F81F06051704732F07F4208BF86
:1006A000704793F07F4F04BF41F40021704730B58D
:1006B0004FF4607401F0004521F000411CE700BFD9
:1006C00050EA010208BF704730B54FF000050AE05C
:1006D00050EA010208BF704730B511F0004502D55D
:1006E000404261EB41014FF4806404F132045FEA5F
:1006F000915C3FF4D8AE4FF003025FEADC0C18BF08
:1007000003325FEADC0C18BF033202EBDC02C2F1F9
:10071000200300FA03FC20FA02F001FA03FE40EA8B
:100720000E0021FA02F11444BDE600BF4A0011D2C6
:1007300012F5001211D20DD56FF47873B3EB62523B
:100740000ED44FEAC12343F0004343EA505323FA47
:1007500002F070474FF00000704750EA013002D1BC
:100760004FF0FF3070474FF00000704780F00040BE
:1007700002E000BF81F0004142001FBF5FEA410379
:1007800092EA030F7FEA226C7FEA236C6AD04FEA79
:100790001262D2EB1363C1BFD218414048404140BE
:1007A000B8BF5B42192B88BF704710F0004F40F470
:1007B000000020F07F4018BF404211F0004F41F48C
:1007C000000121F07F4118BF494292EA030F3FD058
:1007D000A2F1010241FA03FC10EB0C00C3F120036B
:1007E00001FA03F100F0004302D5494260EB4000FA
:1007F000B0F5000F13D3B0F1807F06D340084FEA65
:10080000310102F10102FE2A51D2B1F1004F40EB59
:10081000C25008BF20F0010040EA030070474900C1
:1008200040EB0000013A28BFB0F5000FEDD2B0FA5E
:1008300080FCACF1080CB2EB0C0200FA0CF0AABF81
:1008400000EBC25052421843BCBFD040184370471F
:1008500092F0000F81F4000106BF80F40000013225
:10086000013BB5E74FEA41037FEA226C18BF7FEAFC
:10087000236C21D092EA030F04D092F0000F08BF3E
:100880000846704790EA010F1CBF0020704712F025
:100890007F4F04D1400028BF40F00040704712F164
:1008A00000723CBF00F50000704700F0004343F0C9
:1008B000FE4040F4000070477FEA226216BF0846FF
:1008C0007FEA23630146420206BF5FEA412390EAC2
:1008D000010F40F4800070474FF0000304E000BFB8
:1008E00010F0004348BF40425FEA000C08BF704769
:1008F00043F0964301464FF000001CE050EA01022D
:1009000008BF70474FF000030AE000BF50EA010241
:1009100008BF704711F0004302D5404261EB41012E
:100920005FEA010C02BF84460146002043F0B64353
:1009300008BFA3F18053A3F50003BCFA8CF2083A78
:10094000A3EBC25310DB01FA02FC634400FA02FC81
:10095000C2F12002BCF1004F20FA02F243EB020088
:1009600008BF20F00100704702F1200201FA02FCEA
:10097000C2F1200250EA4C0021FA02F243EB0200DD
:1009800008BF20EADC7070474FF0FF0C1CEAD05221
:100990001EBF1CEAD15392EA0C0F93EA0C0F6FD0E2
:1009A0001A4480EA010C400218BF5FEA41211ED0C0
:1009B0004FF0006343EA501043EA5111A0FB0131AC
:1009C0000CF00040B1F5000F3EBF490041EAD37181
:1009D0005B0040EA010062F17F02FD2A1DD8B3F1FD
:1009E000004F40EBC25008BF20F00100704790F06C
:1009F000000F0CF0004C08BF49024CEA502040EABE
:100A000051207F3AC2BFD2F1FF0340EAC250704783
:100A100040F400004FF00003013A5DDC12F1190FC1
:100A2000DCBF00F000407047C2F10002410021FA33
:100A300002F1C2F1200200FA02FC5FEA310040F14B
:100A4000000053EA4C0308BF20EADC70704792F0C4
:100A5000000F00F0004C02BF400010F4000F013AFC
:100A6000F9D040EA0C0093F0000F01F0004C02BFF7
:100A7000490011F4000F013BF9D041EA0C018FE766
:100A80000CEAD15392EA0C0F18BF93EA0C0F0AD06C
:100A900030F0004C18BF31F0004CD8D180EA010092
:100AA00000F00040704790F0000F17BF90F0004F2B
:100AB000084691F0000F91F0004F14D092EA0C0F0D
:100AC00001D142020FD193EA0C0F03D14B0218BFA0
:100AD000084608D180EA010000F0004040F0FE40E6
:100AE00040F40000704740F0FE4040F44000704782
:100AF0004FF0FF0C1CEAD0521EBF1CEAD15392EA01
:100B00000C0F93EA0C0F69D0A2EB030280EA010CF0
:100B100049024FEA402037D04FF0805343EA111189
:100B200043EA10130CF000408B4238BF5B0042F1E7
:100B30007D024FF4000C8B4224BF5B1A40EA0C008C
:100B4000B3EB510F24BFA3EB510340EA5C00B3EBBE
:100B5000910F24BFA3EB910340EA9C00B3EBD10FAC
:100B600024BFA3EBD10340EADC001B0118BF5FEAFE
:100B70001C1CE0D1FD2A3FF650AF8B4240EBC25027
:100B800008BF20F0010070470CF0004C4CEA5020E8
:100B90007F32C2BFD2F1FF0340EAC250704740F437
:100BA00000004FF00003013A37E792F0000F00F029
:100BB000004C02BF400010F4000F013AF9D040EAA7
:100BC0000C0093F0000F01F0004C02BF490011F43B
:100BD000000F013BF9D041EA0C0195E70CEAD15333
:100BE00092EA0C0F08D142027FF47DAF93EA0C0F1A
:100BF0007FF470AF084676E793EA0C0F04D14B02FE
:100C00003FF44CAF08466EE730F0004C18BF31F0AF
:100C1000004CCAD130F000427FF45CAF31F00043A9
:100C20007FF43CAF5FE700BF42000ED2B2F1FE4F4F
:100C30000BD34FF09E03B3EB126209D44FEA0023AB
:100C400043F0004323FA02F070474FF00000704772
:100C500012F1610F01D1420202D14FF0FF30704713
:100C60004FF00000704700BF70B50D4E0D4D761B64
:100C7000B61006D0002455F8043B01349847A6422C
:100C8000F9D1094E094D04F09DFB761BB61006D034
:100C9000002455F8043B01349847A642F9D170BDB1
:100CA00034560008345600083C56000834560008F4
:100CB000024B13B1024800F005B870470000000075
:100CC000D10C0008002301461A46184600F01AB855
:100CD00038B5084B084D5B1B9C1007D0043B1D44E6
:100CE000013C55F804399847002CF9D1BDE838404B
:100CF00004F06EBB405600083C560008704700BF29
:100D0000704700BF2DE9F047DFF880A00646DAF80B
:100D1000000098460F469146FFF7F0FF1A4B1B68FC
:100D2000D3F8484124B365681F2D26DC5EB96B1CDF
:100D30000235DAF80000636044F82570FFF7E0FF41
:100D40000020BDE8F087012304EB8501C1F88890FD
:100D5000D4F88821AB401A43022EC4F88821C1F888
:100D60000881E4D1D4F88C211343C4F88C31DEE738
:100D700003F5A674C3F84841D5E7DAF80000FFF799
:100D8000BFFF4FF0FF30DCE79C540008A8060020AE
:100D9000002103E00B4B5B58435004310A480B4BD6
:100DA00042189A42F6D30A4A02E0002342F8043B72
:100DB000084B9A42F9D303F047F9FFF755FF02F0C9
:100DC000E1F870474056000800000020AC06002003
:100DD000AC06002010140020FEE700000122214B89
:100DE00010B59A604FF0FF32032918DC92FAA2F393
:100DF00099B11C4C02292260226818D0032922D004
:100E000001290AD102785A4092FAA2F2120E226007
:100E1000226892FAA2F282EA1323D84310BD50F856
:100E2000042B92FAA2F21A601A680439DCE70288ED
:100E30005A4092FAA2F2120C2260226892FAA2F2AE
:100E400082EA1343E9E7026822F07F425A4092FAAD
:100E5000A2F2120A2260226892FAA2F282EA1363D4
:100E6000DBE700BF003002401C4B0022198810B5A0
:100E70007F2988BF01205A62C3E907221A8599BFDA
:100E800001F50032900283F8270010467F298EBFBB
:100E90000022890201F10062996898BF02F2FF32D4
:100EA0001A6101F10804121A944284BF012283F8E6
:100EB0002420CA0744BF012283F82520D860586A3D
:100EC00020F47F0020F47F4030B993F8252012B938
:100ED000012083F8290010BD0020FCE7C80600208F
:100EE00010B50D4B93F8290078B159699A681869C3
:100EF0000A440832824205D84FF6FF708A4205D86C
:100F0000002000E0012083F8280010BD0C888442F6
:100F1000F8D10231F2E700BFC806002010B5174A29
:100F200092F8290040B3D168EFF3108072B6144BE9
:100F3000144C5C6004F188345C60DC68E407FCD429
:100F40003424DC6002241C61596142211961DB6890
:100F50000B49CB6813F00103FBD1CC6880240C61F2
:100F600080F310880124D16882F82640516182F80C
:100F70002030FFF7B5FF204610BD00BFC806002097
:100F800000200240230167452DE9F04F904B8FB0C0
:100F9000D3F898208F490A92D3F89C2093F8608068
:100FA0000992DA6A93F858C001925A6B93F850602C
:100FB000029293F8402093F830E00392DA6B93F8B2
:100FC0003890049293F848205D6C05925A6DDF6C5E
:100FD0000692DA6D009307920022089201EB8802D4
:100FE0000B9201EB8C020C9201EB86020D929DF8A4
:100FF00020000A9B98420ADB099A01329342B8BF4B
:101000000022009BC3F89C200FB0BDE8F08F0C239A
:10101000009A03FB0022099B92F86840834240F04B
:10102000CF8092F86C2012F0400A00F08380BEF16D
:101030000F0F88BF4FF0000B019B98BF31F81EB017
:10104000D3F810A04BEA0A0AC3F810A012F0200A45
:101050007BD0B9F10F0F88BF4FF0000B029B98BFF8
:1010600031F819B0D3F810A04BEA0A0AC3F810A05F
:1010700012F0100A039B73D00F2B8CBF4FF0000BA4
:1010800031F813B0049BD3F810A04BEA0A0AC3F856
:1010900010A012F0080A059B6DD00F2B8CBF4FF0EB
:1010A000000B31F813B0D5F810A04BEA0A0AC5F8C6
:1010B00010A012F0040A67D00F2E8CBF4FF0000B67
:1010C00031F816B0D7F810A04BEA0A0AC7F810A0FA
:1010D00012F0020A61D0BCF10F0F88BF4FF0000B75
:1010E000069B98BF31F81CB0D3F810A04BEA0A0A4F
:1010F00012F00102C3F810A059D0B8F10F0F88BF49
:101100004FF0000A079B98BF31F818A01A694AEA05
:1011100002020F2C1A6159D831F814400C23009A9E
:1011200003FB0020406E026922430261089A0132EB
:1011300008925CE7BEF10F0F019B9CBF01EB8E0A8A
:10114000DAF820A0D3F810B07CE7B9F10F0F029BBA
:101150009CBF01EB890ADAF820A0D3F810B083E72E
:101160000F2B98BF01EB830A049B98BFDAF820A0ED
:10117000D3F810B089E70F2B9CBF01EB830ADAF894
:1011800020A0D5F810B090E70F2E98BF0D9BD7F890
:1011900010B098BFD3F820A096E7BCF10F0F9CBF0A
:1011A0000C9BD3F820A0069BD3F810B09EE7B8F1B3
:1011B0000F0F9CBF0B9B1A6A079BD3F810A0A6E7E2
:1011C0000F2C03D801EB8404246AA7E70024A5E7C9
:1011D000C8060020DC53000810B50A490A4C421E1C
:1011E0000330824200D110BD12F8013F0C31203B88
:1011F000DBB2522B8EBF00231B1993F8603081F8AD
:101200003430EEE7F4060020DC53000830B5054624
:10121000002004468C4200DB30BD2A5D43BA5A40B0
:1012200093B2C2F30312534083EA0333580100F42C
:10123000FF509BB258400134ECE7082348400206B7
:1012400048BF80F089004000013BC0B2F7D1704731
:10125000CA7E8B7E032843EA022301BF487D0A7DB4
:1012600042EA002243EA02431846704703686BB122
:101270001A785AB1DA8883889A4207D1044BD3F896
:10128000A430002B0CBF03200020704709207047BA
:10129000C806002002686AB11378303B082B0CD8CE
:1012A00051783A2909D102320260181E18BF012074
:1012B000404270474FF0FF3070470020704743694D
:1012C0000239023B8B4283BF8378806A01FB0300B3
:1012D0000020704700BF00BF00BF70472DE9F041FC
:1012E00004462027274BDFF8A0C0DFF8A0E0024427
:1012F000944202D30120BDE8F081E60732D5013CDB
:10130000A24239D84FF6FF76EFF3108872B6C3F8D1
:1013100004C0C3F804E0D86810F00100FBD1DF601E
:101320001D6945F001051D611D692D0608D4268043
:10133000D868850602D4D868C007F9D40120DF60D8
:101340001D6925F001051D611D6945F080051D61C0
:1013500088F310882588ADB2B54210D10028CAD0D4
:101360000234C5E711F8010B40F47F4011F8016B1E
:10137000C0B240EA0626C7E74FF6FF70F6E7002046
:10138000B9E700BF0020024023016745AB89EFCDDC
:101390002DE9F341394E96F829403546002C41D0CD
:1013A00000237384FFF79CFD96F8283023B1B478AE
:1013B000002C34D0FFF7B2FDD5E90101D5F8148037
:1013C000FFF70CFD032401906869D5E90112FFF7CE
:1013D00085FF01282AD103246B69AA68284E13448B
:1013E0006B61EB690133EB61042231466869FFF7F9
:1013F00075FF012807462CD103246B6904336B6108
:10140000042268690DEB0201FFF768FF0128064618
:1014100029D16B690746043304466B610CE0012354
:1014200086F82330204602B0BDE8F081013C14F07C
:10143000FF04C9D126462746FFF752FDCFB1C6B1FA
:10144000BCB10123C5F8188085F8203085F822301A
:10145000E8E7013C14F0FF04C6D1EB692646013BE6
:101460000127EB61E8E7013C14F0FF04C8D1012635
:10147000E2E70123002485F82330D3E7C8060020E3
:10148000E40600200F4B70B508224FF400551C46AF
:101490004FF4004601065D614CBF1E615E6100BFF6
:1014A00000BF00BF00BF256100BF00BF00BF00BF7D
:1014B000A168013AC1F3803141EA4000EAD1C0B2EB
:1014C00070BD00BF000C0140F8B505460E4644F65D
:1014D0002164013C02D14FF0FF30F8BDFF20FFF73F
:1014E000D1FFC0B2FE28F4D12C467719FF20FFF7B8
:1014F000C9FF04F8010BA742F8D1FF20FFF7C2FF94
:10150000C4B2FF20FFF7BEFF2402C0B2044331463D
:101510002846FFF77BFE201A18BF4FF0FF30DCE7AC
:1015200010B540F2E934013C4FF0FF0004D0FFF762
:10153000A9FF0306F7D4C0B210BD2DE9F04105465E
:10154000FFF7EEFF0128064619D1FF20FFF79AFFAB
:101550008046FF20FFF796FF0746FF20FFF792FF28
:101560000446FF20FFF78EFF3F04C3B243EA08633F
:1015700007F47F0724023B43A4B21C432C6030468F
:10158000BDE8F08108B5FFF77DFFC0B208BD10B51A
:101590000824FF20FFF7F6FF013CFAD110BD70B51B
:1015A00040F0400528460C46FFF7ECFF2946002096
:1015B000FFF743FE0546260E3046FFF7E3FF3146B0
:1015C0002846FFF73AFE0546C4F307463046FFF7C4
:1015D000D9FF31462846FFF730FE0546C4F30726FB
:1015E0003046FFF7CFFF31462846FFF726FE054677
:1015F000E4B22046FFF7C6FF21462846FFF71DFE4E
:10160000BDE8704040F00100C0B2FFF7BBBF000072
:1016100070B514464FF480522F4D6A61820758BF4F
:1016200049021820FFF7BBFFFFF77AFFFF2806D11A
:101630004FF480534FF0FF342B61204670BD10F003
:10164000FE0F05D04FF480536FF001042B61F4E7D7
:10165000FF20FFF797FFFE20FFF794FF04F50076C9
:10166000B4421BD14FF0FF312046FFF7CFFD0446B7
:10167000C0F30720FFF786FFE0B2FFF783FF0B26DA
:10168000013E10D14FF0FF34FFF781FF4FF480533C
:10169000002C18BF6FF002042B61CEE714F8010B89
:1016A000FFF770FFDCE7FF20FFF7ECFEC4B2FF2C72
:1016B000E6D00A4E013E02D16FF00104E4E7FF20BC
:1016C000FFF7E0FEC0B2FF28F4D104F01F03052BA2
:1016D00008BF0024D8E700BF00080140A186010030
:1016E00038B515464FF48052154C6261820758BFD9
:1016F00049021120FFF753FFFFF712FFFF2805D122
:101700004FF480534FF0FF30236138BD10F0FE0FCF
:1017100005D04FF480536FF001002361F5E74FF4DB
:1017200000712846FFF7D0FE0546FFF730FF4FF463
:101730008053013514BF00206FF002002361E4E7FD
:10174000000801404FF4805370B5104E00210D2069
:101750007361FFF724FF40F2E934013C08D1FF2414
:10176000FFF715FF4FF4805344F3C030336170BD71
:10177000FF20FFF787FE03060546EED4FF20FFF7A4
:1017800081FEC4B244EA0524A4B2E9E7000801409E
:1017900000232DE9F74303604FF4805305460A27E1
:1017A000694C2361FF20FFF7EDFE013FFAD14FF4B2
:1017B000805839463846C4F81480FFF7F0FEFFF72A
:1017C000AFFE0646FFF7E3FEFF2EC4F8108005D1FA
:1017D0004FF0FF36304603B0BDE8F083012E02D053
:1017E0006FF00106F6E74FF4D5710820C4F81480B5
:1017F000FFF7D5FE01A8FFF7A0FE0646FFF7C7FEDC
:10180000C4F810802B68FF2E43F001022A60DFD05D
:10181000012E04D07607E3D523F001032B604FF4AB
:10182000805800213A20C4F81480FFF7B8FE6846BB
:10183000FFF783FE0646FFF7AAFEFF2EC4F81080CE
:10184000C6D0012E01D07007CAD52B6840F2E93905
:1018500013F0010F18BF4FF080474FF4805800215C
:101860003720C4F81480FFF79AFEFFF759FE0646AA
:10187000FFF78DFEFF2EC4F81080A9D016F0FE0FE2
:10188000AED139462920C4F81480FFF788FEFFF74F
:1018900047FE0646FFF77BFEFF2EC4F8108097D068
:1018A00016F0FE0F9CD1C6B1B9F10109D7D197E767
:1018B0004FF480574FF4007110206761FFF76FFEFF
:1018C000FFF72EFE0546FFF762FEFF2D27613FF46E
:1018D0007FAF15F0FE0F22D082E72B68DB071BD508
:1018E00031463A20C4F81480FFF759FE6846FFF7E6
:1018F00024FE0746FFF74BFEFF2FC4F810803FF48D
:1019000067AF17F0FE0F7FF46BAF009B590042BF2B
:101910002B6843F002032B602B689A07C8D54FF45D
:10192000805700213B206761FFF739FEFFF7F8FD84
:101930000546FFF72CFEFF2D27613FF449AF15F058
:10194000FE0F3FF447AF4BE7000801402DE9F74F8A
:1019500006460F460025DFF864900192019B9D42E8
:1019600003DB002003B0BDE8F08F07EB050A06EBB0
:10197000452B5A465146D9F8B000FFF7B1FE4FF05B
:101980000B080446002C13DAB8F1010801D101203C
:10199000E8E70948FFF7FCFE0028F3D1FFF7D2FE85
:1019A0005A465146D9F8B000FFF79AFE0446E9E7D7
:1019B000EDD10135D2E700BF78070020C80600202E
:1019C0002DE9F041124D02460646D5F8B0000F460B
:1019D000FFF71EFE4FF00B080446002C11DAB8F199
:1019E000010813D00B48FFF7D3FE0028F5D1FFF70D
:1019F000A9FE32463946D5F8B000FFF709FE044685
:101A0000EBE714BF01200020BDE8F0810120FBE7D7
:101A1000C8060020780700202DE9F041C66A00F1D1
:101A20003008044631464046FFF7CAFF054698B9DC
:101A3000236AA269F31A9342207102D2E778012F38
:101A400002D82846BDE8F081A36940461E443146CD
:101A5000FFF7B6FF013FF2E70125F2E738B5C36AA9
:101A600004468B420D4611D0037943B90122294621
:101A700004F13000FFF76AFF30B1012038BDFFF7F5
:101A8000CBFF0028F9D1F1E7E562F7E70020F5E7A1
:101A9000002310B503714FF0FF33C3620446FFF714
:101AA000DDFFC0B994F82F2294F82E3243EA0223C6
:101AB0004AF65522934210D1D4F86630084A23F0F2
:101AC0007F43934206D0D4F8820020F07F40801AF2
:101AD00018BF012010BD0320FCE70220FAE700BF79
:101AE000464154000129F8B505460C46164671D901
:101AF00043698B426ED90378022B3AD0032B4AD02C
:101B0000012B65D101EB5107016A01EB5721FFF76A
:101B1000A5FF18BBC7F3080314F001042B4417BF3B
:101B200093F83020F2B202F00F0132011CBF02F034
:101B3000F0020A4383F830200123296A013728463E
:101B40002B7101EB5721FFF789FF38B9C7F308075D
:101B50002F4434B1C6F3071687F8306001232B7188
:101B6000F8BD97F83030C6F3032623F00F031E4369
:101B7000F2E7016A01EB1421FFF770FF0028EDD1B5
:101B8000640004F4FF742C4484F83060C6F3072624
:101B900084F83160E2E7016A01EBD411FFF75EFFE0
:101BA0000028DBD1A40004F4FE7404F130032B44BC
:101BB000DA782C44120602F070421643C6F307226C
:101BC00084F830605A70320C360E9A70DE70C5E7B9
:101BD0000220C3E70220C3E70129F8B506460D46F7
:101BE0005DD943698B425AD90378022B29D0032B44
:101BF00039D0012B07D101EB5107016A01EB5721C5
:101C0000FFF72CFF10B14FF0FF3019E0316AC7F336
:101C1000080301373344304601EB572193F8304035
:101C2000FFF71CFF0028EED1C7F308073E4496F8E3
:101C30003000EB0744EA00204CBF0009C0F30B0062
:101C4000F8BD016A01EB1521FFF708FF0028DAD182
:101C50006D0005F4FF75354495F8313095F8300086
:101C600040EA0320ECE7016A01EBD511FFF7F6FE2D
:101C70000028C8D1A90001F4FE7101F130033344FA
:101C80009878DA780004751840EA026095F83020F8
:101C90005B78104340EA032020F07040D0E7012039
:101CA000CEE738B50023816804460129C38001D1FD
:101CB000022038BD03685A699142F9D281B91A7875
:101CC000032A01D1596A59B90022E2601A89002A0F
:101CD000EED05B6A23612368002030336361E8E75C
:101CE0009D782D01206825B1E160FFF7E8FA2061B9
:101CF000F1E7FFF771FF431C014606D00128D7D951
:101D000023685B699842EDD3D2E70120D1E72DE942
:101D1000F84FC78805460137BFB2884617B9042077
:101D2000BDE8F88F0369002BF9D017F00F0A07D12F
:101D3000E968013300682B6151B90389BB42EED9D0
:101D40002B680020303303EB4A13EF806B61E7E729
:101D500090F8029009F1FF3919EA1719F0D1FFF74D
:101D60003BFF012804467ED9601C01D10120D7E742
:101D70002E687369A34266D8B8F1000FCFD0D5F8AA
:101D80000CB0BBF1000F12D1D6F80C80B8F1000FE7
:101D900019D0434598BF4FF0010844467369013498
:101DA0009C4214D3B8F1010F10D80720B8E7594668
:101DB0003046FFF711FF0128044654D97369984251
:101DC00024D3D846E9E74FF00108E6E7022421468C
:101DD0003046FFF701FF30B1411CC7D0012842D087
:101DE000A045DBD1E1E76FF0704221463046FFF7B6
:101DF00079FE002835D1BBF1000F2BD13369F46097
:101E00005A1C32D1002CD0D0012C2CD0631CADD068
:101E10002868037983BB00212B6803F1300203F5A6
:101E20000C739A422ED12A6821461046FFF747FAD2
:101E30000126D06228685FFA89F28378934224D819
:101E4000C36A9B1AC36221462868EC60FFF737FA21
:101E5000286175E7224659463046FFF743FE0028C1
:101E6000CCD0012882D002205AE7013B336173793C
:101E700043F001037371C5E7FFF7CEFD00287FF43F
:101E800075AFC8E702F8011BCBE70671FFF7C4FD89
:101E900009F1010900287FF469AF2A68D36A013388
:101EA000D362C7E72DE9F0410B7806462F2B0C468D
:101EB00001D05C2B00D101340025B56023781F2BA5
:101EC00039D920252378A0462F2B04F10104F9D01D
:101ED0005C2BF7D0B7693B4607F10B02934230D138
:101EE00000204FF0080C8646034618F80E200EF12D
:101EF0000104202A50D92F2A4ED05C2A4CD02E2AF9
:101F000000F0A280844514D9110602F17F01C9B204
:101F100048BF43F003031E2916D902F12001C9B2BC
:101F20001C2911D9DFF838E11EF8011B11B38A42D0
:101F3000FAD1062003E03046FFF7B3FE7561BDE835
:101F4000F08103F8015BC9E718F804400EF1020EB6
:101F5000A4F140013E2903D984F080017C29E8D80E
:101F60000CF1FF318842E4D2411C3A547C540230D7
:101F7000744672E0A2F14101192904D843F002032A
:101F80003A54013069E0A2F1610119299EBF203A5B
:101F900043F00103D2B2F3E7212A34BF0422002226
:101FA00044440028C5D03978E52904BF052139709B
:101FB000BCF1080F28D19B00DBB203F00C03042B0B
:101FC00008BF42F008023046FA72FFF76AFE18BBFB
:101FD00031693068FFF742FDF0B973691A78D2B100
:101FE000D87A10F008000AD1B26903F10B0C9C45B5
:101FF00012D013F8017B12F8011B8F42F7D0002199
:102000003046FFF784FEE2E703F00301012908BF31
:1020100042F01002D1E70420B369DB7A30B1042822
:102020008DD113F0040F08BF052088E75A0786D426
:102030007169CB7ADB0605D533681878FFF708F9A4
:10204000B0603FE705207AE7BCF1080F7FF471AF7D
:1020500060464FF00B0C9B00DBB2A64645E700BF85
:10206000A05400082DE9F04300250746056085B01F
:102070000846FFF70FF9031EC0F29081CA4A02EB2F
:102080008301D1F8B4401646002C00F089813C60F1
:1020900020782946D2F8A42000B162B9217063707B
:1020A000002A7FD14FF400520B25C04BC04F1A615C
:1020B000013D04D10325284605B0BDE8F08338462C
:1020C000FFF766FB80460028F2D14FF48057B94DE8
:1020D000FFF738FB41460A206F61FFF760FAFFF710
:1020E0001FFAFF2802D010F0FE0F0DD02F614FF421
:1020F0008057002109206F61FFF751FAFFF710FAAE
:10210000FF2808D12F61D5E710216846FFF7DCF9D9
:10211000FFF73DFAEAE710F0FE0FF3D11021684611
:10212000FFF7D2F98046FFF732FAB8F1FF3F2F618F
:10213000C0D09DF800309DF80A109B099DF80770EB
:102140009DF808209DF8095040F0FB809DF806009E
:10215000920980026B0000F4406042EA870203F0BB
:102160000603024343EAD113023301329A409DF839
:10217000053003F00F03093B02FA03F3C6F8A83059
:1021800001234A06C6F8AC3009D499409DF80B30BB
:1021900001F07E0141EAD3110131C6F8AC100123F0
:1021A000C6F8A43000212046FFF772FC012805463E
:1021B00040F0DF80E946494604F5F77304F22E202B
:1021C0001A7902B19A681033834241F8042BF7D18F
:1021D000002759F8048BB8F1000F00F0BE8041468B
:1021E0002046FFF755FC0546002840F0B78094F8DC
:1021F0003C2094F83B3043EA0223B3F5007F40F0E3
:10220000B68094F8473094F8461094F840E051EACC
:10221000032108BF616D0EF1FF33012BA16184F82A
:1022200003E000F2A48094F83D70A770002F00F046
:102230009E807B1E3B4240F09A8094F8423094F896
:1022400041C04CEA032C1CF00F0FA4F808C040F06A
:102250008E8094F8442094F8433094F83F9053EAE9
:10226000022394F83E2008BF236D52EA09297ED04C
:1022700001FB0EFE09EB1C107044984277D81B1A24
:10228000BB42B3FBF7F272D340F6F5739A4273D9AF
:102290004FF6F577BA4294BF02270327931C4044B8
:1022A00009EB0802032F6361C4F81C802262A0625C
:1022B00064D1BCF1000F5AD1E26D9B00626203F25F
:1022C000FF13B1EB532F52D34FF0FF33C4E9033365
:1022D0008023032F63712BD194F8612094F8603030
:1022E00043EA0223012B23D1204608F10101FFF725
:1022F000B5FBE8B994F82F2294F82E32607143EAC6
:1023000002234AF65522934212D1226B2A4B9A425B
:102310000ED103F1FF53D4F8142203F500532033F8
:102320009A4201BFD4F818322361D4F81C32E3601A
:10233000B6F8B830277001339BB2A6F8B830E38006
:10234000B9E6D6F8B000130243EA074340F00200B2
:102350002B43C6F8B0009B0210E702250137042F7B
:102360007FF437AF032D1DD0002D3FF440AF0D2576
:10237000A1E64FF00008F5E701278FE7BCF1000F59
:10238000F5D07244022F62624FEA43021BBFD2189B
:1023900003F00103134603EB520390E70B258AE693
:1023A0000C2588E6012586E6C8060020000C0140C1
:1023B000780700200008014052526141002370B5A7
:1023C0008CB001910360054601A905A8FFF74AFEFC
:1023D0000446F0B902AB019905A80B93FFF762FD23
:1023E0000446B0B90A99B9B1CC7A14F0100415D1E9
:1023F000059EF36AC5E907310123EB803078FEF7CB
:1024000027FF2861CB69AC61C5E90243F3882E60E0
:10241000AB8020460CB070BD0624FAE70424F8E730
:1024200038B54FF48055044C6561FFF72BF82561F2
:10243000BDE83840FEF74EBF000C014038B50446F9
:102440004518AC4200D138BD14F8010BFFF71AF85B
:10245000F7E7000070B500234FF480560C4C0D4D8B
:10246000000C84F8BB00062084F8BA1084F8BC3055
:1024700084F8BD30FFF7D4FF6E6104F1BA00042187
:10248000FFF7DCFF2E61BDE87040FEF723BF00BF01
:10249000C8060020000C014070B5044605464618E9
:1024A000B54201D1204670BD2878FEF7EBFF05F854
:1024B000010BF5E7F8B515460B22104B4FF480578A
:1024C00083F8BA20020C83F8BB20020A83F8BC20F0
:1024D00000220C460A4E83F8BD0083F8BE2003F1AB
:1024E000BA0005217761FFF7A9FF29462046FFF7CB
:1024F000D3FF3761BDE8F840FEF7ECBEC806002008
:10250000000C014070B5094C052320464FF480565D
:10251000074D00F8BA3F02216E61FFF7BDFF2E6143
:10252000FEF7D8FE94F8BB0070BD00BFC8060020BF
:10253000000C014008B5FFF7E5FF80F02000C0F374
:10254000401008BD0B4B017CD3F8C030036019B1BB
:10255000012383600020704782681AB1C2681A4460
:10256000C0E9012142689342F4D3C2681344436036
:1025700001207047C806002010B5274C04F1D80090
:10258000FFF7E0FF234608B9002010BD234A94F866
:10259000EC10926809BB910502D4012284F8EC206A
:1025A00093F8ED101E4AF9B99168480402D401214C
:1025B00083F8ED1093F8EE10F1B991680C0402D491
:1025C000012183F8EE1093F8EF009268E0B99104CE
:1025D000DAD4012283F8EF20D7E79205E0D5002373
:1025E000012084F8EC30D0E791684904E2D500225C
:1025F000032083F8ED20C8E791680804E3D50022A2
:10260000042083F8EE20C0E79204BDD5002202200A
:1026100083F8EF20B9E700BFC8060020000C014096
:1026200000100140C000013800D2704700BF00BF59
:1026300000BF00BF00BFF6E710B50446FFF762FF1A
:10264000C34313F0010001D1013C00D210BD0120B1
:10265000FFF7E8FFF2E700002DE9F84F044688464F
:1026600017461F4EDFF87C9006F1BA0A0FB9012019
:102670002CE0E5B2C5F58075BD4228BF3D46B8F1F6
:10268000000F1DD002234FF4805B86F8BA30230C74
:10269000062086F8BB30230A86F8BC3086F8BD4099
:1026A000FFF7BEFE04215046C9F814B0FFF7C6FE7E
:1026B00029464046FFF7C2FEC9F810B0FEF70AFEF1
:1026C00041F28830FFF7B8FF10B90020BDE8F88F5D
:1026D000FFF718FF8306F8D42C44A8447F1BC5E7F6
:1026E000C8060020000C0140F8B5124E0446D6F88A
:1026F000F05206F5F877ED1BABB2CBB11D461A468A
:102700003946D6F8F402FFF7A7FF06EB4410D0F8DD
:10271000F030D6F8F4222B44C0F8F03000232A44DD
:10272000C0F8F430C6F8F072C6F8F42280F80C3124
:10273000F8BD00BFC806002008B54FF47A735843AF
:10274000FFF770FF4AF6AA22014B1A6008BD00BFCE
:102750000030004081810389DB07FCD58089C0B24D
:102760007047000070B5154C0346D4F800030D46C1
:10277000D4F80463C16821EA0601C1600220FFF7B2
:1027800051FFD4F8FC0243F08001FFF7E3FF2A4435
:1027900095420BD1D4F80023D4F80413D368022057
:1027A000BDE870400B43D360FFF73CBF15F8011B39
:1027B000D4F8FC02FFF7CEFFEAE700BFC80600200E
:1027C000124A38B50346D2F80003D2F804530C4637
:1027D000C16821EA0501C1600220FFF723FF43F031
:1027E0008001D2F8FC02FFF7B5FF2146D2F8FC02C7
:1027F000FFF7B0FFD2F80013D2F80423CB68022011
:102800001343CB60BDE83840FFF70CBFC80600207B
:1028100038B50546164C012094F8111301F0F80163
:10282000FFF7CEFF0A20FFF787FF2846FEF754F890
:102830000546D4F80803FEF74FF801462846FEF790
:1028400057F94FF09241FEF79FF8FEF7EDF9030CB0
:1028500084F81633030A84F8180384F8173304F253
:1028600016310322BDE838400620FFF77BBF00BFCA
:10287000C8060020114A0146D2F8000310B5C3680B
:10288000D2F8044323EA0403C3600220FFF7CAFE20
:10289000D2F8FC02FFF75EFF5521D2F8FC02FFF7E9
:1028A00059FF0346D2F80003D2F80423C1680A4353
:1028B000C2600220FFF7B6FE184610BDC806002011
:1028C00010B504460120FFF7D5FF054B00F0F801D5
:1028D000214383F811130120BDE81040FFF770BFBA
:1028E000C806002038B50F4C054694F80C338021FB
:1028F00084F80D3302230D2084F80C33FFF760FFBA
:102900002A4604F284410020FFF72CFF29462220AA
:10291000FFF756FF0123032084F80E33BDE838404B
:10292000FFF7CEBFC8060020F8B51220FFF7A2FFC0
:102930000107064613D5324C94F80D331BB1052020
:10294000FFF7BEFF012300210D2084F80E1384F849
:102950000C33FFF735FF08211220FFF731FF720615
:1029600037D540211220FFF72BFF1320FFF782FFFE
:10297000234D044685F881041020FFF77BFF0146B4
:102980000D20FFF71DFF05F2813764BB1A20FFF70A
:1029900071FF07461920FFF76DFF44B23846FDF777
:1029A0005BFE15A3D3E90023FDF7DAFBFDF7BEFEBE
:1029B000002CBCBFE31C9B10C0B2B6BFC3F19C038C
:1029C000C0F19C031B1A5BB285F88234012385F8A1
:1029D0008034330606D50520FFF772FF0122084B2D
:1029E00083F80C23F8BD0020FFF744FF013C07F8F3
:1029F000010BE4B2C9E700BFF6285C8FC2F5F03FD7
:102A0000C806002030B5EFF3108472B68368C26840
:102A10009A1A09D04368C568013B2B400568EB5CF6
:102A20000B70C3680133C36084F31088101E18BF95
:102A3000012030BD15220A4B30B502FB0033094A94
:102A400003F11005144618685968083303C4AB42F3
:102A50002246F7D1186820601B79237130BD00BF72
:102A600000000020900B00202DE9F04F0646C5B075
:102A70000291FFF739FE3A4A7301019302EB4613C4
:102A800093F80C11039269BB0127D3F8F0304FEA99
:102A9000C64A0AF580584344DFF8D0900093009B63
:102AA000984522D3019A039B029913440122C3F84B
:102AB000F840A3F80C21019B2A4C03F10C002044A0
:102AC00001F082FC50462021FFF7C4FC2648760125
:102AD000FFF7B2FD08B1FFF72DFD1C225046A119EA
:102AE000FFF7BAFD45B0BDE8F08F009BA3EB0805EA
:102AF000FF2D10D8ADB2AB4625B15A46404604A9C9
:102B0000FFF7D8FC5FB1294604A8FEF767F9044631
:102B10000027D844C3E74FF48075AB46EDE70121A9
:102B2000E443C9F808104FF0FF3104AD5F4501D10F
:102B3000E443EDE7C9F80010D9F8001015F8011BBF
:102B4000614091FAA1F1090EC9F80010D9F80010FE
:102B5000240A91FAA1FC84EA0C040137E6E700BFDD
:102B6000C8060020B8070020400D030000300240D6
:102B70002DE9F04FD30489B0FF2A0446164602918E
:102B8000039379D10620FFF74BFC6020FFF748FC48
:102B90008E48FFF751FD08B1FFF7CCFCDFF830A2FB
:102BA000730105930AEB461306932046FEF75EFB7E
:102BB000002840F00381E779002F40F0FF80A379DF
:102BC000D80740F1FB80D4E90232A2EB0308B8F544
:102BD000807F28BF4FF4807804F124030193DFF84D
:102BE000F4B104F509730493B8F1000F14D0A2688E
:102BF000C2F30803002B40F0BF8020688378013BBC
:102C000003EA522313F0FF0362D1002A55D1206951
:102C1000012858D80223E371002F00F0CF809AF8E2
:102C2000F802BFB2864240F0BB800122059BDFF86C
:102C3000A491534483F80D21A9F52E75002FB4D02B
:102C4000DAF8F0024946A5EB00081FFA88F8B84503
:102C500028BFB846424601F05DFBDAF8F032C144C5
:102C60004344AB42CAF8F03202D13046FFF73CFD94
:102C7000A7EB0807BFB2E1E7072A0AD90022544BA5
:102C800003EB4613A3F80C2183F8FC20C3F8F020D3
:102C900084E7D504DFF8408105F500272846D821D0
:102CA000FFF7D8FB4046FFF7C7FC08B1FFF742FC2F
:102CB00005F58035AF42F1D1E0E761690793FEF792
:102CC0008BFF079BA4E7411C01D10123A3E76061AF
:102CD0002268616910460793FEF7F1FA002899D03F
:102CE000079BB8F5007F00EB03092DD3927803EB27
:102CF000582191424FEA582588BFD51A494658466F
:102D0000EAB2FEF723FE0028DFD1A3795A0608D4E1
:102D10006D02A368AB442B44A3602F44A8EB0508C5
:102D200062E7A069A0EB09094D45F1D90BEB4929F0
:102D300004F1240309F1FF39049A9342E8D013F80F
:102D4000012B09F8012FF7E7A169894512D0A37972
:102D50005B0608D50198FEF733FE0028B5D1A379AC
:102D600023F04003A371012249460198FEF7EEFDCE
:102D70000028AAD1C4F81890A3680BF1FF32C3F35E
:102D80000803C3F50075454528BF45462433234451
:102D900059199942BDD013F8010B02F8010FF8E759
:102DA000FFF7A2FC069B039AD3F8F0308AF8F8628A
:102DB000134403F58053CAF8F43236E730460299DB
:102DC00009B0BDE8F04FFFF74FBE00BF007E5603CD
:102DD000C8060020700C0020F07E0E00F0B5644B99
:102DE000ADF51D7D02A906A80293FFF73BF980B956
:102DF000069B13AD02990CA80C931295FFF752F89D
:102E0000002840F0B180119959B1CB7ADB0603D488
:102E100005200DF51D7DF0BD069B1878FEF718FA0C
:102E20000E90069B0CA8DB88ADF83430FEF739FF16
:102E30000428EDD00028ECD12E274E4E42E00C980D
:102E4000FEF70CFE002851D111990B78002B52D0BF
:102E5000E52B45D02E2B43D0CB7A03F03F030F2B2D
:102E60003ED0082B3CD0109B002B46D10DF1210207
:102E700000240CA821461470FEF749FF042861D1F4
:102E800010949DF821000028C3D031460DF1210097
:102E900001F0A2FAB0B138480DF1210101F09CFA1D
:102EA0000446002851D00023019328460DF121014A
:102EB000FFF784FA30B928469DF804200DF121016E
:102EC000FFF756FE0CA8FEF7D1F90028A1D1042087
:102ED00003AB129310990029B1D10028C6D005E0A8
:102EE00000210CA8FEF713FF0028F3D000230428CC
:102EF0001093BBD08DE70420F8E74C1E0DF12102A2
:102F000014F8013F0130202B08D0052B08BFE52322
:102F1000092808BF02F8017B02F8013B0B28EFD11A
:102F2000CB7A8DF82030CB690693487E0B7E43EA3E
:102F30000023ADF81C30C87D8B7D43EA0023ADF83B
:102F40001E3095E700289CD063E70C480DF1210165
:102F500001F042FA08B10194A7E7094901AA0DF16D
:102F6000210001F005FAA0E704283FF451AF50E733
:102F7000AF540008C1540008B1540008BC54000804
:102F8000C65400082DE9804889B072B6B44BB54AE2
:102F90009A6062B6B44C636823F0030363606368AD
:102FA00013F00C03FBD1B14A1360636823F47C1364
:102FB00043F4F81363600123136023689901FCD57F
:102FC000636843F00203636063681A07FCD5A36972
:102FD000A74A43F00103A361E3694FF4806043F023
:102FE0000103E361E369A34D43F00203E361636915
:102FF000A14943F0010363615368012643F0007364
:1030000053604FF40072A3694FF0200A43F00403A9
:10301000A3616B684FF0800823F0F00343F0B00326
:103020006B606A61A3694FF0400E43F00403A36133
:103030006B684FF0100923F4706343F480636B6096
:103040006861A3694FF4005B43F00403A3612B683C
:103050004FF4804723F4706343F430632B60042300
:103060006B61A3694FF4805C43F00403A3612B6898
:1030700023F4704343F480432B6008236B61A369FE
:1030800043F00803A3614B6823F4706343F4306397
:103090004B604861A3694FF4004043F00803A3610B
:1030A0004B6823F4704343F480434B604FF4006358
:1030B0004B61A36943F00803A3610B6823F00F037E
:1030C00043F003030B600E61A36943F00403A361A3
:1030D0002B6823F4700343F430032B60C5F810A071
:1030E000A36943F00403A3612B6823F0704343F00A
:1030F00030432B60C5F81080A36943F00403A3613B
:103100002B6823F0706343F000632B60C5F814E074
:10311000C5F810E0A36943F00403A3612B6823F40E
:10312000702343F440332B60C5F81090A36943F03B
:103130000803A3614B6823F4700343F440134B600E
:10314000C1F810B0A36943F00803A3614B6823F0F2
:10315000704343F040534B600861A36943F0080398
:10316000A3614B6823F0706343F000634B604F61D1
:103170000F61A36943F00403A3616B6823F4702318
:1031800043F440336B60C5F810C0A36943F00803F3
:10319000A3614B6823F4702343F440334B60C1F8C0
:1031A00010C04FF4807CA36943F00403A3616B68F3
:1031B00023F00F0343F008036B60C5F814C0C5F893
:1031C00010C0A36943F00803A3614B6823F0F00328
:1031D00043EA08034B604A610A61A36943EA0903B1
:1031E000A361264B5A6822F4700242F400025A602E
:1031F000C3F814B0C3F810B0A269DFF884B042EA93
:103200000902A2615A6822F0706242F000625A60BC
:103210005F611F610227A26942EA0902A2615A683E
:1032200022F0704242F000425A6058611861A3696E
:1032300043F00803A3610B6823F0704343F040534D
:103240000B60C1F81080A36943F00403A3612B68ED
:1032500023F0F00343F030032B602F61A36911E0EA
:1032600000ED00E000200008001002406000424233
:103270000000014000080140000C01400010014026
:103280000030014043F00403A3612B6823F00F03D7
:1032900043F003032B602E61A36943F00803A3618D
:1032A0000B6823F4700343F440130B60C1F810A0C3
:1032B000A369DFF8A8A443F00803A3610B6823F017
:1032C000F00343F030030B600F61A36943F0040384
:1032D000A3616B6823F4704343F440536B604FF475
:1032E00000632B61A36943F00803A3610B6823F01B
:1032F000706343F040730B60C1F810E0A36943F0C2
:103300000803A3614B6823F00F0343F003034B60F2
:10331000C1F810C0A36943F00403A3616B6823F0F4
:10332000704343F040536B602861A369642043F00D
:103330000803A3610B6823F4704343F440530B600C
:1033400008230B61A36943F00803A3610B6823F40E
:10335000702343F440330B60C1F81090A36943F429
:103360008053A361BBF8003003F4415343F443732B
:10337000ABF80030BBF81C3023F4006303FA09F308
:1033800023FA09F3ABF81C30BDF81C30ABF8103051
:10339000BBF800309BB243EA0E03ABF800304E613D
:1033A000FFF7CAF94FF47A700E61FFF7C5F930469E
:1033B0000021CAF8FCB2CAE9C059FFF701FA304649
:1033C0004146FFF7FDF9DAF80023DAF80413D36871
:1033D000384623EA0103D360FFF724F9D346314688
:1033E0007026DAF8FC02FFF7B5F90AF2113255211E
:1033F000DBF8FC02FFF7AEF9013E16F0FF0602F81B
:10340000010BF4D1DBF80013DBF80403CA68FF27D3
:103410000243CA600220FFF705F9BF4A9421CBF8A6
:1034200008239BF82E238BF82D1302F00C0242F098
:1034300093028BF82E23B94A9BF83613CBF830232E
:1034400044F2D902ABF816234FF4FE4241F00401D6
:1034500001208BF83613ABF818230BF211317022D0
:103460008BF82F73FFF77EF99BF81113012041F0C1
:1034700001018BF81113FFF7A3F90A20FFF75CF99C
:1034800039461220FFF79CF94FF4FA70ABF88064CC
:10349000ABF80C63FFF750F901270A220520CBF89F
:1034A000B4268BF8B866CBF8B076CBF8A866CBF824
:1034B000AC668BF80C73FFF703FAFFF723F88BF871
:1034C000BA704FF480578BF8BB60954E0620FEF71C
:1034D000A7FF022193487761FEF7DEFF3761FDF712
:1034E000F9FE042200BF00BF00BF013AFAD18E4EA0
:1034F000FFF708F8D6F810228C48824210D1E26813
:1035000042F48042E260E26822F48042E260A26912
:1035100042F48042A261A26942F00102A2612AE063
:1035200083498A420CD1226942F400322261226925
:1035300022F400322261E26942F40032E261EAE7F9
:103540007C4FBA420BD1226942F480222261226967
:1035500022F480222261E26942F48022EEE7764B77
:103560009A4240F0A280226942F40022226122693C
:1035700022F400222261EFF3108172B60022C6F815
:103580002C22C6F8302281F31088D6F81002028A65
:1035900022F440521204120C0282828922F4B052A8
:1035A00022F00C021204120C42F00C028281828A78
:1035B00022F440721204120C8282626802F00C0241
:1035C000042A00F08D80082A40F08C8062686168CF
:1035D000C2F38342CB0302F102027BD457494A4330
:1035E00061684FF0640EC1F30311314491F834C2A5
:1035F000616822FA0CF2C1F30221314491F834726D
:103600006168FFB2C1F3C221314491F834C26168EC
:103610005FFA8CFCC1F38131314491F84412434983
:10362000884208BF22FA0CF24FF0190C818918BFAA
:10363000FA4009040CFB02F24CBF4FF4613C4FF41A
:10364000E12CB2FBFCFCBCFBFEF2818917010B04F0
:103650000EFB12C248D5D1003231B1FBFEF101F0B0
:1036600007010F43BFB20781828AD6E9867E92B2F4
:1036700042F0400282826169D6F8142241F00101D1
:1036800061611168031D21F001010904090C116039
:103690000021116051609160D16029498A422BD18B
:1036A000284E716841F00F0171E0274B9A4207D113
:1036B000226942F480122261226922F4801259E7C1
:1036C000BA423FF448AF82423FF421AF8A427FF4CE
:1036D00052AF30E761688F034CBF1C491C497EE73D
:1036E0001B4A7DE7194A7BE712013232B2FBFEF238
:1036F00002F00F021743B5E716498A4204D1114E72
:10370000716841F0F00142E013498A4228D10D4E20
:10371000716841F470613AE00048E801000AFFFF77
:10372000000C01408207002000000020003801400A
:103730000044004000480040004C004000093D00AB
:1037400008000240000002400050004000127A00D1
:103750000024F4001C00024030000240C806002093
:103760002F498A4204D12F4E716841F470410EE016
:103770002D498A4204D12B4E716841F4702106E034
:103780002A498A422AD1274E716841F4700171603A
:10379000116821F4FF4121F0700141F4025141F020
:1037A00020011160C2F804E09360D760116841F015
:1037B00001011160828992B242F4005282811C4A56
:1037C000904200F0298202F57042904242D0A2F568
:1037D0007442904241D14021164A3DE016498A4246
:1037E00004D1104E716841F07061D0E713498A42EC
:1037F00001D1134E55E713498A4201D1104E7FE79C
:1038000011498A4201D10E4E82E710498A4201D104
:103810000B4EA9E70E498A42BAD1094EACE700BF68
:103820004400024000000240580002406C00024088
:103830000048004000E100E080000240080402402F
:10384000000402401C0402403004024044040240D0
:10385000580402402021BF4A516030228BF86C206E
:103860006D228BF8782079228BF884203322072070
:103870008BF89020DBF8C0200026CBF8A020B64AB9
:103880000421CBE90B200120CBE91320CBE90D501B
:103890000B20CBE915500620CBE917200820CBF8E8
:1038A00068000F20CBF874000320CBE90F56CBF84B
:1038B0009C600526CBE92221CBF86420CBF87C2044
:1038C000CBF88000CBF87050A448CBE91126CBF898
:1038D0009810FDF781FCA26942F40072A261A04A2F
:1038E000516821F4702121F48071516090689D49E4
:1038F000014041F460219160D16A21F47001D162EC
:10390000916841F001019160916841F00801916076
:1039100091680907FCD4916841F004019160904AD4
:10392000976817F00407FBD132263846916841F4B6
:1039300000019160D16821F4E01141F4A011D1603F
:10394000516B21F01F0141F010015163916841F466
:10395000A001916082490A689307FCD5CA6C013EB8
:1039600050408A6880B2400042F4A00216F0FF0680
:1039700080B28A60EFD1E2684FF0010842F4007231
:10398000E260E26822F40072E26000F0D5FBF02011
:10399000754A7649764C5160764981F823000721B3
:1039A00096601160CBF8F042A4F580741C22214689
:1039B0003846FEF77FFD226807F50027013208BF71
:1039C000C4E90066267718BF84F81C80B7F5800F1D
:1039D000667704F12004E9D16749FF22CBF804108F
:1039E00002218BF8F822CBF8081000227F21CBF8B7
:1039F000F422ABF800108BF80220FDF735FAFDF742
:103A000033FA38B19BF82920002A40F008810022BF
:103A10008BF82120BBF8BC260A2A04D90522ABF872
:103A2000BC26FDF7B5FC0124BBF8BC26534E544818
:103A3000053A00FB0260FEF7EBFE6420FEF77CFE19
:103A400005208BF80C43FEF73BFFBBF8BC160022A9
:103A5000ABF8C01641F288318BF8BE26CBF8D016F1
:103A60008BF8D426CBF8CC46CBF8C426CBF8C826A6
:103A7000AC68009614F4807416D1424A02A80292EF
:103A8000FDF708FC00280FDB82000BEB8000D0F86C
:103A9000B41001B10C7000218BF8D8163A495A4481
:103AA000C2F8B410FFF79AF90020FEF7C3FF012215
:103AB000DBF8C010ABF89C250022CBF8A41545F22A
:103AC00055518BF89E258BF8A025304ADFF8C89019
:103AD00011600321516040F6A66191604AF6AA2167
:103AE00011604CF6CC41DFF8B4A011609BF89C2526
:103AF000274C002A75D09BF8A025142A50D99BF892
:103B0000081900294CD123489BF89D6507888078C7
:103B10009BF89E5584F886044FF0FF308BF887049D
:103B20008BF8880403208BF8890406208BF89024F6
:103B30008BF88A04A4F884740D20ABF88B64ABF87E
:103B40008D548BF88F14FEF7CDFE01228BF80829D7
:103B500026E000BF00E100E0000C0140CE54000868
:103B600000240140FDF7F1FF10E000E03F190100E3
:103B7000B808002000ED00E0840D002040E3CB33C6
:103B8000A0252600E8540008A00D002000300040C9
:103B9000C8060020DF5400080000204100007F43D9
:103BA000DBF8C000DBF8A455401BFCF795FE064689
:103BB000BBF8CA04FCF790FE4946FCF7E5FE014657
:103BC0003046FCF795FF5146FCF7DEFEFDF72CF87A
:103BD0009BF8A0250132904203D9FF287FD88BF8AB
:103BE000A005CE48FEF7AEFC08B1FEF79DFE9BF89F
:103BF000802412B100228BF88024FDF7C5F99BF8D0
:103C0000BE56002D00F0AE80012D00F006814AF670
:103C1000AA21C34A116069E78021C24A1CE6DBE998
:103C20000342511C22468A4201D3012203E010685C
:103C3000013039D000228BF8262000228BF820207A
:103C40009BF82620002A47D10126DBF81020DBF85C
:103C50000810083A521A944208D22046FDF7BEF8DE
:103C6000DBF8081062185768B8421FD09BF8202074
:103C700032BB9BF8022062B3FDF750F9FDF730F933
:103C80009BF82920002A3FF4C2AE9BF82020002A8E
:103C90003FF4BDAEDBF80820DBF81810DBF80400B9
:103CA00000F038FB0122B3E60432BCE7CBF8184041
:103CB00061588BF82060CBF81C1002F10804C4E7AF
:103CC000DBF81820DBF808100A440832CBF814207F
:103CD000D4E7DBF80C20F9E7CBF81440CEE7FF225D
:103CE000DBF8C0008BF8A025401BFCF7F5FD05466E
:103CF000BBF8CC04FCF7F0FD4946FCF745FE014655
:103D00002846FCF7F5FE5146FCF73EFEFCF78CFF1B
:103D10009BF8A125013290427FF663AFFF288BF814
:103D2000A1057FF65EAF9BF89E257F490132D2B296
:103D3000132A88BF00228BF89E256A22881800F07B
:103D4000E9FA94F89E05FEF775FE012284F89C2599
:103D5000D4F8C020C4F8A4250022A4F8A02584F833
:103D600008293EE7FEF708FC04469BF89E256F49AC
:103D700003A800F0DDFA03A8FDF72EFA012C2ED1DE
:103D80002846FEF757FEDBF8C0206949CBF8A4258A
:103D90000888684A8978108091704FF0FF328BF85C
:103DA00087248BF8882403228BF8892406220D208F
:103DB000ABF89C458BF89E558BF8A0558BF88A2460
:103DC0008BF88B548BF88C548BF88D548BF88E5465
:103DD0008BF88F548BF89054FEF784FD17E7022C74
:103DE00006D0042C7FF413AF01228BF8BE260EE719
:103DF0004F49504A08888978108091704FF0FF32FF
:103E00008BF887248BF88824042207208BF89C5594
:103E10008BF889248BF88A54DEE7FEF7ADFB064663
:103E2000BBF8C026444903A800F082FA03A8FDF7B6
:103E3000D3F9012E53D13E4A3E4D118892789BF81A
:103E4000C086AA704FF0FF328BF887248BF8882445
:103E5000052205F509732980384F394D8BF88A649E
:103E60008BF889248BF88B8401933846FEF7D0FCBD
:103E70001420FEF761FC052694F88A040730C0B2CE
:103E8000FEF730FD94F80E23FAB93220013EFEF71A
:103E900053FC16F0FF06EFD12A4B2F449F42E4D18A
:103EA000009BA8F1050005FB0030FEF7B1FC642083
:103EB000FEF742FC0122052084F80C23FEF700FDEA
:103EC000A4F8BC86FDF764FAA1E6FDF75DF8019859
:103ED000FEF738FB0028D5D0FEF726FDD2E7022EEC
:103EE00006D0032E0DD0042E7FF491AE00227CE785
:103EF000BBF8C00601280ED9013880B2A4F8C0066C
:103F000085E6BBF8C026013292B2092A88BF092291
:103F1000ABF8C0267BE62846F0E700BF700D002016
:103F20000030004000E100E0900B0020D354000876
:103F3000DF5400084C0B0020D954000820270D3313
:103F4000A0252600609F8A34684620F007018D4630
:103F50001C4B0121D3F80C2911B50132B2F57A7F3F
:103F6000A8BF00224FF4FA74A5BFC3F80C29D3F8F8
:103F7000C420C3F80C290132A8BFC3F8C420D3F869
:103F8000C0200132C3F8C020D3F81029C3F8C810EC
:103F90000A4492FBF4F004FB1020C3F81029C3F884
:103FA000D41008B9C3F8D010142092FBF0F100FB34
:103FB000112212B90122C3F8CC20BDE81140854678
:103FC000704700BFC8060020684620F007018D46F4
:103FD00019B50C4CD4F848120B881B060DD50431CA
:103FE00004F51770FEF70EFD38B9D4F8482293890E
:103FF00023F080031B041B0C9381BDE81940854608
:10400000704700BF00000020684620F007018D4681
:1040100019B50C4CD4F810120B881B060DD50431C1
:1040200004F50970FEF7EEFC38B9D4F81022938934
:1040300023F080031B041B0C9381BDE819408546C7
:10404000704700BF00000020374B82B01A6842F072
:1040500001021A605968354A0A405A601A6822F00B
:10406000847222F480321A601A6822F480221A6064
:104070005A6822F4FE025A604FF41F029A6000222E
:10408000009201921A6842F480321A601A6802F4AF
:1040900000320192009A01320092019A1AB9009AF4
:1040A000B2F5A06FF2D11A6812F4003218BF0122E3
:1040B0000192019A012A30D11D4A116841F0100184
:1040C0001160116821F003011160116841F00201D3
:1040D00011605A685A605A685A605A6842F480629D
:1040E0005A605A6822F47C125A605A6842F4E81204
:1040F0005A601A6842F080721A601A689201FCD500
:104100005A6822F003025A605A6842F002025A606A
:104110005A6802F00C02082AFAD14FF00062054BEF
:104120009A6002B0704700BF001002400000FFF824
:104130000020024000ED00E038B50D4B04461D683C
:10414000AB6B7BB9182000F01BF80A4A0A4BA86336
:10415000C0E90023094B012283600B2383810023E4
:10416000C0E904230022AB6B1C615A6138BD00BF5B
:104170007C0200200E33CDAB34126DE6ECDE050080
:10418000024B0146186800F04FB800BF7C020020C7
:1041900038B50546002943D051F8043C0C1F002BCC
:1041A000B8BFE41800F0AAF81E4A1368104633B9E5
:1041B000636014602846BDE8384000F0A5B8A3420B
:1041C0000AD921686218934201BF1A685B685218C5
:1041D000226063600460EDE71A465B680BB1A3429E
:1041E000FAD911685018A0420BD120680144501828
:1041F00083421160DED118685B680144116053602E
:10420000D8E702D90C232B60D4E7206821188B4211
:1042100001BF19685B680918216063605460C9E7D1
:1042200038BD00BFDC130020F8B5CD1C25F0030518
:1042300008350C2D38BF0C25002D064601DBA942A0
:1042400003D90C2333600020F8BD00F057F8214952
:104250000A6814469CB9204F3B6823B92146304672
:1042600000F03CF838602946304600F037F8431C2F
:1042700023D10C233046336000F046F8E3E723688F
:104280005B1B17D40B2B03D923601C44256004E06F
:104290006368A2420CBF0B605360304600F034F8F4
:1042A00004F10B00231D20F00700C21ACCD01B1A0A
:1042B000A350C9E722466468CCE7C41C24F0030479
:1042C000A042E3D0211A304600F008F80130DDD1D9
:1042D000CFE700BFDC130020E013002038B5002337
:1042E000054D044608462B6001F05EF8431C02D1E0
:1042F0002B6803B1236038BD0C1400200148FCF783
:10430000FDBC00BFF81300200148FCF7F9BC00BF5A
:10431000F81300200A44914200F1FF3300D17047A6
:1043200010B511F8014B914203F8014FF9D110BDBE
:104330000EB46FF0004100B59CB01DAB029006902A
:10434000079104910848094953F8042B0591006826
:1043500002A9019300F0B2F80022029B1A701CB06F
:104360005DF804EB03B070477C0200200802FFFFF9
:104370000EB44FF4017230B59CB01FAC54F8045B1E
:10438000ADF8142002900690FBF7E2FE0B4B039071
:104390000B9300230F9314934FF6FF730790084875
:1043A000ADF816302A46234602A90068019400F0B1
:1043B000DFF91CB0BDE8304003B07047C5430008CA
:1043C0007C02002000207047034611F8012B03F8FF
:1043D000012B002AF9D17047F0B50C7864B103467F
:1043E0001A7818465E1C0AB9104605E0944208D1B6
:1043F0000D4615F8012F02B9F0BD13F8017F974261
:10440000F7D03346ECE72DE9F0478E6882469E42AE
:104410000C4690461F4638D88A8912F4906F32D0E5
:10442000256809690133A5EB010965694B4405EB72
:10443000450505EBD5756D109D4238BF1D465305EA
:1044400031D52946FFF7F0FE064650B90C234FF050
:10445000FF30CAF80030A38943F04003A381BDE8D0
:10446000F0874A462169FFF755FFA38923F490633B
:1044700043F08003A38126614E4426603E46656179
:10448000A5EB0905A560BE4200D93E46324641462D
:10449000206800F041FFA36822689B1B3244002083
:1044A000A3602260DBE72A4600F050FF06460028A2
:1044B000E1D150462169FFF76BFEC7E72DE9F04FC8
:1044C00098468B8907461B060D4614469DB00ED5AF
:1044D0000B6963B94021FFF7A7FE2860286120B966
:1044E0000C233B604FF0FF30D1E040236B61002391
:1044F000099320238DF8293030234FF00109CDF89E
:104500000C80DFF8A4818DF82A3023469A4613F8F0
:10451000012B0AB1252AF9D1BAEB040B0BD05B466B
:10452000224629463846FFF76EFF013000F0AA8088
:10453000099A5A4409929AF80030002B00F0A280A0
:1045400000234FF0FF32CDE905230AF1010A04935D
:1045500007938DF853301A935446052214F8011B23
:10456000514800F0CBFE049AD8B9D00644BF2023AE
:104570008DF85330110744BF2B238DF853309AF830
:1045800000302A2B15D0544600204FF00A0C079A11
:10459000214611F8013B303B092B4ED9B0B10792AF
:1045A00014E0A0EB080309FA03F31343A2460493B3
:1045B000D2E7039B191D1B680391002BBBBF5B4215
:1045C00042F0020207930793B8BF049223782E2B80
:1045D0000CD163782A2B35D1039B02341A1D1B683A
:1045E0000392002BB8BF4FF0FF330593DFF8C8A04C
:1045F00003225046217800F081FE40B14023A0EB19
:104600000A0003FA00F0049B01340343049314F8F6
:10461000011B062225488DF8281000F06FFE0028A7
:1046200038D0234B1BBB039B073323F0070308330E
:104630000393099B3344099367E70C4601200CFB65
:104640000232A5E700234FF00A0C19460134059306
:10465000204610F8012B303A092A03D9002BC5D087
:104660000591C3E7044601230CFB0121F0E703ABEE
:1046700000932A4638460F4B04A9AFF30080421C32
:104680000646D6D1AB895B063FF52CAF09981DB025
:10469000BDE8F08F03AB00932A463846054B04A9CA
:1046A00000F050FAEBE700BFE3540008ED540008B7
:1046B0000000000007440008E954000838B54B1C0E
:1046C000144603D14FF0FF35284638BD9389CDB24B
:1046D00023F020039381636B52688BB1A36B9342E9
:1046E00008DD23685A1E226003F8015C6368013309
:1046F0006360E9E7214600F0C9FD0028F1D0E1E759
:104700002169236851B1994208D213F8011CA942CA
:1047100004D1013B013223606260D5E7C4E90F3266
:1047200004F1440363630323A363234603F8465F52
:1047300023600123DCE710B50C46496B69B104F135
:104740004403994201D0FFF723FD0020236C6063EE
:10475000636013B1E36B236010BD23694FF0FF303A
:10476000236000236360A38943F02003A381F3E760
:104770002DE9F04F0C4600210646ADF5237DCDE92D
:104780004411B3490DF10408A091B249B24FDFF8CA
:10479000CC92CDF81881A191009392F800A0BAF1C3
:1047A000000F00F053811AF80730551C13F008036E
:1047B00019D06368002B0FDD23681A78BA5C1207E2
:1047C00001D42A46E9E7459A0133013245926268ED
:1047D0002360013A6260ECE721463046A19B98478E
:1047E0000028E9D0EDE7BAF1250F40F0868041932B
:1047F000439353782A2B04BF1023951C4FF00A02D1
:1048000008BF4193AB461BF8011BA1F13003092BF4
:104810001DD90322914800F071FD40B101235D468E
:10482000A0EB090003FA00F0419B1843419015F8F2
:10483000013B782B06D8572B10D8252B5DD057D8A5
:10484000002B75D0032347930A23429382E0439BB6
:104850005D4602FB0313303B4393D3E7A3F15802B9
:10486000202AEFD801A151F822F000BF3F490008EB
:1048700045480008454800089D490008454800088B
:1048800045480008454800084548000845480008D4
:104890004548000845480008B34900088949000810
:1048A000F7480008F7480008F7480008454800089E
:1048B0008D4900084548000845480008454800085B
:1048C00045480008C34900089549000837490008D1
:1048D0004548000845480008BF4900084548000809
:1048E0008949000845480008454800083F49000834
:1048F000453B022BA6D805232BE06368002B0DDD7A
:1049000023681A78524540F0A18001336268236021
:10491000459B013A01336260459352E72146304698
:10492000A19B98470028EBD04498002840F0848051
:104930004FF0FF3086E0419A42F020024192419AC6
:1049400042F40072419210226F2B34BF03230423E0
:10495000429247936368002B41DD419B590604D482
:1049600023681A78BA5C120740D4479B022B4FDCAD
:104970006B462246304641A900F00AFA012865D06C
:1049800002287FF41EAFCFE70A22DDE7002342931F
:104990000323DEE7082342930423DAE7294640464F
:1049A00000F040FB419B054643F040034193012347
:1049B000CFE7419B43F0400341930023C9E7022323
:1049C000C7E74198C3063FF5FCAE009B459A191D09
:1049D00000911B68C0074CBF1A801A60F1E621469F
:1049E0003046A19B98470028B7D09DE7459A0132F1
:1049F00045926268013A002A626002DD0133236059
:104A0000AEE721463046A19B98470028A8D08BE707
:104A1000042B06DC6B462246304641A900F010FA12
:104A2000ACE70F4B002B3FF4CCAE6B462246304632
:104A300041A9AFF30080A1E7A38913F0400F18BF8D
:104A40004FF0FF300DF5237DBDE8F08F4498F9E776
:104A5000BD4600083747000832550008E9540008F1
:104A6000000000002DE9F047164699468A680B6958
:104A700007469342B8BF1346336091F843200C4673
:104A8000DDF820800AB1013333602368990642BF04
:104A9000336802333360256815F0060506D104F14A
:104AA000190AE36832689B1AAB4228DC94F8432069
:104AB000131E226818BF012392062DD4494638469A
:104AC00004F14302C047013020D02368E56803F0B9
:104AD0000603042B18BF002532684FF00006A368B8
:104AE00008BFAD1A226908BF25EAE5759342C4BF25
:104AF0009B1AED181A34B5421AD1002008E00123A0
:104B0000524649463846C047013003D14FF0FF3086
:104B1000BDE8F0870135C4E73020E11881F8430093
:104B20005A1C94F845102244023382F84310C5E71A
:104B30000123224649463846C0470130E6D00136B7
:104B4000D9E700002DE9FF470C46277E9146782FD4
:104B500080469A460C9904F1430207D8622F0AD87E
:104B6000002F00F0D980582F00F0A48004F14206F5
:104B700084F842703AE0A7F16303152BF6D801A040
:104B800050F823F0DD4B0008F14B00086D4B000896
:104B90006D4B00086D4B00086D4B0008F14B000891
:104BA0006D4B00086D4B00086D4B00086D4B000805
:104BB000FF4C0008214C0008E14C00086D4B000838
:104BC0006D4B0008214D00086D4B0008214C00087A
:104BD0006D4B00086D4B0008E94C00080B6804F1B0
:104BE00042061A1D1B680A6084F842300123A4E0C3
:104BF000256808682E0600F104030AD505680B60D5
:104C0000002D03DA2D236D4284F843300A235E48D9
:104C100019E015F0400F05680B6018BF2DB2EFE7E3
:104C20000B682568181D0860280601D51D6802E07C
:104C30006906FBD51D886F2F0CBF08230A23524835
:104C4000002184F843106668002EA8BF2168A66082
:104C5000A4BF21F0040121600DB9002E4DD01646ED
:104C6000B5FBF3F103FB1157C75D06F8017D2F4635
:104C7000BB420D46F4D9082B0BD12368DF0708D5BA
:104C8000236961689942DEBF302306F8013C06F1D2
:104C9000FF36921B22614B4621464046CDF800A0CC
:104CA00003AAFFF7DFFE01304CD14FF0FF3004B014
:104CB000BDE8F087344884F845700E68236856F8DC
:104CC000045B1F060E6014D5D90744BF43F02003D0
:104CD00023601DB9236823F0200323601023AFE76E
:104CE000236843F0200323607823284884F8453064
:104CF000E3E75E0648BFADB2E6E71646BBE70B68E2
:104D000026681D1D60690D6035061B6801D5186099
:104D100002E07106FBD51880002316462361BAE72E
:104D20000B681A1D0A601E6800213046626800F098
:104D3000E5FA08B1801B606063682361002384F892
:104D40004330A8E73246494640462369D047013000
:104D5000ABD023689B0713D4E068039B9842B8BF8D
:104D60001846A4E70123324649464046D047013061
:104D70009BD00135E36803995B1AAB42F2DCEBE7A9
:104D8000002504F11906F5E7F4540008055500085C
:104D90002DE9F84315468A6880460C4632B98A697F
:104DA000002A0CBF01224FF0FF328A6000272268E0
:104DB000DFF88890D1065FBF1A68111D1960166868
:104DC000A06988B1012807D12B681A7863699B5CB8
:104DD00053B927BBBDE8F883022820D12B681B7884
:104DE00013F809301B071AD423680137DA065EBFAF
:104DF0002B681B7806F8013B2A686B6801322A6031
:104E0000A268013B013A6B60A26042B1002BD7DC83
:104E100029464046D4F8803198470028D0D02368EE
:104E200013F0100305D1E2680132E260A26902B119
:104E30003370236900201F442761CBE732550008F7
:104E40002DE9F04F0C469846724B87B082461646C5
:104E500093E8070003AB83E807006F4BA1696F4A33
:104E60002746032918BF1A46A36801925A1EB2F5B5
:104E7000AE7F81BF6FF4AE7503EB050940F25D13A1
:104E8000A36057F81C3B98BF4FF000093D464FF018
:104E9000000B43F450632360316803AB02220978AE
:104EA00053F82B0000F02AFA28B3BBF1010F59D1B7
:104EB00062682AB908232268636042F400722260A3
:104EC000226822F4A0622260A268511EA16092B101
:104ED0003268511C3160127805F8012B7268013A72
:104EE000002A726007DC31465046D4F88021904792
:104EF000002840F085800BF1010BBBF1030FCBD1F3
:104F000063680BB90A236360636845496069C91A1D
:104F100000F088F84FF0000BA3682268002B3DD00A
:104F20003168606991F800C010F80C00002835D095
:104F3000BCF1300F24D1100522D50BF1010BB9F1D2
:104F4000000F03D0013309F1FF39A3607368013BFF
:104F5000002B73601BDD336801333360A368013BB2
:104F6000A360D9E7BBF1020FAED1226802F4C061A1
:104F7000B1F5007FBFD1102342F480726360A2E7D5
:104F800022F4106222600B7805F8013BDEE731461F
:104F90005046D4F8803198470028DFD02368D905DF
:104FA0000DD5BD4209D915F8011C32465046D4F83A
:104FB0007C3105F1FF3998474D46BD4228D0226823
:104FC00012F0100213D12A70394663685046019ED0
:104FD000B047D8F8003021681A1DC8F8002011F039
:104FE000200F1B680FD01860E3680133E3600020D6
:104FF000ED1BAB4425695D44256107B0BDE8F08F2A
:105000004FF0000BCAE7CA074CBF18801860EBE7E7
:105010000120F2E790540008895200088D510008E1
:105020002F55000870B50B7804465E2B13BF002285
:1050300001224B78481C08BF881C04F1FF05611E43
:1050400001F8012FA942FBD10BB9013870BD82F0E4
:105050000101E154421C12F8015C10462D2D02F1B1
:10506000FF3606D05D2DF1D00DB93046EEE72B4668
:10507000EFE716785D2EFAD0B342F8DC184601301F
:1050800086422154FBDCD8433044B342A8BF002001
:105090005D1C2B180232DEE72DE9F0478C46864670
:1050A000394E60461CF8014BA55D15F00805F8D196
:1050B0002D2C33D14FF001089CF8004000F1020C78
:1050C000002B5CD0102B0CD1302C0AD19CF80000A6
:1050D00000F0DF0058284DD110239CF801400CF15E
:1050E000020C002608F10047013FB7FBF3F93046F8
:1050F00003FB197AA4F13005092D18D82C46A342D8
:1051000024DD751C07D081451DD301D1A2451ADBD2
:10511000012600FB03401CF8014BEBE72B2C08BFDA
:105120009CF80040A84608BF00F1020CC8E7A4F1B3
:105130004105192D01D8373CE1E7A4F16105192D8E
:1051400004D8573CDBE74FF0FF36E4E7731C06D189
:1051500022233846CEF8003042B9BDE8F087B8F1D6
:10516000000F00D04042002AF7D00EB10CF1FF3101
:105170001160F2E73024002BB3D10823B1E7302CC3
:10518000A4D00A23ADE700BF32550008FFF784BF63
:105190002DE9F0438C4686463A4E60461CF8014B9A
:1051A000A55D15F00805F8D12D2C34D14FF001087C
:1051B0009CF8004000F1020C002B5ED0102B0CD1AB
:1051C000302C0AD19CF8000000F0DF0058284FD1A5
:1051D00010239CF801400CF1020C4FF0FF37B7FB95
:1051E000F3F7002503FB07F928466FEA0909A4F144
:1051F0003006092E18D83446A34224DD002D1FDBCB
:1052000087421DD301D1A1451ADB012500FB0340D4
:105210001CF8014BEBE72B2C08BF9CF80040A8467C
:1052200008BF00F1020CC7E7A4F14106192E01D80E
:10523000373CE1E7A4F16106192E04D8573CDBE7BF
:105240004FF0FF35E4E7002D07DA22234FF0FF305F
:10525000CEF8003042B9BDE8F083B8F1000F00D0BD
:105260004042002AF7D00DB10CF1FF311160F2E796
:105270003024002BB1D10823AFE7302CA2D00A2371
:10528000ABE700BF32550008FFF782BF2DE9F041C0
:105290000C46496B04F1440399421BD14FF48061E1
:1052A000FEF7C2FF18B94FF0FF30BDE8F0814FF4B0
:1052B0008063A36394F84630606380F8FF3394F80A
:1052C000453000F2FD30437094F8443003702060A4
:1052D0000020EAE7A66B77003A4600F037F805466B
:1052E0000028E0D000EB0608014632464046FFF7B2
:1052F00011F8C4E90D57C4F80080E9E7034610B57A
:10530000C9B202449342184601D1002003E0047858
:1053100001338C42F6D110BD884210B501EB020476
:1053200002D98442234607D8431EA14208D011F86F
:10533000012B03F8012FF8E7014602448A4200D10D
:1053400010BD13F8014D02F8014DF7E7F8B5074617
:1053500014460E4621B91146BDE8F840FEF764BF79
:1053600022B9FEF715FF25462846F8BD00F014F8CF
:10537000A0420FD221463846FEF756FF05460028C8
:10538000F2D031462246FEF7C5FF31463846FEF7D9
:10539000FFFEE9E73546E7E751F8043C181F002B0C
:1053A000BCBF0B58C0187047044A05491368002B4E
:1053B00008BF0B461844106018467047E4130020DD
:1053C00010140020F8B500BFF8BC08BC9E4670471A
:0C53D000F8B500BFF8BC08BC9E46704752
:1053DC0001000200040008001000200040008000C2
:1053EC0000010002000400080010002000400080B2
:1053FC000000010000000200000004000000080092
:10540C0000001000000020000000400000008000A0
:10541C000000000100000002000000040000000871
:10542C000000001000000020000000400000008080
:10543C000000000000000000000000000000000060
:10544C007E306D79335B5F707F7B00000000000065
:10545C0000771F4E3D4F475E373000000E7615002B
:10546C006700055B0F3E000000000000000000001C
:10547C0000001F0D3D00007B170000000000000025
:10548C000000050016550008195500081C550008A9
:10549C0080020020222A2B2C3A3B3C3D3E3F5B5D98
:1054AC007C7F002F004D41535445522E42494E00F3
:1054BC00534C4156452E42494E005343454E4525CB
:1054CC00640064454E3000202025326400303125C4
:1054DC00326400CD16BB00232D302B2000686C4CA1
:1054EC000065666745464700303132333435363710
:1054FC003839414243444546003031323334353635
:10550C00373839616263646566002B2D00303000DA
:10551C00785800412D46612D66383930313233349C
:10552C003536375D00002020202020202020202828
:10553C00282828282020202020202020202020203F
:10554C002020202020208810101010101010101077
:10555C0010101010101004040404040404040404B7
:10556C001010101010101041414141414101010136
:10557C00010101010101010101010101010101010F
:10558C00011010101010104242424242420202021C
:10559C0002020202020202020202020202020202DF
:1055AC00021010101020000000000000000000008D
:1055BC0000000000000000000000000000000000DF
:1055CC0000000000000000000000000000000000CF
:1055DC0000000000000000000000000000000000BF
:1055EC0000000000000000000000000000000000AF
:1055FC00000000000000000000000000000000009F
:10560C00000000000000000000000000000000008E
:10561C00000000000000000000000000000000007E
:08562C00000000000000000076
:08563400B10C0008350100086B
:04563C001101000850
:1056400001002D01000000000A0100FFFFFF000023
:1056500000000000000100C8002D0100000A010048
:10566000FF0064000000000000000100C8002D01E0
:1056700000000A01000000FF00000000000000011F
:1056800000C8002D0101011E020003FF00320000CE
:10569000FFFF00320100C8002D0101011E020003BE
:1056A000FF0032FFFFFF0000FF0100C8002D0101D5
:1056B000011E0200030000FFFF0032FFFFAD0100EA
:1056C0003200000001011E020003FF0032FFFFFF55
:1056D0000000FF01003200000001011E020003FF74
:1056E000FFFF0000FFFF0032010032000000010157
:1056F0001E0200030000FFFF0032FFFFFF01003227
:1057000000000001011E020003FF0032FFFFFF0046
:1057100000FF01003200000001011E020003FFFF34
:10572000FF0000FFFF003201003200000001011EF7
:105730000200030000FFFF0032FFFFFF0100320004
:10574000000001011E020003FF0032FFFFFF000006
:10575000FF01003200000001011E020003FFFFFFF5
:105760000000FFFF003201003200000001011E02B4
:1057700000030000FFFF0032FFFFFF0100320000C6
:105780000001011E020003FF0032FFFFFF0000FFC7
:1057900001003200000001011E020003FFFFFF00B4
:1057A00000FFFF003201003200000001011E020074
:1057B000030000FFFF0032FFFFFF01002D0100008A
:1057C00001011E0200030000FFFF0032FFFFFF0186
:1057D00000C800000000000A0100FFFFFF000000F9
:1057E00000000000000000000000000000000000B9
:1057F00000000000000000000000000000000000A9
:105800000000000000000000000000000000000098
:105810000000000000000000000000000000000088
:105820000000000000000000000000000000000078
:105830000000000000000000000000000000000068
:105840000000000000000000000000000000000058
:105850000038014058000240DC1200200001000026
:1058600000000000DC11002000010000000000002A
:105870000000000000000000010203040102030414
:105880000607080902040608004400406C000240B4
:10589000DC1000200001000000000000DC0F0020F0
:1058A00000010000000000000000000000000000F7
:1058B000000000000102030406070809800200201E
:1058C000000000006C050020D40500203C060020EC
:1058D00000000000000000000000000000000000C8
:1058E00000000000000000000000000000000000B8
:1058F00000000000000000000000000000000000A8
:105900000000000000000000000000000000000097
:105910000000000000000000000000000000000087
:105920000000000000000000000000000000000077
:105930000000000000000000000000000000000067
:105940000000000000000000000000000000000057
:105950000000000000000000000000000000000047
:105960000000000000000000010000000000000036
:105970000E33CDAB34126DE6ECDE05000B000000FB
:105980000000000000000000000000000000000017
:105990000000000000000000000000000000000007
:1059A00000000000000000000000000000000000F7
:1059B00000000000000000000000000000000000E7
:0C5CE0000000000000000000E81300209D
:0400000508000D9151
:00000001FF
