:020000040800F2
:10000000B828002001020008090200080B020008BD
:100010000D0200080F020008110200080000000095
:1000200000000000000000000000000013020008B3
:100030001502000800000000170200083D14000827
:100040001B0200081B0200081B0200081B0200081C
:100050001B0200081B0200081B0200081B0200080C
:100060001B0200081B0200081B0200081B020008FC
:100070001B0200081B0200081B0200081B020008EC
:100080001B0200081B0200081B0200081B020008DC
:100090001B0200081B0200081B0200081B020008CC
:1000A0001B0200081B0200081B0200081B020008BC
:1000B0001B0200081B0200081B0200081B020008AC
:1000C0001B0200081B0200081B0200081B0200089C
:1000D0001B02000839150008811500081B020008E2
:1000E0001B0200081B0200081B02000800F002F8B7
:1000F00000F06AF80AA090E8000C82448344AAF158
:100100000107DA4501D100F05FF8AFF2090EBAE855
:100110000F0013F0010F18BFFB1A43F0010318473B
:1001200008640000286400000A444FF0000C10F836
:10013000013B13F0070408BF10F8014B1D1108BF65
:1001400010F8015B641E05D010F8016B641E01F805
:10015000016BF9D113F0080F1EBF10F8014BAD1C55
:100160000C1B09D16D1E58BF01F801CBFAD505E073
:1001700014F8016B01F8016B6D1EF9D59142D6D3CD
:10018000704700000023002400250026103A28BFF5
:1001900078C1FBD8520728BF30C148BF0B607047F9
:1001A000642900F08980002070471FB500F021FA13
:1001B00000F09AFD04000020002105F07FFE401CA5
:1001C00060601FBD10B510BD00F051FD1146FFF776
:1001D000ECFF03F0FBFD00F077FD03B4FFF7F2FF47
:1001E00003BC00F07BFD0000EFF31080704780F34C
:1001F00010887047EFF31080704780F310887047C5
:100200000948804709480047FEE7FEE7FEE7FEE7AA
:10021000FEE7FEE7FEE7FEE7FEE7FEE704480549E6
:10022000054A064B70470000B5140008ED000008B1
:10023000B8100020B8280020B8200020B8200020E6
:100240000FB41CB5074B06AA7B446946009005987D
:1002500000F0E7FA0020694600F0F6FA1CBC5DF8F1
:1002600014FB0000FD05000070B5044685690068B8
:10027000C10601D5302600E02026C00707D070BD9A
:10028000D4E9012130469047206A401C20626D1E4F
:10029000F6D570BD70B5044685690078C00707D1F2
:1002A00070BDD4E9012120209047206A401C2062C3
:1002B0006D1EF6D570BD00002DE9F0410646002404
:1002C00010687529314616A510D0AFF300800028BC
:1002D00002DA404213A507E031688A0701D512A56A
:1002E00002E0490704D511A5012401E0AFF3008025
:1002F00000210A2206F1240709E0B0FBF2FCB0FB62
:10030000F2F302FB1C00303078541846491C0028D8
:10031000F3D123462A463046BDE8F04100F022BA28
:10032000000000002D0000002B0000002000000055
:100330002DE9F0474FF0000A89460446C0F820A096
:100340002046E1688847002876D0252806D0D4E9E1
:1003500001219047206A401C2062F1E7E1682046B5
:1003600000258847C4F81CA006460027C4F818A03A
:100370002A2E09D0304601F0F7F938B304EB87088C
:10038000303EC8F8186019E059F8041B204604EB09
:1003900087029161E1688847012F064618D1E0691C
:1003A000002820DA25F020051DE0D8F8180000EB21
:1003B000800006EB40003038C8F818002046E1689D
:1003C0008847064601F0D0F90028EED1012F0AD067
:1003D0002E2E08D12046E16888477F1C0646022F52
:1003E00045F02005C4DBA069002803DA404245F04F
:1003F0000105A061E80701D025F01005B6B1A6F10E
:100400004100192802D8203645F400654A46314695
:10041000204625604D46FFF7C3FE58B1012806D09F
:10042000ED1D25F0070000F1080989E704E005F15A
:10043000040985E730468AE7206ABDE8F0870000B6
:100440000FB400B58DB010A9099000910B904FF03A
:10045000FF300A9000200C90064878440690064829
:1004600078446A4607900F9909A800F007FA0DB082
:100470005DF814FB3F040000570400002DE9FF5F06
:100480001D464FF0FF3B91464FF000085F46D5E90F
:100490000146A96901987F1C8847296A82468847D6
:1004A0000028F6D1BAF1FF3F0CD0002E24F4C0642E
:1004B00019DD600614D5BAF12B0F09D0BAF12D0F52
:1004C0000ED103E0584604B0BDE8F09F44F48064C8
:1004D000A96901987F1C8847761E8246002E02DD9E
:1004E000BAF1300F03D0B9F1000F26D032E0A9697C
:1004F000761E01987F1C44F400748847002E8246C3
:1005000005DDBAF1780F06D0BAF1580F03D0B9F172
:10051000000F10D01EE0B9F1000F02D0B9F1100F9A
:1005200018D1A969761E01987F1C24F400748847AD
:100530008246102002E0082000E00A20814609E0FF
:10054000A96908FB0908761E01987F1C44F4007411
:1005500088478246002E05DD4946504600F079F96D
:100560000028EDDAE96901988847A00502D46FF008
:100570000100A8E7E00725D1600613D5600502D584
:10058000C8F1000000E0404629680A1D2A60096899
:10059000220501D5087015E0220701D5088011E079
:1005A00008600FE02868011D29600068210502D558
:1005B00080F8008006E0210702D5A0F8008001E065
:1005C000C0F8008038467EE70B4910B5A1F17C02E7
:1005D0000A4CC2E93712372106E000EB104342F81B
:1005E0002130074B00FB03400B1EA1F10101F4DC9D
:1005F00010BD0120E8E70000F00F0020E119D666E9
:10060000CD0D010030B505460B462A4613F8014BC7
:1006100012F8010B08B1A042F8D01CB1002802D09A
:100620006D1CF1E7284630BD40EA0103024630B5B3
:100630009B0710D14FF0013400E008C208C91D1B10
:100640009D4315EAC41FF8D013F0FF0102F8011B07
:100650000DD01B0AF8E711F8013B002B02F8013B13
:1006600005D011F8013B002B02F8013BF3D130BD5E
:10067000032A40F2308010F0030C00F0158011F8CE
:10068000013BBCF1020F624498BF11F801CB00F8A6
:10069000013B38BF11F8013BA2F1040298BF00F8FA
:1006A00001CB38BF00F8013B11F0030300F02580B7
:1006B000083AC0F0088051F8043B083A51F804CBDE
:1006C000A0E80810F5E7121D5CBF51F8043B40F8A4
:1006D000043BAFF30080D20724BF11F8013B11F8AF
:1006E00001CB48BF11F8012B24BF00F8013B00F8F3
:1006F00001CB48BF00F8012B704710B5203AC0F07D
:100700000B80B1E81850203AA0E81850B1E8185012
:10071000A0E81850BFF4F5AF5FEA027C24BFB1E84F
:100720001850A0E8185044BF18C918C0BDE81040C0
:100730005FEA827C24BF51F8043B40F8043B08BFC9
:100740007047D20728BF31F8023B48BF11F8012B90
:1007500028BF20F8023B48BF00F8012B70477047C4
:10076000704770472DE9F0470D469946924604467A
:1007700000F124080168880604D5E06921F0100121
:10078000216000E00120A84201DD471B00E00027B6
:10079000A1697A1902EB0900081AA0612078C00645
:1007A00002D42046FFF760FD002608E0D4E90121CD
:1007B0001AF806009047206A401C761C20624E45BD
:1007C000F4DB2078C0060AD52046FFF74DFD06E091
:1007D000D4E9012130209047206A401C2062381E55
:1007E000A7F10107F4DC07E0D4E9012118F80500BE
:1007F0009047206A401C2062281EA5F10105F3DC09
:100800002046FFF747FD2078000602D50220BDE80C
:10081000F0870120FBE7000001694A1C02610878AB
:10082000704700B58FB0CDE9013100210591054930
:100830007944CDE9031011466846FFF779FD0FB002
:1008400000BD0000E5FFFFFF0A6802F8010B0A6027
:1008500070473A2800D2303820F02002412A01D3D4
:10086000A2F13700884201D34FF0FF3070470000FB
:10087000026811441378016018467047D160054939
:100880007944516104497944116200211161114692
:1008900000F032B8EDFFFFFF5B000000426842B19C
:1008A000016811F8013B23B1521EC0E9001218463D
:1008B00070470121C160881E704742685AB1C36801
:1008C000016843B983688B4205D0491E521CC0E9B8
:1008D0000012002070474FF0FF307047004870470B
:1008E0005810002010B5044600F0E6F90068005DDD
:1008F00000F0010010BD00002DE9F34F4FF0000A99
:100900000C4656468DB001200C9001F10C000B9066
:1009100062690B9801219047051E2DD0252D2CD002
:10092000216A8847C0B162690B9801219047216A0A
:1009300088470028F7D16269411E0B98904700E074
:10094000761CA1690D988847216A88470028F7D14D
:10095000E1690D988847DBE7A1690D988847A842AF
:10096000074601D1761CD3E7E1690D9888477F1CC3
:1009700002D1BAF1000F6FD06BE162690B980027CA
:100980003D46394690472A2804D162690B980121D7
:1009900090470125DFF8D08262690B9801219047CA
:1009A000A0F130010A290AD24745E5DC07EB8701AF
:1009B00000EB4107303FDFD445F01005ECE7E906D6
:1009C00001D46FF000476C280AD04C2814D0682856
:1009D00015D06A280DD074281CD07A281AD01DE0B2
:1009E00062690B98012190476C2802D045F00405FC
:1009F00014E045F002050DE045F020050AE06269CB
:100A00000B9801219047682802D045F0080505E0C1
:100A100045F4006562690B9801219047C4E90157CC
:100A200065283DD019DC58287AD00CDC452837D011
:100A300004DC252826D041289ED131E046282FD03D
:100A4000472899D12CE05B2877D0612828D06328EB
:100A50007CD0642823D15AE0F6E06F2848D008DC27
:100A600066281DD067281BD0692821D06E2816D192
:100A700027E0702845D0732868D0752847D078289B
:100A80000DD14DE0A1690D988847252805463FF412
:100A900069AFE1690D9888476D1C3FF46AAFD8E0F3
:100AA0000D9923466A466FF00100AFF30080C5E060
:100AB00045F0400023464FF000026060A80736D49E
:100AC0003EE0E8077FF447AF2068011D2160006821
:100AD000290501D506701BE7290701D5068017E710
:100AE000A90703D5F117C0E9006111E706600FE718
:100AF00045F0400023464FF008026060A80716D476
:100B00001EE040F60E0125EA0100606016E045F0A7
:100B1000400023464FF00A026060A80707D40FE0A8
:100B200045F040006060A80708D5234610220D99C3
:100B30006FF00100AFF3008080E007E01022234651
:100B40000D996FF00100FFF799FC77E04FF0000975
:100B500063284F46C8464B46CB4602D05B2806D09A
:100B600038E0E80601D40120A060012732E0626984
:100B7000D4F80CB00B98012190475E2807D14FF0B4
:100B8000010949466269D4F80CB00B989047216975
:100B900039B900210A4603AB43F82120491C082932
:100BA000FADBD8B3216949B308F1010862690B98EF
:100BB000012190475D28F4D1B9F1000F09D0002040
:100BC00003A951F82020D24341F82020401C0828D6
:100BD000F7DB03AB2069002820794FEA40701ED074
:100BE0005B462246CDF80080CDE901970D9900289B
:100BF0006FF0010020DAAFF300801FE0C11703AAF5
:100C000000EBD1614B1121F01F0102EB8302411A6D
:100C100013680120884003431360C7E719E00D996A
:100C2000224600286FF00100009702DAAFF300803F
:100C300004E0AFF3008001E0AFF3008000280ADA9F
:100C4000401C06D10C9820B14FF0FF300FB0BDE82A
:100C5000F08F5046FAE7E90701D10AF1010A06448C
:100C600000200C9054E60000CCCCCC0C70477546AC
:100C7000FFF734FEAE4605006946534620F00700F4
:100C8000854618B020B5FFF7C9FABDE820404FF0FF
:100C900000064FF000074FF000084FF0000B21F066
:100CA0000701AC46ACE8C009ACE8C009ACE8C00933
:100CB000ACE8C0098D46704710B500F015F8001D6E
:100CC00010BD00BFF951000010B50446AFF300801D
:100CD0002046BDE81040FFF780BA00000149182007
:100CE000ABBEFEE7260002000048704778100020E7
:100CF0004FF0013C50F8042B51F8043B9A4221D1AB
:100D0000A2EB0C03934313EACC1317D150F8042B36
:100D100051F8043B9A4215D1A2EB0C03934313EA1A
:100D2000CC130BD150F8042B51F8043B9A4209D153
:100D3000A2EB0C03934313EACC13DBD04FF000007B
:100D4000704700BFD01A01BAB1FA81F101F0180161
:100D500022FA01F0CB40C1F12001DBB2C0B2C01ACF
:100D60002CFA01F3D11A914311EAC311E6D170476D
:100D700021B1826842F00102826003E0826822F0C1
:100D8000010282607047000010B504461248844298
:100D900008D10121401500F023FA0021601500F070
:100DA0001FFA17E00D48844208D10121001500F018
:100DB00017FA0021201500F013FA0BE008488442CE
:100DC00008D10121C80300F00BFA00214FF40040C4
:100DD00000F006FA10BD0000002401400028014088
:100DE000003C0140014600208A6802F004020AB17A
:100DF000012000E0002070470246002013680B40ED
:100E00000BB1012000E000207047014600208A68F5
:100E100002F008020AB1012000E000207047000043
:100E200030B502460020002350680F4C20400D7959
:100E30000C6844EA05242043506090680B4C204025
:100E4000D1E902542C434D7944EA45042043906093
:100E5000D06A20F470000C7C641EE4B2234340EAA4
:100E60000350D06230BD0000FFFEF0FFFDF7F1FF40
:100E7000F0B504460D4600200021092D11DDE06883
:100E8000A5F10A0606EB4607072606FA07F188438E
:100E9000A5F10A0606EB460603FA06F10843E060F0
:100EA0000CE0206905EB4507072606FA07F18843A1
:100EB00005EB450603FA06F108432061072A0FDA1D
:100EC000606B561E06EB86071F2606FA07F188435D
:100ED000561E06EB860605FA06F10843606322E01B
:100EE0000D2A0FDA206BD61F06EB86071F2606FA9F
:100EF00007F18843D61F06EB860605FA06F108437C
:100F0000206310E0E06AA2F10D0606EB86071F26BB
:100F100006FA07F18843A2F10D0606EB860605FAEC
:100F200006F10843E062F0BD816841F0080181608C
:100F3000704721B1826842F4A002826003E08268B7
:100F400022F4A00282607047816841F00401816050
:100F50007047000030B10749096841F40001054AB3
:100F6000116005E00349096821F40001014A11609C
:100F700070470000082401400146024801600068F3
:100F8000704700000030024001200149886070472E
:100F90000030024021B1026842F00102026004E028
:100FA00002684FF6FE731A400260704701684FF600
:100FB000FE72114001600021016041608160C160EA
:100FC0004B49884208D14A490839496841F00F0124
:100FD000474A083A51608AE045491431884208D1AD
:100FE00043490839496841F0F001414A083A5160E3
:100FF0007DE03F492831884208D13D490839496898
:1010000041F470613A4A083A516070E038493C3125
:10101000884208D136490839496841F47041344A58
:10102000083A516063E032495031884208D1304972
:101030000839496841F470212D4A083A516056E058
:101040002B496431884208D129490839496841F45B
:101050007001274A083A516049E0254978318842B1
:1010600008D123490839496841F07061204A083A9B
:1010700051603CE01F49884206D1011F096841F0D8
:101080000F01021F116032E01A491431884208D161
:101090001849091F096841F0F001164A121F116032
:1010A00025E014492831884208D11249091F0968EE
:1010B00041F470610F4A121F116018E00D493C3174
:1010C000884208D10B49091F096841F47041094A57
:1010D000121F11600BE007495031884207D10549C2
:1010E000091F096841F47021024A121F11607047FC
:1010F000080002400804024010B50022026847F6CA
:10110000F0739A430C6A8B6823430C6923434C6940
:1011100023438C692343CC6923434C6A23438C6A61
:1011200023431A430260CB6843600B6883604B68BB
:10113000C36010BD00F01F020121914042099200DE
:1011400002F1E022C2F8001170470000024A0A4092
:101150000243024B1A60704780FFFF1F08ED00E05A
:1011600029B1064A52690243044B5A6104E0034A1A
:1011700052698243014B5A617047000000100240DF
:1011800029B1064AD2690243044BDA6104E0034AFA
:10119000D2698243014BDA617047000000100240BF
:1011A00029B1064A12690243044B1A6104E0034A5A
:1011B00012698243014B1A6170470000001002401F
:1011C00029B1064A92690243044B9A6104E0034A3A
:1011D00092698243014B9A617047000000100240FF
:1011E00029B1064AD2680243044BDA6004E0034A9C
:1011F000D2688243014BDA60704700000010024061
:1012000030B500210022002400232D4D6D6805F02B
:101210000C0121B1042905D0082923D105E0294D6D
:10122000056022E0284D05601FE0254D6D6805F43E
:101230007012234D6D6805F48034022505EB92424F
:101240001CB9224D554305600BE01D4D6D6805F43A
:1012500000351DB11B4D5543056002E01A4D554345
:10126000056002E0174D056000BF00BF144D6D68BA
:1012700005F0F0010909164D6B5C0568DD4045601D
:101280000F4D6D6805F4E061090A114D6B5C45680E
:10129000DD4085600A4D6D6805F46051C90A0C4D4A
:1012A0006B5C4568DD40C560054D6D6805F44041E7
:1012B000890B084D6B5CC568B5FBF3F5056130BD66
:1012C0000010024000127A000024F40000093D00E2
:1012D000000000201000002001490866704700004F
:1012E0000000424202460020044B586820F47C1063
:1012F00042EA01031843014B586070470010024056
:1013000021B1028842F04002028004E002884FF6D8
:10131000BF731A400280704710B50022028802F4A1
:1013200041520B884C8823438C882343CC88234329
:101330000C8923434C8923438C892343CC89234341
:101340001A430280838B4FF2FF74234083830B8AFE
:10135000038210BD10B500F001F810BD0CB50020DF
:10136000019000903348006840F4803031490860B3
:1013700000BF3048006800F4003000900198401C25
:101380000190009818B90198B0F5A06FF1D12948E3
:10139000006800F4003010B10120009001E000204E
:1013A00000900098012843D12348006840F01000C5
:1013B000214908600846006820F0030008600846DC
:1013C000006840F0020008601A4840681949486007
:1013D0000846406848600846406840F480604860BD
:1013E0000846406820F47C1048600846406840F495
:1013F000E81048600846006840F08070086000BF50
:101400000C48006800F000700028F9D009484068D6
:1014100020F00300074948600846406840F0020099
:10142000486000BF0348406800F00C000828F9D16C
:101430000CBD000000100240002002401A48006865
:10144000401C19490860B0F57A7F06DB002008606F
:1014500016484068401C1549486014480068401C04
:10146000124908600120886011480068401C10493A
:10147000086001200D4948610D4800684FF4FA7179
:1014800090FBF1F201FB120010B90120074908613D
:1014900007480068142190FBF1F201FB120010B91B
:1014A00001200249C86070475C0000209C060020B3
:1014B0006000002010B51348006840F00100114999
:1014C000086008464068104908400E4948600846D0
:1014D00000680E4908400B4908600846006820F47F
:1014E000802008600846406820F4FE0048604FF401
:1014F0001F008860FFF72EFF4FF00060044908606E
:1015000010BD0000001002400000FFF8FFFFF6FED3
:1015100008ED00E010B50446C4EBC40000EB400049
:10152000034A811815220348FFF7A2F810BD0000F6
:101530008F000020700A002070B5104C20680588CC
:1015400005F08000B8B12068011D04F1140001F01D
:1015500063FA80B9002030B12168898941F08001A7
:101560002268918105E02168898921F08001226843
:10157000918100BF00BF00BF70BD000014000020BB
:1015800070B5104C2068058805F08000B8B120685F
:10159000011D04F1140001F03FFA80B9002030B1C0
:1015A0002168898941F080012268918105E02168E4
:1015B000898921F080012268918100BF00BF00BFAE
:1015C00070BD00003800002021B1828942F4005231
:1015D000828104E082894DF6FF731A408281704750
:1015E0001AB1838A0B43838202E0838A8B4383820E
:1015F0007047000010B504462048844209D10121FB
:101600008803FFF7EDFD00214FF48040FFF7E8FD70
:1016100032E01B48844209D101214804FFF7C0FD94
:1016200000214FF40030FFF7BBFD25E01548844250
:1016300009D101218804FFF7B3FD00214FF4802078
:10164000FFF7AEFD18E01048844209D10121C8041B
:10165000FFF7A6FD00214FF40020FFF7A1FD0BE0EE
:101660000A48844208D101210805FFF799FD0021AD
:101670004FF48010FFF794FD10BD000000380140CA
:101680000044004000480040004C00400050004032
:101690002DE9F04786B005460E460024A24600BF5D
:1016A000A1460027B08900B100BF2F462C8A4CF616
:1016B000FF700440F08804432C82AC894EF6F3108E
:1016C0000440B08831890843718908430443AC81E0
:1016D000AC8A4FF6FF400440B0890443AC8201A8B5
:1016E000FFF78EFD1F48874202D1DDF810A001E010
:1016F000DDF80CA0A88900F4004040B10AEBCA0054
:1017000000EB0A1031684900B0FBF1F807E00AEB82
:10171000CA0000EB0A1031688900B0FBF1F86420C0
:10172000B8FBF0F004012009642101FB1089A889AD
:1017300000F4004040B1322000EBC900B0FBF1F0F2
:1017400000F00700044308E0322000EB0910642198
:10175000B0FBF1F000F00F0004432C8106B0BDE8AF
:10176000F08700000038014030380A2801D20120FB
:1017700070470020704710B5044600F07BF8E0B2D7
:1017800003F02AFD00F06AF810BD10B500F001F872
:1017900010BD00BF00BF00BF7047000010B500F0D3
:1017A00031F96020FFF7E7FF054800F0C9F820B1E4
:1017B00000F044F808B9012010BD0020FCE700004B
:1017C000007E560370B504460D4607490D70200C87
:1017D0004870200A8870CC7000F014F90421024887
:1017E00000F093F870BD00007000002010B50446B2
:1017F00020212046FFF7E6FF054800F0A1F820B1C0
:1018000000F01CF808B9012010BD0020FCE7000022
:10181000400D030010B50446D8212046FFF7D2FF43
:10182000054800F08DF820B100F008F808B9012053
:1018300010BD0020FCE70000F07E0E0010B500F0A7
:1018400071F8C0F3401010BD10B5002000F044F84E
:1018500000F068F800F0100010BD000010B500BFE7
:101860004FF480500249086000BFFFF78EFF10BDA3
:10187000100C014000BF4FF480500249086000BFC7
:1018800070470000140C014070B504460E46154622
:10189000B6B1ADB10B200B490870200C4870200A7E
:1018A0008870CC7000200871FFF7E4FF052105481F
:1018B00003F0E8FC2946304603F0C6FCFFF7CEFFF4
:1018C00070BD00007000002010B500F02BF800F093
:1018D000010080F0010010BD70B5044600F022F850
:1018E00020F00C0504F00C0101EA050000F090F86E
:1018F00070BD70B504460D46FFF7BCFF2946204673
:1019000003F0A2FCFFF7AAFF70BD70B504460D46B8
:10191000FFF7B0FF2946204603F0B4FCFFF79EFF17
:1019200070BD000010B5052004490870022103486D
:10193000FFF7DFFF0148407810BD00007000002075
:1019400070B50546002401200949086002E0012025
:1019500000F0C0FBFFF7B8FF2043041E03D1281E90
:10196000A5F10105F3D1002001490860204670BDB2
:101970006C0000202DE9F04106460F46144612E0A7
:10198000F0B2C0F58075A54200D925462A463946F1
:10199000304600F00DF810B90020BDE8F0812E446B
:1019A0002F44641B00BF002CEAD10120F5E70000A2
:1019B00070B504460D461646B5B1AEB102201049C9
:1019C0000870200C4870200A8870CC7000F01AF85B
:1019D000FFF750FF04210A4803F054FC3146284623
:1019E00003F050FCFFF73AFF41F28830FFF7A8FF01
:1019F00020B1FFF723FF08B9012070BD0020FCE7EC
:101A00007000002010B50620FFF7B5FE10BD0000E5
:101A100010B504460120064908704C70FFF7F2FF2C
:101A200002210348FFF765FF00F004F810BD000035
:101A30007000002010B5002402E0FFF7AAFE641C2D
:101A4000042CFADB10BD000010B5134890F8DA0042
:101A5000401C114981F8DA00084690F8DA00132892
:101A600002DD002081F8DA006A220B49091D01F12C
:101A70006A00FEF7FDFD084A92F8DA1092F8D900E4
:101A800001F056F9044A92F8DA1092F8D9000122CE
:101A900002F06AFB10BD00006C0A002010B5374848
:101AA00003F05CFB002867D03548007860B9354802
:101AB0000068C0F3402018B90120314908700DE0DA
:101AC00000202F49087009E02E480068C0F340202C
:101AD00020B100202A490870012010BD2848407814
:101AE00060B929488068C0F3803018B901202449C2
:101AF00048700DE000202249487009E022488068C3
:101B0000C0F3803020B100201D4948700320E4E775
:101B10001B48807860B91C488068C0F3C03018B991
:101B20000120174988700DE000201549887009E0F0
:101B300015488068C0F3C03020B10020104988707B
:101B40000420CAE70E48C07860B90F488068C0F327
:101B5000403018B901200A49C8700DE0002008493A
:101B6000C87009E008488068C0F3403020B1002008
:101B70000349C8700220B0E70020AEE7500F0020F4
:101B800080000020080C01400010014070B50446A0
:101B90000D4600202071401EE0622946204602F0DA
:101BA00033FA08B1032070BD94F82E1294F82F0276
:101BB00041EA00204AF65521884201D00220F2E78E
:101BC00094F86900010694F8680041EA004194F82D
:101BD000670041EA002094F86610084320F07F4037
:101BE0000D49884201D10020DDE794F88500010607
:101BF00094F8840041EA004194F8830041EA00200F
:101C000094F88210084320F07F400349884201D1B4
:101C10000020C8E70120C6E746415400024600E024
:101C2000521C107810B110788842F9D110787047A2
:101C30000246891E5069801E884201D800207047E4
:101C40009378906A01FB0300F9E72DE9F04105461E
:101C50000E460027002405E0295D384600F007F80D
:101C60000746641CB442F7DB3846BDE8F081021237
:101C700042EA002290B24840C0F30312504080EA8A
:101C8000003290B20206120D80EA420070472DE940
:101C9000F05F07460D4690463E464FF0FF39B8F1DB
:101CA000000F01D0FFF770F90AE056F804AB504678
:101CB00002F0D4FB8346FFF75FF981462D1F00BF7A
:101CC000042DF2DA484602F0C9FB0446002D43D049
:101CD0004846FFF751F98346012D04D0022D13D059
:101CE000032D36D122E0317881EA040002F0B6FB00
:101CF0004FEA106A5046FFF73FF98146484602F026
:101D0000ADFB80EA142425E0318889B281EA040021
:101D100002F0A4FB4FEA104A5046FFF72DF9814626
:101D2000484602F09BFB80EA144413E0316821F03E
:101D30007F4181EA040002F091FB4FEA102A5046ED
:101D4000FFF71AF98146484602F088FB80EA1464DE
:101D500000E000BF00BF00BFE043BDE8F09F2DE9F9
:101D6000F05F04460D4616462F46FFF70DF94FF07B
:101D7000FF3AE4434FF0000815E05046FFF7FCF847
:101D800017F8019B89EA040002F068FB4FEA106B28
:101D90005846FFF7F1F88246504602F05FFB80EAB2
:101DA000142408F10108B045E7D3E043BDE8F09FF3
:101DB00010B589234840002207E000F080040CB1F0
:101DC00080F089004406200E521C082AF5DB10BD65
:101DD0002DE9F04704468946B9F1000F06D1E768BE
:101DE00017B16069B84211D801270FE04946204673
:101DF00001F0B2F90646022E02D20120BDE8F087BA
:101E00006069B04201D93046F8E74F463D4600BF11
:101E10006D1C6069A84204D80225BD4201D900208A
:101E2000ECE72946204601F097F9064606B909E095
:101E3000701C08B1012E01D13046DFE7BD42E7D169
:101E40000020DBE700BF6FF070422946204602F019
:101E5000ADF98046B8F1000F08D1B9F1000F05D0F7
:101E60002A464946204602F0A1F98046B8F1000F03
:101E70000BD1E5602069401C78B12069401E2061CB
:101E8000607940F00100607107E0B8F1010F02D104
:101E90004FF0FF3000E0012005462846AEE7000085
:101EA0002DE9F35F0198D0F8009001E009F10109F4
:101EB00099F800002F28F9D099F800005C28F5D097
:101EC000009886690B222021304602F061F8002537
:101ED0002F46AB464FF0080A00BF58460BF1010BE6
:101EE00019F80040202C03DD2F2C01D05C2C00D1F0
:101EF00057E02E2C01D057450DD3BAF1080F01D170
:101F00002E2C02D00620BDE8FC9F08274FF00B0ABC
:101F1000A806050EE1E7802C01DB45F00305812CC6
:101F200001DB9F2C03DDE02C20DBFC2C1EDC584663
:101F30000BF1010B19F80080B8F1400F02DBB8F18A
:101F40007E0F05DDB8F1800F06DBB8F1FC0F03DC76
:101F5000AAF10100B84201D80620D4E738467F1C18
:101F6000345438467F1C06F8008019E0214620A032
:101F7000FFF754FE08B10620C5E7412C04DB5A2CBC
:101F800002DC45F0020508E0612C06DB7A2C04DC5B
:101F900045F00105A4F12000C4B238467F1C34543A
:101FA0009BE700BF09EB0B0101980160202C01DCCD
:101FB000042000E0002004460FB90620A3E7307893
:101FC000E52801D105203070BAF1080F01D1A8062B
:101FD000050E05F00300012801D144F0100405F0BE
:101FE0000C00042801D144F00804F47200208AE7B0
:101FF000222A2B2C3A3B3C3D3E3F5B5D7C7F000020
:102000002DE9F843254890F8DC00142813DD244816
:10201000007880B9214890F8DC0000901F4890F8C3
:10202000DA2090F8D91000234FF6FF7002F0DCFAA6
:1020300001201B4908701949C88804F075F98146C8
:10204000184904F085F9074617490968134AD2F878
:10205000E020881A04F068F98046394604F082F8D6
:102060000646124904F074F9054604F03DF90446A9
:102070000A4890F8DC10491CA1420DD2014681F8B3
:10208000DC40FF2C06D9FF2081F8DC0001F04AF982
:10209000BDE8F8830020FBE70120F9E76C0A002087
:1020A0008E000020000020419C06002000007F439D
:1020B00000B503464FF47A7103FB01F000F00AF813
:1020C00000BF4AF6AA200249086000BF00BD000018
:1020D00000300040C00004E000BF00BF00BF00BFF0
:1020E00000BF011EA0F10100F6D170472DE9F041BB
:1020F00004460E460021204600F031F90546EDB9B0
:10210000002700BF2169206801F07EFF054605B168
:1021100013E060690078E52802D06069007820B992
:10212000781C0746B04201D107E000270121204674
:1021300000F038F80546002DE4D000BF042D00D192
:1021400007252846BDE8F0812DE9F041044600212D
:10215000204600F004F9054615B12846BDE8F08197
:1021600000BF2169206801F04FFF054605B116E068
:10217000666937780FB9042511E0F07A00F008009D
:1021800030B90B223046A16901F0E2FE00B906E049
:102190000021204600F006F80546002DE1D000BFE2
:1021A0002846DBE72DE9F04104468846E088401CDC
:1021B00086B20EB1206910B90420BDE8F08106F0A6
:1021C0000F0000286DD12069401C2061E06828B90B
:1021D00020680089B04264DC0420EEE72068807843
:1021E000401E00EA161000285BD1E168206800F06C
:1021F000B3FF0546012D01D80220DEE7681C08B9AF
:102200000120DAE720684069A84244D8B8F1000FFD
:1022100001D10420D1E7E1682068FFF7D9FD054628
:102220000DB90720C9E7012D01D10220C5E7681CBF
:1022300008B90120C1E7206803F09AFA08B101202B
:10224000BBE7216801F130004FF40072002101F07A
:102250009FFE29462068FFF7EBFC2168C862002733
:102260000FE0012021680871206803F081FA08B1AD
:102270000120A2E72068C06A401C2168C862781C5F
:10228000C7B220688078B842EBDC2068C06AC01B07
:102290002168C86200BFE56029462068FFF7C8FCD6
:1022A0002061E6802068303006F00F0100EB41101D
:1022B0006061002081E72DE9F04704468946042546
:1022C00026E02169206801F09FFE054605B122E065
:1022D000D4F8148098F800600EB904251BE098F833
:1022E0000B0000F03F07E52E0BD02E2E09D00F2F4C
:1022F00007D0082F01D1012000E00020484500D17F
:1023000009E000212046FFF74DFF054605B102E038
:1023100020690028D5D100BF0DB1002020612846DA
:10232000BDE8F08770B5044601212046FFF7DEFEC8
:10233000054695B92169206801F066FE054665B934
:1023400020220021606901F023FE0B22D4E905015F
:1023500001F011FE012021680871284670BD2DE9A9
:10236000F04104460E46E680A568012D03D02068A2
:102370004069A84202D80220BDE8F0812DB920684A
:102380000078032801D12068456A65B9E5602068B6
:102390000089B04201DC0220EEE72068406A00EBD1
:1023A0001610206120E020688078070112E029469D
:1023B000206800F0D1FE0546681C08B90120DBE763
:1023C000022D03D320684069A84201D80220D3E738
:1023D000F01B86B2BE42EADAE56029462068FFF7C4
:1023E00027FC00EB161020612068303006F00F014A
:1023F00000EB411060610020BEE7000010B504460C
:10240000034800F0D3FF08B9002010BD0120FCE70D
:10241000640F00202DE9F04180460D4616461F4608
:1024200000240CE04FF4007000FB04523119064800
:1024300002F090FC10B10120BDE8F081641CBC42A8
:10244000F0DB0020F8E70000640F0020014603489D
:10245000006808B1002070470120FCE7640F0020ED
:102460002DE9F04180460D4616461F4600240CE03B
:102470004FF4007000FB04523119064802F0D0FD01
:1024800010B10120BDE8F081641CBC42F0DB0020EB
:10249000F8E70000640F002010B500243BE0254859
:1024A000006884421FD104EB4400234A02EB800001
:1024B000017A224801F01CFD04EB44011E4A02EBA4
:1024C0008101898888B2012101F0C6FD04EB440135
:1024D000194A52F821100969084304EB440152F8E3
:1024E0002110086115E004EB4401134A02EB81015D
:1024F000898888B2002101F0AFFD04EB44010E4A47
:1025000052F821100969084304EB440152F82110E4
:102510000861601CC4B2042CC1DB06480068401C82
:102520000449086008460068042801DD00200860AE
:1025300010BD00007C000020000F0020300F0020A4
:10254000F0B505ACF0CCDFF824C0CCF80000CCF836
:102550000410CCF80820CCF80C30CCF81040CCF8A3
:102560001450CCF81860CCF81C70F0BD300F00206F
:10257000F0B505ACF0CCDFF824C0CCF80410CCF8F2
:102580000000CCF81030CCF80C20CCF81C50CCF863
:102590001840CCF82870CCF82460F0BD000F002063
:1025A00010B50146002008E00A5C00EB4003044C33
:1025B00004EB83031A72421CD0B20428F4D310BD7A
:1025C000000F002070B50446204603F05BFC054672
:1025D0000DB900202060284670BD0000F7B51646F2
:1025E00001A800F086FE0546002D01DA0B20FEBD95
:1025F0000E4850F825400CB100202070009810B112
:102600000020009908700949009841F825000098B9
:1026100008B1012E01D00020E9E7002201A9684697
:1026200000F08EFB07463846E1E7000088000020F6
:102630002DE9F7438AB0054616461DB909200DB0AD
:10264000BDE8F0830020286006F01F0626F0010296
:102650000BA903A800F074FB0746002F7ED1CDF82C
:1026600024D003A80B9900F02FFD0746089C0FB952
:1026700004B9062706F01C00002851D04FB1042FE2
:1026800003D103A8FFF74EFE074646F00806089C54
:1026900009E0E07A00F0110008B1072703E006F036
:1026A000040000B10827002F39D106F008000028E7
:1026B00035D000F0C3FD804684F80E804FEA182123
:1026C000E1734FEA184121744FEA186161740020E8
:1026D000E072207700216177A177E17721460398A6
:1026E00001F064FB81460021204602F0D9FD012063
:1026F00003990871B9F1000F11D00398D0F82C801C
:102700004946039801F074FE074647B9A9F1010054
:102710000399C8604146039801F076FC07460EE035
:102720006FB9E07A00F0100008B1042707E006F066
:10273000020020B1E07A00F0010000B1072747B99C
:1027400006F0080008B146F020060398C06AE86168
:102750002C621FB9AE710020E87100E017E021463D
:10276000039801F023FB2861E07F0106A07F41EA86
:102770000041607F41EA0020217F0843E86000209B
:10278000A860A861039828602868C088A880384697
:1027900055E733B585B0044614B9092007B030BDFC
:1027A000002206A904A800F0CBFA05461DBB049838
:1027B000206001A8A0612046069900F085FC05462E
:1027C000B5B9606958B16069C07A00F0100028B1ED
:1027D0006169049801F0EAFAA06000E005253DB9BE
:1027E0000498C088A08000212046FFF7B8FD054668
:1027F000042D00D105250DB1002020602846CDE72D
:102800002DE9FF4F83B0044615469A46DDF810B017
:102810000020CAF80000204603F034FB0290029822
:1028200018B1029807B0BDE8F08FE07908B1E079FF
:10283000F8E7A07900F0010008B90720F2E7D4E931
:102840000210401A00900098854200D9009DA3E034
:102850002089C0F3080000286FD120688078401ECE
:10286000A16800EA512000F0FF09B9F1000F17D16B
:10287000A06810B92069019004E06169206800F047
:102880006BFC01900198022802D20220E071C9E796
:102890000198401C10B90120E071C3E70198606104
:1028A00061692068FFF7C4F9064616B90220E07195
:1028B000B8E74E444FEA5528B8F1000F2AD009EB8B
:1028C000080021688978884203D920688078A0EBC5
:1028D000090808F0FF032168487832465946FFF797
:1028E00099FD10B10120E0719CE7A07900F0400053
:1028F00068B1A069801B404509D2A169891B0BEB17
:1029000041204FF4007204F1240101F034FB4FEA3E
:10291000482737E0A069B04220D0A07900F04000FD
:1029200080B121684878012304F12401A269FFF7EE
:1029300097FD18B10120E07174E710E0A07920F054
:102940004000A071216848780123324604F1240137
:10295000FFF760FD10B10120E07163E7A6612089F7
:10296000C0F30800C0F50077AF4200D92F46208998
:10297000C0F3080204F1240011183A46584601F049
:10298000FAFA00BFBB44A0683844A060DAF800003F
:102990003844CAF80000ED1B002D7FF459AF002029
:1029A00040E7FEB505460E46284603F06BFA04469E
:1029B0000CBB2EB900212846FFF7D1FC04461AE0D3
:1029C000C5F818D000212846FFF775FC0446042CF2
:1029D00002D10020286100246CB93146284600F05D
:1029E00050FC00212846FFF7DDFB0446042C02D1F1
:1029F0000020286100242046FEBD70B5044600BFBB
:102A0000FDF7F2FB054672B60020A060E0602846A4
:102A1000FDF7EDFB00BF70BD2DE9F04104460E4609
:102A200000BFFDF7E1FB074672B6A068E168451AF2
:102A30004DB1E0686168491E08402168085C30704B
:102A4000E068401CE0603846FDF7D1FB00BF15B1DF
:102A50000120BDE8F0810020FBE7000070B51C48B4
:102A6000A0F58071C1F80002002427E0E5041948B0
:102A700000EB44111C222846FEF706FF00201549F2
:102A800001EB44110877134901EB441148771148D1
:102A900000EB44100068401C48B900200D4901EBD0
:102AA000441108600B4901EB4411486004E0012027
:102AB000084901EB44110877601CC4B2082CD5DB2F
:102AC000FF20044981F808020020C1F8040270BD0B
:102AD000B4070020B406002070B50446FF2C02D1D4
:102AE000FEF75CFE1EE0082C0BDA002507E0E00490
:102AF00000EB05463046FEF78DFE681CC5B2082D7A
:102B0000F5DB0020084901EB44110877064901EB89
:102B100044114877044901EB44110873024901EB61
:102B20004411086070BD0000B40600202DE9F04794
:102B3000C0B004468A46204600F054F8284800EB0E
:102B40004410007F10B140B0BDE8F0874FF48051D1
:102B500001EBC445224800EB4410006846194FF0D1
:102B600001091FE0701BFF2802D8701B87B201E02B
:102B70004FF480773A4669462846FEF785FEB9F15C
:102B8000000F08D0012239466846FFF780F88046DA
:102B90004FF0000905E03A4669464046FFF7DFF886
:102BA00080463D44B542DDD30D4800EB4410C0F8EB
:102BB000088001200A4901EB4411087700200849E8
:102BC00001EB44114877064901EB441101F10C0077
:102BD0005146FDF729FD204600F09AF800BFB2E704
:102BE000B406002070B504461748B0F8001200F58E
:102BF0008070081A85B205B970BD13492A46D1F80C
:102C0000040201F58071FEF7B5FE0F4800EB441099
:102C1000006828440C4901EB441108600B48006827
:102C2000094901EB4411486009480749C1F800020D
:102C30000846D0F804022844C1F80402002001EB41
:102C40004411087700BFD7E7B406002068000020D1
:102C5000B40700202DE9F0410446884615462B486C
:102C600090F80802A0421FD0284991F80802FFF707
:102C7000B9FF264880F808424FF4805101EBC44068
:102C8000224901EB4411096808442049C1F80402B3
:102C9000084690F80802FF2806D0002091F8081294
:102CA0001A4A02EB411148770120184901EB4411FF
:102CB000487726E01548B0F8001200F50070401A79
:102CC00087B2BD4201DD3E4600E02E460F49324646
:102CD000D1F800024146FDF7CBFC0C48D0F80002C9
:102CE00030440A49C1F80002B0440846D0F8001246
:102CF00000F50070401A02D12046FFF773FFA81BB1
:102D000085B2002DD6D1BDE8F0810000B4060020C8
:102D100010B50446E004FEF769FD044A02EB4411D5
:102D2000E0041C22FEF726FE10BD0000B4060020C1
:102D300070B505460C462046FEF7ECFB70BD000062
:102D40002DE9F74F88B0002108980160099800F03C
:102D5000D0FA07900798002803DA0B200BB0BDE8E3
:102D6000F08FD549079851F820400CB90C20F5E7B1
:102D700008980460207878B16078FFF767FB804698
:102D800008F0010040B90A9820B108F0040008B129
:102D90000A20E3E70020E1E7002020700798607038
:102DA0006078FFF72BFB804608F0010008B1032094
:102DB000D4E70A9820B108F0040008B10A20CDE752
:102DC000002739462046FEF7E1FE0546012D01D0D9
:102DD0006DBB2CE0002614E004F5F77101EB061042
:102DE000017951B1C17A0A06817A42EA0142417AF7
:102DF00042EA0121027A114300E000214DF8261039
:102E0000761C042EE8D3002606B1761E00BF5DF8BE
:102E1000267027B139462046FEF7B8FE00E00220B2
:102E200005461DB1701C06460428F0D300BF032DD3
:102E300001D1012092E70DB10D208FE73B20015D0C
:102E400094F83C0041EA0020B0F5007F01D00D204D
:102E500084E74620015D94F8470041EA0029B9F172
:102E6000000F0ED194F85700010694F8560041EA7D
:102E7000004194F8550041EA002094F8541040EACB
:102E80000109C4F818904020005DE070E078012846
:102E900004D0E078022801D00D205FE7E07809FB3C
:102EA00000F93D20005DA070A07818B1A078411E07
:102EB000084008B10D2051E74120015D94F842001F
:102EC00041EA00202081207A00F00F0008B10D2097
:102ED00044E74320015D94F8440041EA002BBBF134
:102EE000000F0ED194F85300010694F8520041EA05
:102EF000004194F8510041EA002094F8501040EA53
:102F0000010B3E20015D94F83F0041EA002004904F
:102F1000049808B90D2021E704984844218900EB62
:102F2000111006900698834501D20D2016E70698E9
:102F3000ABEB0000A178B0FBF1FABAF1000F01D1C0
:102F40000D200BE7012540F6F670824500D30225DF
:102F50004FF6F670824500D303250AF10200606146
:102F6000E76104983844206206983844A062032D33
:102F700016D1208908B10D20F0E694F85F00010613
:102F800094F85E0041EA004194F85D0041EA0020B7
:102F900094F85C100843606260698000059014E05A
:102FA000208908B90D20D9E6206A48446062022DC4
:102FB00002D16069400007E0207D00F001006169F6
:102FC00001EB410100EB51000590A169059800F269
:102FD000FF10B1EB502F01D20D20BFE64FF0FF30B4
:102FE0002061E06080206071032D5AD194F8601058
:102FF00094F8610041EA0020012852D1791C204652
:1030000001F002F8E8BB0020607194F82E1294F8E9
:103010002F0241EA00204AF65521884241D133204F
:10302000005D01063220005D41EA00413120005D73
:1030300041EA002094F8301008432049884230D1FA
:1030400094F81702010694F8160241EA004194F838
:10305000150241EA002094F81412084318498842E6
:103060001FD194F81B02010694F81A0241EA0041AC
:1030700094F8190241EA002094F8181208432061DC
:1030800000E00EE094F81F02010694F81E0241EAE7
:10309000004194F81D0241EA002094F81C120843F4
:1030A000E060257007480088401C80B20549088010
:1030B000E080002052E6000088000020525261416A
:1030C000727241618C0000202DE9F34104460198A1
:1030D00000782F2803D0019800785C2802D101984D
:1030E000401C01900020A06001980078202807D2A1
:1030F00000212046FFF733F905460020606128E0F3
:1031000000BF01A92046FEF7CBFE054605B11FE032
:103110002046FFF719F80546A069C67A3DB1042D8F
:1031200004D100BF06F0040000B9052510E006F048
:10313000040000B10CE06769F87A00F0100008B9EB
:10314000052505E03946206800F030FEA060D8E78C
:1031500000BF2846BDE8FC812DE9F04105460C463C
:10316000022C02D36869A04202D80120BDE8F08198
:103170002878012804D002282CD003285AD13DE019
:10318000274607EB5707286A00EB5721284600F02F
:103190003BFF00B14EE0C7F3080105F1300010F825
:1031A00001807F1C286A00EB5721284600F02CFF85
:1031B00000B13FE0C7F3080105F13000405C48EA88
:1031C000002804F0010010B14FEA1810CEE7C8F350
:1031D0000B00CBE7286A00EB1421284600F014FF0F
:1031E00000B127E040F2FF1000EA440105F1300091
:1031F0000E183078717840EA0120B7E7286A00EBB2
:10320000D411284600F000FF00B113E040F2FF1097
:1032100000EA840105F130000E18F0780006B1785C
:1032200040EA0140717840EA01203178084320F0FB
:1032300070409BE700BF4FF0FF3097E708B500985C
:1032400020F01F000090009820F4FC60009000988F
:1032500020F4784000F5C0400090009820F4F81069
:1032600000F580200090009820F0F07000F1907040
:103270000090009820F07E4000F18440009000987B
:1032800008BDF0B5044601F10902206900282DD0DF
:103290006069002310E01E465B1C855D202D00D177
:1032A0000AE0052D00D1E525092B02D12E2602F8D2
:1032B000016B02F8015B00BF0B2BECD3C67A0E72D8
:1032C000C67F3706867F47EA0647467F47EA0626D7
:1032D000077F3E430E60077E467E47EA06268E80C5
:1032E000877DC67D47EA0626CE8000BF002010708D
:1032F000F0BD01464FF0FF300A6892B10A681278BB
:10330000A2F1300009280BD20A6852783A2A07D174
:103310000A68921C0A60012803DB4FF0FF3000E0CE
:10332000002070472DE9F0471B49088902F0FCFF97
:1033300081461A4903F00CF8074619490968164AEC
:10334000D2F8E020881A02F0EFFF8046394602F0FA
:1033500009FF0646134902F0FBFF054602F0C4FFD1
:1033600004460D4890F8DD00401CA04211D20A49E5
:1033700081F8DD40FF2C09D9FEF766FB00200649E5
:1033800081F8DC0081F8DD00074908700020BDE805
:10339000F0870120FBE700006C0A002000002041BC
:1033A0009C06002000007F438E00002070B504467C
:1033B0000A25206808B1002070BD01F0FDFE04E080
:1033C000204601F0E1FA00B903E0281EA5F101054D
:1033D000F6D100BF681C10B94FF0FF30ECE7204673
:1033E00001F0ACFD204601F0DDFC204601F01CFDA3
:1033F00010B14FF0FF30DFE7012020600020DBE755
:103400001FB500F06BFC00F08FF800F0A7FC00F097
:103410002DF8FEF719FA4FF4E131104802F010FAD6
:103420000E200F4904220F4BCDE90032CDE90210E6
:1034300003230C4A0D210A48FFF782F80F200A499E
:103440000822084BCDE90032CDE902100923054AD4
:103450000B210548FFF78CF81FBD00001400002069
:1034600000100140000C01400008014000B589B087
:1034700026480190102002902548009000208DF8E9
:103480000D0009208DF8170000208DF81B00022088
:103490008DF818001F48049000208DF819000720AF
:1034A0008DF8150001208DF80C0000208DF8140017
:1034B0000F208DF816000A20ADF81C0009208DF8A9
:1034C0001A001548089000BF01201449086000BF89
:1034D0006420FEF7EDFD00BF01201049091F0860C0
:1034E00000BF4FF47A70FEF7E3FD69460C4801F027
:1034F0007CFF4FF4FA70FEF7DBFD0A21094801F06A
:103500004DFE074802F0A5F809B000BD00080140D3
:103510000030014040E3CB330048E801140C014087
:10352000C0080020480A0020FE48406840F00070B3
:10353000FC49486000BF00BF00BF00BFFA48806977
:1035400040F00400F849886100BFF848006820F0A6
:10355000F00040F0B000F549086000BF00BF48151A
:10356000F2491031086000BF00BF00BF00BF00BFBC
:1035700000BF00BFEC48806940F00400EA49886160
:1035800000BFEA48006820F4706040F48060E749BA
:10359000086000BF00BF0815E4491031086000BF93
:1035A00000BF00BF00BF00BF00BF00BFDE48806992
:1035B00040F00400DC49886100BFDC48001F00685F
:1035C00020F4706040F43060D849091F086000BFE3
:1035D00000BF0420D5491031086000BF00BF00BF04
:1035E00000BF00BF00BF00BFCF48806940F00400AB
:1035F000CD49886100BFCD48001F006820F47040AD
:1036000040F48040C949091F086000BF00BF08207E
:10361000C6491031086000BF00BF00BF00BF00BF37
:1036200000BF00BFC048806940F00800BE49886103
:1036300000BFBF48006820F4706040F43060BC49AF
:10364000086000BF00BF0815B9491031086000BF0D
:1036500000BF00BF00BF00BF00BF00BFB24880690D
:1036600040F00800B049886100BFB148006820F40C
:10367000704040F48040AE49086000BF00BFC814ED
:10368000AB491031086000BF00BF00BF00BF00BFE2
:1036900000BF00BFA448806940F00800A2498861CB
:1036A00000BFA348001F006820F00F00C01CA04905
:1036B000091F086000BF00BF01209D490C31086050
:1036C00000BF00BF00BF00BF00BF00BF00BF9648E3
:1036D000806940F004009449886100BF9348001F4E
:1036E000006820F4700040F430009049091F086021
:1036F00000BF00BF20208D490C31086000BF00BF13
:1037000000BF00BF00BF00BF00BF8748806940F016
:1037100004008549886100BF8448001F006820F0CC
:10372000704040F030408149091F086000BF00BF71
:1037300080207E490C31086000BF00BF00BF00BF81
:1037400000BF00BF00BF00BF7748806940F00400A1
:103750007549886100BF7548001F006820F07060DF
:1037600040F000607149091F086000BF00BF4020A1
:103770006E491031086000BF00BF00BF091F08601C
:1037800000BF00BF00BF00BF00BF00BF00BF664852
:10379000806940F004006449886100BF6348001FED
:1037A000006820F4702040F440306049091F086030
:1037B00000BF00BF10205D490C31086000BF00BF92
:1037C00000BF00BF00BF00BF00BF5748806940F086
:1037D00008005549886100BF5548006820F4700012
:1037E00040F440105249086000BF00BF48145049DF
:1037F0000C31086000BF00BF00BF00BF00BF00BFAA
:1038000000BF4948806940F008004749886100BF0F
:103810004748006820F0704040F04050444908603C
:1038200000BF00BF4FF4004041490C31086000BFA9
:1038300000BF00BF00BF00BF00BF00BF00BF3A48CD
:10384000806940F008003849886100BF3848006846
:1038500020F0706040F000603549086000BF00BF94
:103860004FF4804032491031086000BF00BF00BFF4
:10387000091F086000BF00BF00BF00BF00BF00BF3E
:1038800000BF2948806940F004002749886100BFD3
:103890002648006820F4702040F440302349086036
:1038A00000BF00BF881421490C31086000BF00BF71
:1038B00000BF00BF00BF00BF00BF1B48806940F0D1
:1038C00008001949886100BF1948006820F4702079
:1038D00040F440301649086000BF00BF8814144906
:1038E0000C31086000BF00BF00BF00BF00BF00BFB9
:1038F00000BF00BF0C48806940F004000A4988619D
:1039000000BF0A48006820F00F0040F00800074997
:10391000086000BF00BF881504491031086000BF6F
:1039200000BF07E000000140001002400408014011
:10393000040C014000BF091F086000BF00BF00BFAA
:1039400000BF00BF00BF00BF00BFE048806940F07B
:103950000800DE49886100BFDD48006820F0F00003
:1039600040F08000DA49086000BF00BF4815D84920
:103970001031086000BF00BF00BF091F086000BF12
:1039800000BF00BF00BF00BF00BF00BF00BFCF48E7
:10399000806940F01000CD49886100BFCD48406883
:1039A00020F4700040F40000CA49486000BF00BF26
:1039B0004814486100BF00BF00BF086100BF00BFDE
:1039C00000BF00BF00BF00BF00BF00BFBF4880698D
:1039D00040F01000BD49886100BFBE48406820F03B
:1039E000706040F00060BB49486000BF00BF4FF40A
:1039F0008040486100BF00BF00BF086100BF00BF3A
:103A000000BF00BF00BF00BF00BF00BFAF4880695C
:103A100040F01000AD49886100BFAE48406820F01A
:103A2000704040F00040AB49486000BF00BF4FF419
:103A30000040486100BF00BF00BF086100BF00BF79
:103A400000BF00BF00BF00BF00BFA048806940F0BA
:103A500008009E49886100BF9D48001F006820F053
:103A6000704040F040509A49091F086000BF00BFF5
:103A7000802097490C31086000BF00BF00BF00BF25
:103A800000BF00BF00BF9148806940F004008F492B
:103A9000886100BF9048006820F0F00040F03000DE
:103AA0008D49086000BF00BF02208B4910310860BB
:103AB00000BF00BF00BF00BF00BF00BF00BF834802
:103AC000806940F004008149886100BF8248006835
:103AD00020F00F00C01C8049086000BF00BF01201B
:103AE0007D491031086000BF00BF00BF00BF00BFAC
:103AF00000BF00BF7548806940F0080073498861C5
:103B000000BF7348001F006820F4700040F44010AC
:103B10006F49091F086000BF00BF20206C490C31AD
:103B2000086000BF00BF00BF00BF00BF00BF00BFF4
:103B30006648806940F008006449886100BF6448B5
:103B4000001F006820F0F00040F030006049091FBD
:103B5000086000BF00BF02205D490C31086000BF53
:103B600000BF00BF00BF00BF00BF00BF5748806953
:103B700040F004005549886100BF5748001D0068A7
:103B800020F4704040F440505349091D086000BFC4
:103B900000BFC81450491031086000BF00BF00BF0B
:103BA00000BF00BF00BF00BF4848806940F0080068
:103BB0004649886100BF4648001F006820F07060D9
:103BC00040F040704249091F086000BF00BF40201C
:103BD0003F490C31086000BF00BF00BF00BF00BFFD
:103BE00000BF00BF3948806940F00800374988614C
:103BF00000BF3748006820F00F00C01C344908603F
:103C000000BF00BF881532490C31086000BF00BFFB
:103C100000BF00BF00BF00BF00BF2C48806940F05C
:103C200004002A49886100BF2B48001D006820F06D
:103C3000704040F040502849091D086000BF00BF97
:103C40004FF4004024491031086000BF00BF00BF9E
:103C500000BF00BF00BF00BF1C48806940F00800E3
:103C60001A49886100BF1A48001F006820F470409C
:103C700040F440501649091F086000BF00BF0820EB
:103C800013490C31086000BF00BF00BF00BF00BF78
:103C900000BF00BF0D48806940F008000B498861F3
:103CA00000BF0B48001F006820F4702040F4403033
:103CB0000749091F086000BF00BF102004490C31EC
:103CC000086000BF00BF00BF704700000010024046
:103CD000040C0140001001400008014010B51E48CE
:103CE000406820F003001C49486000BF1A48406843
:103CF00000F00C000028F9D1FDF7EEFA4FF4E011C6
:103D00004FF44030FDF7EEFA0120FDF7E5FA00BF71
:103D10001148006800F000700028F9D00E48406893
:103D200040F002000C49486000BF0B48406800F0BA
:103D300008000028F9D001210846FDF741FA0121C9
:103D40000846FDF71DFA01210220FDF719FA0121AD
:103D50000846FDF705FA10BD0010024000B585B019
:103D600001210803FDF72CFA0820ADF80C00002013
:103D7000ADF80800ADF80600ADF80400ADF800009D
:103D8000ADF80E004FF48270ADF802004FF40070F1
:103D9000ADF80A0069460448FDF7BEFA0121024861
:103DA000FDF7AEFA05B000BD0030014010B5024687
:103DB0008C7ECB7E44EA03201378032B05D10C7D47
:103DC0004B7D44EA032340EA034010BD72B6274905
:103DD0008803FDF7BBF962B6FFF712FB00F082FA29
:103DE00001F0ECFCFEF73AFE00F08AFB00F0EEF882
:103DF00041F288311E4801F0D1F91E48006800F4F4
:103E0000807008B900F0F4FC00221146104600F062
:103E10009CF9194C1949204602F09AFA07464FF0CE
:103E2000844102F09FF9064602F05EFA054645F22B
:103E300055501349086003204860084685604AF6DB
:103E4000AA2008604CF6CC40086000BF0CE000F0EF
:103E5000F5F800F035FC00F0A5F800BF4AF6AA20FE
:103E60000749086000BF00BFF1E70000002000081C
:103E7000500B0020080801400000404000401C4753
:103E8000003000403EB5FDF709FE0446144890F8A6
:103E9000DA2014A101A8FCF7D3F901A8FEF780FBF2
:103EA000012C12D100221146104600F04EF90C48A8
:103EB00090F8DC0000900A4890F8DA2090F8D910C9
:103EC00000234FF6FF7000F08FFB022C01D100F0B1
:103ED00061F9042C02D10120044908703EBD0000A4
:103EE0006C0A00202020253264000000840000209D
:103EF00010B503460C4604F001019A8890B200F018
:103F0000ABF819680969084319680861998988B28A
:103F1000C4F3400100F0A0F8996809690843996862
:103F20000861998A88B2C4F3800100F095F8196994
:103F30000969084319690861998B88B2C4F3C00103
:103F400000F08AF89969096908439969086110BD08
:103F5000F0B503461C460D46002000BF161EA2F118
:103F6000010207D014F8017B15F801CBA7EB0C0672
:103F7000301EF3D0F0BD70B503460C4603E014F8D4
:103F8000015B03F8015B151EA2F10102F7D170BDC0
:103F900030B5034601E003F8011B141EA2F1010233
:103FA000F9D130BD10B5FEF777FA0748007810B1A7
:103FB000012806D102E0FFF765FF02E000F0D6FA23
:103FC00000BF00BF10BD0000840000200020034996
:103FD0000870034800880349088070478400002067
:103FE000780000208600002010B5002204A10548BA
:103FF000FEF7F4FA04460CB1012010BD0020FCE7E6
:1040000000000000D00B002070B504460D46E06AA9
:10401000A84210D0204601F0ABFB08B1012070BDD2
:10402000607801232A4604F13001FEF7F3F908B164
:104030000120F4E7E5620020F1E7000010B5054833
:1040400090F8D80000B910BDFDF7DAFF00B1FAE72B
:1040500000BFF8E76C0A00200246002935DD102A6F
:1040600031D2DFE802F0080A0C0E10121416181BE9
:104070001E2124272A2D012070470220FCE704205E
:10408000FAE70820F8E71020F6E72020F4E74020C0
:10409000F2E78020F0E74FF48070EDE74FF4007016
:1040A000EAE74FF48060E7E74FF40060E4E74FF49D
:1040B0008050E1E74FF40050DEE74FF48040DBE74B
:1040C0004FF40040D8E700BF3DE0102A39D2DFE8C6
:1040D00002F0080B0E1114171A1D202326292C2F6D
:1040E00032354FF48030C7E74FF40030C4E74FF467
:1040F0008020C1E74FF40020BEE74FF48010BBE7FB
:104100004FF40010B8E74FF48000B5E74FF400001B
:10411000B2E74FF08070AFE74FF00070ACE74FF0C0
:104120008060A9E74FF00060A6E74FF08050A3E75A
:104130004FF00050A0E74FF080409DE74FF0004067
:104140009AE700BF00BF002096E770B505460E460F
:10415000144631462846FEF7EBFD62B2314628464A
:1041600000F002F870BD000010B5084C84F8D900CA
:10417000234683F8DA10012384F8D830044B1B68F7
:10418000C4F8E030002384F8DC3010BD6C0A002055
:104190009C06002010B50020034981F8D8004FF696
:1041A000FF7000F04DFA10BD6C0A00202DE9F047B9
:1041B00005460E461746022E02D36869B04202D861
:1041C0004FF002088AE02878012804D0022841D064
:1041D00003287DD154E0B14609EB5909286A00EB68
:1041E00059212846FFF710FF8046B8F1000F00D094
:1041F00071E0C9F3080105F130000C1806F0010068
:1042000020B1F9B2207861F31F1000E03846207029
:1042100009F1010901202871286A00EB592128467B
:10422000FFF7F2FE8046B8F1000F00D053E0C9F36B
:10423000080105F130000C1806F0010010B1C7F3B9
:10424000071005E0207800F0F000C7F303210843D1
:10425000207040E0286A00EB16212846FFF7D4FEC4
:104260008046B8F1000F00D035E040F2FF1000EAC0
:10427000460105F130000C182770380A60702AE0FA
:10428000286A00EBD6112846FFF7BEFE8046B8F13B
:10429000000F00D01FE040F2FF1000EA860105F198
:1042A00030000C18E0780006A17840EA01406178FF
:1042B00040EA01202178084300F07040074327704E
:1042C000380A6070380CA070380EE07003E0FFE729
:1042D0004FF0020800BF00BF012028714046BDE832
:1042E000F087000030B585B0002401212C4800F093
:1042F00059F8002000908DF804008DF805004FF467
:10430000602002900020039001208DF81000694683
:104310002348FCF785FD01212148FCF729FD2048B1
:10432000FCF702FE00BF1E48FCF76FFD0028FAD123
:104330001B48FCF709FE00BF1948FCF753FD002895
:10434000FAD10120FCF706FE0523012210211448B2
:10435000FCF78EFD01211248FCF7EBFD002515E06E
:1043600000BF02210E48FCF747FD0028F9D00C4899
:104370004C300068604084B24FF6FF7000EA44049D
:1043800001210748FCF7D5FD681CC5B2322DE7DBDB
:104390000348FCF7F9FC2046FCF716F905B030BDE0
:1043A0000024014070B504460D461048204430B149
:1043B000B0F5806F0AD0B0F5C05F15D10DE0294689
:1043C0004FF40070FCF7FCFE012070BD29464FF44D
:1043D0008060FCF7F5FE0120F7E729464FF4004026
:1043E000FCF7EEFE0120F0E70020EEE700DCFEBF68
:1043F0002DE9F04104460E46022E02D36069B04218
:1044000001D8022727E0002721E031462046FEF7A9
:10441000A3FE054605B91DE0012D01D1022719E0D3
:10442000681C08B9012715E0002231462046FFF735
:10443000BDFE074607B10DE02069401C30B1206980
:10444000401C2061607940F0010060712E46606977
:10445000B042DAD800BF3846BDE8F081014691FA93
:10446000A1F070472DE9F0410646204C2046204936
:104470000A880280897881704FF6FF70A4F80300E3
:104480000120A07105206071E671002526E0681FFB
:10449000184A5043184A02EB4011184801F072F8CC
:1044A0001420FDF705FE002714E0A079C01DC2B25C
:1044B0000E49124801F0AEF803E0FDF7EDFF01F000
:1044C000A9F90E48807C0028F7D13220FDF7F0FDD5
:1044D000781CC7B2052FE8DB681CC5B20A2DD6DBF5
:1044E000304600F0CBF8BDE8F0810000640B0020FE
:1044F000246500082D31010040E3CB33C0080020C3
:1045000010B5154815494860022088607F20088052
:1045100000208870084601F092FB104801F09CFBD7
:104520000D4800880A2805DD05200B4908800B4846
:1045300001F0FFFA08480088401F094A5043094A21
:1045400002EB4011084801F01DF86420FDF7B0FDB2
:10455000054801F07EF810BD78000020A40B002073
:104560002D31010040E3CB33C00800201CB5FDF71E
:1045700095FA04461848028818A16846FBF760FEC1
:104580006846FEF70DF8012C03D113490878FFF7B0
:1045900069FF022C0CD110480088012805DD0E4867
:1045A0000088401E0C49088002E001200A4908806A
:1045B000032C0AD108480088401C07490880084697
:1045C0000088092801DD09200880042C02D1002080
:1045D000044908701CBD00008600002030312532DF
:1045E00064000000840000202DE9F04706460F46D5
:1045F00090469946DDF820A00E4CE51D20460E4958
:104600000A88028089788170A4F8036003206071B1
:104610000620A0712F80A5F8028085F8049085F807
:1046200005A0A079C01DC2B22146044800F0F2FFE7
:10463000BDE8F087640B002024650008C008002056
:1046400070B505460A4C20460A490A8802808978D6
:104650008170A4F80350042060710020A071A0793B
:10466000C01DC2B22146044800F0D4FF70BD000056
:10467000640B002024650008C008002010B5044623
:10468000601F0A4A50430A4A02EB4011094800F0F1
:1046900079FF6420FDF70CFD064800F0DAFF0648BC
:1046A0000480064801F045FA10BD00002D310100DC
:1046B00040E3CB33C008002078000020A40B00208A
:1046C00010B5084800F04AFD10B1074800F0CAFFD5
:1046D000054890F8840118B10021034880F884113E
:1046E00010BD0000480A0020C008002030B5ADF51C
:1046F000177D0546294690A8FEF74BF80446002C86
:104700005ED100BF8AA990A8FEF74BF9044614B900
:104710009DF8310200B94FE02BA10DF23120FBF7DB
:1047200071FF0028EED00DF2312129A0FBF76AFFBE
:1047300090B10020009001220DF2312101A8FDF777
:1047400077FF0446002CDDD10098C2B20DF2312172
:1047500001A800F0DFFCD5E70DF231211FA0FBF727
:1047600051FF90B10020009001220DF2312101A8EB
:10477000FDF75EFF0446002CC4D10098C2B20DF2D2
:10478000312101A800F0C6FCBCE76A4616A10DF273
:104790003120FBF755FE01220DF2312101A8FDF772
:1047A00047FF0446002CADD10098C2B20DF2312172
:1047B00001A800F0AFFCA5E700BF90A8FDF702FF3D
:1047C00020460DF5177D30BD2E42494E00000000F9
:1047D0004D41535445522E42494E0000534C4156D0
:1047E000452E42494E0000005343454E4525640086
:1047F00010B5FFF7F9FB044614B902A0FFF776FFE6
:1048000010BD00002F00000070B505460C460026C4
:1048100045F0400000F02EFD45F040013046FDF728
:10482000C7FA0646200E00F025FD210E3046FDF7A2
:10483000BFFA0646C4F3074000F01CFDC4F307416D
:104840003046FDF7B5FA0646C4F3072000F012FD26
:10485000C4F307213046FDF7ABFA0646E0B200F09C
:1048600009FDE1B23046FDF7A3FA064646F0010025
:1048700000F000FD70BD2DE9F05F83460D46164641
:1048800044F6206906E0FF2000F0F4FC0746FE2F06
:1048900000D104E0B9F10000A9F10109F3D100BF92
:1048A000B9F1000F03DA4FF0FF30BDE8F09F0024AC
:1048B00004E0FF2000F0DEFC2855641CB442F8DB65
:1048C000FF2000F0D7FC4FEA002AFF2000F0D2FCC6
:1048D00040EA0A0A31462846FDF7B7F98046C24544
:1048E00002D04FF0FF30E0E70020DEE770B54FF474
:1048F0007A7508E0FF2000F0BDFC044604F080005B
:1049000008B9204670BD281EA5F10105F2D1FF208F
:10491000F8E770B54FF47A7507E0FF2000F0AAFCC5
:10492000044604F0800000B903E0281EA5F101054B
:10493000F3D100BF002D01DAFF2070BDFF2000F091
:1049400099FC40EA042084B22046F6E770B505469B
:10495000FFF7CCFF0446012C01D0E0B270BDFF2070
:1049600000F088FC0406FF2000F084FC44EA0044C8
:10497000FF2000F07FFC44EA0024FF2000F07AFCD6
:1049800004432C600120E9E72DE9FC4105460020A5
:10499000E860012000F01EFC00BF4FF48050C049C9
:1049A000086000BF002603E0FF2000F063FC761CD7
:1049B0000A2EF9DB00BF4FF48050B949091D086089
:1049C00000BF00210846FFF71FFFFFF78FFF0446D7
:1049D00000F068F900BF4FF48050B149086000BF93
:1049E000FF2C03D14FF0FF30BDE8FC81012C02D039
:1049F0006FF00100F8E700BF4FF48050A849091D8F
:104A0000086000BF4FF4D5710820FFF7FDFE01A834
:104A1000FFF79CFF044600F045F900BF4FF48050BB
:104A20009F49086000BFE86840F00100E860FF2C83
:104A300002D14FF0FF30D7E7012C0AD004F0040078
:104A400020B1E86820F00100E86002E06FF00100AA
:104A5000CAE700BF4FF480509149091D086000BFAC
:104A600000213A20FFF7D0FE6846FFF76FFF0446AB
:104A700000F018F900BF4FF480508949086000BF6A
:104A8000FF2C02D14FF0FF30AEE7012C05D004F02F
:104A9000040010B96FF00100A6E7042006E0012130
:104AA0008140009A114001B102E0401C1728F6DD58
:104AB00000BF172006E001218140009A114001B19A
:104AC00002E0401E0428F6DA00BF00BF4FF47A77F8
:104AD0004FF00008287B00F0010008B14FF080483B
:104AE00000BF00BF4FF480506D49091D086000BF32
:104AF00000213720FFF788FEFFF7F8FE044600F09C
:104B0000D1F800BF4FF480506549086000BFFF2C0A
:104B100002D14FF0FF3067E704F0FE0010B16FF0F4
:104B2000010061E700BF4FF480505D49091D086036
:104B300000BF41462920FFF767FEFFF7D7FE044676
:104B400000F0B0F800BF4FF480505549086000BF36
:104B5000FF2C02D14FF0FF3046E704F0FE0010B109
:104B60006FF0010040E71CB1381EA7F10107B8D172
:104B7000781C10B96FF0010036E7287B00F00100C7
:104B800078B300BF4FF480504549091D086000BF4D
:104B900000213A20FFF738FE6846FFF7D7FE0446AB
:104BA00000F080F800BF4FF480503D49086000BF1E
:104BB000FF2C02D14FF0FF3016E704F0FE0010B1D9
:104BC0006FF0010010E7042006E001218140009A07
:104BD000114001B102E0401C1728F6DD00BF17208C
:104BE00007E012E001218140009A114001B102E08A
:104BF000401E0428F6DA00BF0099C1F3807119B194
:104C0000E96841F00201E96000BF287B00F0020082
:104C100000BB00BF4FF480502149091D086000BF50
:104C2000C1101020FFF7F0FDFFF760FE044600F012
:104C300039F800BF4FF480501949086000BFFF2CBD
:104C400002D14FF0FF30CFE604F0FE0010B16FF05C
:104C50000100C9E600BF4FF480501149091D0860EA
:104C600000BF00213B20FFF7CFFDFFF73FFE0446CA
:104C700000F018F800BF4FF480500949086000BFE9
:104C8000FF2C02D14FF0FF30AEE604F0FE0010B171
:104C90006FF00100A8E6022000F09CFA0020A3E6D5
:104CA0001008014010B5002403E0FF2000F0E2FAF4
:104CB000641C082CF9DB10BD2DE9F04781460C4639
:104CC00017460A26FE2000F0D5FA03E014F8010B7F
:104CD00000F0D0FA381EA7F10107F7D13946204677
:104CE000FCF7B3FF80464FEA282000F0C3FA08F033
:104CF000FF0000F0BFFA06E0FF2000F0BBFA054617
:104D0000FF2D00D003E0301EA6F10106F4D100BF54
:104D1000002E03DA4FF0FF30BDE8F0870C4E05E0BF
:104D2000FF2000F0A7FAFF2800D103E0301EA6F113
:104D30000106F5D100BF002E02DA6FF00100EBE7AB
:104D400005F01F00052801D10020E5E72846E3E72C
:104D5000A08601002DE9F04105460E4617464FF0AA
:104D60000A083A463146284600F00AF904460EE0A1
:104D70002846FFF709FE00B109E0284600F0DEF8FA
:104D80003A463146284600F0FBF8044600BF002CA6
:104D900004DAB8F10000A8F10108E9D12046BDE825
:104DA000F08100007FB5054600BF4FF480501D49DB
:104DB000086000BF00210A20FFF726FDFFF796FDDF
:104DC0000446FF2C0AD100BF4FF480501549091F3B
:104DD000086000BF4FF0FF3004B070BD04F0FE006B
:104DE00048B100BF4FF480500E49091F086000BF52
:104DF0006FF00100F0E7102269462846FFF73BFDFF
:104E00000446FFF74FFF00BF4FF480500549091FCC
:104E1000086000BF601C10B96FF00200DCE70020E2
:104E2000DAE70000140801407FB5044600BF4FF4E4
:104E300080504149086000BF00210920FFF7E4FCD1
:104E4000FFF754FD0546FF2D0AD100BF4FF48050F7
:104E50003949091F086000BF4FF0FF3004B070BD32
:104E600005F0FE0048B100BF4FF480503249091FE1
:104E7000086000BF6FF00100F0E71022694620468D
:104E8000FFF7F9FC0546FFF70DFF00BF4FF4805018
:104E90002949091F086000BF681C10B96FF00200A3
:104EA000DCE79DF80000012101EBA01001281ED1D4
:104EB0009DF806008007000D9DF8071040EA81006C
:104EC0009DF8081040EAA110401C9DF809108907C0
:104ED000490F9DF80A2041EAE211891C88409DF89B
:104EE000051001F00F01093900FA01F60FE0E06842
:104EF00040F00200E0609DF8070000049DF80810F3
:104F000040EA01209DF8091040EA0106B6026660F9
:104F10000120A0609DF80A00C0F3801048B99DF8F8
:104F20000A008006400E9DF80B1040EAE110401C7C
:104F3000A060002092E700001408014070B505460B
:104F400000BF4FF480500D49086000BF00210D20C4
:104F5000FFF75AFCFFF7DDFC0446FFF7A3FE00BF96
:104F60004FF480500549091F086000BF04F4004059
:104F700010B14FF0FF3070BD0020FCE71408014075
:104F80002DE9F04105460E46174600BF4FF480500C
:104F90002249086000BF287B00F0020020B13146A2
:104FA0001120FFF731FC03E071021120FFF72CFC08
:104FB000FFF79CFC0446FF2C09D100BF4FF4805042
:104FC0001649091F086000BF4FF0FF3424E004F0C9
:104FD000FE0048B100BF4FF480501049091F08601F
:104FE00000BF6FF0010417E04FF400723946284605
:104FF000FFF741FC0446FFF755FE00BF4FF4805019
:105000000649091F086000BF601C10B96FF0020458
:1050100002E00020BDE8F0812046FBE714080140D3
:105020002DE9F04105460E4617464FF00A083A466C
:105030003146284600F01CF804460EE02846FFF7EB
:10504000A3FC00B109E02846FFF778FF3A46314655
:10505000284600F00DF8044600BF002C04DAB8F131
:105060000000A8F10108E9D12046BDE8F081000068
:105070002DE9F04105460E46174600BF4FF480501B
:105080002349086000BF287B00F0020020B13146B0
:105090001820FFF7B9FB03E071021820FFF7B4FBFB
:1050A000FFF724FC0446FF2C09D100BF4FF48050C9
:1050B0001749091F086000BF4FF0FF3426E004F0D5
:1050C000FE0048B100BF4FF480501149091F08602D
:1050D00000BF6FF0010419E0FF2000F0CBF84FF49F
:1050E000007239462846FFF7E7FD0446FFF7DAFD70
:1050F00000BF4FF480500649091F086000BF14B17B
:105100006FF0020402E00020BDE8F0812046FBE7DA
:1051100014080140F8B505460E46144600200090DC
:105120002046FDF7D9FC00BF6B464FF480720A4958
:105130002846FDF765FB009828B1009882B2064921
:105140002046FDF787FD00980028EDD13146204626
:10515000FDF7ECFCF8BD0000000E002001460E48F3
:1051600000680860087C18B1012088600020704742
:10517000886828B1CA6808681044486000208860C0
:10518000D1E90002904205D3CA680868104448601B
:105190000120ECE70020EAE79C060020C160002225
:1051A000027401228260002202604260704700BFE8
:1051B00000BF00BF00BF704700BF00BF00BF00BFFF
:1051C0004FF400500249086000BF00BF7047000064
:1051D000100C01407047000070B5044600252DE01A
:1051E00000BF00BF4FF400501649086000BF00BF69
:1051F00000BF04F0800028B100BF4FF40040091F39
:10520000086005E000BF4FF400400E49086000BF91
:1052100000BFFFF7CCFF00BF00BF4FF400500949AB
:10522000091F086000BF00BFFFF7C1FF05480C3829
:105230000068C0F3803040EA44046D1C082DCFDBC9
:10524000E0B270BD140C01402DE9F04104460E4659
:105250002746254607E095F800804046FFF7BCFF4B
:1052600005F8010B00BF301EA6F10106F3D1384648
:10527000BDE8F08170B504462046FFF7ADFFC5B22A
:10528000284670BD70B504460D46264603E016F864
:10529000010BFFF7A1FF281EA5F10105F7D170BD95
:1052A00081760B0AC3760A0C02750B0E43757047A4
:1052B00070B504460D466068C068A168884361689F
:1052C000C8600220FCF706FF2946206800F039F884
:1052D0005521206800F035F806466068C068A1686E
:1052E00008436168C8600220FCF7F4FE304670BDD8
:1052F0002DE9F0410446884616461F466068C0689E
:10530000A16888436168C8600220FCF7E3FE41465B
:10531000206800F016F8002506E05521206800F00E
:1053200010F87055681CC5B2BD42F6DB6068C068F5
:10533000A16808436168C8600220FCF7CBFEBDE8A5
:10534000F0810246918100BF108900F00100002821
:10535000FAD09089C0B2704770B504460D46164623
:105360006068C068A16888436168C8600220FCF773
:10537000B1FE45F080012068FFF7E3FF3146206869
:10538000FFF7DFFF6068C068A16808436168C86014
:105390000220FCF79FFE70BD2DE9F04104460E4649
:1053A000174698466068C068A16888436168C8600D
:1053B0000220FCF78FFE46F080012068FFF7C1FF56
:1053C000002505E0795D2068FFF7BBFF681CC5B2CA
:1053D0004545F7DB6068C068A16808436168C8603C
:1053E0000220FCF777FEBDE8F0812DE9F047044686
:1053F0000D46286908B9BDE8F087A868A06068680C
:10540000606028682060002201212046FFF7A4FF89
:10541000802201212046FFF79FFF702304F115022F
:1054200001212046FFF764FF286AE060E06800F091
:105430007BFF8046286900F077FF8146414600F0F7
:1054400091FE07464FF09241384600F081FF074633
:10545000384600F049FF0646310CA176310AE17664
:1054600026773220005D20F0F00132200155005DEA
:10547000A97E40EA0110C1B2322001553120005D01
:1054800020F00E0131200155005D297E40EA4100E7
:10549000C1B231200155005D20F0F00131200155ED
:1054A000005DE97D40EA0110C1B231200155687EFE
:1054B000012806D13120005D40F001013120015565
:1054C00005E03120005D20F0010131200155FF2170
:1054D00084F8371084F83610A88B010A84F8341049
:1054E000297F84F8351094F83A0040F0040184F8DC
:1054F0003A103220005D20F0030132200155005D9A
:1055000040F0030132200155FF2133200155607F17
:1055100020F07F016177607F697D40EA011060774C
:10552000607FA97D08436077287D012804D1607FD2
:1055300040F08001617703E0607F20F080016177B7
:10554000702304F1150201212046FFF725FF607D3D
:1055500040F001016175627D01212046FFF7FCFEEC
:105560000A20FCF7A5FDFF2212212046FFF7F4FEDA
:10557000002184F8851184F884110020207460745F
:1055800000BF38E72DE9F04704460E46677D27F057
:1055900007073A4601212046FFF7DEFE0A20FCF706
:1055A00087FDE06800F0C0FE8146304600F0BCFE9A
:1055B0008246494600F0D6FD80464FF09241404673
:1055C00000F0C6FE8046404600F08EFE0546290CDF
:1055D000A176290AE1762577032304F11A02062130
:1055E0002046FFF7D9FEBDE8F08770B504460D46AA
:1055F00001212046FFF75CFE6075607D20F0070109
:105600006175607D28436075627D01212046FFF74A
:10561000A3FE70BD70B504460D461646207C60742E
:105620000220207480220D212046FFF795FE33468C
:105630002A4600212046FFF7AFFE324622212046AF
:10564000FFF78AFE0120A07403212046FFF7CDFF5B
:1056500070BD10B504460120207405212046FFF7D7
:10566000C4FF10BD2DE9FE4F044612212046FFF76E
:105670001FFE814609F00800B0B1607C30B1052101
:105680002046FFF7B2FF0120207401E000202074C3
:105690000020A07400220D212046FFF75DFE0822A5
:1056A00012212046FFF758FE09F04000002850D094
:1056B000402212212046FFF74FFE04F1850A1321F4
:1056C0002046FFF7F5FD064684F885611021204647
:1056D000FFF7EEFD02900D212046029AFFF73CFEF7
:1056E00007E000212046FFF7E3FD0AF8010B701EDA
:1056F000C6B2002EF5D11A212046FFF7D9FD834608
:1057000019212046FFF7D4FD45B2584600F019FC98
:105710000746154A154B00F027FCCDE9000100F0C3
:10572000E3FB00F0FF0B002D05DBCBF19C0041B249
:1057300084F886110AE02846E91705EB9171CBF150
:105740009C02A2EBA1014AB284F88621012184F8CF
:10575000841109F0800028B105212046FFF745FF9C
:1057600001202074BDE8FE8FF6285C8FC2F5F03F63
:1057700070B504462079F8B1E56A607801232A46BD
:1057800004F13001FCF76CFE08B1012070BD00206F
:105790002071206A281AA16988420DD2E67809E0B2
:1057A000A0690544607801232A4604F13001FCF722
:1057B00057FE761E022EF3D20020E7E730B51249DD
:1057C000B1F1807F00D31DE021F07F40401E4FF0FB
:1057D000E022506150170F22002807DA13071D0E30
:1057E0000A4B00F00F04241F1D5503E013071C0E85
:1057F000074B1C5400BF00204FF0E02290610720AF
:10580000106100BF30BD00004019010018ED00E03C
:1058100000E400E010B50448FFF7A0FC10B1034815
:10582000FFF720FF10BD0000480A0020C00800203C
:1058300010B5044604F11400FDF7DFF810BD0000B8
:105840007FB504460D462068FBF7D4FE204600F0E5
:1058500067F82046FFF7ECFF094B0FCB8DE80F00F0
:10586000009569462068FBF713FF204600F00AF810
:1058700001212068FBF7A8FE204600F033F87FBD29
:105880001465000810B58CB0044601224021206840
:10589000FBF7A6FE2C22084901A8FAF72EFF206884
:1058A000001D0190A0680290E068049001A9606862
:1058B00000F004F80CB010BDE864000870B50446B0
:1058C0000D4601210846FBF74BFC2046FBF76EFB1B
:1058D00029462046FBF710FC01212046FBF75AFB26
:1058E00070BD000010B504460C492068084448B15A
:1058F000B0F5806F0AD0B0F5744F0BD12520FBF7BF
:1059000019FC08E02620FBF715FC04E02720FBF734
:1059100011FC00E010BD00BF00BFFBE700BCFFBFF3
:1059200010B5044610492068084450B1B0F5806FA6
:105930000CD0B0F5744F0ED101218803FBF740FC69
:105940000AE001214804FBF71BFC05E00121880463
:10595000FBF716FC00E010BD00BF01210846FBF775
:105960002FFC00BFF7E7000000BCFFBF10B50446E6
:10597000002127200155242001552520015520888C
:1059800000F0A9F910B9012127200155208800F065
:10599000EFF9E060208800F0DDF92061D4E9031020
:1059A000411AA0680830814202D201212420015509
:1059B000207A00F0010010B1012125200155272097
:1059C000005D28B92420005D10B92520005D20B1BC
:1059D000002129200155002010BD01212920015559
:1059E0000120F9E701462920405C08B900207047F2
:1059F000CA6808E01068401C20B1002326204354E8
:105A00000020F4E7121D0869401C9042F2D80122E0
:105A1000262042540120EAE701462920405C08B9CB
:105A2000002070478A684869104408300A6990422B
:105A300004D90122282042540120F2E74A690AE0F1
:105A400010884FF6FF73984204D001232820435456
:105A50000120E6E7921C8B684869184408309042A0
:105A6000EED80022282042540020DAE72DE9F04148
:105A700004462920005D10B90020BDE8F0812046D1
:105A8000FFF7B0FF0021202001552620005D0028EF
:105A900031D1E56816E001222846A168FCF7F7F845
:105AA0000646A06828444768BE4207D1A561A068A1
:105AB0002858E06101212020015500E008E0A0689D
:105AC00008300544A1682069401A0838A842E2D885
:105AD00000BF2020005D28B1A168A06908440830FB
