:020000040800F2
:100000003832002091020008990200089B02000883
:100010009D0200089F020008A102000800000000E5
:10002000000000000000000000000000A302000823
:10003000A502000800000000A702000851240008E3
:10004000AB020008AB020008AB020008AB020008DC
:10005000AB020008AB020008AB020008AB020008CC
:10006000AB020008AB020008AB020008891F0008C1
:10007000AB020008AB020008C91F0008AB02000871
:10008000AB02000809200008AB020008AB02000820
:10009000AB020008AB020008AB020008AB0200088C
:1000A000AB020008AB020008AB020008AB0200087C
:1000B000AB020008AB020008AB020008AB0200086C
:1000C000AB020008AB020008AB020008AB0200085C
:1000D000AB0200083D28000885280008AB02000894
:1000E000AB020008AB020008AB02000800F002F807
:1000F00000F0B2F80AA090E8000C82448344AAF110
:100100000107DA4501D100F0A7F8AFF2090EBAE80D
:100110000F0013F0010F18BFFB1A43F0010318473B
:10012000FC5600001C5700000A444FF0000C10F869
:10013000013B13F0070408BF10F8014B1D1108BF65
:1001400010F8015B641E05D010F8016B641E01F805
:10015000016BF9D113F0080F1EBF10F8014BAD1C55
:100160000C1B09D16D1E58BF01F801CBFAD505E073
:1001700014F8016B01F8016B6D1EF9D59142D6D3CD
:10018000704700000023002400250026103A28BFF5
:1001900078C1FBD8520728BF30C148BF0B607047F9
:1001A0006E2900F01F82702900F05583662905F042
:1001B000B082652905F0AD82672905F0AA82612920
:1001C00005F0A98203681B0A28BF41F08001692954
:1001D00000F0CC81642900F0C981752900F0C68146
:1001E0006F2900F0E282782900F02183E92900F0EC
:1001F0007D82E42900F07A82F52900F07782EF29E8
:1002000000F0DF82F82900F020830368DB0928BFB3
:1002100041F08001632901F06780732901F06C804F
:10022000E32901F07780F32901F07C8000207047FA
:100230001FB500F068F801F0C7F8040000200021A5
:1002400004F062FE401C60600020002104F046FEC5
:10025000E0601FBD10B510BD01F089F81146FFF731
:10026000E7FF03F075FC01F065F903B4FFF7F2FF57
:1002700003BC01F069F90000EFF31080704780F3D0
:1002800010887047EFF31080704780F31088704734
:100290000948804709480047FEE7FEE7FEE7FEE71A
:1002A000FEE7FEE7FEE7FEE7FEE7FEE70448054956
:1002B000054A064B70470000C9240008ED000008FD
:1002C000381A002038320020382A0020382A00202E
:1002D0000B460146184600F099B900000B4910B5CD
:1002E000A1F17C020A4CC2E93712372106E000EB8B
:1002F000104342F82130074B00FB03400B1EA1F1D5
:100300000101F4DC10BD0120E8E700006C190020B9
:10031000E119D666CD0D010040EA010310B59B0737
:100320000FD1042A0DD310C808C9121F9C42F8D05F
:1003300020BA19BA884201D9012010BD4FF0FF3010
:1003400010BD1AB1D30703D0521C07E0002010BD26
:1003500010F8013B11F8014B1B1B07D110F8013BB2
:1003600011F8014B1B1B01D1921EF1D1184610BD93
:10037000032A40F2308010F0030C00F0158011F8D1
:10038000013BBCF1020F624498BF11F801CB00F8A9
:10039000013B38BF11F8013BA2F1040298BF00F8FD
:1003A00001CB38BF00F8013B11F0030300F02580BA
:1003B000083AC0F0088051F8043B083A51F804CBE1
:1003C000A0E80810F5E7121D5CBF51F8043B40F8A7
:1003D000043BAFF30080D20724BF11F8013B11F8B2
:1003E00001CB48BF11F8012B24BF00F8013B00F8F6
:1003F00001CB48BF00F8012B704710B5203AC0F080
:100400000B80B1E81850203AA0E81850B1E8185015
:10041000A0E81850BFF4F5AF5FEA027C24BFB1E852
:100420001850A0E8185044BF18C918C0BDE81040C3
:100430005FEA827C24BF51F8043B40F8043B08BFCC
:100440007047D20728BF31F8023B48BF11F8012B93
:1004500028BF20F8023B48BF00F8012B70474FF03F
:1004600000020429C0F0128010F0030C00F0C482D6
:10047000CCF1040CBCF1020F18BF00F8012BA8BF8F
:1004800020F8022BA1EB0C0100F0B6BA5FEAC17CA8
:1004900024BF00F8012B00F8012B48BF00F8012B06
:1004A000704770477047704770B5044685690068AB
:1004B000C10601D5302600E02026C00707D070BD58
:1004C000D4E9012130469047206A401C20626D1E0D
:1004D000F6D570BD70B5044685690078C00707D1B0
:1004E00070BDD4E9012120209047206A401C206281
:1004F0006D1EF6D570BD09684A0501D540B270473A
:10050000C905FCD500B2704709684A0501D5C0B2DB
:100510007047C905FCD580B2704770B50C460546DA
:10052000012A05D02878800600D5EA69002302E078
:10053000012305E05B1C934202D2E05C0028F9D164
:10054000A869E618C01AA861286A184428622846D3
:10055000FFF7AAFF04E0D5E9012114F8010B904749
:10056000B442F8D32846FFF7B5FF70BD2DE9F0413E
:100570000646002410687529314616A510D0FFF7ED
:10058000BAFF002802DA404213A507E031688A0763
:1005900001D512A502E0490704D511A5012401E007
:1005A000FFF7B2FF00210A2206F1240709E0B0FBA1
:1005B000F2FCB0FBF2F302FB1C003030785418461A
:1005C000491C0028F3D123462A463046BDE8F041B5
:1005D00000F081BA000000002D0000002B00000098
:1005E0002000000011680268006A530501D50870F8
:1005F0000AE0D30501D5088006E0130603D5C2172B
:10060000C1E9000200E0086001207047074B70B5A7
:100610000D467B4400F04BFE0446284602F030FBBA
:1006200010B14FF0FF3070BD204670BDE3270000D1
:100630002DE9FF5F15468A460446DFF8AC80F84492
:100640000027D8E900103E46CDE9001010E03AF846
:1006500016106A4602A800F069FE411C07D02178F6
:10066000890603D5E269391891420DD80744761CF2
:100670002078800602D5E069B84205DDAE42E6DBAF
:100680003AF816000028E2D1A069C01BA0612046FC
:10069000FFF70AFFD8E90010CDE90010002017E0AD
:1006A0003AF818106A4602A800F040FEB0F1FF3F89
:1006B00081460BD000250DF1080B05E0D4E901219E
:1006C0001BF8050090476D1C4D45F7D308F101005C
:1006D000B0428046E4DB206A384420622046FFF7BF
:1006E000F9FEBDE8FF9F0000DE5000002DE9F0415B
:1006F0008046D21D22F007020025D2E90002F5292A
:1007000015A614D0011E72F1000106DA0023D0EB09
:10071000030063EB020211A608E0D8F800108B0773
:1007200001D50FA602E0490701D50EA60125114605
:10073000002408F1240704E000F088F930323A552B
:10074000641C50EA0102F7D12B463246214640464E
:10075000BDE8F04100F0BFB9000000002D0000002E
:100760002B0000002000000030B4002100F1240420
:1007700008E002F00705D208303542EA4372DB0890
:100780006554491C52EA0305F3D10468002310A202
:10079000250707D5A40600D421B1C46901230DA201
:1007A000641EC46130BC00F096B910B50446214601
:1007B0001068FFF7A9FE02462046BDE8104000235E
:1007C000D2E7D21D22F00701D1E90023CCE70000D7
:1007D0000000000030000000F0B40D46018809055B
:1007E00002D5214C7C4402E01F4C7C440E34002195
:1007F00000F1240608E002F00F071209E75D42EA63
:1008000003721B097754491C52EA0307F3D102789B
:100810000023120704D5702D06D009B1022311342C
:100820002246F0BC00F057B901231034F8E770B548
:1008300004460D4621461068FFF766FE024629462B
:100840002046BDE870400023C6E7D21D22F0070312
:10085000D3E90023C0E70368126843F02003036074
:100860000823C3610023B7E7404F00002DE9F05F84
:10087000894604464FF0000ADFF874B1FB44C0F823
:1008800020A02046E1688847002874D0252806D09B
:10089000D4E901219047206A401C2062F1E700263C
:1008A0005F462046E16888472028054607DB312D52
:1008B00005D2781910F8200C08B10643F1E7B0070B
:1008C00001D526F00406C4F81CA00027C4F818A01F
:1008D0002A2D09D0284602F00DF838B304EB87081A
:1008E000303DC8F8185019E059F8041B204604EBB5
:1008F00087029161E1688847012F054618D1E069B8
:10090000002820DA26F020061DE0D8F8180000EBB9
:10091000800005EB40003038C8F818002046E16838
:100920008847054601F0E6FF0028EED1012F0AD0E6
:100930002E2D08D12046E16888477F1C0546022FEE
:1009400046F02006C4DBA069002803DA404246F0E6
:100950000106A061F00701D026F010066C2D0BD027
:10096000682D09D04C2D39D06A2D35D0742D35D055
:100970007A2D33D016E038E0E1682F4620468847CC
:10098000B842054609D16C2F26D04FF48060E1684B
:10099000064320468847054604E06C2F1AD04FF4E2
:1009A000807006430DB3A5F14100192802D8203507
:1009B00046F400664A462946204626604E46FFF722
:1009C000EFFB80B101280BD0F61D26F0070000F1E7
:1009D000080956E74020E4E78020D8E70020D6E762
:1009E00006F104094DE7284652E7206ABDE8F09F6A
:1009F000D04E00004FF0000200B5134694469646D4
:100A0000203922BFA0E80C50A0E80C50B1F1200121
:100A1000BFF4F7AF090728BFA0E80C5048BF0CC0CF
:100A20005DF804EB890028BF40F8042B08BF70472D
:100A300048BF20F8022B11F0804F18BF00F8012B9F
:100A40007047000000487047D419002030B5B0F15D
:100A50000A024FEA900E71F100034EEA817EB0EB7C
:100A60000E0061EB91014FEA101E4EEA017E10EB81
:100A70000E0041EB11114FEA102E4EEA016E10EB01
:100A80000E0041EB11214FEA104E4EEA014E10EBE1
:100A90000E0041EB1141401841F100014FEAD00036
:100AA00040EA41704FEAD10110EB80054FEA810422
:100AB00044EA907444EB01046D1944EB0404521BA6
:100AC000A3414FF0000348BF0A3200D530BD401C9F
:100AD00041F1000130BD2DE9F0470D46994692469F
:100AE000044600F124080168880604D5E06921F075
:100AF0001001216000E00120A84201DD471B00E059
:100B00000027A1697A1902EB0900081AA061207870
:100B1000C00602D42046FFF7C7FC002608E0D4E94F
:100B200001211AF806009047206A401C761C2062BA
:100B30004E45F4DB2078C0060AD52046FFF7B4FC0A
:100B400006E0D4E9012130209047206A401C206251
:100B5000381EA7F10107F4DC07E0D4E9012118F8F9
:100B600005009047206A401C2062281EA5F101055F
:100B7000F3DC2046FFF7AEFC2078000602D5022009
:100B8000BDE8F0870120FBE770472DE9FF4F0C46D9
:100B90001E464FF0FF378BB0D2E90001DDF86080D0
:100BA0000A908A46C1F30A5505B93D460021084618
:100BB0004FF00000BAF1000F00F4400005DA00EB3E
:100BC00080004FF4400101EA50004FEA9059B9F11A
:100BD000010F00DDB9460A9850EA4A000ED044F6EB
:100BE0001050A5F2FF3545432F14B8F1000F1ED069
:100BF0007542291E1EDDC9F100021CE0B8F1010F8B
:100C00004FF0000001D0302103E0F24305E0215411
:100C1000401CB042FBDB30460022002121540B99DE
:100C2000C1F80880C1E900200FB0BDE8F08FBD1BFE
:100C30006D1CDEE74A4600DA694206A800F008FCAF
:100C400006AB93E8070003AB83E8070050460A9918
:100C500000F0C0FC8DE80700A0F500501F380090A0
:100C60000398002D0ADD42F21F014A460844002382
:100C700003A90390684600F029FF09E0A0F50050A1
:100C80004A461F38002303A90390684600F033FF4B
:100C90008DE807000004000C03D04FF0FF3041083E
:100CA00000E01046B8F1000F03D000220092154674
:100CB0001EE0751E05D4FFF7C9FE303262556D1E69
:100CC000F9D5B3460122084302D000227F1C04E07C
:100CD0002078302801D100227F1E002A099784D075
:100CE0001DE0112D07DAFFF7B1FE303262556D1CA1
:100CF00050EA0102F5D1084302D00098C8B10EE0D5
:100D00000021681E05E0235C625C63542254401E8F
:100D1000491C8142F7DBAB46A81B401E099000200E
:100D200004F80B000B98099AC0F80880C0E9002B62
:100D30007AE711264FF0000857E72DE9F04F884673
:100D40000446D21D22F0070191B0D1E90001CDE99E
:100D50000A0101F0BBFD02460B98C00F01D02D2007
:100D600007E02068810701D52B2002E0202101EA5D
:100D7000C000032A099001D0072A05DB034641463B
:100D8000204600F025FB0BE12078800601D5E069C4
:100D900000E00620B8F1650F814606D0B8F1660F75
:100DA00018D0B8F1670F70D131E00020B9F1110F00
:100DB000009001DB112301E009F101030AAA01A956
:100DC0000CA8FFF7E2FEDDE90C70002609F1010531
:100DD000834647E001204B4600904FF000470AAAA7
:100DE00001A90CA8FFF7D1FEDDE90DB00C995D4615
:100DF000002610B909F101000D18B9EB050003D464
:100E0000C0F1FF3609F10105A5EB09002BE0B9F1AE
:100E1000010F01DA4FF001090020B9F1110F009024
:100E2000484601DD112300E003460AAA01A90CA8E7
:100E3000FFF7ABFEDDE90C704D46002683462078B7
:100E400000070AD4AB4500DA5D4601A8012D04DD98
:100E5000411911F8011C302907D04F4502DA17F16A
:100E6000040F04DA012082460FE06D1EEEE7002F2A
:100E700002DCED1B3E4403E0781CA84200DD7D1C33
:100E8000B81B00F1010A4FF000472078000703D497
:100E9000AA4501DB4FF0FF3A0021B7F1004F0DF1F9
:100EA00043088DF8431024D002202B23002F01DAB1
:100EB0007F422D230A21021EA0F1010000DC5FB158
:100EC00097FBF1FC97FBF1F201FB1C7C17460CF140
:100ED000300C08F801CDEEE7A8F10100037021887D
:100EE000090501D5452100E06521A0F1010800F8C0
:100EF000011C09980FA9A1EB0807FF1D00B10120F3
:100F0000411901EBEA70A1693844081A401EA0613A
:100F10002078C00602D42046FFF7C6FA099828B107
:100F2000D4E901219047206A401C20622078C00645
:100F300022D52046FFF7B8FA1EE0002E04DBB345A9
:100F400002DD01A8805D00E03020D4E90121904756
:100F5000206A401C2062761CAAF101005FEA000AA8
:100F60000AD100F031FAC0680168405CD4E901217F
:100F70009047206A401C2062281EA5F10105DCDC98
:100F800007E0D4E9012118F8010B9047206A401CC2
:100F90002062381EA7F10107F3DC2046FFF79AFA1A
:100FA000032011B041E600002DE9F04F04460D4644
:100FB000D21D22F0070089B0D0E900974846394693
:100FC00001F084FC0246F80F01D02D2307E02068D1
:100FD000810701D52B2302E0202101EAC0038DF80F
:100FE00020300BB1012000E00020032A824601D00E
:100FF000072A04DB2946204600F0EAF93FE1207881
:10100000800601D40D2500E0E569C7F30A560D2DD1
:1010100049DA00214FEA175B08464FF00000002F25
:1010200000F4400007DA00EB80004FF4400100EBD1
:10103000D07001EA60008115012901DD4FF0FF3118
:1010400000224FEA850CBCF1180F06D31346ACF111
:1010500018004FF08052C24003E04FF4801323FA8F
:101060000CF30CF10C0CBCF1200F04D3ACF1200CF0
:1010700009FA0CF001E007FA0CF000294FF00048E3
:1010800001DD18B90FE00ED140450CD319EB020970
:101090005F4121B9404502D19F4329EA0209BBEBD8
:1010A000175F00D0761C2088000502D57B48784465
:1010B00002E07A487844193808AA302302F80A3046
:1010C000037C0AF10101002E0AF1020A53546A4618
:1010D00002DC4FF0300101E04FF031014FF0010828
:1010E0008DF8001002D0A6F2FF3603E059EA47015E
:1010F00000D06B4E002D02DC2178090704D54FF09B
:1011000002082E218DF80110C44600210BE0C7F320
:1011100003433F01C35C491C6D1E02F808300529DA
:1011200008F1010801DA002DF1DC00210CE000EBF0
:101130001973491C1B786D1E082902F808304FEA04
:10114000091908F1010801DA002DF0DC21688B068D
:1011500002D516E0A8F10108E04505DD02EB080321
:1011600013F8013C302BF5D0B8F1000F09DD02EB8C
:10117000080313F8013C2E2B03D1090701D4A8F171
:101180000108002D05DD3E2102F808106D1E08F152
:101190000108407C002E02F8080008F1010804DA7A
:1011A0002D20764202F8080002E02B2002F8080009
:1011B0000A214FF47A70864208F101080BDB96FB96
:1011C000F0F3303302F8083096FBF0F308F1010831
:1011D00000FB136601E0642E0CDB642096FBF0F349
:1011E000303302F8083096FBF0F308F1010800FBF9
:1011F000136601E00A2E06DB96FBF1F0303002F8B0
:10120000080008F1010896FBF1F001FB1060303096
:1012100002F80800A16908F1010808EB050202EBD9
:101220000A00081AA0612078C00602D42046FFF701
:101230003BF9216A08AE01EB0A00206204E0D4E920
:10124000012116F8010B9047BAF1010AF7D2207874
:10125000C00602D52046FFF727F96E4609E016F8CA
:10126000010B3E280FD0D4E901219047206A401C91
:101270002062B8F10108F2D22046FFF72BF909B03D
:101280000320BDE8F08F206A2844206203E0D4E9FF
:101290000121302090476D1EEBD3F8E7C2460000D5
:1012A00002FCFFFF01694A1C02610878704700B523
:1012B0008FB0CDE901310021059105497944CDE98F
:1012C000031011466846FFF7D1FA0FB000BD0000C9
:1012D000E5FFFFFF10B5436913B1AFF3008001E0F4
:1012E000FFF71BF9012010BD127800F124010A70EC
:1012F00000224A700122EDE711684FF0FF32E9E762
:1013000010B5436913B1AFF3008001E0FFF790F926
:10131000012010BD128800F1240182840022C284C1
:101320000122EDE711684FF0FF32E9E770B516468C
:101330000C46054600F040F8036893F801010128C7
:1013400006D0FF2C0FD8185D68B101202C7070BD3D
:10135000D3F807013246214603F207130344284617
:10136000BDE8704018474FF0FF3070BD70477546BC
:10137000FFF768FBAE4605006946534620F00700BC
:10138000854618B020B5FEF791FFBDE820404FF02C
:1013900000064FF000074FF000084FF0000B21F05F
:1013A0000701AC46ACE8C009ACE8C009ACE8C0092C
:1013B000ACE8C0098D46704710B500F005F8001D77
:1013C00010BD00BF453B000000487047F4190020E5
:1013D0002DE9F0411F46044603260168072A01F45F
:1013E000006004DB08B116A505E016A503E008B10E
:1013F00015A500E015A521F010002060A069C01E11
:10140000A0610FB1401EA0612046FFF74DF84FB11B
:10141000D4E9012138469047206A401C2062C01C54
:10142000206206E0206AFAE7D4E9012115F8010BF1
:101430009047761EF8D22046FFF74CF8BDE8F081C1
:101440004E414E006E616E00494E4600696E660068
:101450002DE9F047814616468AB0354878440DC8D4
:101460008DE80D0032487844801C03AC0DC884E838
:101470000D0041F69B300844372190FBF1F290FBC0
:10148000F1F5A5F1800501FB12041B3C02D5644275
:10149000012000E00020DFF898A080460027FA44F1
:1014A000AAF1BE0A0EE0E0070AD03246684607EB12
:1014B000470101230AEB810100F01DFB8DE80700C5
:1014C00064107F1C002CEED1194F7F44AE3F19E011
:1014D000E80715D007EB04100DF1180A90E80E008C
:1014E0008AE80E00C068F04201D19819089032468F
:1014F000012306A903A800F0FEFA03AB83E8070066
:101500006D10641C002DE3D14FF001033246694693
:10151000B8F1000F03A802D000F0D8FA01E000F003
:10152000EAFAC9E90001C9F808200AB0BDE8F08765
:10153000A443000010B50446AFF300802046BDE888
:101540001040FEF792BE000001491820ABBEFEE736
:10155000260002004FF0013C50F8042B51F8043BE8
:101560009A4221D1A2EB0C03934313EACC1317D177
:1015700050F8042B51F8043B9A4215D1A2EB0C030E
:10158000934313EACC130BD150F8042B51F8043BCE
:101590009A4209D1A2EB0C03934313EACC13DBD09C
:1015A0004FF00000704700BFD01A01BAB1FA81F1C4
:1015B00001F0180122FA01F0CB40C1F12001DBB2A9
:1015C000C0B2C01A2CFA01F3D11A914311EAC31127
:1015D000E6D170475FEA400C08BF91F0000F4FEA78
:1015E0008C234FEAC12243EA51514FEA1C5018BFE5
:1015F00000F5F0404FEA300018BF41F000415FEACB
:101600006C5C00F02980BCF1FF3F08BF40F08040D7
:101610007047130C06BF12044FF0100C4FF0000C73
:10162000130E04BF12020CF1080C130F04BF1201B9
:101630000CF1040C930F04BF92000CF1020CD30FB9
:1016400004BF52000CF1010C11464FF00002A0F152
:101650001F00A0EB0C00704711F0004F08BF70474F
:1016600031F000413FF4D5AF0B0C06BF09044FF039
:10167000100C4FF0000C0B0E04BF09020CF1080C0B
:101680000B0F04BF09010CF1040C8B0F04BF890080
:101690000CF1020CCB0F04BF49000CF1010CCCF192
:1016A0002003A0EB0C0022FA03F302FA0CF241EA49
:1016B000030100F10100704720F07F4C80EA030035
:1016C00023F07F47ACEB070303F57C5300F00040A9
:1016D00003F1FF032DE980494FEA154B09B44FEAA6
:1016E000144325EA0B4E24EA03480FF2042606EBC6
:1016F000132749083E785FEA320203FB0667C7F505
:10170000000707FB06F64FEA54374FEAD64606F1C4
:10171000020607FB066CCCF1005C4FEA1C472CEA82
:10172000074C07FB06F40CFB06F504EB15464FEAE5
:10173000961634BF00204FF000404FEAD13706FB29
:1017400007FC4FEA1C4C0CFB0BF7D21B03FB0CF7FE
:1017500061EB07010CFB0EF7B0EB074072EB174291
:101760000CFB08F734BFA2EB0742B2EB074261EB78
:1017700017414FEA0C444FEA910706FB07FC4FEA7A
:101780001C4C0CFB0BF7B0EBC74072EB573203FB62
:101790000CF734BFA2EBC742B2EBC74261EB573143
:1017A0000CFB0EF7B0EBC70072EB57720CFB08F79F
:1017B00034BFA2EBC702B2EBC70261EB5771039FC4
:1017C0004FEA816141EA921104EBCC044FEAD13730
:1017D0004FEA826206FB07FC42EA90124FEA806001
:1017E0004FEA1C4C0CFB0BF7D21B03FB0CF761EB15
:1017F00007010CFB0EF7B0EB074072EB17420CFB36
:1018000008F734BFA2EB0742B2EB074261EB174186
:101810004FEA8C554FEA910704EB9C2406FB07FC2A
:101820004FEA1C4C0CFB0BF7B0EBC74072EB573286
:1018300003FB0CF734BFA2EBC742B2EBC74261EB2C
:1018400057310CFB0EF7B0EBC70072EB57720CFB75
:1018500008F734BFA2EBC702B2EBC70261EB5771C6
:1018600015EB4C254FEA816141EA92114FEA826201
:101870004FEAD13742EA901206FB07FC44F100041C
:101880004FEA80604FEA1C4C0CFB0BF7D21B03FBAA
:101890000CF761EB07010CFB0EF7B0EB074072EBA6
:1018A00017420CFB08F734BFA2EB0742B2EB07422A
:1018B00061EB174115EB1C154FEA813141EA92416A
:1018C0004FEA823242EA90424FEA80304FEA0C7689
:1018D00044F1000448EA03434EEA0B484FF0000E7F
:1018E000B2EB080C71EB030724BF624639464EEB9E
:1018F0000E0E4FF0000B0018524149414BEB0B0B01
:10190000B2EB080C71EB03077BF1000B24BF6246BE
:1019100039464EEB0E0E4FF0000B00185241494174
:101920004BEB0B0BB2EB080C71EB03077BF1000BDD
:1019300024BF624639464EEB0E0E51EA020718BF2D
:1019400046F0010616EB0E7655F1000254F1000147
:1019500003D5BDE88901BDE80088BDE88901BDE87F
:101960000048B619524141EB0101A3F10103704750
:1019700080807F7E7D7C7B7A7978777676757473CC
:10198000727171706F6E6E6D6C6C6B6A6A6968688B
:10199000676666656464636362616160605F5F5E21
:1019A0005E5D5D5C5C5B5B5A5A5959585857575697
:1019B00056555555545453535252525151505050FC
:1019C0004F4F4F4E4E4D4D4D4C4C4C4B4B4B4A4A4E
:1019D0004A49494948484847474747464646454592
:1019E00045444444444343434342424242414141CB
:1019F000002B9C4630D477002BD01CB54FEA37071C
:101A000003B44FF010004FF01001BAF1000F06D0F0
:101A1000BCF1000FDCBF40F0080040F008014FF0BF
:101A200000000FBCBDE810400BF1010BBBF1010F32
:101A300008BF5FEA170722BF12F1010211F101018D
:101A40004FF0004143F1000300F0004043EA000082
:101A50007047F9D35708D0E746EA064613F1400F1E
:101A60004FEA16461FDD13F1200FDFBF16430A466B
:101A7000002120335B42BED0C3F1200746EA064670
:101A800002FA07F74FEA164646EA0706C3F12007AF
:101A900022FA03F201FA07F721FA03F14FF00003EB
:101AA00042EA0702A7E746EA020646EA06464FEA86
:101AB000164646EA0106BCBF46EA0646360C4FF01B
:101AC00000034FF000024FF0000194E72DE9804C35
:101AD0009A46934670B491E8380007C831EA400C42
:101AE00048BF34EA430C03D5FFF7E6FDFFF780FF5C
:101AF000F0BCBDE8008C2DE9804C9A46934670B44A
:101B000091E8380007C810F0804F08BF13F0804FED
:101B100003D100F005F8FFF76BFFF0BCBDE8008CC7
:101B200020F07F4780EA030023F07F4C07EB0C0393
:101B3000A3F57C5300F00040A3F1FE0392F0000FE8
:101B400000F0B38095F0000F00F077802DE9014997
:101B50004FEA11404FEA144621EA004800FB06FC18
:101B600024EA064708FB06F607FB08F800FB07F720
:101B700018EB06484CEB164C4FEA124B18EB074893
:101B80004FEA15464CEB174022EA0B4E0BFB06FCC6
:101B900025EA06470EFB06F607FB0EFE0BFB07F7D2
:101BA0001EEB064E4CEB164C4FF000061EEB074E9C
:101BB0004CEB174B18EB0B0840F1000018EB0E0B29
:101BC00058EB000840F100008F1A4FF000013CBFB5
:101BD000C943661B14BFB5EB040C00213CBFC943CD
:101BE000F61B4FEA17444EEA8E0E27EA04454FEAE9
:101BF0001C4704FB07622CEA074C05FB07F70CFBAC
:101C000005F604FB0CFC16EB074642EB174216EBFD
:101C10000C4642EB1C421BEB060658EB020241410C
:101C200046EA9E0601D5BDE80189B619524141EB4D
:101C30000101A3F10103BDE801894FEA14454FEA10
:101C4000114724EA054621EA074C05FB07F406FB89
:101C500007F70CFB06F105FB0CFC11EB074144EB0D
:101C600017444FEA124711EB0C4144EB1C4422EAA3
:101C7000074C05FB07F206FB07F70CFB06F605FB16
:101C80000CFC16EB074642EB174216EB0C4642EBF8
:101C90001C456A1854F1000148BF7047B6195241FB
:101CA00041EB0101A3F10103704795F0000F37D01C
:101CB0004FEA11424FEA144721EA024624EA074C50
:101CC00002FB07F106FB07F70CFB06F402FB0CFC1A
:101CD00014EB074441EB17414FEA154714EB0C4452
:101CE00041EB1C4125EA074C02FB07F506FB07F711
:101CF0000CFB06F602FB0CFC16EB074645EB174502
:101D000016EB0C4645EB1C42121951F1000148BF7D
:101D10007047B619524141EB0101A3F1010370472D
:101D20004FEA14454FEA114724EA054621EA074CD9
:101D300005FB07F106FB07F70CFB06F24FF0000668
:101D400005FB0CFC12EB074241EB174112EB0C4276
:101D500051EB1C4148BF7047921841EB0101A3F1C0
:101D60000103704721B1826842F00102826003E002
:101D7000826822F0010282607047000010B50446BC
:101D80001248844208D10121401500F09FFA002139
:101D9000601500F09BFA17E00D48844208D101213C
:101DA000001500F093FA0021201500F08FFA0BE0E7
:101DB0000848844208D10121C80300F087FA0021B5
:101DC0004FF4004000F082FA10BD000000240140F2
:101DD00000280140003C0140014600208A6802F0D2
:101DE00004020AB1012000E00020704702460020F2
:101DF00013680B400BB1012000E000207047014642
:101E000000208A6802F008020AB1012000E00020E8
:101E10007047000030B502460020002350680F4C88
:101E200020400D790C6844EA0524204350609068F6
:101E30000B4C2040D1E902542C434D7944EA45042F
:101E400020439060D06A20F470000C7C641EE4B2E1
:101E5000234340EA0350D06230BD0000FFFEF0FF94
:101E6000FDF7F1FFF0B504460D4600200021092DD5
:101E700011DDE068A5F10A0606EB4607072606FA1B
:101E800007F18843A5F10A0606EB460603FA06F1B8
:101E90000843E0600CE0206905EB4507072606FAD9
:101EA00007F1884305EB450603FA06F10843206174
:101EB000072A0FDA606B561E06EB86071F2606FA06
:101EC00007F18843561E06EB860605FA06F108431D
:101ED000606322E00D2A0FDA206BD61F06EB86071F
:101EE0001F2606FA07F18843D61F06EB860605FA79
:101EF00006F10843206310E0E06AA2F10D0606EB4C
:101F000086071F2606FA07F18843A2F10D0606EBA5
:101F1000860605FA06F10843E062F0BD816841F0EB
:101F200008018160704721B1826842F4A00282609A
:101F300003E0826822F4A00282607047816841F069
:101F4000040181607047000030B10749096841F41D
:101F50000001054A116005E00349096821F4000108
:101F6000014A116070470000082401400146024800
:101F70000160006870470000003002400120014904
:101F8000886070470030024010B502200C4948605C
:101F9000084680684FF6FE71084009498860094884
:101FA000806848610748B0F83403C8600846806814
:101FB00040F001008860034801F096FB10BD00006E
:101FC00000000240340A002010B54FF400500C49C4
:101FD00048600846406C4FF6FE7108400849486466
:101FE0000848806808650748B0F8340388640846E4
:101FF000406C40F001004864024801F075FB10BDE0
:10200000000002401411002010B54FF000700F497D
:1020100048600E48803000684FF6FE7108400B495A
:10202000C1F880000A488068C1F88C000848B0F800
:102030003403C1F884000846D0F8800040F0010065
:10204000C1F88000024801F04FFB10BD00000240C3
:10205000A40D002021B1026842F00102026004E0F8
:1020600002684FF6FE731A40026070471AB10368A7
:102070000B43036002E003688B430360704710B5B5
:102080000022026847F6F0739A430C6A8B68234378
:102090000C6923434C6923438C692343CC69234354
:1020A0004C6A23438C6A23431A430260CB68436023
:1020B0000B6883604B68C36010BD00210160416004
:1020C0008160C160016141618161C1610162416200
:1020D000816270472DE9F04102460025002600206C
:1020E00000230024002791F803C00CF00F0591F89D
:1020F00003C00CF0100CBCF1000F03D091F802C02B
:102100004CEA050591F800C0BCF1000F31D014680D
:1021100000202BE04FF0010C0CFA00F3B1F800C0E6
:102120000CEA03069E4220D183004FF00F0C0CFAFC
:1021300003F7BC4305FA03FC4CEA040491F803C01E
:10214000BCF1280F06D14FF0010C0CFA00FCC2F8CC
:1021500014C00AE091F803C0BCF1480F05D14FF05C
:10216000010C0CFA00FCC2F810C0401C0828D1D3A6
:102170001460B1F800C0BCF1FF0F34DD54680020DA
:102180002EE000F1080C4FF0010808FA0CF3B1F84A
:1021900000C00CEA03069E4221D183004FF00F0CD1
:1021A0000CFA03F7BC4305FA03FC4CEA040491F86B
:1021B00003C0BCF1280F05D100F1080C08FA0CF897
:1021C000C2F8148091F803C0BCF1480F07D100F1A8
:1021D000080C4FF0010808FA0CF8C2F81080401CF7
:1021E0000828CED35460BDE8F0814FF6FF7101801E
:1021F000022181700421C1707047000070B5002178
:1022000000230F22C47804B3154C246804F4E0645E
:10221000C4F5E064210AC1F10403CA40447804FA19
:1022200003F184781440214309010E4C0678A1552E
:10223000047804F01F050124AC4005786D11AD0051
:1022400005F1E025C5F8004109E0047804F01F0518
:102250000124AC40044D0678761145F8264070BD47
:102260000CED00E000E400E080E100E029B1064A66
:1022700052690243044B5A6104E0034A52698243A3
:10228000014B5A61704700000010024029B1064A14
:10229000D2690243044BDA6104E0034AD269824303
:1022A000014BDA61704700000010024029B1064A74
:1022B00092690243044B9A6104E0034A92698243A3
:1022C000014B9A61704700000010024029B1064A94
:1022D000D2680243044BDA6004E0034AD2688243C6
:1022E000014BDA60704700000010024001490866A7
:1022F000704700000000424202460020044B58682C
:1023000020F47C1042EA01031843014B58607047E7
:102310000010024021B1028842F04002028004E035
:1023200002884FF6BF731A400280704710B5002232
:10233000028802F441520B884C8823438C88234343
:10234000CC8823430C8923434C8923438C89234322
:10235000CC8923431A430280838B4FF2FF742340BE
:1023600083830B8A038210BD10B500F001F810BD05
:102370000CB50020019000903348006840F4803094
:102380003149086000BF3048006800F40030009018
:102390000198401C0190009818B90198B0F5A06F01
:1023A000F1D12948006800F4003010B101200090FC
:1023B00001E0002000900098012843D123480068E4
:1023C00040F01000214908600846006820F0030032
:1023D00008600846006840F0020008601A4840683B
:1023E000194948600846406848600846406840F41B
:1023F000806048600846406820F47C1048600846C9
:10240000406840F4E81048600846006840F080707A
:10241000086000BF0C48006800F000700028F9D088
:102420000948406820F003000749486008464068B2
:1024300040F00200486000BF0348406800F00C0014
:102440000828F9D10CBD0000001002400020024015
:102450001A480068401C19490860B0F57A7F06DB0D
:102460000020086016484068401C15494860144820
:102470000068401C1249086001208860114800680B
:10248000401C1049086001200D4948610D48006852
:102490004FF4FA7190FBF1F201FB120010B9012028
:1024A0000749086107480068142190FBF1F201FB1D
:1024B000120010B901200249C8607047480000208E
:1024C000740600204C00002010B51348006840F04E
:1024D00001001149086008464068104908400E494B
:1024E0004860084600680E4908400B4908600846E5
:1024F000006820F4802008600846406820F4FE0050
:1025000048604FF41F008860FFF72EFF4FF0006017
:102510000449086010BD0000001002400000FFF8F0
:10252000FFFFF6FE08ED00E010B50446C4EBC40062
:1025300000EB4000034A811815220348FDF718FFFD
:1025400010BD0000670000200016002021B10288A5
:1025500042F00102028004E002884FF6FE731A4046
:10256000028070471AB183890B43838102E083891B
:102570008B4383817047000070B500240022002344
:10258000058C4FF6EF7635400584028C8388048BEA
:1025900048F6FF752C404FF6FF452C400D884FF64E
:1025A000FF7606EA05252C434FF6DF752A400D8994
:1025B00006EA05152A434D8806EA05152A43154DF6
:1025C000A84202D0144DA8421DD14FF67F752A4073
:1025D0004D894FF6FF7606EA05152A434FF6BF757B
:1025E0002A408D8806EA05152A434FF6FF352B4011
:1025F0004FF2FF752B408D8906EA85052B43CD8967
:1026000006EA85052B4383800483CD8805870284F1
:1026100070BD0000002C0140003401400A4600213A
:10262000018B4FF2FF7319404FF6FF7303EA022349
:10263000194301837047000070B500240022002375
:10264000058C4FF6FF6635400584028C8388848BA9
:102650004FF68F752C404FF6FC752C400D882C439F
:102660004FF6FF552A400D894FF6FF7606EA0525FD
:102670002A434D8806EA05252A43154DA84202D073
:10268000144DA8421DD14FF2FF752A404D894FF6D7
:10269000FF7606EA05252A434FF6FF352A408D8846
:1026A00006EA05252A434EF6FF752B404DF6FF75C9
:1026B0002B408D8906EA05152B43CD8906EA0515C1
:1026C0002B4383808483CD888587028470BD00007E
:1026D000002C0140003401400A460021818B4FF656
:1026E000F7731940114381837047000070B50022D1
:1026F00000230024058C4EF6FF7635400584038CBC
:102700008488828B48F6FF752A404FF6FF452A40A1
:102710000D884FF6FF7606EA05252A434DF6FF752C
:102720002B400D8906EA05352B434D8806EA053511
:102730002B430B4DA84202D00A4DA84208D14BF6BC
:10274000FF752C408D894FF6FF7606EA85152C43E0
:1027500084808283CD88A0F84050038470BD00003F
:10276000002C0140003401400A460021818B4FF2C9
:10277000FF7319404FF6FF7303EA02231943818365
:1027800070470021018041808180C18001814181A9
:102790008181C18170470000002202881D4B984250
:1027A0000ED01D4B98420BD0B0F1804F08D01B4B80
:1027B000984205D01A4B984202D01A4B984204D145
:1027C0004FF68F731A404B881A43174B984207D025
:1027D000164B984204D04FF6FF431A40CB881A4359
:1027E00002808B8883850B8803850A4B98420BD027
:1027F000094B984208D00E4B984205D00D4B984299
:1028000002D00D4B984201D10B7A038601238382BB
:1028100070470000002C01400034014000040040DB
:1028200000080040000C0040001000400014004070
:1028300000400140004401400048014070B5104C88
:102840002068058805F08000B8B12068011D04F1FA
:10285000140000F019FA80B9002030B1216889898C
:1028600041F080012268918105E02168898921F089
:1028700080012268918100BF00BF00BF70BD0000D1
:102880000000002070B5104C2068058805F080001D
:10289000B8B12068011D04F1140000F0F5F980B909
:1028A000002030B12168898941F08001226891813E
:1028B00005E02168898921F080012268918100BFAB
:1028C00000BF00BF70BD000024000020490050EA96
:1028D000C12018BF04204A0D18BF40F0010040F28B
:1028E000FF72B2EB515F08BF40F00200012808BF41
:1028F0000520704730380A2801D201207047002097
:10290000704710B500F001F810BD00BF00BF00BF58
:102910007047000010B500BF4FF4805002490860B6
:1029200000BFFFF7EEFF10BD100C014000BF4FF4D9
:1029300080500249086000BF70470000140C01403D
:1029400070B504460E461546B6B1ADB10B200B4925
:102950000870200C4870200A8870CC700020087124
:10296000FFF7E4FF0521054801F068FC29463046E1
:1029700001F04EFCFFF7CEFF70BD00005C000020B0
:1029800010B5134890F8DA00401C114981F8DA00BC
:10299000084690F8DA00132802DD002081F8DA00FA
:1029A0006A220B49091D01F16A00FDF7E1FC084AA2
:1029B00092F8DA1092F8D90000F016FA044A92F868
:1029C000DA1092F8D900012201F004F910BD0000DC
:1029D000FC150020024600200DE0C0F1070342FA7A
:1029E00003F303F0010313B136230B5401E01A2360
:1029F0000B54431CD8B20828EFDB70472DE9F04395
:102A000005460E4690461F464FF0000900242FE071
:102A1000A31903EB4303D5F83023D05C04EB440245
:102A200007EBC201FFF7D6FFA31903EB4303D5F869
:102A300030231A44507804EB440307F1080202EBF8
:102A4000C301FFF7C7FFA31903EB4303D5F83023F6
:102A50001A44907804EB440307F1100202EBC3011F
:102A6000FFF7B8FF09F118001FFA80F9601CC4B223
:102A70004445CDDB4846BDE8F0832DE9F05F0746CD
:102A80000D4690463E464FF0FF39B8F1000F01D099
:102A9000FFF774FA0AE056F804AB504601F0DAF991
:102AA0008346FFF763FA81462D1F00BF042DF2DA3B
:102AB000484601F0CFF90446002D43D04846FFF7C1
:102AC00055FA8346012D04D0022D13D0032D36D1A3
:102AD00022E0317881EA040001F0BCF94FEA106A83
:102AE0005046FFF743FA8146484601F0B3F980EAC1
:102AF000142425E0318889B281EA040001F0AAF9A2
:102B00004FEA104A5046FFF731FA8146484601F035
:102B1000A1F980EA144413E0316821F07F4181EA91
:102B2000040001F097F94FEA102A5046FFF71EFA09
:102B30008146484601F08EF980EA146400E000BF47
:102B400000BF00BFE043BDE8F09F00002DE9F04763
:102B50001949C88802F088FC8146184902F098FC9F
:102B6000074617490968144AD2F8E020881A02F08B
:102B70007BFC8046394602F07DFB0646114902F097
:102B800087FC054602F038FC04460B4890F8DC0050
:102B9000401CA0420DD2084981F8DC40FF2C06D928
:102BA000FF2081F8DC0000F0F7F9BDE8F087002095
:102BB000FBE70120F9E70000FC15002000002041A0
:102BC0007406002000007F432DE9F04704462046AC
:102BD00002F04AFC8246124902F04CFB07461149BA
:102BE000C88802F041FC82460F4902F051FC804641
:102BF000394602F04DFC06460C49086802F034FCE8
:102C00008146314602F010FD054602F0F5FB05490C
:102C1000C1F8E000084680F8DC40BDE8F08700001D
:102C200000007F43FC1500200000204174060020B6
:102C300000B503464FF47A7103FB01F000F003F88E
:102C400000BF00BF00BDC00004E000BF00BF00BF68
:102C500000BF00BF011EA0F10100F6D170470000C7
:102C60000FB408B503A800900448009A0299FDF734
:102C70002FFB0020009001B05DF814FB50000020F5
:102C800001464FF0FF3070472DE9F04104460E46F3
:102C900000BFFDF7F1FA074672B6A068E168451A71
:102CA0004DB1E0686168491E08402168085C3070D9
:102CB000E068401CE0603846FDF7E1FA00BF15B15E
:102CC0000120BDE8F0810020FBE770B504460D4609
:102CD00000BFFDF7D1FA064672B6A0686168491ECA
:102CE000084021680D54A068401CA0603046FDF7E4
:102CF000C6FA00BF70BD000070B52748A0F580710E
:102D0000C1F8000225A0FFF7ABFF00243AE0E5047C
:102D10002B4800EB44111C222846FFF711FE00202F
:102D2000274901EB44110877254901EB4411487705
:102D3000214624A0FFF794FF214800EB44100068CF
:102D4000401C60B900201E4901EB441108601C4979
:102D500001EB441148601EA0FFF782FF10E0012044
:102D6000174901EB44110877154800EB441002683D
:102D7000134800EB441000F10C0117A0FFF770FF9F
:102D8000601CC4B2082CC2DBFF200D4981F8080288
:102D90000020C1F8040270BD8C0700203D3D3D3D80
:102DA0003D3D3D3D3D2046696C652073746F726109
:102DB0006765203D3D3D3D3D3D3D3D3D0D0A0000EB
:102DC0008C060020536C6F742025640900000000FD
:102DD0004E6F6E650D0A0000257320256420627910
:102DE0007465730D0A00000070B505460C46204658
:102DF000FFF79AFB70BD000070B504460D46E0B2C7
:102E00000A2806D129460D20FFF7F6FF08B9002051
:102E100070BDE1B2024801F009FD2046F8E700006C
:102E20000000002078B5034615461A461088012890
:102E300002D0022821D10EE01C466088ADF80000C7
:102E400020798DF80200BDF8006030469DF80260E0
:102E500040EA064078BD1C4601EB4106E01C3044C8
:102E60000688ADF8006080788DF80200B6B2304672
:102E70009DF8026040EA0640ECE700200090BDF8B3
:102E8000004020469DF8024040EA0440E2E700008E
:102E90002DE9FF4F83B00D4614461F46DDF84080F4
:102EA00005EB080002F0C8FA8346039802F0DCFA4A
:102EB0002949029002F0DEF98246594602F0E8FA0A
:102EC000814602F099FA86B217B3301B02F0B4FAC9
:102ED0000290404602F0C8FA014601901E4802F0F6
:102EE000C9F98346029902F0D3FA824602F084FAC5
:102EF0001FFA80F9B9F1FF0F01DD4FF0FF09B4426D
:102F000001DD4FF0000909F0FF0007B0BDE8F08FC8
:102F1000291B701A02F090FA0290404602F0A4FABF
:102F2000014601900C4802F0A5F98346029902F08F
:102F3000AFFA824602F060FA1FFA80F9B9F1FF0F8A
:102F400001DD4FF0FF09281BB04201DD4FF0000901
:102F500009F0FF00D9E7000000007F430FB4F0B58F
:102F60009BB03BACF0CCBDF8800001280DD15A22BB
:102F700024A96846CDE91967CDE91745FDF73DFA63
:102F800020A80FC800F048FD00E000BF00BF1BB044
:102F9000F0BC5DF814FB00002DE9F0471B490889DF
:102FA00002F062FA81461A4902F072FA074619499C
:102FB0000968164AD2F8E020881A02F055FA8046CD
:102FC000394602F057F90646134902F061FA054600
:102FD00002F012FA04460D4890F8DD00401CA042B1
:102FE00011D20A4981F8DD40FF2C09D9FFF7C8FC4E
:102FF0000020064981F8DC0081F8DD0007490870EF
:103000000020BDE8F0870120FBE70000FC15002050
:10301000000020417406002000007F43660000206D
:1030200010B500F04FFA00F063F800F08BFA00F0F2
:1030300001F810BD00B589B026480190102002901B
:103040002548009000208DF80D0009208DF817000C
:1030500000208DF81B0002208DF818001F480490F6
:1030600000208DF8190007208DF8150001208DF83B
:103070000C0000208DF814000F208DF816000A2097
:10308000ADF81C0009208DF81A001548089000BF03
:1030900001201449086000BF6420FFF7C9FD00BF8C
:1030A00001201049091F086000BF4FF47A70FFF734
:1030B000BFFD69460C4801F0A5F94FF4FA70FFF71F
:1030C000B7FD0A21094801F05DF8074801F0CEFA82
:1030D00009B000BD000801400030014040E3CB339F
:1030E0000048E801140C014098080020200A002044
:1030F000F048406840F00070EE49486000BF00BFF3
:1031000000BF00BFEC48806940F00400EA498861D4
:1031100000BFEA48006820F0F00040F0B000E74946
:10312000086000BF00BF4815E4491031086000BFC7
:1031300000BF00BF00BF00BF00BF00BFDE48806906
:1031400040F00400DC49886100BFDC48006820F4DE
:10315000706040F48060D949086000BF00BF081566
:10316000D6491031086000BF00BF00BF00BF00BFDC
:1031700000BF00BFD048806940F00400CE4988619C
:1031800000BFCE48001F006820F4706040F430603B
:10319000CA49091F086000BF00BF0420C749103199
:1031A000086000BF00BF00BF00BF00BF00BF00BF7E
:1031B000C148806940F00400BF49886100BFBF4832
:1031C000001F006820F4704040F48040BB49091F94
:1031D000086000BF00BF0820B8491031086000BF78
:1031E00000BF00BF00BF00BF00BF00BFB248806982
:1031F00040F00800B049886100BFB148006820F481
:10320000706040F43060AE49086000BF00BF081530
:10321000AB491031086000BF00BF00BF00BF00BF56
:1032200000BF00BFA448806940F00800A24988613F
:1032300000BFA348006820F4704040F48040A049DB
:10324000086000BF00BFC8149D491031086000BF6E
:1032500000BF00BF00BF00BF00BF00BF964880692D
:1032600040F008009449886100BF9548001F00683D
:1032700020F00F00C01C9249091F086000BF00BF6A
:1032800001208F490C31086000BF00BF00BF00BFA4
:1032900000BF00BF00BF8848806940F00400864935
:1032A000886100BF8548001F006820F4700040F46A
:1032B00030008249091F086000BF00BF20207F49FD
:1032C0000C31086000BF00BF00BF00BF00BF00BFDF
:1032D00000BF7948806940F004007749886100BFE9
:1032E0007648001F006820F0704040F0304073497D
:1032F000091F086000BF00BF802070490C310860C2
:1033000000BF00BF00BF00BF00BF00BF00BF00BFC5
:103310006948806940F004006749886100BF6748D8
:10332000001F006820F0706040F000606349091FD2
:10333000086000BF00BF402060491031086000BF36
:1033400000BF00BF091F086000BF00BF00BF00BF73
:1033500000BF00BF00BF5848806940F004005649D4
:10336000886100BF5548001F006820F4702040F4B9
:1033700040305249091F086000BF00BF10204F496C
:103380000C31086000BF00BF00BF00BF00BF00BF1E
:1033900000BF4948806940F008004749886100BF84
:1033A0004748006820F4700040F440104449086029
:1033B00000BF00BF481442490C31086000BF00BF85
:1033C00000BF00BF00BF00BF00BF3B48806940F0A6
:1033D00008003949886100BF3948006820F0704012
:1033E00040F040503649086000BF00BF4FF4004035
:1033F00033490C31086000BF00BF00BF00BF00BFF1
:1034000000BF00BF00BF2C48806940F008002A4977
:10341000886100BF2A48006820F0706040F00060BA
:103420002749086000BF00BF4FF480402449103195
:10343000086000BF00BF00BF091F086000BF00BFD9
:1034400000BF00BF00BF00BF00BF1B48806940F045
:1034500004001949886100BF1848006820F47020F2
:1034600040F440301549086000BF00BF881413497C
:103470000C31086000BF00BF00BF00BF00BF00BF2D
:1034800000BF0D48806940F008000B49886100BF0B
:103490000B48006820F4702040F440300849086070
:1034A00000BF00BF881406490C31086000BF00BF90
:1034B00000BF7047000001400010024004080140B6
:1034C000040C014010B51E48406820F003001C4960
:1034D000486000BF1A48406800F00C000028F9D18D
:1034E000FEF704FF4FF4E0114FF44030FEF704FF05
:1034F0000120FEF7FBFE00BF1148006800F00070DD
:103500000028F9D00E48406840F002000C4948609D
:1035100000BF0B48406800F008000028F9D00121E6
:103520000846FEF7C3FE01210846FEF7AFFE012163
:103530000420FEF7ABFE01210846FEF797FE10BD02
:103540000010024000B585B001210803FEF7AEFE71
:103550000820ADF80C000020ADF80800ADF806001A
:10356000ADF80400ADF80000ADF80E004FF4827025
:10357000ADF802004FF40070ADF80A006946044847
:10358000FEF7D4FE01210248FEF7C4FE05B000BDDF
:103590000030014015481649C1F85403134844301F
:1035A000C1F848034FF40050C1F860031148C1F856
:1035B0005C030E2081F858030F48C1F83C038020BB
:1035C000A1F840030D48C1F844030015A1F84C03CD
:1035D0000B48C1F868030B48C1F86C030748383042
:1035E000C1F85003022081F86403704700000240D4
:1035F00014110020C91F0008000C01400008004001
:10360000792500081D26000814481549C1F85403FF
:1036100012480830C1F848030220C1F8600311487D
:10362000C1F85C030B2081F858030F48C1F83C0334
:103630000420A1F840030007C1F84403C014A1F816
:103640004C030A48C1F868030948C1F86C030948EB
:10365000C1F85003022081F8640370470000024063
:10366000340A0020891F000800080140392600089C
:10367000D92600083C00004014481549C1F85403FD
:1036800012488030C1F848038004C1F86003114833
:10369000C1F85C03112081F858030F48C1F83C03BE
:1036A0000820A1F84003C006C1F844038014A1F823
:1036B0004C030A48C1F868030948C1F86C0309487B
:1036C000C1F85003022081F86403704700000240F3
:1036D000A40D00200920000800080140ED26000884
:1036E000692700084000004010B50446207820B14A
:1036F00001280BD0022822D113E0204600F0C9FC9B
:10370000204600F08DFCA4F834031BE0022020705A
:10371000D4F82C0360606068A060C820A4F834036B
:1037200010E0204601F05EF800202070204600F0F6
:10373000B0FC204600F074FCA4F8340302E0022040
:10374000207000BF00BF10BD37B503460C4603EB29
:10375000C3000E4A02EB8000015D9DF80800D26EA6
:1037600001EB410550559DF80900084AD26E01EB66
:1037700041052A4490709DF80A200448C06E01EB70
:1037800041052844427000203EBD0000E0160020A4
:103790000149C86670470000E016002010B500F02F
:1037A00019F800240FE0C4EBC40202EB8202074BBD
:1037B000D11804EBC402064B03EB82002322FCF772
:1037C000D7FD601C84B2032CEDDB10BDBC170020BC
:1037D000E016002000208F49087001204870022068
:1037E00088700320C87004200871052048710620E5
:1037F00088710720C87108200872092048720A20C1
:1038000088720B20C8720C2008730D2048730E209C
:1038100088730F20C8731020087411204874122078
:1038200088741320C8741420087515204875162054
:1038300088751720C87518200876192048761A2030
:1038400088761B20C8761C2008771D2048771E200C
:1038500088771F20C877202081F82000212081F858
:103860002100222081F82200232081F82300242136
:10387000684880F82410252180F82510262180F83A
:103880002610272180F82710282180F828102921C8
:1038900080F829102A2180F82A102B2180F82B107B
:1038A0002C2180F82C102D2180F82D102E2180F84D
:1038B0002E102F2180F82F10302180F83010312168
:1038C00080F83110322180F83210332180F8331023
:1038D000342180F83410352180F83510362180F8F5
:1038E0003610372180F83710382180F83810392108
:1038F00080F839103A2180F83A103B2180F83B10CB
:103900003C2180F83C103D2180F83D103E2180F89C
:103910003E103F2180F83F10402180F840104121A7
:1039200080F84110422180F84210432180F8431072
:10393000442180F84410452180F84510462035493F
:1039400081F846004721334880F84710482180F825
:103950004810492180F849104A2180F84A104B212B
:1039600080F84B104C2180F84C104D2180F84D1000
:103970004E2180F84E104F2180F84F10502180F8D2
:103980005010512180F85110522180F852105321CB
:1039900080F85310542180F85410552180F85510A8
:1039A000562180F85610572180F85710582180F87A
:1039B0005810592180F859105A2180F85A105B216B
:1039C00080F85B105C2180F85C105D2180F85D1050
:1039D0005E2180F85E105F2180F85F10602180F822
:1039E0006010612180F86110622180F8621063210B
:1039F00080F86310642180F86410652180F86510F8
:103A0000662180F86610672180F86710682180F8C9
:103A100068107047BC1700202DE9F04F87B0DDE932
:103A20002778299E484C04F16A00069042463946A0
:103A3000E01CFFF7F7F90590424639460698C01C8E
:103A4000FFF7F0F904902088FF2810DDA07800909F
:103A500023783A4603212A98FFF71AFA824601F0A2
:103A600003FD8146394901F005FC05460FE0A078C9
:103A700000902378424623212A98FFF709FA8246CC
:103A800001F0F2FC8146314901F0F4FB05469DF856
:103A9000100001F0E9FC02909DF8140001F0E4FC34
:103AA0000190029901F0C0FD8346294601F0F0FC27
:103AB00082469DF8100001F0D7FC5146039001F0BA
:103AC00077FB814601F098FC30709DF8110001F001
:103AD000CBFC02909DF8150001F0C6FC0190029904
:103AE00001F0A2FD8346294601F0D2FC82469DF8F2
:103AF000110001F0B9FC5146039001F059FB8146D9
:103B000001F07AFC70709DF8120001F0ADFC02909B
:103B10009DF8160001F0A8FC0190029901F084FDC7
:103B20008346294601F0B4FC82469DF8120001F05C
:103B30009BFC5146039001F03BFB814601F05CFC8D
:103B4000B07007B0BDE8F08F0616002000007F437C
:103B5000FFF766FA00F0F8F800F018FEFFF7CCF86F
:103B600000F07CF901F008F90A48FFF711FEFFF7B1
:103B700015FE00221146104600F01EF800BF00BFDF
:103B800006E000F031FA00F007F800BF00BF00BF08
:103B9000F7E700008414002010B5064890F8D8001C
:103BA00000B910BDFEF7D2FF00B1FAE700F084FAC9
:103BB00000BFF6E7FC15002070B505460E4614461A
:103BC00031462846FFF710F962B23146284600F028
:103BD00001F870BD10B5084C84F8D900234683F86D
:103BE000DA10012384F8D830044B1B68C4F8E030A5
:103BF000002384F8DC3010BDFC1500207406002082
:103C000000200E4981F8D80000BF14E000210C4AC2
:103C1000D26E00EB4003D154094AD26E00EB400350
:103C20001A44517000220649C96E00EB4003194442
:103C30008A70411CC8B27828E8DB7047FC15002068
:103C4000E01600202DE9F04105460E4617461C46B9
:103C50003A4890F8D900A84209D1384890F8DA00DB
:103C6000B04204D1354890F8D800012804D022464B
:103C700031462846FFF7A0FF304890F8DC000A30B4
:103C8000A04205DB2D4890F8DC000A38A04202DD96
:103C90002046FEF799FF00BF2948006800F48070B5
:103CA00030B100BF4FF4807025490C31086006E048
:103CB00000BF4FF4807022490831086000BF00BF88
:103CC00000BF2048006800F4004030B100BF4FF44E
:103CD00000401C490C31086006E000BF4FF4004072
:103CE00018490831086000BF00BF00BF14480068D1
:103CF00000F0080028B100BF082011490C3108600D
:103D000005E000BF08200E490831086000BF00BF71
:103D100000BF0B48006800F0100028B100BF102061
:103D200007490C31086005E000BF10200449083144
:103D3000086000BF00BFBDE8F0810000FC15002056
:103D4000080C01400808014030B585B0002401216D
:103D50002C4800F059F8002000908DF804008DF8F0
:103D600005004FF4602002900020039001208DF8A0
:103D7000100069462348FEF74DF801212148FDF760
:103D8000F1FF2048FEF7CAF800BF1E48FEF737F8DB
:103D90000028FAD11B48FEF7D1F800BF1948FEF7FA
:103DA0001BF80028FAD10120FEF7CEF805230122E6
:103DB00010211448FEF756F801211248FEF7B3F817
:103DC000002515E000BF02210E48FEF70FF800287D
:103DD000F9D00C484C300068604084B24FF6FF7058
:103DE00000EA440401210748FEF79DF8681CC5B2AB
:103DF000322DE7DB0348FDF7C1FF2046FCF76EFAE2
:103E000005B030BD0024014070B504460D46104891
:103E1000204430B1B0F5806F0AD0B0F5C05F15D145
:103E20000DE029464FF40070FEF740FA012070BD06
:103E300029464FF48060FEF739FA0120F7E729465A
:103E40004FF40040FEF732FA0120F0E70020EEE7E1
:103E500000DCFEBF014691FAA1F0704710B515488D
:103E600015494860022088607F2008800020887003
:103E7000084600F05DFE104800F067FE0D4800881F
:103E80000A2805DD05200B4908800B4800F0CAFD13
:103E900008480088401F094A5043094A02EB401174
:103EA000084800F07CFB6420FEF7C2FE054800F0E5
:103EB000DDFB10BD64000020901700202D310100B3
:103EC00040E3CB33980800202DE9F04106460F4629
:103ED0003446E51D032221493046FCF71DFA20B186
:103EE0001FA0FEF7BDFEBDE8F081B4F803000B286B
:103EF00009D0B4F803004FF6FF71884203D020A028
:103F0000FEF7AEFEEFE76079012806D0032805D062
:103F100004280BD0052815D10BE014E06B7995F936
:103F20000420A9782888FFF78DFE0CE0FFF768FED3
:103F300009E0E07919490988884202D0E07900F067
:103F400031F800E000BF00BF154890F8852100F16E
:103F5000850100F06CFB00BFC5E700001A570008A0
:103F60005265636569766520756E737570706F72E2
:103F7000746564206D6573736167650D0A000000E8
:103F800052656365697665206D69737374616B65ED
:103F9000206D6573736167650D0A00006400002081
:103FA0009808002010B50446601F0A4A50430A4A88
:103FB00002EB4011094800F0F2FA6420FEF738FEE7
:103FC000064800F053FB06480480064800F02AFD2E
:103FD00010BD00002D31010040E3CB3398080020D4
:103FE000640000209017002010B50B4800F0AAF8DC
:103FF00010B10A4800F044FB084890F8840148B129
:10400000064890F885118530FFF75EFF00210348D0
:1040100080F8841110BD0000200A002098080020BC
:10402000F0B504460025002794F83B0394F83A13B2
:10403000401A86B2B4F8380394F83A13401A301A8A
:10404000102806DAB4F8380394F83A13401A301AF4
:1040500000E0102085B2B4F838132A462046636881
:10406000FEF7CCFC0746B4F8380394F83A13401A2C
:104070002844B04206DB94F83A03A4F83803012040
:10408000207004E0B4F838032844A4F83803384614
:10409000F0BD90F8361331B1002180F8361300F1ED
:1040A0000C01416005E0012180F8361300F5CE7166
:1040B000416041688160704730B59DB0002436E0B2
:1040C000002530E01C4800F03DF810B11B4800F01E
:1040D000D7FA1A4890F8840158B1184890F8851119
:1040E0008530FFF7F1FE0021144880F884111DB0DF
:1040F00030BD134890F8DC001CA95A22CDE91745C1
:10410000CDE919100E4914316846FCF776F90C48D0
:10411000001D0FC8FEF722FFE9B2E0B21C9AFFF7BC
:1041200013FB681C85B2232DCCDB601C84B2032CEE
:10413000C6DB00BFDBE70000200A00209808002053
:10414000FC15002001460E4800680860087C18B184
:104150000120886000207047886828B1CA68086814
:104160001044486000208860D1E90002904205D3E5
:10417000CA680868104448600120ECE70020EAE7BC
:1041800074060020C16000220274012282600022B5
:1041900002604260704700BF00BF00BF00BF7047B1
:1041A00070B5044600252DE000BF00BF4FF400505D
:1041B0001649086000BF00BF00BF04F0800028B1AE
:1041C00000BF4FF40040091F086005E000BF4FF436
:1041D00000400E49086000BF00BFFFF7DCFF00BFD2
:1041E00000BF4FF400500949091F086000BF00BF1D
:1041F000FFF7D1FF05480C380068C0F3803040EA73
:1042000044046D1C082DCFDBE0B270BD140C0140DE
:104210002DE9F04104460E462746254607E095F86D
:1042200000804046FFF7BCFF05F8010B00BF301EC1
:10423000A6F10106F3D13846BDE8F08170B5044619
:104240000D46264603E016F8010BFFF7A9FF281ECE
:10425000A5F10105F7D170BD10B504460121D4F8D0
:104260004403FEF773F90121D4F84803FDF7F2FE89
:10427000B4F84C130122D4F84403FEF773F910BDCF
:1042800000B502464FF4C870A2F83403012082F84A
:1042900036030020A2F8380310701046FFF7F9FE2D
:1042A00000BD10B504460021D4F84403FEF74EF9D2
:1042B0000021D4F84803FDF7CDFEB4F84C130022DA
:1042C000D4F84403FEF74EF910BD70B504460D4610
:1042D0006068C068A16888436168C8600220FEF712
:1042E000B2FC2946206800F039F85521206800F01A
:1042F00035F806466068C068A16808436168C86010
:104300000220FEF7A0FC304670BD2DE9F0410446C6
:10431000884616461F466068C068A1688843616881
:10432000C8600220FEF78FFC4146206800F016F8B6
:10433000002506E05521206800F010F87055681C33
:10434000C5B2BD42F6DB6068C068A1680843616819
:10435000C8600220FEF777FCBDE8F081024691813B
:1043600000BF108900F001000028FAD09089C0B287
:10437000704770B504460D4616466068C068A1686F
:1043800088436168C8600220FEF75DFC45F080014B
:104390002068FFF7E3FF31462068FFF7DFFF606822
:1043A000C068A16808436168C8600220FEF74BFC42
:1043B00070BD2DE9F04104460E46174698466068E8
:1043C000C068A16888436168C8600220FEF73BFCB2
:1043D00046F080012068FFF7C1FF002505E0795D08
:1043E0002068FFF7BBFF681CC5B24545F7DB606876
:1043F000C068A16808436168C8600220FEF723FC1A
:10440000BDE8F0812DE9F04704460D46286908B95A
:10441000BDE8F087A868A0606868606028682060D0
:10442000002201212046FFF7A4FF8022012120461F
:10443000FFF79FFF702304F1150201212046FFF7CB
:1044400064FF286AE060E06801F00EF880462869A1
:1044500001F00AF88146414600F00CFF07464FF094
:104460009241384601F014F80746384600F0C4FF80
:104470000646310CA176310AE17626773220005DBE
:1044800020F0F00132200155005DA97E40EA0110C4
:10449000C1B2322001553120005D20F00E013120E3
:1044A0000155005D297E40EA4100C1B2312001552D
:1044B000005D20F0F00131200155005DE97D40EA0A
:1044C0000110C1B231200155687E012806D131208A
:1044D000005D40F001013120015505E03120005D13
:1044E00020F0010131200155FF2184F8371084F8B4
:1044F0003610A88B010A84F83410297F84F835100F
:1045000094F83A0040F0040184F83A103220005D3B
:1045100020F0030132200155005D40F003013220FC
:104520000155FF2133200155607F20F07F01617725
:10453000607F697D40EA01106077607FA97D084354
:104540006077287D012804D1607F40F08001617789
:1045500003E0607F20F080016177702304F1150291
:1045600001212046FFF725FF607D40F001016175C4
:10457000627D01212046FFF7FCFE0A20FEF758FB72
:10458000FF2212212046FFF7F4FE002184F8851156
:1045900084F8841100202074607400BF38E72DE98E
:1045A000F04704460E46677D27F007073A4601218B
:1045B0002046FFF7DEFE0A20FEF73AFBE06800F037
:1045C00053FF8146304600F04FFF8246494600F0D7
:1045D00051FE80464FF09241404600F059FF804620
:1045E000404600F009FF0546290CA176290AE1762C
:1045F0002577032304F11A0206212046FFF7D9FE8E
:10460000BDE8F08770B504460D4601212046FFF74E
:104610005CFE6075607D20F007016175607D284358
:104620006075627D01212046FFF7A3FE70BD70B565
:1046300004460D461646207C6074022020748022B9
:104640000D212046FFF795FE33462A4600212046DD
:10465000FFF7AFFE324622212046FFF78AFE0120F7
:10466000A07403212046FFF7CDFF70BD10B50446AE
:104670000120207405212046FFF7C4FF10BD000073
:104680002DE9FE4F044612212046FFF71EFE81460B
:1046900009F00800B0B1607C30B105212046FFF779
:1046A000B1FF0120207401E0002020740020A074DC
:1046B00000220D212046FFF75CFE08221221204631
:1046C000FFF757FE09F04000002850D04022122189
:1046D0002046FFF74EFE04F1850A13212046FFF71E
:1046E000F4FD064684F8856110212046FFF7EDFDB4
:1046F00002900D212046029AFFF73BFE07E00021C1
:104700002046FFF7E2FD0AF8010B701EC6B2002E2C
:10471000F5D11A212046FFF7D8FD834619212046FE
:10472000FFF7D3FD45B2584600F031FC0746154A65
:10473000154B00F03FFCCDE9000100F0FBFB00F061
:10474000FF0B002D05DBCBF19C0041B284F88611F4
:104750000AE02846E91705EB9171CBF19C02A2EB28
:10476000A1014AB284F88621012184F8841109F05C
:10477000800028B105212046FFF744FF0120207466
:10478000BDE8FE8FF6285C8FC2F5F03F30B51249C8
:10479000B1F1807F00D31DE021F07F40401E4FF03B
:1047A000E022506150170F22002807DA13071D0E70
:1047B0000A4B00F00F04241F1D5503E013071C0EC5
:1047C000074B1C5400BF00204FF0E02290610720EF
:1047D000106100BF30BD00004019010018ED00E07D
:1047E00000E400E010B504460D48844205D120469F
:1047F000FFF757FD0B48FFF72FFD0A48844205D10C
:104800002046FFF74EFD0848FFF726FD0648844284
:1048100005D12046FFF745FD0148FFF71DFD10BDFE
:10482000340A0020A40D00201411002070B50446A5
:104830000D46294604F11400FEF747FA012030B175
:104840002168898941F080012268918105E0216811
:10485000898921F080012268918100BF70BD10B567
:10486000044600212720015524200155252001550B
:10487000208800F0A9F910B90121272001552088CE
:1048800000F0F0F9E060208800F0DEF92061D4E962
:104890000310411AA0680830814202D2012124206D
:1048A0000155207A00F0010010B1012125200155A9
:1048B0002720005D28B92420005D10B92520005D67
:1048C00020B1002129200155002010BD01212920FF
:1048D00001550120F9E701462920405C08B9002074
:1048E0007047CA6808E01068401C20B100232620E9
:1048F00043540020F4E7121D0869401C9042F2D88E
:104900000122262042540120EAE701462920405C8A
:1049100008B9002070478A684869104408300A695D
:10492000904204D90122282042540120F2E74A692A
:104930000AE010884FF6FF73984204D00123282024
:1049400043540120E6E7921C8B68486918440830FC
:104950009042EED80022282042540020DAE72DE9C8
:10496000F04104462920005D10B90020BDE8F08127
:104970002046FFF7B0FF0021202001552620005DD2
:10498000002831D1E56816E001222846A168FEF72B
:1049900074F80646A06828444768BE4207D1A5615E
:1049A000A0682858E06101212020015500E008E0BE
:1049B000A06808300544A1682069401A0838A84258
:1049C000E2D800BF2020005D28B1A168A06908449A
:1049D000083060610AE0A07818B1204600F0C5F800
:1049E00004E0E168616101E0E16861612046FFF790
:1049F0008CFF0120BAE710B504462920005D10B1F4
:104A00002020005D20B9002121200155002010BD8B
:104A1000D4E90102A169FBF7ABFC0121212001557A
:104A20000120F4E72DE9F84304462920005D10B980
:104A30000020BDE8F88300212220015523200155E4
:104A40002046FFF762FF2820005D50B1A07818B122
:104A5000204600F08AF804E00121232001550020BF
:104A6000E7E70026B0460027D4F814900122D4E9E5
:104A70000101FEF702F8009000250EE0D4E90112D2
:104A8000606900F02DF9012805D1A1686069014431
:104A90006161012603E0681CC5B2032DEEDB00BF97
:104AA000D6B1E069401CE06100250EE0042204F16B
:104AB0001C01606900F014F9012804D16069001D2F
:104AC0006061012703E0681CC5B2032DEEDB00BF67
:104AD00017B9E069401EE061A6B19FB100250EE064
:104AE00004226946606900F0FBF8012805D160697D
:104AF000001D60614FF0010803E0681CC5B2032D82
:104B0000EEDB00BF2046FFF700FF66B15FB1B8F1F2
:104B1000000F08D0012120200155C4F81890222050
:104B20000155012085E7012123200155002080E760
:104B300010B50446204600F02FF82046FFF78FFE00
:104B400008B9002010BD0120FCE710B5044620463E
:104B5000FFF7EEFF08B9002010BD2046FFF7FFFE6B
:104B60002046FFF748FF0120F6E710B5044629204C
:104B7000005D08B9002010BDE06800F02DF8E16884
:104B80006161012126200155002120200155204688
:104B9000FFF7BBFE0120EEE70021C16100222021CA
:104BA0000A5421210A5422210A5423210A5424217F
:104BB0000A5425210A5426210A5427210A5428215F
:104BC0000A5429210A5470470146802901D2012044
:104BD00070470020FCE7000070B5044600BFFBF7FB
:104BE00051FB064672B6154815494860154848609D
:104BF00000BF1348C06800F001000028F9D134203C
:104C00000F49C860022008610846446142200861DB
:104C10000846C06800BF0A48C06800F001000028CC
:104C2000F9D10748C068C0F34015802004490861E5
:104C30003046FBF72AFB00BFE8B270BD2301674591
:104C400000200240AB89EFCD00B503461846FFF7C0
:104C5000BBFF08B9002000BD184600F003F800F2C1
:104C6000FF30F8E700B502461046FFF7ADFF08B980
:104C7000002000BD900200F10060FAE70E480F49E5
:104C800048600F48486000BF0C48C06800F0010051
:104C90000028F9D120200949C8600846006940F081
:104CA000010008610846006900F0800008B100209A
:104CB00070470120FCE70000230167450020024007
:104CC000AB89EFCD0548006920F001000349086178
:104CD0000846006940F080000861704700200240EB
:104CE0002DE9F04704460D46904604EB08093AE0EA
:104CF00004F0010018B14FF6FF76641E04E015F8C9
:104D0000011B88B240F47F464C4505D215F8011BC3
:104D1000304661F31F20064600BFFBF7B3FA824618
:104D200072B6FFF7ABFF0746012F0FD1268000BFF9
:104D30001048C06800F0200028B90E48C06800F094
:104D400001000028F4D120200A49C860FFF7BAFF0B
:104D50005046FBF79AFA00BF2088B04200D10FB945
:104D6000002702E0A41C4C45C2D300BF3846BDE872
:104D7000F08700000020024010B5FEF745FC23221A
:104D80000021094800F016F8FEF776FC46222321A0
:104D9000064800F00FF8FEF7FDFB692246210448A3
:104DA00000F008F810BD0000340A0020A40D002017
:104DB0001411002070B594B004460D461646C82163
:104DC0004448FBF74CFB13A8FDF70FFA04F54F74AA
:104DD000A088ADF84C0003208DF84E0018208DF807
:104DE0004F0013A92068FDF775F90020ADF84000C9
:104DF000ADF842004F20ADF844000020ADF8460069
:104E000010A9A068FDF7C8FC0CA8FDF7BAFC60204B
:104E1000ADF830000120ADF832000020ADF83600CA
:104E2000ADF838000CA9E26AA06890470821226B0F
:104E3000A068904701A8FDF740F96069A4F54F7498
:104E4000019004F10C000290102003904FF4C87000
:104E500004900020059080200690400007900020DC
:104E6000089009904FF440500A9000200B9004F5F0
:104E70004B7401A9E069FDF702F9218C0122A069B8
:104E8000FDF770FB94F82C008DF8000094F83800C2
:104E90008DF8010000208DF8020001208DF803003C
:104EA0006846FDF7ABF901220221E069FDF7DEF863
:104EB000A573E6730848606006482060A07BA08167
:104EC000A4F54B742046FFF7DBF92046FFF7C4F941
:104ED00014B070BD251800208414002010B50029DE
:104EE0000AD00878002807D005487844FCF732FB40
:104EF000002801D0002010BD0248784410BD0000F9
:104F0000520900004A09000010B500290AD00878AB
:104F1000002807D005487844FCF71CFB002801D086
:104F2000002010BD0248784410BD00004209000076
:104F30003A0900004FEA1153A3F58063D3F11E0331
:104F4000A8BFD3F1200C08DB4FF0004242EAC12297
:104F500052EA505232FA03F0704709420BD4102B38
:104F6000C4BF0020704703F5787CBCF1FF3F05D03B
:104F70004FF0FF3070474FF00000704770B500F001
:104F8000C3F800BF4992248000207047F0E7B0FAD0
:104F900080F310FA03F10AD0C3F11D0303F5806317
:104FA0004FEA41504FEA035202EBD12170474FF0D4
:104FB00000007047DFF848C170B51CEA111E1EBF23
:104FC0001CEA13159EEA0C0F95EA0C0F00F06F8097
:104FD00081EA030423EA4C134EEAD47E21EA4C1101
:104FE00041F4801143F48013AE44A1FB024CA0FBBA
:104FF0000365AEF17F7E361955EB0C05A1FB034C22
:105000004CF10003A0FB021C16EB0C06654153F1AA
:105010000003094218BF46F0010613F4007F0BD1CC
:105020004FEA03314FEA0530340341EA155140EAB3
:1050300016506FF003020AE04FEAC3214FEAC52081
:10504000F40241EA555140EA56506FF0020202EB79
:105050002E4201EB025585EACE710AD05FEA440C7C
:1050600018BF24F0004450F1000041F1000120EA93
:10507000D47040F2FE7C624500D270BDA84214BFDD
:105080004FF080444FF04044002E08BF0024BEF192
:10509000806FA8BFA1F1C041BDE8704080F282805E
:1050A0004FF0000001F1C04101F0004170479EEA5D
:1050B0000C0F0CEA131518BF95EA0C0F06D04FF031
:1050C000000081EA030E0EF0004170BD00F01CF8F4
:1050D0008900013E00F007B800F009B84FEA430C20
:1050E0005FEA5C5C08D081EA030100F05BB84FEA3C
:1050F000410C5FEA5C5CF6D14FF00000014970475B
:105100000000FF070000F87F0EF1020E2EF0030EE4
:105110005EF8046B364205D4012A43EB030515F50E
:10512000001F12D8012841EB010C1CF5001F0CD800
:105130000ED14FEAD17C15F5001F0CEB4C0C0CF195
:10514000020C08BF4CEBD37C04E04FF0080C01E0EC
:105150004FEAD37C0CEB4C0526FA05F606F0070661
:10516000B6F1040C06D20EEB860CBDE870404CF094
:10517000010C6047DFE80CF0090B02024FF0004120
:105180004FF00000A1F5002170BD1946104601281E
:1051900051EB010418BFD4F5001484BF002001F0C6
:1051A000004170BD0808A0F500114FEA31017047B9
:1051B00090EA010F48BF81F0004100F13C82421AA1
:1051C0003CBF801A89184FEAD0524FF07F4C1CEA3E
:1051D000410FA2EBD15318BF9CEA026F00F03B8055
:1051E0004FF0004C4CEA00204CEA012121FA03FC6C
:1051F00010EB0C0C1ED202F1FF325FEA1C2040EBD8
:10520000C25038BF70471CF07F0F4FEA400C18BFE8
:10521000BCF17F4F38BF7047C3F12003994008BFEE
:1052200020F00100BCF17F4F38BF7047A0F1C040B3
:1052300000F0F5B94FEA3C00000A40EBC25028BF2D
:105240001CF0FF0F4FEA400CE6D018BFBCF17F4FB7
:1052500038BF7047EAE79CEA026F05D010EA5C0F9E
:1052600008BF00F00040704710B500F092F900BF91
:1052700064FBBE3E4FF47F0C1CEAD0121EBF1CEA3A
:10528000D11392EA0C0F93EA0C0F00F0858090EA9C
:10529000010F48BF42F4807240F4000C41F400005A
:1052A0002CF07F4120F07F4000B58142A2EB030249
:1052B0000FF2081CACEB504EC0F100009EF800E06D
:1052C0004FEA4E0E00FB0EFC38BF49004FEA2C1C83
:1052D00002F5FA020CFB0EF34FEACE1E4FEA112C38
:1052E0004FEAC1210EEB635E42EB22420EFB0CFC47
:1052F0004FEA1C5300FB03114FEA112C4FEA013116
:105300000EFB0CFC4FEADC4C00FB0C11C14228BF29
:1053100009184CEB03335DF804EB10EB410143EB50
:10532000C250B2F57C0F38BF704729D512F0F00F8C
:105330001CBF00F1C04000F0004070470081828334
:105340008485868788898B8C8D8E8F919293959694
:1053500097999A9C9D9FA0A2A3A5A7A8AAACAEB01E
:10536000B2B3B5B7B9BCBEC0C2C5C7C9CCCED1D423
:10537000D7D9DCDFE2E6E9ECF0F3F7FAFE00000053
:105380004FEA400C0CF1807CBCF17E4F28BF704787
:10539000B0F1C04000F043B990EA010F0CEAD1131C
:1053A00048BF42F48072624538BF634507D213F4A8
:1053B0007F0F16D080EA010000F00040704710B562
:1053C00000F0E7F8097EFC3E00F005B880EA010035
:1053D00000F00040704780EA010000F0004000F05B
:1053E0001EB912F47F0F04BF0248704780EA010023
:1053F00000F015B90000C07FC10DD1F19E0206DB9F
:105400004FEA002343F0004323FA02F070470042C2
:1054100007D54FEA4001B1F1FE4F02D24FF0000034
:10542000704710B500F0B5F849922480002070470D
:105430006FEA20007047000010F0004148BF404272
:10544000B0FA80F310FA03F2C3F19D030BD051EAD6
:10545000C35101EB1220530638BF704700F1010021
:1054600008BF20F001007047B0FA80F310FA03F291
:10547000C3F19D030AD0D90501EB1220530638BFB2
:10548000704700F1010008BF20F0010070470000E4
:105490004FF47F0C1CEAD0121EBF1CEAD11392EA13
:1054A0000C0F93EA0C0F00F0478090EA010F48BF01
:1054B00042F480724FF0004C4CEA00204CEA01218B
:1054C00002EB0302A0FB0113A2F50002002918BFA2
:1054D00043F001035B0028BF4FEA330342EB224253
:1054E0005FEA132C4CEBC2502EBFBCEB436FB2F5FE
:1054F0007C0F70474FEA036CBCF1004F08BF20F0EF
:105500000100B2F57C0F38BF70470BD582F0FF0267
:1055100012F5803FC8BF704700F1C040D8BF00F00F
:105520000040704700F5000C5FEA4C0C48BF704724
:10553000B0F1C04000F073B890EA010F0CEAD1134B
:1055400048BF42F48072624538BF634504D280EAA6
:10555000010000F00040704710B500F01AF800BFDD
:105560008900013E00F007B800F009B85FEA410C7D
:105570005FEA1C6C08D080EA010000F050B85FEAD6
:10558000400C5FEA1C6CF6D14FF00040A0F58000A3
:1055900070470EF1020E2EF0030E5EF8044B24420B
:1055A00004D44FEA4102B2F17F4F11D84FEA4003D1
:1055B000B3F17F4F0CD80ED14FEAD07CB2F17F4FC0
:1055C0000CEB4C0C0CF1020C08BF4CEBD17C04E052
:1055D0004FF0080C01E04FEAD17C0CEB4C0324FAAD
:1055E00003F404F00704B4F1040C06D20EEB840CAF
:1055F000BDE810404CF0010C6047DFE80CF00708F4
:1056000002024FF00040A0F5800010BD08464200A5
:1056100018BFD2F1807288BF00F0004010BDFF219A
:1056200041EAD050C005704790EA010F48BF81F0B1
:1056300000413FF5C4AD421A04D882F00042A0EB0D
:10564000020011444FEAD0524FF07F4C1CEA410F48
:10565000A2EBD15318BF9CEA026F4AD04FF0004C26
:105660004CEA00204CEA012121FA03FCB0EB0C0CBF
:105670000FD412F0FE0F36D05FEA4C001DD5001299
:1056800040EBC25038BF70471CF03F0F18BF704747
:105690000BE0A2F101025FEA1C2040EBC25038BFD0
:1056A00070471CF07F0F18BF7047C3F1200399406B
:1056B00014BF401E20F00100704780084FEA1223FB
:1056C00008BF7047B0FA80FCA2EB0C02CCF1280CAA
:1056D00060FA0CF093EA122F04BF00EBC25070473F
:1056E0004FEAC3707047130A5FEADC1008BF7047C7
:1056F000F6E79CEA026F04D010EA5C0F08BF0020B6
:10570000704710B5FFF745FF40DFF63E81F00040DF
:105710007047FBF712BBFBF747BCCD16BB00000080
:1057200000000000000000003031323334353637DD
:1057300038394142434445464030580030313233D5
:1057400034353637383961626364656640307800D5
:10575000040000080000000000000002000100003A
:10576000103031323334353637383961626364652D
:10577000667870003031323334353637383941424B
:10578000434445465850000002400000000000A07D
:105790000000000005400000000000C800000000FC
:1057A0000C4000000000409C000000001940000078
:1057B0000020BCBE0000000034400000BFC91B8EAA
:1057C00000000004B5400000504BCFD06607E2CF88
:1057D000010000006C4100003E8251AADFEEA734B8
:1057E00001000000D9420000DCB5A0E23A301F976A
:1057F000FFFFFFFFB4450000FD25A0C8E9A3C14F8E
:10580000FFFFFFFFFF3F00000000008000000000DE
:10581000FF3F000000000080000000006859000801
:10582000000000207402000028010008E45900086C
:1058300074020020C42F0000840100081C00000036
:1058400043000000F8FFFFFF0C0000000E00000006
:105850000F0000002E0000001001000043000000B7
:10586000F8FFFFFF00404040404040404040414181
:105870004141414040404040404040404040404025
:1058800040404040400502020202020202020202BF
:1058900002020202022020202020202020202002BC
:1058A000020202020202909090909090101010104C
:1058B00010101010101010101010101010101010E8
:1058C000020202020202888888888888080808087C
:1058D0000808080808080808080808080808080848
:1058E0000202020240000000000000000000000070
:1058F00000000000000000000000000000000000A8
:105900000000000000000000000000000000000097
:105910000000000000000000000000000000000087
:105920000000000000000000000000000000000077
:105930000000000000000000000000000000000067
:105940000000000000000000000000000000000057
:105950000000000000000000000000000000000047
:105960000000000000000000111538014058150229
:10597000407402122062018B74030C5112442B40BC
:105980006C249A0424DA0524011E12013A2D2D13E9
:105990000A017CFFFFFF153AC8172915110A106488
:1059A0001521C92A1501011E021303FF1A32191904
:1059B00006D9153958AAFF1549272DFFFFAD013328
:1059C00011F92A9915391239548915693FC92A09DB
:1059D000B03F0B112D011552C81B0A0112193E01CF
:0459E0006E00000055
:04000005080002915C
:00000001FF
